{"contracts/game.sol":{"Game":{"abi":[{"inputs":[{"internalType":"uint256","name":"_price","type":"uint256"}],"stateMutability":"nonpayable","type":"constructor"},{"inputs":[],"name":"blueTeam","outputs":[{"internalType":"contract SomeTeam","name":"","type":"address"}],"stateMutability":"view","type":"function"},{"inputs":[{"internalType":"address","name":"","type":"address"}],"name":"blueTeamMembers","outputs":[{"internalType":"bool","name":"","type":"bool"}],"stateMutability":"view","type":"function"},{"inputs":[{"internalType":"address","name":"","type":"address"}],"name":"blueTeamTokens","outputs":[{"internalType":"uint256","name":"","type":"uint256"}],"stateMutability":"view","type":"function"},{"inputs":[],"name":"concludeRound","outputs":[],"stateMutability":"nonpayable","type":"function"},{"inputs":[],"name":"greenTeam","outputs":[{"internalType":"contract SomeTeam","name":"","type":"address"}],"stateMutability":"view","type":"function"},{"inputs":[{"internalType":"address","name":"","type":"address"}],"name":"greenTeamMembers","outputs":[{"internalType":"bool","name":"","type":"bool"}],"stateMutability":"view","type":"function"},{"inputs":[{"internalType":"address","name":"","type":"address"}],"name":"greenTeamTokens","outputs":[{"internalType":"uint256","name":"","type":"uint256"}],"stateMutability":"view","type":"function"},{"inputs":[],"name":"joinBlueTeam","outputs":[],"stateMutability":"nonpayable","type":"function"},{"inputs":[],"name":"joinGreenTeam","outputs":[],"stateMutability":"nonpayable","type":"function"},{"inputs":[],"name":"joinRedTeam","outputs":[],"stateMutability":"nonpayable","type":"function"},{"inputs":[],"name":"joinYellowTeam","outputs":[],"stateMutability":"nonpayable","type":"function"},{"inputs":[],"name":"leaveBlueTeam","outputs":[],"stateMutability":"nonpayable","type":"function"},{"inputs":[],"name":"leaveGreenTeam","outputs":[],"stateMutability":"nonpayable","type":"function"},{"inputs":[],"name":"leaveRedTeam","outputs":[],"stateMutability":"nonpayable","type":"function"},{"inputs":[],"name":"leaveYellowTeam","outputs":[],"stateMutability":"nonpayable","type":"function"},{"inputs":[],"name":"owner","outputs":[{"internalType":"address payable","name":"","type":"address"}],"stateMutability":"view","type":"function"},{"inputs":[],"name":"pot","outputs":[{"internalType":"uint256","name":"","type":"uint256"}],"stateMutability":"view","type":"function"},{"inputs":[],"name":"price","outputs":[{"internalType":"uint256","name":"","type":"uint256"}],"stateMutability":"view","type":"function"},{"inputs":[{"internalType":"uint256","name":"amount","type":"uint256"}],"name":"purchaseKey","outputs":[],"stateMutability":"payable","type":"function"},{"inputs":[],"name":"recentFanout1","outputs":[{"internalType":"address","name":"","type":"address"}],"stateMutability":"view","type":"function"},{"inputs":[],"name":"recentFanout2","outputs":[{"internalType":"address","name":"","type":"address"}],"stateMutability":"view","type":"function"},{"inputs":[],"name":"recentFanout3","outputs":[{"internalType":"address","name":"","type":"address"}],"stateMutability":"view","type":"function"},{"inputs":[],"name":"recentFanout4","outputs":[{"internalType":"address","name":"","type":"address"}],"stateMutability":"view","type":"function"},{"inputs":[],"name":"redTeam","outputs":[{"internalType":"contract SomeTeam","name":"","type":"address"}],"stateMutability":"view","type":"function"},{"inputs":[{"internalType":"address","name":"","type":"address"}],"name":"redTeamMembers","outputs":[{"internalType":"bool","name":"","type":"bool"}],"stateMutability":"view","type":"function"},{"inputs":[{"internalType":"address","name":"","type":"address"}],"name":"redTeamTokens","outputs":[{"internalType":"uint256","name":"","type":"uint256"}],"stateMutability":"view","type":"function"},{"inputs":[{"internalType":"address","name":"r","type":"address"},{"internalType":"address","name":"b","type":"address"},{"internalType":"address","name":"g","type":"address"},{"internalType":"address","name":"y","type":"address"}],"name":"setTeams","outputs":[],"stateMutability":"nonpayable","type":"function"},{"inputs":[{"internalType":"uint256","name":"_3","type":"uint256"},{"internalType":"uint256","name":"amount","type":"uint256"},{"internalType":"uint256","name":"_4","type":"uint256"}],"name":"stakeBlueTeamTokens","outputs":[],"stateMutability":"nonpayable","type":"function"},{"inputs":[{"internalType":"uint256","name":"_3","type":"uint256"},{"internalType":"uint256","name":"amount","type":"uint256"},{"internalType":"uint256","name":"_4","type":"uint256"}],"name":"stakeBlueTeamTokensDef","outputs":[],"stateMutability":"nonpayable","type":"function"},{"inputs":[{"internalType":"uint256","name":"_3","type":"uint256"},{"internalType":"uint256","name":"amount","type":"uint256"},{"internalType":"uint256","name":"_4","type":"uint256"}],"name":"stakeGreenTeamTokens","outputs":[],"stateMutability":"nonpayable","type":"function"},{"inputs":[{"internalType":"uint256","name":"_3","type":"uint256"},{"internalType":"uint256","name":"amount","type":"uint256"},{"internalType":"uint256","name":"_4","type":"uint256"}],"name":"stakeGreenTeamTokensDef","outputs":[],"stateMutability":"nonpayable","type":"function"},{"inputs":[{"internalType":"uint256","name":"_3","type":"uint256"},{"internalType":"uint256","name":"amount","type":"uint256"},{"internalType":"uint256","name":"_4","type":"uint256"}],"name":"stakeRedTeamTokens","outputs":[],"stateMutability":"nonpayable","type":"function"},{"inputs":[{"internalType":"uint256","name":"_3","type":"uint256"},{"internalType":"uint256","name":"amount","type":"uint256"},{"internalType":"uint256","name":"_4","type":"uint256"}],"name":"stakeRedTeamTokensDef","outputs":[],"stateMutability":"nonpayable","type":"function"},{"inputs":[{"internalType":"uint256","name":"_3","type":"uint256"},{"internalType":"uint256","name":"amount","type":"uint256"},{"internalType":"uint256","name":"_4","type":"uint256"}],"name":"stakeYellowTeamTokens","outputs":[],"stateMutability":"nonpayable","type":"function"},{"inputs":[{"internalType":"uint256","name":"_3","type":"uint256"},{"internalType":"uint256","name":"amount","type":"uint256"},{"internalType":"uint256","name":"_4","type":"uint256"}],"name":"stakeYellowTeamTokensDef","outputs":[],"stateMutability":"nonpayable","type":"function"},{"inputs":[],"name":"timer","outputs":[{"internalType":"uint256","name":"","type":"uint256"}],"stateMutability":"view","type":"function"},{"inputs":[],"name":"withdraw","outputs":[],"stateMutability":"nonpayable","type":"function"},{"inputs":[],"name":"yellowTeam","outputs":[{"internalType":"contract SomeTeam","name":"","type":"address"}],"stateMutability":"view","type":"function"},{"inputs":[{"internalType":"address","name":"","type":"address"}],"name":"yellowTeamMembers","outputs":[{"internalType":"bool","name":"","type":"bool"}],"stateMutability":"view","type":"function"},{"inputs":[{"internalType":"address","name":"","type":"address"}],"name":"yellowTeamTokens","outputs":[{"internalType":"uint256","name":"","type":"uint256"}],"stateMutability":"view","type":"function"},{"stateMutability":"payable","type":"receive"}],"evm":{"bytecode":{"linkReferences":{},"object":"60806040526000600455600060055560006006556000600755600060085560006009556000600a556000600b5560006015556000601655600060175560006018553480156200004d57600080fd5b5060405162006865380380620068658339810160408190526200007091620000a4565b60008190556010819055600380546001600160a01b031916331790556200009a4261012c620000d8565b60025550620000f3565b600060208284031215620000bb57620000bb600080fd5b5051919050565b634e487b7160e01b600052601160045260246000fd5b60008219821115620000ee57620000ee620000c2565b500190565b61676280620001036000396000f3fe608060405260043610620002f75760003560e01c806373d726d0116200018b578063c4a97fce11620000db578063ecd841631162000089578063f1348ba6116200006c578063f1348ba61462000866578063f7586795146200087e578063fdd4a31714620008b257600080fd5b8063ecd84163146200081f578063ed0bee5c146200084457600080fd5b8063dca32f5a11620000be578063dca32f5a14620007c0578063e201cf4c14620007e2578063eb94893b14620007fa57600080fd5b8063c4a97fce1462000783578063d4114afb14620007a857600080fd5b80638f8022e31162000139578063a5e2fb5b116200011c578063a5e2fb5b146200070b578063af91cdc11462000730578063b93e6788146200075257600080fd5b80638f8022e314620006ce578063a035b1fe14620006f357600080fd5b80637df72a66116200016e5780637df72a66146200066f57806388c9cb3c14620006945780638da5cb5b14620006ac57600080fd5b806373d726d01462000635578063740e820d146200064d57600080fd5b80633d9553ee11620002475780635044447611620001f55780635d0864a711620001d85780635d0864a714620005ca5780636d4885d114620005ec578063712981e4146200061d57600080fd5b806350444476146200059b578063567bcf1314620005b357600080fd5b806349e0a8ea116200022a57806349e0a8ea146200051b5780634ba2363a146200054f5780634f489743146200056757600080fd5b80633d9553ee14620004c557806341eb4f8214620004ea57600080fd5b80632a18c2fa11620002a5578063301f9e801162000288578063301f9e80146200047057806331e1afa714620004955780633ccfd60b14620004ad57600080fd5b80632a18c2fa146200041a5780632fff91c9146200043f57600080fd5b80631aee4ea311620002da5780631aee4ea314620003a55780632430522914620003bf57806324ba7e3d14620003d757600080fd5b80630eb5b32b146200032b578063198c6845146200037457600080fd5b366200032657600034116200030b57600080fd5b34600160008282546200031f919062005a95565b9091555050005b600080fd5b3480156200033857600080fd5b506200035c6200034a36600462005ae7565b601b6020526000908152604090205481565b6040516200036b919062005b1c565b60405180910390f35b3480156200038157600080fd5b50600c5462000396906001600160a01b031681565b6040516200036b919062005b76565b348015620003b257600080fd5b50620003bd620008d4565b005b348015620003cc57600080fd5b50620003bd62000923565b348015620003e457600080fd5b506200040b620003f636600462005ae7565b60146020526000908152604090205460ff1681565b6040516200036b919062005b8f565b3480156200042757600080fd5b50620003bd6200043936600462005bb3565b6200096b565b3480156200044c57600080fd5b5060205462000461906001600160a01b031681565b6040516200036b919062005c16565b3480156200047d57600080fd5b50620003bd6200048f36600462005bb3565b62000acd565b348015620004a257600080fd5b50620003bd62000bf6565b348015620004ba57600080fd5b50620003bd62000c3a565b348015620004d257600080fd5b50620003bd620004e436600462005bb3565b62000c8f565b348015620004f757600080fd5b506200035c6200050936600462005ae7565b60196020526000908152604090205481565b3480156200052857600080fd5b506200040b6200053a36600462005ae7565b60116020526000908152604090205460ff1681565b3480156200055c57600080fd5b506200035c60015481565b3480156200057457600080fd5b506200040b6200058636600462005ae7565b60126020526000908152604090205460ff1681565b348015620005a857600080fd5b50620003bd62000db8565b620003bd620005c436600462005c26565b62000e00565b348015620005d757600080fd5b50601d5462000461906001600160a01b031681565b348015620005f957600080fd5b506200035c6200060b36600462005ae7565b601c6020526000908152604090205481565b3480156200062a57600080fd5b50620003bd62001286565b3480156200064257600080fd5b50620003bd620012ca565b3480156200065a57600080fd5b50600d5462000396906001600160a01b031681565b3480156200067c57600080fd5b50620003bd6200068e36600462005bb3565b62001312565b348015620006a157600080fd5b506200035c60025481565b348015620006b957600080fd5b5060035462000461906001600160a01b031681565b348015620006db57600080fd5b50620003bd620006ed36600462005bb3565b6200143b565b3480156200070057600080fd5b506200035c60005481565b3480156200071857600080fd5b50620003bd6200072a36600462005c4b565b6200150c565b3480156200073d57600080fd5b50601f5462000461906001600160a01b031681565b3480156200075f57600080fd5b506200035c6200077136600462005ae7565b601a6020526000908152604090205481565b3480156200079057600080fd5b50620003bd620007a236600462005bb3565b62001581565b348015620007b557600080fd5b50620003bd62001652565b348015620007cd57600080fd5b50600e5462000396906001600160a01b031681565b348015620007ef57600080fd5b50620003bd6200582e565b3480156200080757600080fd5b50620003bd6200081936600462005bb3565b62005872565b3480156200082c57600080fd5b50620003bd6200083e36600462005bb3565b62005943565b3480156200085157600080fd5b50600f5462000396906001600160a01b031681565b3480156200087357600080fd5b50620003bd62005a14565b3480156200088b57600080fd5b506200040b6200089d36600462005ae7565b60136020526000908152604090205460ff1681565b348015620008bf57600080fd5b50601e5462000461906001600160a01b031681565b3360009081526014602052604090205460ff1615620008f257600080fd5b336000908152601460205260408120805460ff1916600117905560188054916200091c8362005cb9565b9190505550565b3360009081526011602052604090205460ff16156200094157600080fd5b336000908152601160205260408120805460ff1916600117905560158054916200091c8362005cb9565b3360009081526014602052604090205460ff166200098857600080fd5b600082116200099657600080fd5b600e546040516370a0823160e01b815283916001600160a01b0316906370a0823190620009c890339060040162005c16565b60206040518083038186803b158015620009e157600080fd5b505afa158015620009f6573d6000803e3d6000fd5b505050506040513d601f19601f8201168201806040525081019062000a1c919062005ce4565b101562000a2857600080fd5b816007600082825462000a3c919062005a95565b9091555050600e546002546040517fcb8bf5590000000000000000000000000000000000000000000000000000000081526001600160a01b039092169163cb8bf5599162000a94913391309188919060040162005d09565b600060405180830381600087803b15801562000aaf57600080fd5b505af115801562000ac4573d6000803e3d6000fd5b50505050505050565b3360009081526012602052604090205460ff1662000aea57600080fd5b6000821162000af857600080fd5b600d546040516370a0823160e01b815283916001600160a01b0316906370a082319062000b2a90339060040162005c16565b60206040518083038186803b15801562000b4357600080fd5b505afa15801562000b58573d6000803e3d6000fd5b505050506040513d601f19601f8201168201806040525081019062000b7e919062005ce4565b101562000b8a57600080fd5b816005600082825462000b9e919062005a95565b9091555050600d546002546040517fcb8bf5590000000000000000000000000000000000000000000000000000000081526001600160a01b039092169163cb8bf5599162000a94913391309188919060040162005d09565b3360009081526012602052604090205460ff1662000c1357600080fd5b336000908152601260205260408120805460ff1916905560168054916200091c8362005d4f565b6003546001600160a01b0316331462000c5257600080fd5b6003546040516001600160a01b03909116904780156108fc02916000818181858888f1935050505015801562000c8c573d6000803e3d6000fd5b50565b3360009081526011602052604090205460ff1662000cac57600080fd5b6000821162000cba57600080fd5b600c546040516370a0823160e01b815283916001600160a01b0316906370a082319062000cec90339060040162005c16565b60206040518083038186803b15801562000d0557600080fd5b505afa15801562000d1a573d6000803e3d6000fd5b505050506040513d601f19601f8201168201806040525081019062000d40919062005ce4565b101562000d4c57600080fd5b816008600082825462000d60919062005a95565b9091555050600c546002546040517fcb8bf5590000000000000000000000000000000000000000000000000000000081526001600160a01b039092169163cb8bf5599162000a94913391309188919060040162005d09565b3360009081526013602052604090205460ff161562000dd657600080fd5b336000908152601360205260408120805460ff1916600117905560178054916200091c8362005cb9565b6000341162000e0e57600080fd5b80341462000e1b57600080fd5b600054341462000e2a57600080fd5b600254421062000e3957600080fd5b3360009081526011602052604090205460ff168062000e6757503360009081526012602052604090205460ff165b8062000e8257503360009081526013602052604090205460ff165b8062000e9d57503360009081526014602052604090205460ff165b62000ea757600080fd5b3360009081526011602052604090205460ff161562000fa6576005546004541015801562000ed9575060065460045410155b801562000eea575060075460045410155b62000ef457600080fd5b346001600082825462000f08919062005a95565b9091555050600c546040517f910bdaeb0000000000000000000000000000000000000000000000000000000081526001600160a01b039091169063910bdaeb9062000f599060039060040162005d82565b600060405180830381600087803b15801562000f7457600080fd5b505af115801562000f89573d6000803e3d6000fd5b505050504261012c62000f9d919062005a95565b60025562001261565b3360009081526012602052604090205460ff1615620010a4576004546005541015801562000fd8575060065460055410155b801562000fe9575060075460055410155b62000ff357600080fd5b346001600082825462001007919062005a95565b909155506200101b90504261012c62005a95565b600255600d546040517f910bdaeb0000000000000000000000000000000000000000000000000000000081526001600160a01b039091169063910bdaeb906200106a9060039060040162005d82565b600060405180830381600087803b1580156200108557600080fd5b505af11580156200109a573d6000803e3d6000fd5b5050505062001261565b3360009081526013602052604090205460ff1615620011685760045460065410158015620010d6575060055460065410155b8015620010e7575060075460065410155b620010f157600080fd5b346001600082825462001105919062005a95565b909155506200111990504261012c62005a95565b600255600f546040517f910bdaeb0000000000000000000000000000000000000000000000000000000081526001600160a01b039091169063910bdaeb906200106a9060039060040162005d82565b3360009081526014602052604090205460ff16156200126157600454600754101580156200119a575060055460075410155b8015620011ab575060065460075410155b620011b557600080fd5b3460016000828254620011c9919062005a95565b90915550620011dd90504261012c62005a95565b600255600e546040517f910bdaeb0000000000000000000000000000000000000000000000000000000081526001600160a01b039091169063910bdaeb906200122c9060039060040162005d82565b600060405180830381600087803b1580156200124757600080fd5b505af11580156200125c573d6000803e3d6000fd5b505050505b6064600054606562001274919062005d92565b62001280919062005de3565b60005550565b3360009081526013602052604090205460ff16620012a357600080fd5b336000908152601360205260408120805460ff1916905560178054916200091c8362005d4f565b3360009081526012602052604090205460ff1615620012e857600080fd5b336000908152601260205260408120805460ff1916600117905560168054916200091c8362005cb9565b3360009081526013602052604090205460ff166200132f57600080fd5b600082116200133d57600080fd5b600f546040516370a0823160e01b815283916001600160a01b0316906370a08231906200136f90339060040162005c16565b60206040518083038186803b1580156200138857600080fd5b505afa1580156200139d573d6000803e3d6000fd5b505050506040513d601f19601f82011682018060405250810190620013c3919062005ce4565b1015620013cf57600080fd5b8160066000828254620013e3919062005a95565b9091555050600f546002546040517fcb8bf5590000000000000000000000000000000000000000000000000000000081526001600160a01b039092169163cb8bf5599162000a94913391309188919060040162005d09565b3360009081526013602052604090205460ff166200145857600080fd5b600082116200146657600080fd5b600f546040516370a0823160e01b815283916001600160a01b0316906370a08231906200149890339060040162005c16565b60206040518083038186803b158015620014b157600080fd5b505afa158015620014c6573d6000803e3d6000fd5b505050506040513d601f19601f82011682018060405250810190620014ec919062005ce4565b1015620014f857600080fd5b81600a6000828254620013e3919062005a95565b6003546001600160a01b031633146200152457600080fd5b600c80546001600160a01b0395861673ffffffffffffffffffffffffffffffffffffffff1991821617909155600d805494861694821694909417909355600f805492851692841692909217909155600e8054919093169116179055565b3360009081526011602052604090205460ff166200159e57600080fd5b60008211620015ac57600080fd5b600c546040516370a0823160e01b815283916001600160a01b0316906370a0823190620015de90339060040162005c16565b60206040518083038186803b158015620015f757600080fd5b505afa1580156200160c573d6000803e3d6000fd5b505050506040513d601f19601f8201168201806040525081019062001632919062005ce4565b10156200163e57600080fd5b816004600082825462000d60919062005a95565b6002544210156200166257600080fd5b600454156200193357600c60009054906101000a90046001600160a01b03166001600160a01b031663295b4e176040518163ffffffff1660e01b815260040160206040518083038186803b158015620016ba57600080fd5b505afa158015620016cf573d6000803e3d6000fd5b505050506040513d601f19601f82011682018060405250810190620016f5919062005e10565b6200193357600c546002546040517fc290d6910000000000000000000000000000000000000000000000000000000081526000928392839283926001600160a01b03169163c290d691916200174e919060040162005b1c565b608060405180830381600087803b1580156200176957600080fd5b505af11580156200177e573d6000803e3d6000fd5b505050506040513d601f19601f82011682018060405250810190620017a4919062005e42565b600c546040517f47b8400a00000000000000000000000000000000000000000000000000000000815294985092965090945092506001600160a01b0316906347b8400a90620017fe90879087908790879060040162005d09565b602060405180830381600087803b1580156200181957600080fd5b505af19250505080156200184c575060408051601f3d908101601f19168201909252620018499181019062005e10565b60015b6200192c573d8080156200187d576040519150601f19603f3d011682016040523d82523d6000602084013e62001882565b606091505b50600c546040517f9cbcc1a80000000000000000000000000000000000000000000000000000000081526001600160a01b0390911690639cbcc1a890620018ce90859060040162005b1c565b602060405180830381600087803b158015620018e957600080fd5b505af1158015620018fe573d6000803e3d6000fd5b505050506040513d601f19601f8201168201806040525081019062001924919062005e10565b50506200192e565b505b505050505b6005541562001c0457600d60009054906101000a90046001600160a01b03166001600160a01b031663295b4e176040518163ffffffff1660e01b815260040160206040518083038186803b1580156200198b57600080fd5b505afa158015620019a0573d6000803e3d6000fd5b505050506040513d601f19601f82011682018060405250810190620019c6919062005e10565b62001c0457600d546002546040517fc290d6910000000000000000000000000000000000000000000000000000000081526000928392839283926001600160a01b03169163c290d6919162001a1f919060040162005b1c565b608060405180830381600087803b15801562001a3a57600080fd5b505af115801562001a4f573d6000803e3d6000fd5b505050506040513d601f19601f8201168201806040525081019062001a75919062005e42565b600d546040517f47b8400a00000000000000000000000000000000000000000000000000000000815294985092965090945092506001600160a01b0316906347b8400a9062001acf90879087908790879060040162005d09565b602060405180830381600087803b15801562001aea57600080fd5b505af192505050801562001b1d575060408051601f3d908101601f1916820190925262001b1a9181019062005e10565b60015b62001bfd573d80801562001b4e576040519150601f19603f3d011682016040523d82523d6000602084013e62001b53565b606091505b50600d546040517f9cbcc1a80000000000000000000000000000000000000000000000000000000081526001600160a01b0390911690639cbcc1a89062001b9f90859060040162005b1c565b602060405180830381600087803b15801562001bba57600080fd5b505af115801562001bcf573d6000803e3d6000fd5b505050506040513d601f19601f8201168201806040525081019062001bf5919062005e10565b505062001bff565b505b505050505b6006541562001ed557600f60009054906101000a90046001600160a01b03166001600160a01b031663295b4e176040518163ffffffff1660e01b815260040160206040518083038186803b15801562001c5c57600080fd5b505afa15801562001c71573d6000803e3d6000fd5b505050506040513d601f19601f8201168201806040525081019062001c97919062005e10565b62001ed557600f546002546040517fc290d6910000000000000000000000000000000000000000000000000000000081526000928392839283926001600160a01b03169163c290d6919162001cf0919060040162005b1c565b608060405180830381600087803b15801562001d0b57600080fd5b505af115801562001d20573d6000803e3d6000fd5b505050506040513d601f19601f8201168201806040525081019062001d46919062005e42565b600f546040517f47b8400a00000000000000000000000000000000000000000000000000000000815294985092965090945092506001600160a01b0316906347b8400a9062001da090879087908790879060040162005d09565b602060405180830381600087803b15801562001dbb57600080fd5b505af192505050801562001dee575060408051601f3d908101601f1916820190925262001deb9181019062005e10565b60015b62001ece573d80801562001e1f576040519150601f19603f3d011682016040523d82523d6000602084013e62001e24565b606091505b50600f546040517f9cbcc1a80000000000000000000000000000000000000000000000000000000081526001600160a01b0390911690639cbcc1a89062001e7090859060040162005b1c565b602060405180830381600087803b15801562001e8b57600080fd5b505af115801562001ea0573d6000803e3d6000fd5b505050506040513d601f19601f8201168201806040525081019062001ec6919062005e10565b505062001ed0565b505b505050505b60075415620021a657600e60009054906101000a90046001600160a01b03166001600160a01b031663295b4e176040518163ffffffff1660e01b815260040160206040518083038186803b15801562001f2d57600080fd5b505afa15801562001f42573d6000803e3d6000fd5b505050506040513d601f19601f8201168201806040525081019062001f68919062005e10565b620021a657600e546002546040517fc290d6910000000000000000000000000000000000000000000000000000000081526000928392839283926001600160a01b03169163c290d6919162001fc1919060040162005b1c565b608060405180830381600087803b15801562001fdc57600080fd5b505af115801562001ff1573d6000803e3d6000fd5b505050506040513d601f19601f8201168201806040525081019062002017919062005e42565b600e546040517f47b8400a00000000000000000000000000000000000000000000000000000000815294985092965090945092506001600160a01b0316906347b8400a906200207190879087908790879060040162005d09565b602060405180830381600087803b1580156200208c57600080fd5b505af1925050508015620020bf575060408051601f3d908101601f19168201909252620020bc9181019062005e10565b60015b6200219f573d808015620020f0576040519150601f19603f3d011682016040523d82523d6000602084013e620020f5565b606091505b50600e546040517f9cbcc1a80000000000000000000000000000000000000000000000000000000081526001600160a01b0390911690639cbcc1a8906200214190859060040162005b1c565b602060405180830381600087803b1580156200215c57600080fd5b505af115801562002171573d6000803e3d6000fd5b505050506040513d601f19601f8201168201806040525081019062002197919062005e10565b5050620021a1565b505b505050505b60045415806200223b5750600c60009054906101000a90046001600160a01b03166001600160a01b031663295b4e176040518163ffffffff1660e01b815260040160206040518083038186803b1580156200220057600080fd5b505afa15801562002215573d6000803e3d6000fd5b505050506040513d601f19601f820116820180604052508101906200223b919062005e10565b8015620022d857506005541580620022d85750600d60009054906101000a90046001600160a01b03166001600160a01b031663295b4e176040518163ffffffff1660e01b815260040160206040518083038186803b1580156200229d57600080fd5b505afa158015620022b2573d6000803e3d6000fd5b505050506040513d601f19601f82011682018060405250810190620022d8919062005e10565b80156200237557506006541580620023755750600f60009054906101000a90046001600160a01b03166001600160a01b031663295b4e176040518163ffffffff1660e01b815260040160206040518083038186803b1580156200233a57600080fd5b505afa1580156200234f573d6000803e3d6000fd5b505050506040513d601f19601f8201168201806040525081019062002375919062005e10565b80156200241257506007541580620024125750600e60009054906101000a90046001600160a01b03166001600160a01b031663295b4e176040518163ffffffff1660e01b815260040160206040518083038186803b158015620023d757600080fd5b505afa158015620023ec573d6000803e3d6000fd5b505050506040513d601f19601f8201168201806040525081019062002412919062005e10565b156200582c5760008060008060006008546004541115620024415760019450806200243d8162005cb9565b9150505b6009546005541115620024625760019350806200245e8162005cb9565b9150505b600a546006541115620024835760019250806200247f8162005cb9565b9150505b600b546007541115620024a4576001915080620024a08162005cb9565b9150505b600c546040516370a0823160e01b8152737a250d5630b4cf539739df2c5dacb4c659f2488d916001600160a01b03169063095ea7b390839060029084906370a0823190620024f790309060040162005c16565b60206040518083038186803b1580156200251057600080fd5b505afa15801562002525573d6000803e3d6000fd5b505050506040513d601f19601f820116820180604052508101906200254b919062005ce4565b62002557919062005de3565b6040518363ffffffff1660e01b81526004016200257692919062005ea4565b602060405180830381600087803b1580156200259157600080fd5b505af1158015620025a6573d6000803e3d6000fd5b505050506040513d601f19601f82011682018060405250810190620025cc919062005e10565b50600d546040516370a0823160e01b81526001600160a01b039091169063095ea7b390839060029084906370a08231906200260c90309060040162005c16565b60206040518083038186803b1580156200262557600080fd5b505afa1580156200263a573d6000803e3d6000fd5b505050506040513d601f19601f8201168201806040525081019062002660919062005ce4565b6200266c919062005de3565b6040518363ffffffff1660e01b81526004016200268b92919062005ea4565b602060405180830381600087803b158015620026a657600080fd5b505af1158015620026bb573d6000803e3d6000fd5b505050506040513d601f19601f82011682018060405250810190620026e1919062005e10565b50600f546040516370a0823160e01b81526001600160a01b039091169063095ea7b390839060029084906370a08231906200272190309060040162005c16565b60206040518083038186803b1580156200273a57600080fd5b505afa1580156200274f573d6000803e3d6000fd5b505050506040513d601f19601f8201168201806040525081019062002775919062005ce4565b62002781919062005de3565b6040518363ffffffff1660e01b8152600401620027a092919062005ea4565b602060405180830381600087803b158015620027bb57600080fd5b505af1158015620027d0573d6000803e3d6000fd5b505050506040513d601f19601f82011682018060405250810190620027f6919062005e10565b50600e546040516370a0823160e01b81526001600160a01b039091169063095ea7b390839060029084906370a08231906200283690309060040162005c16565b60206040518083038186803b1580156200284f57600080fd5b505afa15801562002864573d6000803e3d6000fd5b505050506040513d601f19601f820116820180604052508101906200288a919062005ce4565b62002896919062005de3565b6040518363ffffffff1660e01b8152600401620028b592919062005ea4565b602060405180830381600087803b158015620028d057600080fd5b505af1158015620028e5573d6000803e3d6000fd5b505050506040513d601f19601f820116820180604052508101906200290b919062005e10565b506001600160a01b03811663f305d71960046200292a600a4762005de3565b62002936919062005de3565b600c546040516370a0823160e01b81526001600160a01b039091169060029082906370a08231906200296d90309060040162005c16565b60206040518083038186803b1580156200298657600080fd5b505afa1580156200299b573d6000803e3d6000fd5b505050506040513d601f19601f82011682018060405250810190620029c1919062005ce4565b620029cd919062005de3565b60008030426040518863ffffffff1660e01b8152600401620029f59695949392919062005eca565b6060604051808303818588803b15801562002a0f57600080fd5b505af115801562002a24573d6000803e3d6000fd5b50505050506040513d601f19601f8201168201806040525081019062002a4b919062005f30565b5050506001600160a01b03811663f305d719600462002a6c600a4762005de3565b62002a78919062005de3565b600d546040516370a0823160e01b81526001600160a01b039091169060029082906370a082319062002aaf90309060040162005c16565b60206040518083038186803b15801562002ac857600080fd5b505afa15801562002add573d6000803e3d6000fd5b505050506040513d601f19601f8201168201806040525081019062002b03919062005ce4565b62002b0f919062005de3565b60008030426040518863ffffffff1660e01b815260040162002b379695949392919062005eca565b6060604051808303818588803b15801562002b5157600080fd5b505af115801562002b66573d6000803e3d6000fd5b50505050506040513d601f19601f8201168201806040525081019062002b8d919062005f30565b5050506001600160a01b03811663f305d719600462002bae600a4762005de3565b62002bba919062005de3565b600f546040516370a0823160e01b81526001600160a01b039091169060029082906370a082319062002bf190309060040162005c16565b60206040518083038186803b15801562002c0a57600080fd5b505afa15801562002c1f573d6000803e3d6000fd5b505050506040513d601f19601f8201168201806040525081019062002c45919062005ce4565b62002c51919062005de3565b60008030426040518863ffffffff1660e01b815260040162002c799695949392919062005eca565b6060604051808303818588803b15801562002c9357600080fd5b505af115801562002ca8573d6000803e3d6000fd5b50505050506040513d601f19601f8201168201806040525081019062002ccf919062005f30565b5050506001600160a01b03811663f305d719600462002cf0600a4762005de3565b62002cfc919062005de3565b600e546040516370a0823160e01b81526001600160a01b039091169060029082906370a082319062002d3390309060040162005c16565b60206040518083038186803b15801562002d4c57600080fd5b505afa15801562002d61573d6000803e3d6000fd5b505050506040513d601f19601f8201168201806040525081019062002d87919062005ce4565b62002d93919062005de3565b60008030426040518863ffffffff1660e01b815260040162002dbb9695949392919062005eca565b6060604051808303818588803b15801562002dd557600080fd5b505af115801562002dea573d6000803e3d6000fd5b50505050506040513d601f19601f8201168201806040525081019062002e11919062005f30565b505050816200382657600c546015546040516370a0823160e01b81526000926001600160a01b031691309160029084906370a082319062002e5790869060040162005c16565b60206040518083038186803b15801562002e7057600080fd5b505afa15801562002e85573d6000803e3d6000fd5b505050506040513d601f19601f8201168201806040525081019062002eab919062005ce4565b62002eb7919062005de3565b60405162002ec59062005a58565b62002ed4949392919062005d09565b604051809103906000f08015801562002ef1573d6000803e3d6000fd5b5090506001600160a01b038116600462002f0d60644762005de3565b62002f1a90601e62005d92565b62002f26919062005de3565b604051615e4a91906000818181858888f193505050503d806000811462002f6a576040519150601f19603f3d011682016040523d82523d6000602084013e62002f6f565b606091505b5050601d805473ffffffffffffffffffffffffffffffffffffffff19166001600160a01b0384811691909117909155600c546040516370a0823160e01b81529116915063095ea7b390839083906370a082319062002fd290309060040162005c16565b60206040518083038186803b15801562002feb57600080fd5b505afa15801562003000573d6000803e3d6000fd5b505050506040513d601f19601f8201168201806040525081019062003026919062005ce4565b6040518363ffffffff1660e01b81526004016200304592919062005ea4565b602060405180830381600087803b1580156200306057600080fd5b505af115801562003075573d6000803e3d6000fd5b505050506040513d601f19601f820116820180604052508101906200309b919062005e10565b50600d546016546040516370a0823160e01b81526000926001600160a01b031691309160029084906370a0823190620030d990869060040162005c16565b60206040518083038186803b158015620030f257600080fd5b505afa15801562003107573d6000803e3d6000fd5b505050506040513d601f19601f820116820180604052508101906200312d919062005ce4565b62003139919062005de3565b604051620031479062005a58565b62003156949392919062005d09565b604051809103906000f08015801562003173573d6000803e3d6000fd5b50601e805473ffffffffffffffffffffffffffffffffffffffff19166001600160a01b0383169081179091559091506004620031b160644762005de3565b620031be90601e62005d92565b620031ca919062005de3565b604051615e4a91906000818181858888f193505050503d80600081146200320e576040519150601f19603f3d011682016040523d82523d6000602084013e62003213565b606091505b5050600d546040516370a0823160e01b81526001600160a01b03909116915063095ea7b390839083906370a08231906200325290309060040162005c16565b60206040518083038186803b1580156200326b57600080fd5b505afa15801562003280573d6000803e3d6000fd5b505050506040513d601f19601f82011682018060405250810190620032a6919062005ce4565b6040518363ffffffff1660e01b8152600401620032c592919062005ea4565b602060405180830381600087803b158015620032e057600080fd5b505af1158015620032f5573d6000803e3d6000fd5b505050506040513d601f19601f820116820180604052508101906200331b919062005e10565b50600f546017546040516370a0823160e01b81526000926001600160a01b031691309160029084906370a08231906200335990869060040162005c16565b60206040518083038186803b1580156200337257600080fd5b505afa15801562003387573d6000803e3d6000fd5b505050506040513d601f19601f82011682018060405250810190620033ad919062005ce4565b620033b9919062005de3565b604051620033c79062005a58565b620033d6949392919062005d09565b604051809103906000f080158015620033f3573d6000803e3d6000fd5b50601f805473ffffffffffffffffffffffffffffffffffffffff19166001600160a01b03831690811790915590915060046200343160644762005de3565b6200343e90601e62005d92565b6200344a919062005de3565b604051615e4a91906000818181858888f193505050503d80600081146200348e576040519150601f19603f3d011682016040523d82523d6000602084013e62003493565b606091505b5050600f546040516370a0823160e01b81526001600160a01b03909116915063095ea7b390839083906370a0823190620034d290309060040162005c16565b60206040518083038186803b158015620034eb57600080fd5b505afa15801562003500573d6000803e3d6000fd5b505050506040513d601f19601f8201168201806040525081019062003526919062005ce4565b6040518363ffffffff1660e01b81526004016200354592919062005ea4565b602060405180830381600087803b1580156200356057600080fd5b505af115801562003575573d6000803e3d6000fd5b505050506040513d601f19601f820116820180604052508101906200359b919062005e10565b50600e546018546040516370a0823160e01b81526000926001600160a01b031691309160029084906370a0823190620035d990869060040162005c16565b60206040518083038186803b158015620035f257600080fd5b505afa15801562003607573d6000803e3d6000fd5b505050506040513d601f19601f820116820180604052508101906200362d919062005ce4565b62003639919062005de3565b604051620036479062005a58565b62003656949392919062005d09565b604051809103906000f08015801562003673573d6000803e3d6000fd5b506020805473ffffffffffffffffffffffffffffffffffffffff19166001600160a01b0383169081179091559091506004620036b160644762005de3565b620036be90601e62005d92565b620036ca919062005de3565b604051615e4a91906000818181858888f193505050503d80600081146200370e576040519150601f19603f3d011682016040523d82523d6000602084013e62003713565b606091505b5050600e546040516370a0823160e01b81526001600160a01b03909116915063095ea7b390839083906370a08231906200375290309060040162005c16565b60206040518083038186803b1580156200376b57600080fd5b505afa15801562003780573d6000803e3d6000fd5b505050506040513d601f19601f82011682018060405250810190620037a6919062005ce4565b6040518363ffffffff1660e01b8152600401620037c592919062005ea4565b602060405180830381600087803b158015620037e057600080fd5b505af1158015620037f5573d6000803e3d6000fd5b505050506040513d601f19601f820116820180604052508101906200381b919062005e10565b5050505050620057c0565b816001141562004d94578580156200383c575084155b801562003847575083155b801562003852575082155b1562003f1b57600c546015546040516370a0823160e01b81526000926001600160a01b031691309160029084906370a08231906200389590869060040162005c16565b60206040518083038186803b158015620038ae57600080fd5b505afa158015620038c3573d6000803e3d6000fd5b505050506040513d601f19601f82011682018060405250810190620038e9919062005ce4565b620038f5919062005de3565b604051620039039062005a58565b62003912949392919062005d09565b604051809103906000f0801580156200392f573d6000803e3d6000fd5b5090506001600160a01b0381166200394960644762005de3565b6200395690605062005d92565b604051615e4a91906000818181858888f193505050503d80600081146200399a576040519150601f19603f3d011682016040523d82523d6000602084013e6200399f565b606091505b5050601d805473ffffffffffffffffffffffffffffffffffffffff19166001600160a01b0384811691909117909155600c546040516370a0823160e01b81529116915063095ea7b390839083906370a082319062003a0290309060040162005c16565b60206040518083038186803b15801562003a1b57600080fd5b505afa15801562003a30573d6000803e3d6000fd5b505050506040513d601f19601f8201168201806040525081019062003a56919062005ce4565b6040518363ffffffff1660e01b815260040162003a7592919062005ea4565b602060405180830381600087803b15801562003a9057600080fd5b505af115801562003aa5573d6000803e3d6000fd5b505050506040513d601f19601f8201168201806040525081019062003acb919062005e10565b50600d546040516370a0823160e01b81526000916001600160a01b0316906370a082319062003aff90309060040162005c16565b60206040518083038186803b15801562003b1857600080fd5b505afa15801562003b2d573d6000803e3d6000fd5b505050506040513d601f19601f8201168201806040525081019062003b53919062005ce4565b111562003c3b57600d546040516370a0823160e01b81526001600160a01b03909116906342966c689082906370a082319062003b9490309060040162005c16565b60206040518083038186803b15801562003bad57600080fd5b505afa15801562003bc2573d6000803e3d6000fd5b505050506040513d601f19601f8201168201806040525081019062003be8919062005ce4565b6040518263ffffffff1660e01b815260040162003c06919062005b1c565b600060405180830381600087803b15801562003c2157600080fd5b505af115801562003c36573d6000803e3d6000fd5b505050505b600e546040516370a0823160e01b81526000916001600160a01b0316906370a082319062003c6e90309060040162005c16565b60206040518083038186803b15801562003c8757600080fd5b505afa15801562003c9c573d6000803e3d6000fd5b505050506040513d601f19601f8201168201806040525081019062003cc2919062005ce4565b111562003daa57600e546040516370a0823160e01b81526001600160a01b03909116906342966c689082906370a082319062003d0390309060040162005c16565b60206040518083038186803b15801562003d1c57600080fd5b505afa15801562003d31573d6000803e3d6000fd5b505050506040513d601f19601f8201168201806040525081019062003d57919062005ce4565b6040518263ffffffff1660e01b815260040162003d75919062005b1c565b600060405180830381600087803b15801562003d9057600080fd5b505af115801562003da5573d6000803e3d6000fd5b505050505b600f546040516370a0823160e01b81526000916001600160a01b0316906370a082319062003ddd90309060040162005c16565b60206040518083038186803b15801562003df657600080fd5b505afa15801562003e0b573d6000803e3d6000fd5b505050506040513d601f19601f8201168201806040525081019062003e31919062005ce4565b111562003f1457600f546040516370a0823160e01b81526001600160a01b03909116906342966c689082906370a082319062003e7290309060040162005c16565b60206040518083038186803b15801562003e8b57600080fd5b505afa15801562003ea0573d6000803e3d6000fd5b505050506040513d601f19601f8201168201806040525081019062003ec6919062005ce4565b6040518263ffffffff1660e01b815260040162003ee4919062005b1c565b600060405180830381600087803b15801562003eff57600080fd5b505af11580156200381b573d6000803e3d6000fd5b50620057c0565b84801562003f27575085155b801562003f32575083155b801562003f3d575082155b15620043ec57600d546016546040516370a0823160e01b81526000926001600160a01b031691309160029084906370a082319062003f8090869060040162005c16565b60206040518083038186803b15801562003f9957600080fd5b505afa15801562003fae573d6000803e3d6000fd5b505050506040513d601f19601f8201168201806040525081019062003fd4919062005ce4565b62003fe0919062005de3565b60405162003fee9062005a58565b62003ffd949392919062005d09565b604051809103906000f0801580156200401a573d6000803e3d6000fd5b50601e805473ffffffffffffffffffffffffffffffffffffffff19166001600160a01b0383169081179091559091506200405660644762005de3565b6200406390605062005d92565b604051615e4a91906000818181858888f193505050503d8060008114620040a7576040519150601f19603f3d011682016040523d82523d6000602084013e620040ac565b606091505b5050600d546040516370a0823160e01b81526001600160a01b03909116915063095ea7b390839083906370a0823190620040eb90309060040162005c16565b60206040518083038186803b1580156200410457600080fd5b505afa15801562004119573d6000803e3d6000fd5b505050506040513d601f19601f820116820180604052508101906200413f919062005ce4565b6040518363ffffffff1660e01b81526004016200415e92919062005ea4565b602060405180830381600087803b1580156200417957600080fd5b505af11580156200418e573d6000803e3d6000fd5b505050506040513d601f19601f82011682018060405250810190620041b4919062005e10565b50600e546040516370a0823160e01b81526000916001600160a01b0316906370a0823190620041e890309060040162005c16565b60206040518083038186803b1580156200420157600080fd5b505afa15801562004216573d6000803e3d6000fd5b505050506040513d601f19601f820116820180604052508101906200423c919062005ce4565b11156200432457600e546040516370a0823160e01b81526001600160a01b03909116906342966c689082906370a08231906200427d90309060040162005c16565b60206040518083038186803b1580156200429657600080fd5b505afa158015620042ab573d6000803e3d6000fd5b505050506040513d601f19601f82011682018060405250810190620042d1919062005ce4565b6040518263ffffffff1660e01b8152600401620042ef919062005b1c565b600060405180830381600087803b1580156200430a57600080fd5b505af11580156200431f573d6000803e3d6000fd5b505050505b600c546040516370a0823160e01b81526000916001600160a01b0316906370a08231906200435790309060040162005c16565b60206040518083038186803b1580156200437057600080fd5b505afa15801562004385573d6000803e3d6000fd5b505050506040513d601f19601f82011682018060405250810190620043ab919062005ce4565b111562003daa57600c546040516370a0823160e01b81526001600160a01b03909116906342966c689082906370a082319062003d0390309060040162005c16565b838015620043f8575084155b801562004403575085155b80156200440e575082155b1562004a2c57600f546017546040516370a0823160e01b81526000926001600160a01b031691309160029084906370a08231906200445190869060040162005c16565b60206040518083038186803b1580156200446a57600080fd5b505afa1580156200447f573d6000803e3d6000fd5b505050506040513d601f19601f82011682018060405250810190620044a5919062005ce4565b620044b1919062005de3565b604051620044bf9062005a58565b620044ce949392919062005d09565b604051809103906000f080158015620044eb573d6000803e3d6000fd5b50601f805473ffffffffffffffffffffffffffffffffffffffff19166001600160a01b0383169081179091559091506200452760644762005de3565b6200453490605062005d92565b604051615e4a91906000818181858888f193505050503d806000811462004578576040519150601f19603f3d011682016040523d82523d6000602084013e6200457d565b606091505b5050600f546040516370a0823160e01b81526001600160a01b03909116915063095ea7b390839083906370a0823190620045bc90309060040162005c16565b60206040518083038186803b158015620045d557600080fd5b505afa158015620045ea573d6000803e3d6000fd5b505050506040513d601f19601f8201168201806040525081019062004610919062005ce4565b6040518363ffffffff1660e01b81526004016200462f92919062005ea4565b602060405180830381600087803b1580156200464a57600080fd5b505af11580156200465f573d6000803e3d6000fd5b505050506040513d601f19601f8201168201806040525081019062004685919062005e10565b50600d546040516370a0823160e01b81526000916001600160a01b0316906370a0823190620046b990309060040162005c16565b60206040518083038186803b158015620046d257600080fd5b505afa158015620046e7573d6000803e3d6000fd5b505050506040513d601f19601f820116820180604052508101906200470d919062005ce4565b1115620047f557600d546040516370a0823160e01b81526001600160a01b03909116906342966c689082906370a08231906200474e90309060040162005c16565b60206040518083038186803b1580156200476757600080fd5b505afa1580156200477c573d6000803e3d6000fd5b505050506040513d601f19601f82011682018060405250810190620047a2919062005ce4565b6040518263ffffffff1660e01b8152600401620047c0919062005b1c565b600060405180830381600087803b158015620047db57600080fd5b505af1158015620047f0573d6000803e3d6000fd5b505050505b600c546040516370a0823160e01b81526000916001600160a01b0316906370a08231906200482890309060040162005c16565b60206040518083038186803b1580156200484157600080fd5b505afa15801562004856573d6000803e3d6000fd5b505050506040513d601f19601f820116820180604052508101906200487c919062005ce4565b11156200496457600c546040516370a0823160e01b81526001600160a01b03909116906342966c689082906370a0823190620048bd90309060040162005c16565b60206040518083038186803b158015620048d657600080fd5b505afa158015620048eb573d6000803e3d6000fd5b505050506040513d601f19601f8201168201806040525081019062004911919062005ce4565b6040518263ffffffff1660e01b81526004016200492f919062005b1c565b600060405180830381600087803b1580156200494a57600080fd5b505af11580156200495f573d6000803e3d6000fd5b505050505b600e546040516370a0823160e01b81526000916001600160a01b0316906370a08231906200499790309060040162005c16565b60206040518083038186803b158015620049b057600080fd5b505afa158015620049c5573d6000803e3d6000fd5b505050506040513d601f19601f82011682018060405250810190620049eb919062005ce4565b111562003f1457600e546040516370a0823160e01b81526001600160a01b03909116906342966c689082906370a082319062003e7290309060040162005c16565b82801562004a38575084155b801562004a43575083155b801562004a4e575085155b1562004d8e57600e546018546040516370a0823160e01b81526000926001600160a01b031691309160029084906370a082319062004a9190869060040162005c16565b60206040518083038186803b15801562004aaa57600080fd5b505afa15801562004abf573d6000803e3d6000fd5b505050506040513d601f19601f8201168201806040525081019062004ae5919062005ce4565b62004af1919062005de3565b60405162004aff9062005a58565b62004b0e949392919062005d09565b604051809103906000f08015801562004b2b573d6000803e3d6000fd5b50600e546040516370a0823160e01b81529192506001600160a01b03169063095ea7b390839083906370a082319062004b6990309060040162005c16565b60206040518083038186803b15801562004b8257600080fd5b505afa15801562004b97573d6000803e3d6000fd5b505050506040513d601f19601f8201168201806040525081019062004bbd919062005ce4565b6040518363ffffffff1660e01b815260040162004bdc92919062005ea4565b602060405180830381600087803b15801562004bf757600080fd5b505af115801562004c0c573d6000803e3d6000fd5b505050506040513d601f19601f8201168201806040525081019062004c32919062005e10565b506020805473ffffffffffffffffffffffffffffffffffffffff19166001600160a01b03831690811790915562004c6b60644762005de3565b62004c7890605062005d92565b604051615e4a91906000818181858888f193505050503d806000811462004cbc576040519150601f19603f3d011682016040523d82523d6000602084013e62004cc1565b606091505b5050600d546040516370a0823160e01b8152600092506001600160a01b03909116906370a082319062004cf990309060040162005c16565b60206040518083038186803b15801562004d1257600080fd5b505afa15801562004d27573d6000803e3d6000fd5b505050506040513d601f19601f8201168201806040525081019062004d4d919062005ce4565b11156200432457600d546040516370a0823160e01b81526001600160a01b03909116906342966c689082906370a08231906200427d90309060040162005c16565b620057c0565b60018211801562004da55750600482105b1562004db157620057c0565b8160041415620057c057600c546015546040516370a0823160e01b81526000926001600160a01b031691309160029084906370a082319062004df890869060040162005c16565b60206040518083038186803b15801562004e1157600080fd5b505afa15801562004e26573d6000803e3d6000fd5b505050506040513d601f19601f8201168201806040525081019062004e4c919062005ce4565b62004e58919062005de3565b60405162004e669062005a58565b62004e75949392919062005d09565b604051809103906000f08015801562004e92573d6000803e3d6000fd5b50601d805473ffffffffffffffffffffffffffffffffffffffff19166001600160a01b038316908117909155909150600462004ed060644762005de3565b62004edd90600a62005d92565b62004ee9919062005de3565b604051615e4a91906000818181858888f193505050503d806000811462004f2d576040519150601f19603f3d011682016040523d82523d6000602084013e62004f32565b606091505b5050600c546040516370a0823160e01b81526001600160a01b03909116915063095ea7b390839083906370a082319062004f7190309060040162005c16565b60206040518083038186803b15801562004f8a57600080fd5b505afa15801562004f9f573d6000803e3d6000fd5b505050506040513d601f19601f8201168201806040525081019062004fc5919062005ce4565b6040518363ffffffff1660e01b815260040162004fe492919062005ea4565b602060405180830381600087803b15801562004fff57600080fd5b505af115801562005014573d6000803e3d6000fd5b505050506040513d601f19601f820116820180604052508101906200503a919062005e10565b50600d546016546040516370a0823160e01b81526000926001600160a01b031691309160029084906370a08231906200507890869060040162005c16565b60206040518083038186803b1580156200509157600080fd5b505afa158015620050a6573d6000803e3d6000fd5b505050506040513d601f19601f82011682018060405250810190620050cc919062005ce4565b620050d8919062005de3565b604051620050e69062005a58565b620050f5949392919062005d09565b604051809103906000f08015801562005112573d6000803e3d6000fd5b50601e805473ffffffffffffffffffffffffffffffffffffffff19166001600160a01b03831690811790915590915060046200515060644762005de3565b6200515d90600a62005d92565b62005169919062005de3565b604051615e4a91906000818181858888f193505050503d8060008114620051ad576040519150601f19603f3d011682016040523d82523d6000602084013e620051b2565b606091505b5050600d546040516370a0823160e01b81526001600160a01b03909116915063095ea7b390839083906370a0823190620051f190309060040162005c16565b60206040518083038186803b1580156200520a57600080fd5b505afa1580156200521f573d6000803e3d6000fd5b505050506040513d601f19601f8201168201806040525081019062005245919062005ce4565b6040518363ffffffff1660e01b81526004016200526492919062005ea4565b602060405180830381600087803b1580156200527f57600080fd5b505af115801562005294573d6000803e3d6000fd5b505050506040513d601f19601f82011682018060405250810190620052ba919062005e10565b50600f546017546040516370a0823160e01b81526000926001600160a01b031691309160029084906370a0823190620052f890869060040162005c16565b60206040518083038186803b1580156200531157600080fd5b505afa15801562005326573d6000803e3d6000fd5b505050506040513d601f19601f820116820180604052508101906200534c919062005ce4565b62005358919062005de3565b604051620053669062005a58565b62005375949392919062005d09565b604051809103906000f08015801562005392573d6000803e3d6000fd5b50601f805473ffffffffffffffffffffffffffffffffffffffff19166001600160a01b0383169081179091559091506004620053d060644762005de3565b620053dd90600a62005d92565b620053e9919062005de3565b604051615e4a91906000818181858888f193505050503d80600081146200542d576040519150601f19603f3d011682016040523d82523d6000602084013e62005432565b606091505b5050600f546040516370a0823160e01b81526001600160a01b03909116915063095ea7b390839083906370a08231906200547190309060040162005c16565b60206040518083038186803b1580156200548a57600080fd5b505afa1580156200549f573d6000803e3d6000fd5b505050506040513d601f19601f82011682018060405250810190620054c5919062005ce4565b6040518363ffffffff1660e01b8152600401620054e492919062005ea4565b602060405180830381600087803b158015620054ff57600080fd5b505af115801562005514573d6000803e3d6000fd5b505050506040513d601f19601f820116820180604052508101906200553a919062005e10565b50600e546018546040516370a0823160e01b81526000926001600160a01b031691309160029084906370a08231906200557890869060040162005c16565b60206040518083038186803b1580156200559157600080fd5b505afa158015620055a6573d6000803e3d6000fd5b505050506040513d601f19601f82011682018060405250810190620055cc919062005ce4565b620055d8919062005de3565b604051620055e69062005a58565b620055f5949392919062005d09565b604051809103906000f08015801562005612573d6000803e3d6000fd5b506020805473ffffffffffffffffffffffffffffffffffffffff19166001600160a01b03831690811790915590915060046200565060644762005de3565b6200565d90600a62005d92565b62005669919062005de3565b604051615e4a91906000818181858888f193505050503d8060008114620056ad576040519150601f19603f3d011682016040523d82523d6000602084013e620056b2565b606091505b5050600e546040516370a0823160e01b81526001600160a01b03909116915063095ea7b390839083906370a0823190620056f190309060040162005c16565b60206040518083038186803b1580156200570a57600080fd5b505afa1580156200571f573d6000803e3d6000fd5b505050506040513d601f19601f8201168201806040525081019062005745919062005ce4565b6040518363ffffffff1660e01b81526004016200576492919062005ea4565b602060405180830381600087803b1580156200577f57600080fd5b505af115801562005794573d6000803e3d6000fd5b505050506040513d601f19601f82011682018060405250810190620057ba919062005e10565b50505050505b620057ce4261012c62005a95565b600255600154620057e290600a9062005de3565b6001556000600481905560058190556006819055600781905560088190556009819055600a819055600b8190556010549055620058224261012c62005a95565b6002555050505050505b565b3360009081526014602052604090205460ff166200584b57600080fd5b336000908152601460205260408120805460ff1916905560188054916200091c8362005d4f565b3360009081526014602052604090205460ff166200588f57600080fd5b600082116200589d57600080fd5b600e546040516370a0823160e01b815283916001600160a01b0316906370a0823190620058cf90339060040162005c16565b60206040518083038186803b158015620058e857600080fd5b505afa158015620058fd573d6000803e3d6000fd5b505050506040513d601f19601f8201168201806040525081019062005923919062005ce4565b10156200592f57600080fd5b81600b600082825462000a3c919062005a95565b3360009081526012602052604090205460ff166200596057600080fd5b600082116200596e57600080fd5b600d546040516370a0823160e01b815283916001600160a01b0316906370a0823190620059a090339060040162005c16565b60206040518083038186803b158015620059b957600080fd5b505afa158015620059ce573d6000803e3d6000fd5b505050506040513d601f19601f82011682018060405250810190620059f4919062005ce4565b101562005a0057600080fd5b816009600082825462000b9e919062005a95565b3360009081526011602052604090205460ff1662005a3157600080fd5b336000908152601160205260408120805460ff1916905560158054916200091c8362005d4f565b6107ae8062005f7f83390190565b7f4e487b7100000000000000000000000000000000000000000000000000000000600052601160045260246000fd5b6000821982111562005aab5762005aab62005a66565b500190565b60006001600160a01b0382165b92915050565b62005ace8162005ab0565b811462000c8c57600080fd5b803562005abd8162005ac3565b60006020828403121562005afe5762005afe600080fd5b600062005b0c848462005ada565b949350505050565b805b82525050565b6020810162005abd828462005b14565b600062005abd6001600160a01b03831662005b45565b90565b6001600160a01b031690565b600062005abd8262005b2c565b600062005abd8262005b51565b62005b168162005b5e565b6020810162005abd828462005b6b565b80151562005b16565b6020810162005abd828462005b86565b8062005ace565b803562005abd8162005b9f565b60008060006060848603121562005bcd5762005bcd600080fd5b600062005bdb868662005ba6565b935050602062005bee8682870162005ba6565b925050604062005c018682870162005ba6565b9150509250925092565b62005b168162005ab0565b6020810162005abd828462005c0b565b60006020828403121562005c3d5762005c3d600080fd5b600062005b0c848462005ba6565b6000806000806080858703121562005c665762005c66600080fd5b600062005c74878762005ada565b945050602062005c878782880162005ada565b935050604062005c9a8782880162005ada565b925050606062005cad8782880162005ada565b91505092959194509250565b600060001982141562005cd05762005cd062005a66565b5060010190565b805162005abd8162005b9f565b60006020828403121562005cfb5762005cfb600080fd5b600062005b0c848462005cd7565b6080810162005d19828762005c0b565b62005d28602083018662005c0b565b62005d37604083018562005b14565b62005d46606083018462005b14565b95945050505050565b60008162005d615762005d6162005a66565b506000190190565b600062005abd62005b428381565b62005b168162005d69565b6020810162005abd828462005d77565b600081600019048311821515161562005daf5762005daf62005a66565b500290565b7f4e487b7100000000000000000000000000000000000000000000000000000000600052601260045260246000fd5b60008262005df55762005df562005db4565b500490565b80151562005ace565b805162005abd8162005dfa565b60006020828403121562005e275762005e27600080fd5b600062005b0c848462005e03565b805162005abd8162005ac3565b6000806000806080858703121562005e5d5762005e5d600080fd5b600062005e6b878762005e35565b945050602062005e7e8782880162005e35565b935050604062005e918782880162005cd7565b925050606062005cad8782880162005cd7565b6040810162005eb4828562005c0b565b62005ec3602083018462005b14565b9392505050565b60c0810162005eda828962005c0b565b62005ee9602083018862005b14565b62005ef8604083018762005d77565b62005f07606083018662005d77565b62005f16608083018562005c0b565b62005f2560a083018462005b14565b979650505050505050565b60008060006060848603121562005f4a5762005f4a600080fd5b600062005f58868662005cd7565b935050602062005f6b8682870162005cd7565b925050604062005c018682870162005cd756fe608060405234801561001057600080fd5b506040516107ae3803806107ae83398101604081905261002f916100b7565b6001919091556005819055600655600380546001600160a01b039283166001600160a01b0319918216179091556002805493909216921691909117905561011b565b60006001600160a01b0382165b92915050565b61008d81610071565b811461009857600080fd5b50565b805161007e81610084565b8061008d565b805161007e816100a6565b600080600080608085870312156100d0576100d0600080fd5b60006100dc878761009b565b94505060206100ed8782880161009b565b93505060406100fe878288016100ac565b925050606061010f878288016100ac565b91505092959194509250565b6106848061012a6000396000f3fe60806040526004361061007f5760003560e01c8063b69ef8a81161004e578063b69ef8a814610135578063c53793171461014b578063c884ef8314610161578063fc0c546a1461019e57600080fd5b806327810b6e146100a25780633a98ef39146100e55780634e71d92d14610108578063b0cf01961461011f57600080fd5b3661009d5734600460008282546100969190610407565b9091555050005b600080fd5b3480156100ae57600080fd5b506003546100cf9073ffffffffffffffffffffffffffffffffffffffff1681565b6040516100dc919061044e565b60405180910390f35b3480156100f157600080fd5b506100fb60015481565b6040516100dc9190610462565b34801561011457600080fd5b5061011d6101d8565b005b34801561012b57600080fd5b506100fb60065481565b34801561014157600080fd5b506100fb60045481565b34801561015757600080fd5b506100fb60055481565b34801561016d57600080fd5b5061019161017c366004610492565b60006020819052908152604090205460ff1681565b6040516100dc91906104c3565b3480156101aa57600080fd5b506002546101cb9073ffffffffffffffffffffffffffffffffffffffff1681565b6040516100dc919061050e565b3360009081526020819052604090205460ff161561022b576040517f08c379a00000000000000000000000000000000000000000000000000000000081526004016102229061051c565b60405180910390fd5b600060015460065461023d91906105ac565b9050600060015460045461025191906105ac565b6002546003546040517f23b872dd00000000000000000000000000000000000000000000000000000000815292935073ffffffffffffffffffffffffffffffffffffffff918216926323b872dd926102b1921690339087906004016105c0565b602060405180830381600087803b1580156102cb57600080fd5b505af11580156102df573d6000803e3d6000fd5b505050506040513d601f19601f8201168201806040525081019061030391906105fb565b50604051339082156108fc029083906000818181858888f19350505050158015610331573d6000803e3d6000fd5b506001806000828254610344919061061c565b92505081905550806004600082825461035d919061061c565b9091555050336000818152602081905260409081902080547fffffffffffffffffffffffffffffffffffffffffffffffffffffffffffffff00166001179055517f987d620f307ff6b94d58743cb7a7509f24071586a77759b77c2d4e29f75a2f9a916103cc9185908590610633565b60405180910390a15050565b7f4e487b7100000000000000000000000000000000000000000000000000000000600052601160045260246000fd5b6000821982111561041a5761041a6103d8565b500190565b600073ffffffffffffffffffffffffffffffffffffffff82165b92915050565b6104488161041f565b82525050565b60208101610439828461043f565b80610448565b60208101610439828461045c565b6104798161041f565b811461048457600080fd5b50565b803561043981610470565b6000602082840312156104a7576104a7600080fd5b60006104b38484610487565b949350505050565b801515610448565b6020810161043982846104bb565b600073ffffffffffffffffffffffffffffffffffffffff8216610439565b6000610439826104d1565b6000610439826104ef565b610448816104fa565b602081016104398284610505565b6020808252810161043981602481527f596f75206861766520616c726561647920636c61696d656420796f757220736860208201527f6172652100000000000000000000000000000000000000000000000000000000604082015260600190565b7f4e487b7100000000000000000000000000000000000000000000000000000000600052601260045260246000fd5b6000826105bb576105bb61057d565b500490565b606081016105ce828661043f565b6105db602083018561043f565b6104b3604083018461045c565b801515610479565b8051610439816105e8565b60006020828403121561061057610610600080fd5b60006104b384846105f0565b60008282101561062e5761062e6103d8565b500390565b60608101610641828661043f565b6105db602083018561045c56fea26469706673582212207798243e95b59307f5d0b11edd70b932e0c258abf4beaad25be6e927cf4e4ebd64736f6c63430008090033a2646970667358221220cdd48567defd9fc8f1c65b1325941c06f129a2949142583503339abd27f9432164736f6c63430008090033","opcodes":"PUSH1 0x80 PUSH1 0x40 MSTORE PUSH1 0x0 PUSH1 0x4 SSTORE PUSH1 0x0 PUSH1 0x5 SSTORE PUSH1 0x0 PUSH1 0x6 SSTORE PUSH1 0x0 PUSH1 0x7 SSTORE PUSH1 0x0 PUSH1 0x8 SSTORE PUSH1 0x0 PUSH1 0x9 SSTORE PUSH1 0x0 PUSH1 0xA SSTORE PUSH1 0x0 PUSH1 0xB SSTORE PUSH1 0x0 PUSH1 0x15 SSTORE PUSH1 0x0 PUSH1 0x16 SSTORE PUSH1 0x0 PUSH1 0x17 SSTORE PUSH1 0x0 PUSH1 0x18 SSTORE CALLVALUE DUP1 ISZERO PUSH3 0x4D JUMPI PUSH1 0x0 DUP1 REVERT JUMPDEST POP PUSH1 0x40 MLOAD PUSH3 0x6865 CODESIZE SUB DUP1 PUSH3 0x6865 DUP4 CODECOPY DUP2 ADD PUSH1 0x40 DUP2 SWAP1 MSTORE PUSH3 0x70 SWAP2 PUSH3 0xA4 JUMP JUMPDEST PUSH1 0x0 DUP2 SWAP1 SSTORE PUSH1 0x10 DUP2 SWAP1 SSTORE PUSH1 0x3 DUP1 SLOAD PUSH1 0x1 PUSH1 0x1 PUSH1 0xA0 SHL SUB NOT AND CALLER OR SWAP1 SSTORE PUSH3 0x9A TIMESTAMP PUSH2 0x12C PUSH3 0xD8 JUMP JUMPDEST PUSH1 0x2 SSTORE POP PUSH3 0xF3 JUMP JUMPDEST PUSH1 0x0 PUSH1 0x20 DUP3 DUP5 SUB SLT ISZERO PUSH3 0xBB JUMPI PUSH3 0xBB PUSH1 0x0 DUP1 REVERT JUMPDEST POP MLOAD SWAP2 SWAP1 POP JUMP JUMPDEST PUSH4 0x4E487B71 PUSH1 0xE0 SHL PUSH1 0x0 MSTORE PUSH1 0x11 PUSH1 0x4 MSTORE PUSH1 0x24 PUSH1 0x0 REVERT JUMPDEST PUSH1 0x0 DUP3 NOT DUP3 GT ISZERO PUSH3 0xEE JUMPI PUSH3 0xEE PUSH3 0xC2 JUMP JUMPDEST POP ADD SWAP1 JUMP JUMPDEST PUSH2 0x6762 DUP1 PUSH3 0x103 PUSH1 0x0 CODECOPY PUSH1 0x0 RETURN INVALID PUSH1 0x80 PUSH1 0x40 MSTORE PUSH1 0x4 CALLDATASIZE LT PUSH3 0x2F7 JUMPI PUSH1 0x0 CALLDATALOAD PUSH1 0xE0 SHR DUP1 PUSH4 0x73D726D0 GT PUSH3 0x18B JUMPI DUP1 PUSH4 0xC4A97FCE GT PUSH3 0xDB JUMPI DUP1 PUSH4 0xECD84163 GT PUSH3 0x89 JUMPI DUP1 PUSH4 0xF1348BA6 GT PUSH3 0x6C JUMPI DUP1 PUSH4 0xF1348BA6 EQ PUSH3 0x866 JUMPI DUP1 PUSH4 0xF7586795 EQ PUSH3 0x87E JUMPI DUP1 PUSH4 0xFDD4A317 EQ PUSH3 0x8B2 JUMPI PUSH1 0x0 DUP1 REVERT JUMPDEST DUP1 PUSH4 0xECD84163 EQ PUSH3 0x81F JUMPI DUP1 PUSH4 0xED0BEE5C EQ PUSH3 0x844 JUMPI PUSH1 0x0 DUP1 REVERT JUMPDEST DUP1 PUSH4 0xDCA32F5A GT PUSH3 0xBE JUMPI DUP1 PUSH4 0xDCA32F5A EQ PUSH3 0x7C0 JUMPI DUP1 PUSH4 0xE201CF4C EQ PUSH3 0x7E2 JUMPI DUP1 PUSH4 0xEB94893B EQ PUSH3 0x7FA JUMPI PUSH1 0x0 DUP1 REVERT JUMPDEST DUP1 PUSH4 0xC4A97FCE EQ PUSH3 0x783 JUMPI DUP1 PUSH4 0xD4114AFB EQ PUSH3 0x7A8 JUMPI PUSH1 0x0 DUP1 REVERT JUMPDEST DUP1 PUSH4 0x8F8022E3 GT PUSH3 0x139 JUMPI DUP1 PUSH4 0xA5E2FB5B GT PUSH3 0x11C JUMPI DUP1 PUSH4 0xA5E2FB5B EQ PUSH3 0x70B JUMPI DUP1 PUSH4 0xAF91CDC1 EQ PUSH3 0x730 JUMPI DUP1 PUSH4 0xB93E6788 EQ PUSH3 0x752 JUMPI PUSH1 0x0 DUP1 REVERT JUMPDEST DUP1 PUSH4 0x8F8022E3 EQ PUSH3 0x6CE JUMPI DUP1 PUSH4 0xA035B1FE EQ PUSH3 0x6F3 JUMPI PUSH1 0x0 DUP1 REVERT JUMPDEST DUP1 PUSH4 0x7DF72A66 GT PUSH3 0x16E JUMPI DUP1 PUSH4 0x7DF72A66 EQ PUSH3 0x66F JUMPI DUP1 PUSH4 0x88C9CB3C EQ PUSH3 0x694 JUMPI DUP1 PUSH4 0x8DA5CB5B EQ PUSH3 0x6AC JUMPI PUSH1 0x0 DUP1 REVERT JUMPDEST DUP1 PUSH4 0x73D726D0 EQ PUSH3 0x635 JUMPI DUP1 PUSH4 0x740E820D EQ PUSH3 0x64D JUMPI PUSH1 0x0 DUP1 REVERT JUMPDEST DUP1 PUSH4 0x3D9553EE GT PUSH3 0x247 JUMPI DUP1 PUSH4 0x50444476 GT PUSH3 0x1F5 JUMPI DUP1 PUSH4 0x5D0864A7 GT PUSH3 0x1D8 JUMPI DUP1 PUSH4 0x5D0864A7 EQ PUSH3 0x5CA JUMPI DUP1 PUSH4 0x6D4885D1 EQ PUSH3 0x5EC JUMPI DUP1 PUSH4 0x712981E4 EQ PUSH3 0x61D JUMPI PUSH1 0x0 DUP1 REVERT JUMPDEST DUP1 PUSH4 0x50444476 EQ PUSH3 0x59B JUMPI DUP1 PUSH4 0x567BCF13 EQ PUSH3 0x5B3 JUMPI PUSH1 0x0 DUP1 REVERT JUMPDEST DUP1 PUSH4 0x49E0A8EA GT PUSH3 0x22A JUMPI DUP1 PUSH4 0x49E0A8EA EQ PUSH3 0x51B JUMPI DUP1 PUSH4 0x4BA2363A EQ PUSH3 0x54F JUMPI DUP1 PUSH4 0x4F489743 EQ PUSH3 0x567 JUMPI PUSH1 0x0 DUP1 REVERT JUMPDEST DUP1 PUSH4 0x3D9553EE EQ PUSH3 0x4C5 JUMPI DUP1 PUSH4 0x41EB4F82 EQ PUSH3 0x4EA JUMPI PUSH1 0x0 DUP1 REVERT JUMPDEST DUP1 PUSH4 0x2A18C2FA GT PUSH3 0x2A5 JUMPI DUP1 PUSH4 0x301F9E80 GT PUSH3 0x288 JUMPI DUP1 PUSH4 0x301F9E80 EQ PUSH3 0x470 JUMPI DUP1 PUSH4 0x31E1AFA7 EQ PUSH3 0x495 JUMPI DUP1 PUSH4 0x3CCFD60B EQ PUSH3 0x4AD JUMPI PUSH1 0x0 DUP1 REVERT JUMPDEST DUP1 PUSH4 0x2A18C2FA EQ PUSH3 0x41A JUMPI DUP1 PUSH4 0x2FFF91C9 EQ PUSH3 0x43F JUMPI PUSH1 0x0 DUP1 REVERT JUMPDEST DUP1 PUSH4 0x1AEE4EA3 GT PUSH3 0x2DA JUMPI DUP1 PUSH4 0x1AEE4EA3 EQ PUSH3 0x3A5 JUMPI DUP1 PUSH4 0x24305229 EQ PUSH3 0x3BF JUMPI DUP1 PUSH4 0x24BA7E3D EQ PUSH3 0x3D7 JUMPI PUSH1 0x0 DUP1 REVERT JUMPDEST DUP1 PUSH4 0xEB5B32B EQ PUSH3 0x32B JUMPI DUP1 PUSH4 0x198C6845 EQ PUSH3 0x374 JUMPI PUSH1 0x0 DUP1 REVERT JUMPDEST CALLDATASIZE PUSH3 0x326 JUMPI PUSH1 0x0 CALLVALUE GT PUSH3 0x30B JUMPI PUSH1 0x0 DUP1 REVERT JUMPDEST CALLVALUE PUSH1 0x1 PUSH1 0x0 DUP3 DUP3 SLOAD PUSH3 0x31F SWAP2 SWAP1 PUSH3 0x5A95 JUMP JUMPDEST SWAP1 SWAP2 SSTORE POP POP STOP JUMPDEST PUSH1 0x0 DUP1 REVERT JUMPDEST CALLVALUE DUP1 ISZERO PUSH3 0x338 JUMPI PUSH1 0x0 DUP1 REVERT JUMPDEST POP PUSH3 0x35C PUSH3 0x34A CALLDATASIZE PUSH1 0x4 PUSH3 0x5AE7 JUMP JUMPDEST PUSH1 0x1B PUSH1 0x20 MSTORE PUSH1 0x0 SWAP1 DUP2 MSTORE PUSH1 0x40 SWAP1 KECCAK256 SLOAD DUP2 JUMP JUMPDEST PUSH1 0x40 MLOAD PUSH3 0x36B SWAP2 SWAP1 PUSH3 0x5B1C JUMP JUMPDEST PUSH1 0x40 MLOAD DUP1 SWAP2 SUB SWAP1 RETURN JUMPDEST CALLVALUE DUP1 ISZERO PUSH3 0x381 JUMPI PUSH1 0x0 DUP1 REVERT JUMPDEST POP PUSH1 0xC SLOAD PUSH3 0x396 SWAP1 PUSH1 0x1 PUSH1 0x1 PUSH1 0xA0 SHL SUB AND DUP2 JUMP JUMPDEST PUSH1 0x40 MLOAD PUSH3 0x36B SWAP2 SWAP1 PUSH3 0x5B76 JUMP JUMPDEST CALLVALUE DUP1 ISZERO PUSH3 0x3B2 JUMPI PUSH1 0x0 DUP1 REVERT JUMPDEST POP PUSH3 0x3BD PUSH3 0x8D4 JUMP JUMPDEST STOP JUMPDEST CALLVALUE DUP1 ISZERO PUSH3 0x3CC JUMPI PUSH1 0x0 DUP1 REVERT JUMPDEST POP PUSH3 0x3BD PUSH3 0x923 JUMP JUMPDEST CALLVALUE DUP1 ISZERO PUSH3 0x3E4 JUMPI PUSH1 0x0 DUP1 REVERT JUMPDEST POP PUSH3 0x40B PUSH3 0x3F6 CALLDATASIZE PUSH1 0x4 PUSH3 0x5AE7 JUMP JUMPDEST PUSH1 0x14 PUSH1 0x20 MSTORE PUSH1 0x0 SWAP1 DUP2 MSTORE PUSH1 0x40 SWAP1 KECCAK256 SLOAD PUSH1 0xFF AND DUP2 JUMP JUMPDEST PUSH1 0x40 MLOAD PUSH3 0x36B SWAP2 SWAP1 PUSH3 0x5B8F JUMP JUMPDEST CALLVALUE DUP1 ISZERO PUSH3 0x427 JUMPI PUSH1 0x0 DUP1 REVERT JUMPDEST POP PUSH3 0x3BD PUSH3 0x439 CALLDATASIZE PUSH1 0x4 PUSH3 0x5BB3 JUMP JUMPDEST PUSH3 0x96B JUMP JUMPDEST CALLVALUE DUP1 ISZERO PUSH3 0x44C JUMPI PUSH1 0x0 DUP1 REVERT JUMPDEST POP PUSH1 0x20 SLOAD PUSH3 0x461 SWAP1 PUSH1 0x1 PUSH1 0x1 PUSH1 0xA0 SHL SUB AND DUP2 JUMP JUMPDEST PUSH1 0x40 MLOAD PUSH3 0x36B SWAP2 SWAP1 PUSH3 0x5C16 JUMP JUMPDEST CALLVALUE DUP1 ISZERO PUSH3 0x47D JUMPI PUSH1 0x0 DUP1 REVERT JUMPDEST POP PUSH3 0x3BD PUSH3 0x48F CALLDATASIZE PUSH1 0x4 PUSH3 0x5BB3 JUMP JUMPDEST PUSH3 0xACD JUMP JUMPDEST CALLVALUE DUP1 ISZERO PUSH3 0x4A2 JUMPI PUSH1 0x0 DUP1 REVERT JUMPDEST POP PUSH3 0x3BD PUSH3 0xBF6 JUMP JUMPDEST CALLVALUE DUP1 ISZERO PUSH3 0x4BA JUMPI PUSH1 0x0 DUP1 REVERT JUMPDEST POP PUSH3 0x3BD PUSH3 0xC3A JUMP JUMPDEST CALLVALUE DUP1 ISZERO PUSH3 0x4D2 JUMPI PUSH1 0x0 DUP1 REVERT JUMPDEST POP PUSH3 0x3BD PUSH3 0x4E4 CALLDATASIZE PUSH1 0x4 PUSH3 0x5BB3 JUMP JUMPDEST PUSH3 0xC8F JUMP JUMPDEST CALLVALUE DUP1 ISZERO PUSH3 0x4F7 JUMPI PUSH1 0x0 DUP1 REVERT JUMPDEST POP PUSH3 0x35C PUSH3 0x509 CALLDATASIZE PUSH1 0x4 PUSH3 0x5AE7 JUMP JUMPDEST PUSH1 0x19 PUSH1 0x20 MSTORE PUSH1 0x0 SWAP1 DUP2 MSTORE PUSH1 0x40 SWAP1 KECCAK256 SLOAD DUP2 JUMP JUMPDEST CALLVALUE DUP1 ISZERO PUSH3 0x528 JUMPI PUSH1 0x0 DUP1 REVERT JUMPDEST POP PUSH3 0x40B PUSH3 0x53A CALLDATASIZE PUSH1 0x4 PUSH3 0x5AE7 JUMP JUMPDEST PUSH1 0x11 PUSH1 0x20 MSTORE PUSH1 0x0 SWAP1 DUP2 MSTORE PUSH1 0x40 SWAP1 KECCAK256 SLOAD PUSH1 0xFF AND DUP2 JUMP JUMPDEST CALLVALUE DUP1 ISZERO PUSH3 0x55C JUMPI PUSH1 0x0 DUP1 REVERT JUMPDEST POP PUSH3 0x35C PUSH1 0x1 SLOAD DUP2 JUMP JUMPDEST CALLVALUE DUP1 ISZERO PUSH3 0x574 JUMPI PUSH1 0x0 DUP1 REVERT JUMPDEST POP PUSH3 0x40B PUSH3 0x586 CALLDATASIZE PUSH1 0x4 PUSH3 0x5AE7 JUMP JUMPDEST PUSH1 0x12 PUSH1 0x20 MSTORE PUSH1 0x0 SWAP1 DUP2 MSTORE PUSH1 0x40 SWAP1 KECCAK256 SLOAD PUSH1 0xFF AND DUP2 JUMP JUMPDEST CALLVALUE DUP1 ISZERO PUSH3 0x5A8 JUMPI PUSH1 0x0 DUP1 REVERT JUMPDEST POP PUSH3 0x3BD PUSH3 0xDB8 JUMP JUMPDEST PUSH3 0x3BD PUSH3 0x5C4 CALLDATASIZE PUSH1 0x4 PUSH3 0x5C26 JUMP JUMPDEST PUSH3 0xE00 JUMP JUMPDEST CALLVALUE DUP1 ISZERO PUSH3 0x5D7 JUMPI PUSH1 0x0 DUP1 REVERT JUMPDEST POP PUSH1 0x1D SLOAD PUSH3 0x461 SWAP1 PUSH1 0x1 PUSH1 0x1 PUSH1 0xA0 SHL SUB AND DUP2 JUMP JUMPDEST CALLVALUE DUP1 ISZERO PUSH3 0x5F9 JUMPI PUSH1 0x0 DUP1 REVERT JUMPDEST POP PUSH3 0x35C PUSH3 0x60B CALLDATASIZE PUSH1 0x4 PUSH3 0x5AE7 JUMP JUMPDEST PUSH1 0x1C PUSH1 0x20 MSTORE PUSH1 0x0 SWAP1 DUP2 MSTORE PUSH1 0x40 SWAP1 KECCAK256 SLOAD DUP2 JUMP JUMPDEST CALLVALUE DUP1 ISZERO PUSH3 0x62A JUMPI PUSH1 0x0 DUP1 REVERT JUMPDEST POP PUSH3 0x3BD PUSH3 0x1286 JUMP JUMPDEST CALLVALUE DUP1 ISZERO PUSH3 0x642 JUMPI PUSH1 0x0 DUP1 REVERT JUMPDEST POP PUSH3 0x3BD PUSH3 0x12CA JUMP JUMPDEST CALLVALUE DUP1 ISZERO PUSH3 0x65A JUMPI PUSH1 0x0 DUP1 REVERT JUMPDEST POP PUSH1 0xD SLOAD PUSH3 0x396 SWAP1 PUSH1 0x1 PUSH1 0x1 PUSH1 0xA0 SHL SUB AND DUP2 JUMP JUMPDEST CALLVALUE DUP1 ISZERO PUSH3 0x67C JUMPI PUSH1 0x0 DUP1 REVERT JUMPDEST POP PUSH3 0x3BD PUSH3 0x68E CALLDATASIZE PUSH1 0x4 PUSH3 0x5BB3 JUMP JUMPDEST PUSH3 0x1312 JUMP JUMPDEST CALLVALUE DUP1 ISZERO PUSH3 0x6A1 JUMPI PUSH1 0x0 DUP1 REVERT JUMPDEST POP PUSH3 0x35C PUSH1 0x2 SLOAD DUP2 JUMP JUMPDEST CALLVALUE DUP1 ISZERO PUSH3 0x6B9 JUMPI PUSH1 0x0 DUP1 REVERT JUMPDEST POP PUSH1 0x3 SLOAD PUSH3 0x461 SWAP1 PUSH1 0x1 PUSH1 0x1 PUSH1 0xA0 SHL SUB AND DUP2 JUMP JUMPDEST CALLVALUE DUP1 ISZERO PUSH3 0x6DB JUMPI PUSH1 0x0 DUP1 REVERT JUMPDEST POP PUSH3 0x3BD PUSH3 0x6ED CALLDATASIZE PUSH1 0x4 PUSH3 0x5BB3 JUMP JUMPDEST PUSH3 0x143B JUMP JUMPDEST CALLVALUE DUP1 ISZERO PUSH3 0x700 JUMPI PUSH1 0x0 DUP1 REVERT JUMPDEST POP PUSH3 0x35C PUSH1 0x0 SLOAD DUP2 JUMP JUMPDEST CALLVALUE DUP1 ISZERO PUSH3 0x718 JUMPI PUSH1 0x0 DUP1 REVERT JUMPDEST POP PUSH3 0x3BD PUSH3 0x72A CALLDATASIZE PUSH1 0x4 PUSH3 0x5C4B JUMP JUMPDEST PUSH3 0x150C JUMP JUMPDEST CALLVALUE DUP1 ISZERO PUSH3 0x73D JUMPI PUSH1 0x0 DUP1 REVERT JUMPDEST POP PUSH1 0x1F SLOAD PUSH3 0x461 SWAP1 PUSH1 0x1 PUSH1 0x1 PUSH1 0xA0 SHL SUB AND DUP2 JUMP JUMPDEST CALLVALUE DUP1 ISZERO PUSH3 0x75F JUMPI PUSH1 0x0 DUP1 REVERT JUMPDEST POP PUSH3 0x35C PUSH3 0x771 CALLDATASIZE PUSH1 0x4 PUSH3 0x5AE7 JUMP JUMPDEST PUSH1 0x1A PUSH1 0x20 MSTORE PUSH1 0x0 SWAP1 DUP2 MSTORE PUSH1 0x40 SWAP1 KECCAK256 SLOAD DUP2 JUMP JUMPDEST CALLVALUE DUP1 ISZERO PUSH3 0x790 JUMPI PUSH1 0x0 DUP1 REVERT JUMPDEST POP PUSH3 0x3BD PUSH3 0x7A2 CALLDATASIZE PUSH1 0x4 PUSH3 0x5BB3 JUMP JUMPDEST PUSH3 0x1581 JUMP JUMPDEST CALLVALUE DUP1 ISZERO PUSH3 0x7B5 JUMPI PUSH1 0x0 DUP1 REVERT JUMPDEST POP PUSH3 0x3BD PUSH3 0x1652 JUMP JUMPDEST CALLVALUE DUP1 ISZERO PUSH3 0x7CD JUMPI PUSH1 0x0 DUP1 REVERT JUMPDEST POP PUSH1 0xE SLOAD PUSH3 0x396 SWAP1 PUSH1 0x1 PUSH1 0x1 PUSH1 0xA0 SHL SUB AND DUP2 JUMP JUMPDEST CALLVALUE DUP1 ISZERO PUSH3 0x7EF JUMPI PUSH1 0x0 DUP1 REVERT JUMPDEST POP PUSH3 0x3BD PUSH3 0x582E JUMP JUMPDEST CALLVALUE DUP1 ISZERO PUSH3 0x807 JUMPI PUSH1 0x0 DUP1 REVERT JUMPDEST POP PUSH3 0x3BD PUSH3 0x819 CALLDATASIZE PUSH1 0x4 PUSH3 0x5BB3 JUMP JUMPDEST PUSH3 0x5872 JUMP JUMPDEST CALLVALUE DUP1 ISZERO PUSH3 0x82C JUMPI PUSH1 0x0 DUP1 REVERT JUMPDEST POP PUSH3 0x3BD PUSH3 0x83E CALLDATASIZE PUSH1 0x4 PUSH3 0x5BB3 JUMP JUMPDEST PUSH3 0x5943 JUMP JUMPDEST CALLVALUE DUP1 ISZERO PUSH3 0x851 JUMPI PUSH1 0x0 DUP1 REVERT JUMPDEST POP PUSH1 0xF SLOAD PUSH3 0x396 SWAP1 PUSH1 0x1 PUSH1 0x1 PUSH1 0xA0 SHL SUB AND DUP2 JUMP JUMPDEST CALLVALUE DUP1 ISZERO PUSH3 0x873 JUMPI PUSH1 0x0 DUP1 REVERT JUMPDEST POP PUSH3 0x3BD PUSH3 0x5A14 JUMP JUMPDEST CALLVALUE DUP1 ISZERO PUSH3 0x88B JUMPI PUSH1 0x0 DUP1 REVERT JUMPDEST POP PUSH3 0x40B PUSH3 0x89D CALLDATASIZE PUSH1 0x4 PUSH3 0x5AE7 JUMP JUMPDEST PUSH1 0x13 PUSH1 0x20 MSTORE PUSH1 0x0 SWAP1 DUP2 MSTORE PUSH1 0x40 SWAP1 KECCAK256 SLOAD PUSH1 0xFF AND DUP2 JUMP JUMPDEST CALLVALUE DUP1 ISZERO PUSH3 0x8BF JUMPI PUSH1 0x0 DUP1 REVERT JUMPDEST POP PUSH1 0x1E SLOAD PUSH3 0x461 SWAP1 PUSH1 0x1 PUSH1 0x1 PUSH1 0xA0 SHL SUB AND DUP2 JUMP JUMPDEST CALLER PUSH1 0x0 SWAP1 DUP2 MSTORE PUSH1 0x14 PUSH1 0x20 MSTORE PUSH1 0x40 SWAP1 KECCAK256 SLOAD PUSH1 0xFF AND ISZERO PUSH3 0x8F2 JUMPI PUSH1 0x0 DUP1 REVERT JUMPDEST CALLER PUSH1 0x0 SWAP1 DUP2 MSTORE PUSH1 0x14 PUSH1 0x20 MSTORE PUSH1 0x40 DUP2 KECCAK256 DUP1 SLOAD PUSH1 0xFF NOT AND PUSH1 0x1 OR SWAP1 SSTORE PUSH1 0x18 DUP1 SLOAD SWAP2 PUSH3 0x91C DUP4 PUSH3 0x5CB9 JUMP JUMPDEST SWAP2 SWAP1 POP SSTORE POP JUMP JUMPDEST CALLER PUSH1 0x0 SWAP1 DUP2 MSTORE PUSH1 0x11 PUSH1 0x20 MSTORE PUSH1 0x40 SWAP1 KECCAK256 SLOAD PUSH1 0xFF AND ISZERO PUSH3 0x941 JUMPI PUSH1 0x0 DUP1 REVERT JUMPDEST CALLER PUSH1 0x0 SWAP1 DUP2 MSTORE PUSH1 0x11 PUSH1 0x20 MSTORE PUSH1 0x40 DUP2 KECCAK256 DUP1 SLOAD PUSH1 0xFF NOT AND PUSH1 0x1 OR SWAP1 SSTORE PUSH1 0x15 DUP1 SLOAD SWAP2 PUSH3 0x91C DUP4 PUSH3 0x5CB9 JUMP JUMPDEST CALLER PUSH1 0x0 SWAP1 DUP2 MSTORE PUSH1 0x14 PUSH1 0x20 MSTORE PUSH1 0x40 SWAP1 KECCAK256 SLOAD PUSH1 0xFF AND PUSH3 0x988 JUMPI PUSH1 0x0 DUP1 REVERT JUMPDEST PUSH1 0x0 DUP3 GT PUSH3 0x996 JUMPI PUSH1 0x0 DUP1 REVERT JUMPDEST PUSH1 0xE SLOAD PUSH1 0x40 MLOAD PUSH4 0x70A08231 PUSH1 0xE0 SHL DUP2 MSTORE DUP4 SWAP2 PUSH1 0x1 PUSH1 0x1 PUSH1 0xA0 SHL SUB AND SWAP1 PUSH4 0x70A08231 SWAP1 PUSH3 0x9C8 SWAP1 CALLER SWAP1 PUSH1 0x4 ADD PUSH3 0x5C16 JUMP JUMPDEST PUSH1 0x20 PUSH1 0x40 MLOAD DUP1 DUP4 SUB DUP2 DUP7 DUP1 EXTCODESIZE ISZERO DUP1 ISZERO PUSH3 0x9E1 JUMPI PUSH1 0x0 DUP1 REVERT JUMPDEST POP GAS STATICCALL ISZERO DUP1 ISZERO PUSH3 0x9F6 JUMPI RETURNDATASIZE PUSH1 0x0 DUP1 RETURNDATACOPY RETURNDATASIZE PUSH1 0x0 REVERT JUMPDEST POP POP POP POP PUSH1 0x40 MLOAD RETURNDATASIZE PUSH1 0x1F NOT PUSH1 0x1F DUP3 ADD AND DUP3 ADD DUP1 PUSH1 0x40 MSTORE POP DUP2 ADD SWAP1 PUSH3 0xA1C SWAP2 SWAP1 PUSH3 0x5CE4 JUMP JUMPDEST LT ISZERO PUSH3 0xA28 JUMPI PUSH1 0x0 DUP1 REVERT JUMPDEST DUP2 PUSH1 0x7 PUSH1 0x0 DUP3 DUP3 SLOAD PUSH3 0xA3C SWAP2 SWAP1 PUSH3 0x5A95 JUMP JUMPDEST SWAP1 SWAP2 SSTORE POP POP PUSH1 0xE SLOAD PUSH1 0x2 SLOAD PUSH1 0x40 MLOAD PUSH32 0xCB8BF55900000000000000000000000000000000000000000000000000000000 DUP2 MSTORE PUSH1 0x1 PUSH1 0x1 PUSH1 0xA0 SHL SUB SWAP1 SWAP3 AND SWAP2 PUSH4 0xCB8BF559 SWAP2 PUSH3 0xA94 SWAP2 CALLER SWAP2 ADDRESS SWAP2 DUP9 SWAP2 SWAP1 PUSH1 0x4 ADD PUSH3 0x5D09 JUMP JUMPDEST PUSH1 0x0 PUSH1 0x40 MLOAD DUP1 DUP4 SUB DUP2 PUSH1 0x0 DUP8 DUP1 EXTCODESIZE ISZERO DUP1 ISZERO PUSH3 0xAAF JUMPI PUSH1 0x0 DUP1 REVERT JUMPDEST POP GAS CALL ISZERO DUP1 ISZERO PUSH3 0xAC4 JUMPI RETURNDATASIZE PUSH1 0x0 DUP1 RETURNDATACOPY RETURNDATASIZE PUSH1 0x0 REVERT JUMPDEST POP POP POP POP POP POP POP JUMP JUMPDEST CALLER PUSH1 0x0 SWAP1 DUP2 MSTORE PUSH1 0x12 PUSH1 0x20 MSTORE PUSH1 0x40 SWAP1 KECCAK256 SLOAD PUSH1 0xFF AND PUSH3 0xAEA JUMPI PUSH1 0x0 DUP1 REVERT JUMPDEST PUSH1 0x0 DUP3 GT PUSH3 0xAF8 JUMPI PUSH1 0x0 DUP1 REVERT JUMPDEST PUSH1 0xD SLOAD PUSH1 0x40 MLOAD PUSH4 0x70A08231 PUSH1 0xE0 SHL DUP2 MSTORE DUP4 SWAP2 PUSH1 0x1 PUSH1 0x1 PUSH1 0xA0 SHL SUB AND SWAP1 PUSH4 0x70A08231 SWAP1 PUSH3 0xB2A SWAP1 CALLER SWAP1 PUSH1 0x4 ADD PUSH3 0x5C16 JUMP JUMPDEST PUSH1 0x20 PUSH1 0x40 MLOAD DUP1 DUP4 SUB DUP2 DUP7 DUP1 EXTCODESIZE ISZERO DUP1 ISZERO PUSH3 0xB43 JUMPI PUSH1 0x0 DUP1 REVERT JUMPDEST POP GAS STATICCALL ISZERO DUP1 ISZERO PUSH3 0xB58 JUMPI RETURNDATASIZE PUSH1 0x0 DUP1 RETURNDATACOPY RETURNDATASIZE PUSH1 0x0 REVERT JUMPDEST POP POP POP POP PUSH1 0x40 MLOAD RETURNDATASIZE PUSH1 0x1F NOT PUSH1 0x1F DUP3 ADD AND DUP3 ADD DUP1 PUSH1 0x40 MSTORE POP DUP2 ADD SWAP1 PUSH3 0xB7E SWAP2 SWAP1 PUSH3 0x5CE4 JUMP JUMPDEST LT ISZERO PUSH3 0xB8A JUMPI PUSH1 0x0 DUP1 REVERT JUMPDEST DUP2 PUSH1 0x5 PUSH1 0x0 DUP3 DUP3 SLOAD PUSH3 0xB9E SWAP2 SWAP1 PUSH3 0x5A95 JUMP JUMPDEST SWAP1 SWAP2 SSTORE POP POP PUSH1 0xD SLOAD PUSH1 0x2 SLOAD PUSH1 0x40 MLOAD PUSH32 0xCB8BF55900000000000000000000000000000000000000000000000000000000 DUP2 MSTORE PUSH1 0x1 PUSH1 0x1 PUSH1 0xA0 SHL SUB SWAP1 SWAP3 AND SWAP2 PUSH4 0xCB8BF559 SWAP2 PUSH3 0xA94 SWAP2 CALLER SWAP2 ADDRESS SWAP2 DUP9 SWAP2 SWAP1 PUSH1 0x4 ADD PUSH3 0x5D09 JUMP JUMPDEST CALLER PUSH1 0x0 SWAP1 DUP2 MSTORE PUSH1 0x12 PUSH1 0x20 MSTORE PUSH1 0x40 SWAP1 KECCAK256 SLOAD PUSH1 0xFF AND PUSH3 0xC13 JUMPI PUSH1 0x0 DUP1 REVERT JUMPDEST CALLER PUSH1 0x0 SWAP1 DUP2 MSTORE PUSH1 0x12 PUSH1 0x20 MSTORE PUSH1 0x40 DUP2 KECCAK256 DUP1 SLOAD PUSH1 0xFF NOT AND SWAP1 SSTORE PUSH1 0x16 DUP1 SLOAD SWAP2 PUSH3 0x91C DUP4 PUSH3 0x5D4F JUMP JUMPDEST PUSH1 0x3 SLOAD PUSH1 0x1 PUSH1 0x1 PUSH1 0xA0 SHL SUB AND CALLER EQ PUSH3 0xC52 JUMPI PUSH1 0x0 DUP1 REVERT JUMPDEST PUSH1 0x3 SLOAD PUSH1 0x40 MLOAD PUSH1 0x1 PUSH1 0x1 PUSH1 0xA0 SHL SUB SWAP1 SWAP2 AND SWAP1 SELFBALANCE DUP1 ISZERO PUSH2 0x8FC MUL SWAP2 PUSH1 0x0 DUP2 DUP2 DUP2 DUP6 DUP9 DUP9 CALL SWAP4 POP POP POP POP ISZERO DUP1 ISZERO PUSH3 0xC8C JUMPI RETURNDATASIZE PUSH1 0x0 DUP1 RETURNDATACOPY RETURNDATASIZE PUSH1 0x0 REVERT JUMPDEST POP JUMP JUMPDEST CALLER PUSH1 0x0 SWAP1 DUP2 MSTORE PUSH1 0x11 PUSH1 0x20 MSTORE PUSH1 0x40 SWAP1 KECCAK256 SLOAD PUSH1 0xFF AND PUSH3 0xCAC JUMPI PUSH1 0x0 DUP1 REVERT JUMPDEST PUSH1 0x0 DUP3 GT PUSH3 0xCBA JUMPI PUSH1 0x0 DUP1 REVERT JUMPDEST PUSH1 0xC SLOAD PUSH1 0x40 MLOAD PUSH4 0x70A08231 PUSH1 0xE0 SHL DUP2 MSTORE DUP4 SWAP2 PUSH1 0x1 PUSH1 0x1 PUSH1 0xA0 SHL SUB AND SWAP1 PUSH4 0x70A08231 SWAP1 PUSH3 0xCEC SWAP1 CALLER SWAP1 PUSH1 0x4 ADD PUSH3 0x5C16 JUMP JUMPDEST PUSH1 0x20 PUSH1 0x40 MLOAD DUP1 DUP4 SUB DUP2 DUP7 DUP1 EXTCODESIZE ISZERO DUP1 ISZERO PUSH3 0xD05 JUMPI PUSH1 0x0 DUP1 REVERT JUMPDEST POP GAS STATICCALL ISZERO DUP1 ISZERO PUSH3 0xD1A JUMPI RETURNDATASIZE PUSH1 0x0 DUP1 RETURNDATACOPY RETURNDATASIZE PUSH1 0x0 REVERT JUMPDEST POP POP POP POP PUSH1 0x40 MLOAD RETURNDATASIZE PUSH1 0x1F NOT PUSH1 0x1F DUP3 ADD AND DUP3 ADD DUP1 PUSH1 0x40 MSTORE POP DUP2 ADD SWAP1 PUSH3 0xD40 SWAP2 SWAP1 PUSH3 0x5CE4 JUMP JUMPDEST LT ISZERO PUSH3 0xD4C JUMPI PUSH1 0x0 DUP1 REVERT JUMPDEST DUP2 PUSH1 0x8 PUSH1 0x0 DUP3 DUP3 SLOAD PUSH3 0xD60 SWAP2 SWAP1 PUSH3 0x5A95 JUMP JUMPDEST SWAP1 SWAP2 SSTORE POP POP PUSH1 0xC SLOAD PUSH1 0x2 SLOAD PUSH1 0x40 MLOAD PUSH32 0xCB8BF55900000000000000000000000000000000000000000000000000000000 DUP2 MSTORE PUSH1 0x1 PUSH1 0x1 PUSH1 0xA0 SHL SUB SWAP1 SWAP3 AND SWAP2 PUSH4 0xCB8BF559 SWAP2 PUSH3 0xA94 SWAP2 CALLER SWAP2 ADDRESS SWAP2 DUP9 SWAP2 SWAP1 PUSH1 0x4 ADD PUSH3 0x5D09 JUMP JUMPDEST CALLER PUSH1 0x0 SWAP1 DUP2 MSTORE PUSH1 0x13 PUSH1 0x20 MSTORE PUSH1 0x40 SWAP1 KECCAK256 SLOAD PUSH1 0xFF AND ISZERO PUSH3 0xDD6 JUMPI PUSH1 0x0 DUP1 REVERT JUMPDEST CALLER PUSH1 0x0 SWAP1 DUP2 MSTORE PUSH1 0x13 PUSH1 0x20 MSTORE PUSH1 0x40 DUP2 KECCAK256 DUP1 SLOAD PUSH1 0xFF NOT AND PUSH1 0x1 OR SWAP1 SSTORE PUSH1 0x17 DUP1 SLOAD SWAP2 PUSH3 0x91C DUP4 PUSH3 0x5CB9 JUMP JUMPDEST PUSH1 0x0 CALLVALUE GT PUSH3 0xE0E JUMPI PUSH1 0x0 DUP1 REVERT JUMPDEST DUP1 CALLVALUE EQ PUSH3 0xE1B JUMPI PUSH1 0x0 DUP1 REVERT JUMPDEST PUSH1 0x0 SLOAD CALLVALUE EQ PUSH3 0xE2A JUMPI PUSH1 0x0 DUP1 REVERT JUMPDEST PUSH1 0x2 SLOAD TIMESTAMP LT PUSH3 0xE39 JUMPI PUSH1 0x0 DUP1 REVERT JUMPDEST CALLER PUSH1 0x0 SWAP1 DUP2 MSTORE PUSH1 0x11 PUSH1 0x20 MSTORE PUSH1 0x40 SWAP1 KECCAK256 SLOAD PUSH1 0xFF AND DUP1 PUSH3 0xE67 JUMPI POP CALLER PUSH1 0x0 SWAP1 DUP2 MSTORE PUSH1 0x12 PUSH1 0x20 MSTORE PUSH1 0x40 SWAP1 KECCAK256 SLOAD PUSH1 0xFF AND JUMPDEST DUP1 PUSH3 0xE82 JUMPI POP CALLER PUSH1 0x0 SWAP1 DUP2 MSTORE PUSH1 0x13 PUSH1 0x20 MSTORE PUSH1 0x40 SWAP1 KECCAK256 SLOAD PUSH1 0xFF AND JUMPDEST DUP1 PUSH3 0xE9D JUMPI POP CALLER PUSH1 0x0 SWAP1 DUP2 MSTORE PUSH1 0x14 PUSH1 0x20 MSTORE PUSH1 0x40 SWAP1 KECCAK256 SLOAD PUSH1 0xFF AND JUMPDEST PUSH3 0xEA7 JUMPI PUSH1 0x0 DUP1 REVERT JUMPDEST CALLER PUSH1 0x0 SWAP1 DUP2 MSTORE PUSH1 0x11 PUSH1 0x20 MSTORE PUSH1 0x40 SWAP1 KECCAK256 SLOAD PUSH1 0xFF AND ISZERO PUSH3 0xFA6 JUMPI PUSH1 0x5 SLOAD PUSH1 0x4 SLOAD LT ISZERO DUP1 ISZERO PUSH3 0xED9 JUMPI POP PUSH1 0x6 SLOAD PUSH1 0x4 SLOAD LT ISZERO JUMPDEST DUP1 ISZERO PUSH3 0xEEA JUMPI POP PUSH1 0x7 SLOAD PUSH1 0x4 SLOAD LT ISZERO JUMPDEST PUSH3 0xEF4 JUMPI PUSH1 0x0 DUP1 REVERT JUMPDEST CALLVALUE PUSH1 0x1 PUSH1 0x0 DUP3 DUP3 SLOAD PUSH3 0xF08 SWAP2 SWAP1 PUSH3 0x5A95 JUMP JUMPDEST SWAP1 SWAP2 SSTORE POP POP PUSH1 0xC SLOAD PUSH1 0x40 MLOAD PUSH32 0x910BDAEB00000000000000000000000000000000000000000000000000000000 DUP2 MSTORE PUSH1 0x1 PUSH1 0x1 PUSH1 0xA0 SHL SUB SWAP1 SWAP2 AND SWAP1 PUSH4 0x910BDAEB SWAP1 PUSH3 0xF59 SWAP1 PUSH1 0x3 SWAP1 PUSH1 0x4 ADD PUSH3 0x5D82 JUMP JUMPDEST PUSH1 0x0 PUSH1 0x40 MLOAD DUP1 DUP4 SUB DUP2 PUSH1 0x0 DUP8 DUP1 EXTCODESIZE ISZERO DUP1 ISZERO PUSH3 0xF74 JUMPI PUSH1 0x0 DUP1 REVERT JUMPDEST POP GAS CALL ISZERO DUP1 ISZERO PUSH3 0xF89 JUMPI RETURNDATASIZE PUSH1 0x0 DUP1 RETURNDATACOPY RETURNDATASIZE PUSH1 0x0 REVERT JUMPDEST POP POP POP POP TIMESTAMP PUSH2 0x12C PUSH3 0xF9D SWAP2 SWAP1 PUSH3 0x5A95 JUMP JUMPDEST PUSH1 0x2 SSTORE PUSH3 0x1261 JUMP JUMPDEST CALLER PUSH1 0x0 SWAP1 DUP2 MSTORE PUSH1 0x12 PUSH1 0x20 MSTORE PUSH1 0x40 SWAP1 KECCAK256 SLOAD PUSH1 0xFF AND ISZERO PUSH3 0x10A4 JUMPI PUSH1 0x4 SLOAD PUSH1 0x5 SLOAD LT ISZERO DUP1 ISZERO PUSH3 0xFD8 JUMPI POP PUSH1 0x6 SLOAD PUSH1 0x5 SLOAD LT ISZERO JUMPDEST DUP1 ISZERO PUSH3 0xFE9 JUMPI POP PUSH1 0x7 SLOAD PUSH1 0x5 SLOAD LT ISZERO JUMPDEST PUSH3 0xFF3 JUMPI PUSH1 0x0 DUP1 REVERT JUMPDEST CALLVALUE PUSH1 0x1 PUSH1 0x0 DUP3 DUP3 SLOAD PUSH3 0x1007 SWAP2 SWAP1 PUSH3 0x5A95 JUMP JUMPDEST SWAP1 SWAP2 SSTORE POP PUSH3 0x101B SWAP1 POP TIMESTAMP PUSH2 0x12C PUSH3 0x5A95 JUMP JUMPDEST PUSH1 0x2 SSTORE PUSH1 0xD SLOAD PUSH1 0x40 MLOAD PUSH32 0x910BDAEB00000000000000000000000000000000000000000000000000000000 DUP2 MSTORE PUSH1 0x1 PUSH1 0x1 PUSH1 0xA0 SHL SUB SWAP1 SWAP2 AND SWAP1 PUSH4 0x910BDAEB SWAP1 PUSH3 0x106A SWAP1 PUSH1 0x3 SWAP1 PUSH1 0x4 ADD PUSH3 0x5D82 JUMP JUMPDEST PUSH1 0x0 PUSH1 0x40 MLOAD DUP1 DUP4 SUB DUP2 PUSH1 0x0 DUP8 DUP1 EXTCODESIZE ISZERO DUP1 ISZERO PUSH3 0x1085 JUMPI PUSH1 0x0 DUP1 REVERT JUMPDEST POP GAS CALL ISZERO DUP1 ISZERO PUSH3 0x109A JUMPI RETURNDATASIZE PUSH1 0x0 DUP1 RETURNDATACOPY RETURNDATASIZE PUSH1 0x0 REVERT JUMPDEST POP POP POP POP PUSH3 0x1261 JUMP JUMPDEST CALLER PUSH1 0x0 SWAP1 DUP2 MSTORE PUSH1 0x13 PUSH1 0x20 MSTORE PUSH1 0x40 SWAP1 KECCAK256 SLOAD PUSH1 0xFF AND ISZERO PUSH3 0x1168 JUMPI PUSH1 0x4 SLOAD PUSH1 0x6 SLOAD LT ISZERO DUP1 ISZERO PUSH3 0x10D6 JUMPI POP PUSH1 0x5 SLOAD PUSH1 0x6 SLOAD LT ISZERO JUMPDEST DUP1 ISZERO PUSH3 0x10E7 JUMPI POP PUSH1 0x7 SLOAD PUSH1 0x6 SLOAD LT ISZERO JUMPDEST PUSH3 0x10F1 JUMPI PUSH1 0x0 DUP1 REVERT JUMPDEST CALLVALUE PUSH1 0x1 PUSH1 0x0 DUP3 DUP3 SLOAD PUSH3 0x1105 SWAP2 SWAP1 PUSH3 0x5A95 JUMP JUMPDEST SWAP1 SWAP2 SSTORE POP PUSH3 0x1119 SWAP1 POP TIMESTAMP PUSH2 0x12C PUSH3 0x5A95 JUMP JUMPDEST PUSH1 0x2 SSTORE PUSH1 0xF SLOAD PUSH1 0x40 MLOAD PUSH32 0x910BDAEB00000000000000000000000000000000000000000000000000000000 DUP2 MSTORE PUSH1 0x1 PUSH1 0x1 PUSH1 0xA0 SHL SUB SWAP1 SWAP2 AND SWAP1 PUSH4 0x910BDAEB SWAP1 PUSH3 0x106A SWAP1 PUSH1 0x3 SWAP1 PUSH1 0x4 ADD PUSH3 0x5D82 JUMP JUMPDEST CALLER PUSH1 0x0 SWAP1 DUP2 MSTORE PUSH1 0x14 PUSH1 0x20 MSTORE PUSH1 0x40 SWAP1 KECCAK256 SLOAD PUSH1 0xFF AND ISZERO PUSH3 0x1261 JUMPI PUSH1 0x4 SLOAD PUSH1 0x7 SLOAD LT ISZERO DUP1 ISZERO PUSH3 0x119A JUMPI POP PUSH1 0x5 SLOAD PUSH1 0x7 SLOAD LT ISZERO JUMPDEST DUP1 ISZERO PUSH3 0x11AB JUMPI POP PUSH1 0x6 SLOAD PUSH1 0x7 SLOAD LT ISZERO JUMPDEST PUSH3 0x11B5 JUMPI PUSH1 0x0 DUP1 REVERT JUMPDEST CALLVALUE PUSH1 0x1 PUSH1 0x0 DUP3 DUP3 SLOAD PUSH3 0x11C9 SWAP2 SWAP1 PUSH3 0x5A95 JUMP JUMPDEST SWAP1 SWAP2 SSTORE POP PUSH3 0x11DD SWAP1 POP TIMESTAMP PUSH2 0x12C PUSH3 0x5A95 JUMP JUMPDEST PUSH1 0x2 SSTORE PUSH1 0xE SLOAD PUSH1 0x40 MLOAD PUSH32 0x910BDAEB00000000000000000000000000000000000000000000000000000000 DUP2 MSTORE PUSH1 0x1 PUSH1 0x1 PUSH1 0xA0 SHL SUB SWAP1 SWAP2 AND SWAP1 PUSH4 0x910BDAEB SWAP1 PUSH3 0x122C SWAP1 PUSH1 0x3 SWAP1 PUSH1 0x4 ADD PUSH3 0x5D82 JUMP JUMPDEST PUSH1 0x0 PUSH1 0x40 MLOAD DUP1 DUP4 SUB DUP2 PUSH1 0x0 DUP8 DUP1 EXTCODESIZE ISZERO DUP1 ISZERO PUSH3 0x1247 JUMPI PUSH1 0x0 DUP1 REVERT JUMPDEST POP GAS CALL ISZERO DUP1 ISZERO PUSH3 0x125C JUMPI RETURNDATASIZE PUSH1 0x0 DUP1 RETURNDATACOPY RETURNDATASIZE PUSH1 0x0 REVERT JUMPDEST POP POP POP POP JUMPDEST PUSH1 0x64 PUSH1 0x0 SLOAD PUSH1 0x65 PUSH3 0x1274 SWAP2 SWAP1 PUSH3 0x5D92 JUMP JUMPDEST PUSH3 0x1280 SWAP2 SWAP1 PUSH3 0x5DE3 JUMP JUMPDEST PUSH1 0x0 SSTORE POP JUMP JUMPDEST CALLER PUSH1 0x0 SWAP1 DUP2 MSTORE PUSH1 0x13 PUSH1 0x20 MSTORE PUSH1 0x40 SWAP1 KECCAK256 SLOAD PUSH1 0xFF AND PUSH3 0x12A3 JUMPI PUSH1 0x0 DUP1 REVERT JUMPDEST CALLER PUSH1 0x0 SWAP1 DUP2 MSTORE PUSH1 0x13 PUSH1 0x20 MSTORE PUSH1 0x40 DUP2 KECCAK256 DUP1 SLOAD PUSH1 0xFF NOT AND SWAP1 SSTORE PUSH1 0x17 DUP1 SLOAD SWAP2 PUSH3 0x91C DUP4 PUSH3 0x5D4F JUMP JUMPDEST CALLER PUSH1 0x0 SWAP1 DUP2 MSTORE PUSH1 0x12 PUSH1 0x20 MSTORE PUSH1 0x40 SWAP1 KECCAK256 SLOAD PUSH1 0xFF AND ISZERO PUSH3 0x12E8 JUMPI PUSH1 0x0 DUP1 REVERT JUMPDEST CALLER PUSH1 0x0 SWAP1 DUP2 MSTORE PUSH1 0x12 PUSH1 0x20 MSTORE PUSH1 0x40 DUP2 KECCAK256 DUP1 SLOAD PUSH1 0xFF NOT AND PUSH1 0x1 OR SWAP1 SSTORE PUSH1 0x16 DUP1 SLOAD SWAP2 PUSH3 0x91C DUP4 PUSH3 0x5CB9 JUMP JUMPDEST CALLER PUSH1 0x0 SWAP1 DUP2 MSTORE PUSH1 0x13 PUSH1 0x20 MSTORE PUSH1 0x40 SWAP1 KECCAK256 SLOAD PUSH1 0xFF AND PUSH3 0x132F JUMPI PUSH1 0x0 DUP1 REVERT JUMPDEST PUSH1 0x0 DUP3 GT PUSH3 0x133D JUMPI PUSH1 0x0 DUP1 REVERT JUMPDEST PUSH1 0xF SLOAD PUSH1 0x40 MLOAD PUSH4 0x70A08231 PUSH1 0xE0 SHL DUP2 MSTORE DUP4 SWAP2 PUSH1 0x1 PUSH1 0x1 PUSH1 0xA0 SHL SUB AND SWAP1 PUSH4 0x70A08231 SWAP1 PUSH3 0x136F SWAP1 CALLER SWAP1 PUSH1 0x4 ADD PUSH3 0x5C16 JUMP JUMPDEST PUSH1 0x20 PUSH1 0x40 MLOAD DUP1 DUP4 SUB DUP2 DUP7 DUP1 EXTCODESIZE ISZERO DUP1 ISZERO PUSH3 0x1388 JUMPI PUSH1 0x0 DUP1 REVERT JUMPDEST POP GAS STATICCALL ISZERO DUP1 ISZERO PUSH3 0x139D JUMPI RETURNDATASIZE PUSH1 0x0 DUP1 RETURNDATACOPY RETURNDATASIZE PUSH1 0x0 REVERT JUMPDEST POP POP POP POP PUSH1 0x40 MLOAD RETURNDATASIZE PUSH1 0x1F NOT PUSH1 0x1F DUP3 ADD AND DUP3 ADD DUP1 PUSH1 0x40 MSTORE POP DUP2 ADD SWAP1 PUSH3 0x13C3 SWAP2 SWAP1 PUSH3 0x5CE4 JUMP JUMPDEST LT ISZERO PUSH3 0x13CF JUMPI PUSH1 0x0 DUP1 REVERT JUMPDEST DUP2 PUSH1 0x6 PUSH1 0x0 DUP3 DUP3 SLOAD PUSH3 0x13E3 SWAP2 SWAP1 PUSH3 0x5A95 JUMP JUMPDEST SWAP1 SWAP2 SSTORE POP POP PUSH1 0xF SLOAD PUSH1 0x2 SLOAD PUSH1 0x40 MLOAD PUSH32 0xCB8BF55900000000000000000000000000000000000000000000000000000000 DUP2 MSTORE PUSH1 0x1 PUSH1 0x1 PUSH1 0xA0 SHL SUB SWAP1 SWAP3 AND SWAP2 PUSH4 0xCB8BF559 SWAP2 PUSH3 0xA94 SWAP2 CALLER SWAP2 ADDRESS SWAP2 DUP9 SWAP2 SWAP1 PUSH1 0x4 ADD PUSH3 0x5D09 JUMP JUMPDEST CALLER PUSH1 0x0 SWAP1 DUP2 MSTORE PUSH1 0x13 PUSH1 0x20 MSTORE PUSH1 0x40 SWAP1 KECCAK256 SLOAD PUSH1 0xFF AND PUSH3 0x1458 JUMPI PUSH1 0x0 DUP1 REVERT JUMPDEST PUSH1 0x0 DUP3 GT PUSH3 0x1466 JUMPI PUSH1 0x0 DUP1 REVERT JUMPDEST PUSH1 0xF SLOAD PUSH1 0x40 MLOAD PUSH4 0x70A08231 PUSH1 0xE0 SHL DUP2 MSTORE DUP4 SWAP2 PUSH1 0x1 PUSH1 0x1 PUSH1 0xA0 SHL SUB AND SWAP1 PUSH4 0x70A08231 SWAP1 PUSH3 0x1498 SWAP1 CALLER SWAP1 PUSH1 0x4 ADD PUSH3 0x5C16 JUMP JUMPDEST PUSH1 0x20 PUSH1 0x40 MLOAD DUP1 DUP4 SUB DUP2 DUP7 DUP1 EXTCODESIZE ISZERO DUP1 ISZERO PUSH3 0x14B1 JUMPI PUSH1 0x0 DUP1 REVERT JUMPDEST POP GAS STATICCALL ISZERO DUP1 ISZERO PUSH3 0x14C6 JUMPI RETURNDATASIZE PUSH1 0x0 DUP1 RETURNDATACOPY RETURNDATASIZE PUSH1 0x0 REVERT JUMPDEST POP POP POP POP PUSH1 0x40 MLOAD RETURNDATASIZE PUSH1 0x1F NOT PUSH1 0x1F DUP3 ADD AND DUP3 ADD DUP1 PUSH1 0x40 MSTORE POP DUP2 ADD SWAP1 PUSH3 0x14EC SWAP2 SWAP1 PUSH3 0x5CE4 JUMP JUMPDEST LT ISZERO PUSH3 0x14F8 JUMPI PUSH1 0x0 DUP1 REVERT JUMPDEST DUP2 PUSH1 0xA PUSH1 0x0 DUP3 DUP3 SLOAD PUSH3 0x13E3 SWAP2 SWAP1 PUSH3 0x5A95 JUMP JUMPDEST PUSH1 0x3 SLOAD PUSH1 0x1 PUSH1 0x1 PUSH1 0xA0 SHL SUB AND CALLER EQ PUSH3 0x1524 JUMPI PUSH1 0x0 DUP1 REVERT JUMPDEST PUSH1 0xC DUP1 SLOAD PUSH1 0x1 PUSH1 0x1 PUSH1 0xA0 SHL SUB SWAP6 DUP7 AND PUSH20 0xFFFFFFFFFFFFFFFFFFFFFFFFFFFFFFFFFFFFFFFF NOT SWAP2 DUP3 AND OR SWAP1 SWAP2 SSTORE PUSH1 0xD DUP1 SLOAD SWAP5 DUP7 AND SWAP5 DUP3 AND SWAP5 SWAP1 SWAP5 OR SWAP1 SWAP4 SSTORE PUSH1 0xF DUP1 SLOAD SWAP3 DUP6 AND SWAP3 DUP5 AND SWAP3 SWAP1 SWAP3 OR SWAP1 SWAP2 SSTORE PUSH1 0xE DUP1 SLOAD SWAP2 SWAP1 SWAP4 AND SWAP2 AND OR SWAP1 SSTORE JUMP JUMPDEST CALLER PUSH1 0x0 SWAP1 DUP2 MSTORE PUSH1 0x11 PUSH1 0x20 MSTORE PUSH1 0x40 SWAP1 KECCAK256 SLOAD PUSH1 0xFF AND PUSH3 0x159E JUMPI PUSH1 0x0 DUP1 REVERT JUMPDEST PUSH1 0x0 DUP3 GT PUSH3 0x15AC JUMPI PUSH1 0x0 DUP1 REVERT JUMPDEST PUSH1 0xC SLOAD PUSH1 0x40 MLOAD PUSH4 0x70A08231 PUSH1 0xE0 SHL DUP2 MSTORE DUP4 SWAP2 PUSH1 0x1 PUSH1 0x1 PUSH1 0xA0 SHL SUB AND SWAP1 PUSH4 0x70A08231 SWAP1 PUSH3 0x15DE SWAP1 CALLER SWAP1 PUSH1 0x4 ADD PUSH3 0x5C16 JUMP JUMPDEST PUSH1 0x20 PUSH1 0x40 MLOAD DUP1 DUP4 SUB DUP2 DUP7 DUP1 EXTCODESIZE ISZERO DUP1 ISZERO PUSH3 0x15F7 JUMPI PUSH1 0x0 DUP1 REVERT JUMPDEST POP GAS STATICCALL ISZERO DUP1 ISZERO PUSH3 0x160C JUMPI RETURNDATASIZE PUSH1 0x0 DUP1 RETURNDATACOPY RETURNDATASIZE PUSH1 0x0 REVERT JUMPDEST POP POP POP POP PUSH1 0x40 MLOAD RETURNDATASIZE PUSH1 0x1F NOT PUSH1 0x1F DUP3 ADD AND DUP3 ADD DUP1 PUSH1 0x40 MSTORE POP DUP2 ADD SWAP1 PUSH3 0x1632 SWAP2 SWAP1 PUSH3 0x5CE4 JUMP JUMPDEST LT ISZERO PUSH3 0x163E JUMPI PUSH1 0x0 DUP1 REVERT JUMPDEST DUP2 PUSH1 0x4 PUSH1 0x0 DUP3 DUP3 SLOAD PUSH3 0xD60 SWAP2 SWAP1 PUSH3 0x5A95 JUMP JUMPDEST PUSH1 0x2 SLOAD TIMESTAMP LT ISZERO PUSH3 0x1662 JUMPI PUSH1 0x0 DUP1 REVERT JUMPDEST PUSH1 0x4 SLOAD ISZERO PUSH3 0x1933 JUMPI PUSH1 0xC PUSH1 0x0 SWAP1 SLOAD SWAP1 PUSH2 0x100 EXP SWAP1 DIV PUSH1 0x1 PUSH1 0x1 PUSH1 0xA0 SHL SUB AND PUSH1 0x1 PUSH1 0x1 PUSH1 0xA0 SHL SUB AND PUSH4 0x295B4E17 PUSH1 0x40 MLOAD DUP2 PUSH4 0xFFFFFFFF AND PUSH1 0xE0 SHL DUP2 MSTORE PUSH1 0x4 ADD PUSH1 0x20 PUSH1 0x40 MLOAD DUP1 DUP4 SUB DUP2 DUP7 DUP1 EXTCODESIZE ISZERO DUP1 ISZERO PUSH3 0x16BA JUMPI PUSH1 0x0 DUP1 REVERT JUMPDEST POP GAS STATICCALL ISZERO DUP1 ISZERO PUSH3 0x16CF JUMPI RETURNDATASIZE PUSH1 0x0 DUP1 RETURNDATACOPY RETURNDATASIZE PUSH1 0x0 REVERT JUMPDEST POP POP POP POP PUSH1 0x40 MLOAD RETURNDATASIZE PUSH1 0x1F NOT PUSH1 0x1F DUP3 ADD AND DUP3 ADD DUP1 PUSH1 0x40 MSTORE POP DUP2 ADD SWAP1 PUSH3 0x16F5 SWAP2 SWAP1 PUSH3 0x5E10 JUMP JUMPDEST PUSH3 0x1933 JUMPI PUSH1 0xC SLOAD PUSH1 0x2 SLOAD PUSH1 0x40 MLOAD PUSH32 0xC290D69100000000000000000000000000000000000000000000000000000000 DUP2 MSTORE PUSH1 0x0 SWAP3 DUP4 SWAP3 DUP4 SWAP3 DUP4 SWAP3 PUSH1 0x1 PUSH1 0x1 PUSH1 0xA0 SHL SUB AND SWAP2 PUSH4 0xC290D691 SWAP2 PUSH3 0x174E SWAP2 SWAP1 PUSH1 0x4 ADD PUSH3 0x5B1C JUMP JUMPDEST PUSH1 0x80 PUSH1 0x40 MLOAD DUP1 DUP4 SUB DUP2 PUSH1 0x0 DUP8 DUP1 EXTCODESIZE ISZERO DUP1 ISZERO PUSH3 0x1769 JUMPI PUSH1 0x0 DUP1 REVERT JUMPDEST POP GAS CALL ISZERO DUP1 ISZERO PUSH3 0x177E JUMPI RETURNDATASIZE PUSH1 0x0 DUP1 RETURNDATACOPY RETURNDATASIZE PUSH1 0x0 REVERT JUMPDEST POP POP POP POP PUSH1 0x40 MLOAD RETURNDATASIZE PUSH1 0x1F NOT PUSH1 0x1F DUP3 ADD AND DUP3 ADD DUP1 PUSH1 0x40 MSTORE POP DUP2 ADD SWAP1 PUSH3 0x17A4 SWAP2 SWAP1 PUSH3 0x5E42 JUMP JUMPDEST PUSH1 0xC SLOAD PUSH1 0x40 MLOAD PUSH32 0x47B8400A00000000000000000000000000000000000000000000000000000000 DUP2 MSTORE SWAP5 SWAP9 POP SWAP3 SWAP7 POP SWAP1 SWAP5 POP SWAP3 POP PUSH1 0x1 PUSH1 0x1 PUSH1 0xA0 SHL SUB AND SWAP1 PUSH4 0x47B8400A SWAP1 PUSH3 0x17FE SWAP1 DUP8 SWAP1 DUP8 SWAP1 DUP8 SWAP1 DUP8 SWAP1 PUSH1 0x4 ADD PUSH3 0x5D09 JUMP JUMPDEST PUSH1 0x20 PUSH1 0x40 MLOAD DUP1 DUP4 SUB DUP2 PUSH1 0x0 DUP8 DUP1 EXTCODESIZE ISZERO DUP1 ISZERO PUSH3 0x1819 JUMPI PUSH1 0x0 DUP1 REVERT JUMPDEST POP GAS CALL SWAP3 POP POP POP DUP1 ISZERO PUSH3 0x184C JUMPI POP PUSH1 0x40 DUP1 MLOAD PUSH1 0x1F RETURNDATASIZE SWAP1 DUP2 ADD PUSH1 0x1F NOT AND DUP3 ADD SWAP1 SWAP3 MSTORE PUSH3 0x1849 SWAP2 DUP2 ADD SWAP1 PUSH3 0x5E10 JUMP JUMPDEST PUSH1 0x1 JUMPDEST PUSH3 0x192C JUMPI RETURNDATASIZE DUP1 DUP1 ISZERO PUSH3 0x187D JUMPI PUSH1 0x40 MLOAD SWAP2 POP PUSH1 0x1F NOT PUSH1 0x3F RETURNDATASIZE ADD AND DUP3 ADD PUSH1 0x40 MSTORE RETURNDATASIZE DUP3 MSTORE RETURNDATASIZE PUSH1 0x0 PUSH1 0x20 DUP5 ADD RETURNDATACOPY PUSH3 0x1882 JUMP JUMPDEST PUSH1 0x60 SWAP2 POP JUMPDEST POP PUSH1 0xC SLOAD PUSH1 0x40 MLOAD PUSH32 0x9CBCC1A800000000000000000000000000000000000000000000000000000000 DUP2 MSTORE PUSH1 0x1 PUSH1 0x1 PUSH1 0xA0 SHL SUB SWAP1 SWAP2 AND SWAP1 PUSH4 0x9CBCC1A8 SWAP1 PUSH3 0x18CE SWAP1 DUP6 SWAP1 PUSH1 0x4 ADD PUSH3 0x5B1C JUMP JUMPDEST PUSH1 0x20 PUSH1 0x40 MLOAD DUP1 DUP4 SUB DUP2 PUSH1 0x0 DUP8 DUP1 EXTCODESIZE ISZERO DUP1 ISZERO PUSH3 0x18E9 JUMPI PUSH1 0x0 DUP1 REVERT JUMPDEST POP GAS CALL ISZERO DUP1 ISZERO PUSH3 0x18FE JUMPI RETURNDATASIZE PUSH1 0x0 DUP1 RETURNDATACOPY RETURNDATASIZE PUSH1 0x0 REVERT JUMPDEST POP POP POP POP PUSH1 0x40 MLOAD RETURNDATASIZE PUSH1 0x1F NOT PUSH1 0x1F DUP3 ADD AND DUP3 ADD DUP1 PUSH1 0x40 MSTORE POP DUP2 ADD SWAP1 PUSH3 0x1924 SWAP2 SWAP1 PUSH3 0x5E10 JUMP JUMPDEST POP POP PUSH3 0x192E JUMP JUMPDEST POP JUMPDEST POP POP POP POP JUMPDEST PUSH1 0x5 SLOAD ISZERO PUSH3 0x1C04 JUMPI PUSH1 0xD PUSH1 0x0 SWAP1 SLOAD SWAP1 PUSH2 0x100 EXP SWAP1 DIV PUSH1 0x1 PUSH1 0x1 PUSH1 0xA0 SHL SUB AND PUSH1 0x1 PUSH1 0x1 PUSH1 0xA0 SHL SUB AND PUSH4 0x295B4E17 PUSH1 0x40 MLOAD DUP2 PUSH4 0xFFFFFFFF AND PUSH1 0xE0 SHL DUP2 MSTORE PUSH1 0x4 ADD PUSH1 0x20 PUSH1 0x40 MLOAD DUP1 DUP4 SUB DUP2 DUP7 DUP1 EXTCODESIZE ISZERO DUP1 ISZERO PUSH3 0x198B JUMPI PUSH1 0x0 DUP1 REVERT JUMPDEST POP GAS STATICCALL ISZERO DUP1 ISZERO PUSH3 0x19A0 JUMPI RETURNDATASIZE PUSH1 0x0 DUP1 RETURNDATACOPY RETURNDATASIZE PUSH1 0x0 REVERT JUMPDEST POP POP POP POP PUSH1 0x40 MLOAD RETURNDATASIZE PUSH1 0x1F NOT PUSH1 0x1F DUP3 ADD AND DUP3 ADD DUP1 PUSH1 0x40 MSTORE POP DUP2 ADD SWAP1 PUSH3 0x19C6 SWAP2 SWAP1 PUSH3 0x5E10 JUMP JUMPDEST PUSH3 0x1C04 JUMPI PUSH1 0xD SLOAD PUSH1 0x2 SLOAD PUSH1 0x40 MLOAD PUSH32 0xC290D69100000000000000000000000000000000000000000000000000000000 DUP2 MSTORE PUSH1 0x0 SWAP3 DUP4 SWAP3 DUP4 SWAP3 DUP4 SWAP3 PUSH1 0x1 PUSH1 0x1 PUSH1 0xA0 SHL SUB AND SWAP2 PUSH4 0xC290D691 SWAP2 PUSH3 0x1A1F SWAP2 SWAP1 PUSH1 0x4 ADD PUSH3 0x5B1C JUMP JUMPDEST PUSH1 0x80 PUSH1 0x40 MLOAD DUP1 DUP4 SUB DUP2 PUSH1 0x0 DUP8 DUP1 EXTCODESIZE ISZERO DUP1 ISZERO PUSH3 0x1A3A JUMPI PUSH1 0x0 DUP1 REVERT JUMPDEST POP GAS CALL ISZERO DUP1 ISZERO PUSH3 0x1A4F JUMPI RETURNDATASIZE PUSH1 0x0 DUP1 RETURNDATACOPY RETURNDATASIZE PUSH1 0x0 REVERT JUMPDEST POP POP POP POP PUSH1 0x40 MLOAD RETURNDATASIZE PUSH1 0x1F NOT PUSH1 0x1F DUP3 ADD AND DUP3 ADD DUP1 PUSH1 0x40 MSTORE POP DUP2 ADD SWAP1 PUSH3 0x1A75 SWAP2 SWAP1 PUSH3 0x5E42 JUMP JUMPDEST PUSH1 0xD SLOAD PUSH1 0x40 MLOAD PUSH32 0x47B8400A00000000000000000000000000000000000000000000000000000000 DUP2 MSTORE SWAP5 SWAP9 POP SWAP3 SWAP7 POP SWAP1 SWAP5 POP SWAP3 POP PUSH1 0x1 PUSH1 0x1 PUSH1 0xA0 SHL SUB AND SWAP1 PUSH4 0x47B8400A SWAP1 PUSH3 0x1ACF SWAP1 DUP8 SWAP1 DUP8 SWAP1 DUP8 SWAP1 DUP8 SWAP1 PUSH1 0x4 ADD PUSH3 0x5D09 JUMP JUMPDEST PUSH1 0x20 PUSH1 0x40 MLOAD DUP1 DUP4 SUB DUP2 PUSH1 0x0 DUP8 DUP1 EXTCODESIZE ISZERO DUP1 ISZERO PUSH3 0x1AEA JUMPI PUSH1 0x0 DUP1 REVERT JUMPDEST POP GAS CALL SWAP3 POP POP POP DUP1 ISZERO PUSH3 0x1B1D JUMPI POP PUSH1 0x40 DUP1 MLOAD PUSH1 0x1F RETURNDATASIZE SWAP1 DUP2 ADD PUSH1 0x1F NOT AND DUP3 ADD SWAP1 SWAP3 MSTORE PUSH3 0x1B1A SWAP2 DUP2 ADD SWAP1 PUSH3 0x5E10 JUMP JUMPDEST PUSH1 0x1 JUMPDEST PUSH3 0x1BFD JUMPI RETURNDATASIZE DUP1 DUP1 ISZERO PUSH3 0x1B4E JUMPI PUSH1 0x40 MLOAD SWAP2 POP PUSH1 0x1F NOT PUSH1 0x3F RETURNDATASIZE ADD AND DUP3 ADD PUSH1 0x40 MSTORE RETURNDATASIZE DUP3 MSTORE RETURNDATASIZE PUSH1 0x0 PUSH1 0x20 DUP5 ADD RETURNDATACOPY PUSH3 0x1B53 JUMP JUMPDEST PUSH1 0x60 SWAP2 POP JUMPDEST POP PUSH1 0xD SLOAD PUSH1 0x40 MLOAD PUSH32 0x9CBCC1A800000000000000000000000000000000000000000000000000000000 DUP2 MSTORE PUSH1 0x1 PUSH1 0x1 PUSH1 0xA0 SHL SUB SWAP1 SWAP2 AND SWAP1 PUSH4 0x9CBCC1A8 SWAP1 PUSH3 0x1B9F SWAP1 DUP6 SWAP1 PUSH1 0x4 ADD PUSH3 0x5B1C JUMP JUMPDEST PUSH1 0x20 PUSH1 0x40 MLOAD DUP1 DUP4 SUB DUP2 PUSH1 0x0 DUP8 DUP1 EXTCODESIZE ISZERO DUP1 ISZERO PUSH3 0x1BBA JUMPI PUSH1 0x0 DUP1 REVERT JUMPDEST POP GAS CALL ISZERO DUP1 ISZERO PUSH3 0x1BCF JUMPI RETURNDATASIZE PUSH1 0x0 DUP1 RETURNDATACOPY RETURNDATASIZE PUSH1 0x0 REVERT JUMPDEST POP POP POP POP PUSH1 0x40 MLOAD RETURNDATASIZE PUSH1 0x1F NOT PUSH1 0x1F DUP3 ADD AND DUP3 ADD DUP1 PUSH1 0x40 MSTORE POP DUP2 ADD SWAP1 PUSH3 0x1BF5 SWAP2 SWAP1 PUSH3 0x5E10 JUMP JUMPDEST POP POP PUSH3 0x1BFF JUMP JUMPDEST POP JUMPDEST POP POP POP POP JUMPDEST PUSH1 0x6 SLOAD ISZERO PUSH3 0x1ED5 JUMPI PUSH1 0xF PUSH1 0x0 SWAP1 SLOAD SWAP1 PUSH2 0x100 EXP SWAP1 DIV PUSH1 0x1 PUSH1 0x1 PUSH1 0xA0 SHL SUB AND PUSH1 0x1 PUSH1 0x1 PUSH1 0xA0 SHL SUB AND PUSH4 0x295B4E17 PUSH1 0x40 MLOAD DUP2 PUSH4 0xFFFFFFFF AND PUSH1 0xE0 SHL DUP2 MSTORE PUSH1 0x4 ADD PUSH1 0x20 PUSH1 0x40 MLOAD DUP1 DUP4 SUB DUP2 DUP7 DUP1 EXTCODESIZE ISZERO DUP1 ISZERO PUSH3 0x1C5C JUMPI PUSH1 0x0 DUP1 REVERT JUMPDEST POP GAS STATICCALL ISZERO DUP1 ISZERO PUSH3 0x1C71 JUMPI RETURNDATASIZE PUSH1 0x0 DUP1 RETURNDATACOPY RETURNDATASIZE PUSH1 0x0 REVERT JUMPDEST POP POP POP POP PUSH1 0x40 MLOAD RETURNDATASIZE PUSH1 0x1F NOT PUSH1 0x1F DUP3 ADD AND DUP3 ADD DUP1 PUSH1 0x40 MSTORE POP DUP2 ADD SWAP1 PUSH3 0x1C97 SWAP2 SWAP1 PUSH3 0x5E10 JUMP JUMPDEST PUSH3 0x1ED5 JUMPI PUSH1 0xF SLOAD PUSH1 0x2 SLOAD PUSH1 0x40 MLOAD PUSH32 0xC290D69100000000000000000000000000000000000000000000000000000000 DUP2 MSTORE PUSH1 0x0 SWAP3 DUP4 SWAP3 DUP4 SWAP3 DUP4 SWAP3 PUSH1 0x1 PUSH1 0x1 PUSH1 0xA0 SHL SUB AND SWAP2 PUSH4 0xC290D691 SWAP2 PUSH3 0x1CF0 SWAP2 SWAP1 PUSH1 0x4 ADD PUSH3 0x5B1C JUMP JUMPDEST PUSH1 0x80 PUSH1 0x40 MLOAD DUP1 DUP4 SUB DUP2 PUSH1 0x0 DUP8 DUP1 EXTCODESIZE ISZERO DUP1 ISZERO PUSH3 0x1D0B JUMPI PUSH1 0x0 DUP1 REVERT JUMPDEST POP GAS CALL ISZERO DUP1 ISZERO PUSH3 0x1D20 JUMPI RETURNDATASIZE PUSH1 0x0 DUP1 RETURNDATACOPY RETURNDATASIZE PUSH1 0x0 REVERT JUMPDEST POP POP POP POP PUSH1 0x40 MLOAD RETURNDATASIZE PUSH1 0x1F NOT PUSH1 0x1F DUP3 ADD AND DUP3 ADD DUP1 PUSH1 0x40 MSTORE POP DUP2 ADD SWAP1 PUSH3 0x1D46 SWAP2 SWAP1 PUSH3 0x5E42 JUMP JUMPDEST PUSH1 0xF SLOAD PUSH1 0x40 MLOAD PUSH32 0x47B8400A00000000000000000000000000000000000000000000000000000000 DUP2 MSTORE SWAP5 SWAP9 POP SWAP3 SWAP7 POP SWAP1 SWAP5 POP SWAP3 POP PUSH1 0x1 PUSH1 0x1 PUSH1 0xA0 SHL SUB AND SWAP1 PUSH4 0x47B8400A SWAP1 PUSH3 0x1DA0 SWAP1 DUP8 SWAP1 DUP8 SWAP1 DUP8 SWAP1 DUP8 SWAP1 PUSH1 0x4 ADD PUSH3 0x5D09 JUMP JUMPDEST PUSH1 0x20 PUSH1 0x40 MLOAD DUP1 DUP4 SUB DUP2 PUSH1 0x0 DUP8 DUP1 EXTCODESIZE ISZERO DUP1 ISZERO PUSH3 0x1DBB JUMPI PUSH1 0x0 DUP1 REVERT JUMPDEST POP GAS CALL SWAP3 POP POP POP DUP1 ISZERO PUSH3 0x1DEE JUMPI POP PUSH1 0x40 DUP1 MLOAD PUSH1 0x1F RETURNDATASIZE SWAP1 DUP2 ADD PUSH1 0x1F NOT AND DUP3 ADD SWAP1 SWAP3 MSTORE PUSH3 0x1DEB SWAP2 DUP2 ADD SWAP1 PUSH3 0x5E10 JUMP JUMPDEST PUSH1 0x1 JUMPDEST PUSH3 0x1ECE JUMPI RETURNDATASIZE DUP1 DUP1 ISZERO PUSH3 0x1E1F JUMPI PUSH1 0x40 MLOAD SWAP2 POP PUSH1 0x1F NOT PUSH1 0x3F RETURNDATASIZE ADD AND DUP3 ADD PUSH1 0x40 MSTORE RETURNDATASIZE DUP3 MSTORE RETURNDATASIZE PUSH1 0x0 PUSH1 0x20 DUP5 ADD RETURNDATACOPY PUSH3 0x1E24 JUMP JUMPDEST PUSH1 0x60 SWAP2 POP JUMPDEST POP PUSH1 0xF SLOAD PUSH1 0x40 MLOAD PUSH32 0x9CBCC1A800000000000000000000000000000000000000000000000000000000 DUP2 MSTORE PUSH1 0x1 PUSH1 0x1 PUSH1 0xA0 SHL SUB SWAP1 SWAP2 AND SWAP1 PUSH4 0x9CBCC1A8 SWAP1 PUSH3 0x1E70 SWAP1 DUP6 SWAP1 PUSH1 0x4 ADD PUSH3 0x5B1C JUMP JUMPDEST PUSH1 0x20 PUSH1 0x40 MLOAD DUP1 DUP4 SUB DUP2 PUSH1 0x0 DUP8 DUP1 EXTCODESIZE ISZERO DUP1 ISZERO PUSH3 0x1E8B JUMPI PUSH1 0x0 DUP1 REVERT JUMPDEST POP GAS CALL ISZERO DUP1 ISZERO PUSH3 0x1EA0 JUMPI RETURNDATASIZE PUSH1 0x0 DUP1 RETURNDATACOPY RETURNDATASIZE PUSH1 0x0 REVERT JUMPDEST POP POP POP POP PUSH1 0x40 MLOAD RETURNDATASIZE PUSH1 0x1F NOT PUSH1 0x1F DUP3 ADD AND DUP3 ADD DUP1 PUSH1 0x40 MSTORE POP DUP2 ADD SWAP1 PUSH3 0x1EC6 SWAP2 SWAP1 PUSH3 0x5E10 JUMP JUMPDEST POP POP PUSH3 0x1ED0 JUMP JUMPDEST POP JUMPDEST POP POP POP POP JUMPDEST PUSH1 0x7 SLOAD ISZERO PUSH3 0x21A6 JUMPI PUSH1 0xE PUSH1 0x0 SWAP1 SLOAD SWAP1 PUSH2 0x100 EXP SWAP1 DIV PUSH1 0x1 PUSH1 0x1 PUSH1 0xA0 SHL SUB AND PUSH1 0x1 PUSH1 0x1 PUSH1 0xA0 SHL SUB AND PUSH4 0x295B4E17 PUSH1 0x40 MLOAD DUP2 PUSH4 0xFFFFFFFF AND PUSH1 0xE0 SHL DUP2 MSTORE PUSH1 0x4 ADD PUSH1 0x20 PUSH1 0x40 MLOAD DUP1 DUP4 SUB DUP2 DUP7 DUP1 EXTCODESIZE ISZERO DUP1 ISZERO PUSH3 0x1F2D JUMPI PUSH1 0x0 DUP1 REVERT JUMPDEST POP GAS STATICCALL ISZERO DUP1 ISZERO PUSH3 0x1F42 JUMPI RETURNDATASIZE PUSH1 0x0 DUP1 RETURNDATACOPY RETURNDATASIZE PUSH1 0x0 REVERT JUMPDEST POP POP POP POP PUSH1 0x40 MLOAD RETURNDATASIZE PUSH1 0x1F NOT PUSH1 0x1F DUP3 ADD AND DUP3 ADD DUP1 PUSH1 0x40 MSTORE POP DUP2 ADD SWAP1 PUSH3 0x1F68 SWAP2 SWAP1 PUSH3 0x5E10 JUMP JUMPDEST PUSH3 0x21A6 JUMPI PUSH1 0xE SLOAD PUSH1 0x2 SLOAD PUSH1 0x40 MLOAD PUSH32 0xC290D69100000000000000000000000000000000000000000000000000000000 DUP2 MSTORE PUSH1 0x0 SWAP3 DUP4 SWAP3 DUP4 SWAP3 DUP4 SWAP3 PUSH1 0x1 PUSH1 0x1 PUSH1 0xA0 SHL SUB AND SWAP2 PUSH4 0xC290D691 SWAP2 PUSH3 0x1FC1 SWAP2 SWAP1 PUSH1 0x4 ADD PUSH3 0x5B1C JUMP JUMPDEST PUSH1 0x80 PUSH1 0x40 MLOAD DUP1 DUP4 SUB DUP2 PUSH1 0x0 DUP8 DUP1 EXTCODESIZE ISZERO DUP1 ISZERO PUSH3 0x1FDC JUMPI PUSH1 0x0 DUP1 REVERT JUMPDEST POP GAS CALL ISZERO DUP1 ISZERO PUSH3 0x1FF1 JUMPI RETURNDATASIZE PUSH1 0x0 DUP1 RETURNDATACOPY RETURNDATASIZE PUSH1 0x0 REVERT JUMPDEST POP POP POP POP PUSH1 0x40 MLOAD RETURNDATASIZE PUSH1 0x1F NOT PUSH1 0x1F DUP3 ADD AND DUP3 ADD DUP1 PUSH1 0x40 MSTORE POP DUP2 ADD SWAP1 PUSH3 0x2017 SWAP2 SWAP1 PUSH3 0x5E42 JUMP JUMPDEST PUSH1 0xE SLOAD PUSH1 0x40 MLOAD PUSH32 0x47B8400A00000000000000000000000000000000000000000000000000000000 DUP2 MSTORE SWAP5 SWAP9 POP SWAP3 SWAP7 POP SWAP1 SWAP5 POP SWAP3 POP PUSH1 0x1 PUSH1 0x1 PUSH1 0xA0 SHL SUB AND SWAP1 PUSH4 0x47B8400A SWAP1 PUSH3 0x2071 SWAP1 DUP8 SWAP1 DUP8 SWAP1 DUP8 SWAP1 DUP8 SWAP1 PUSH1 0x4 ADD PUSH3 0x5D09 JUMP JUMPDEST PUSH1 0x20 PUSH1 0x40 MLOAD DUP1 DUP4 SUB DUP2 PUSH1 0x0 DUP8 DUP1 EXTCODESIZE ISZERO DUP1 ISZERO PUSH3 0x208C JUMPI PUSH1 0x0 DUP1 REVERT JUMPDEST POP GAS CALL SWAP3 POP POP POP DUP1 ISZERO PUSH3 0x20BF JUMPI POP PUSH1 0x40 DUP1 MLOAD PUSH1 0x1F RETURNDATASIZE SWAP1 DUP2 ADD PUSH1 0x1F NOT AND DUP3 ADD SWAP1 SWAP3 MSTORE PUSH3 0x20BC SWAP2 DUP2 ADD SWAP1 PUSH3 0x5E10 JUMP JUMPDEST PUSH1 0x1 JUMPDEST PUSH3 0x219F JUMPI RETURNDATASIZE DUP1 DUP1 ISZERO PUSH3 0x20F0 JUMPI PUSH1 0x40 MLOAD SWAP2 POP PUSH1 0x1F NOT PUSH1 0x3F RETURNDATASIZE ADD AND DUP3 ADD PUSH1 0x40 MSTORE RETURNDATASIZE DUP3 MSTORE RETURNDATASIZE PUSH1 0x0 PUSH1 0x20 DUP5 ADD RETURNDATACOPY PUSH3 0x20F5 JUMP JUMPDEST PUSH1 0x60 SWAP2 POP JUMPDEST POP PUSH1 0xE SLOAD PUSH1 0x40 MLOAD PUSH32 0x9CBCC1A800000000000000000000000000000000000000000000000000000000 DUP2 MSTORE PUSH1 0x1 PUSH1 0x1 PUSH1 0xA0 SHL SUB SWAP1 SWAP2 AND SWAP1 PUSH4 0x9CBCC1A8 SWAP1 PUSH3 0x2141 SWAP1 DUP6 SWAP1 PUSH1 0x4 ADD PUSH3 0x5B1C JUMP JUMPDEST PUSH1 0x20 PUSH1 0x40 MLOAD DUP1 DUP4 SUB DUP2 PUSH1 0x0 DUP8 DUP1 EXTCODESIZE ISZERO DUP1 ISZERO PUSH3 0x215C JUMPI PUSH1 0x0 DUP1 REVERT JUMPDEST POP GAS CALL ISZERO DUP1 ISZERO PUSH3 0x2171 JUMPI RETURNDATASIZE PUSH1 0x0 DUP1 RETURNDATACOPY RETURNDATASIZE PUSH1 0x0 REVERT JUMPDEST POP POP POP POP PUSH1 0x40 MLOAD RETURNDATASIZE PUSH1 0x1F NOT PUSH1 0x1F DUP3 ADD AND DUP3 ADD DUP1 PUSH1 0x40 MSTORE POP DUP2 ADD SWAP1 PUSH3 0x2197 SWAP2 SWAP1 PUSH3 0x5E10 JUMP JUMPDEST POP POP PUSH3 0x21A1 JUMP JUMPDEST POP JUMPDEST POP POP POP POP JUMPDEST PUSH1 0x4 SLOAD ISZERO DUP1 PUSH3 0x223B JUMPI POP PUSH1 0xC PUSH1 0x0 SWAP1 SLOAD SWAP1 PUSH2 0x100 EXP SWAP1 DIV PUSH1 0x1 PUSH1 0x1 PUSH1 0xA0 SHL SUB AND PUSH1 0x1 PUSH1 0x1 PUSH1 0xA0 SHL SUB AND PUSH4 0x295B4E17 PUSH1 0x40 MLOAD DUP2 PUSH4 0xFFFFFFFF AND PUSH1 0xE0 SHL DUP2 MSTORE PUSH1 0x4 ADD PUSH1 0x20 PUSH1 0x40 MLOAD DUP1 DUP4 SUB DUP2 DUP7 DUP1 EXTCODESIZE ISZERO DUP1 ISZERO PUSH3 0x2200 JUMPI PUSH1 0x0 DUP1 REVERT JUMPDEST POP GAS STATICCALL ISZERO DUP1 ISZERO PUSH3 0x2215 JUMPI RETURNDATASIZE PUSH1 0x0 DUP1 RETURNDATACOPY RETURNDATASIZE PUSH1 0x0 REVERT JUMPDEST POP POP POP POP PUSH1 0x40 MLOAD RETURNDATASIZE PUSH1 0x1F NOT PUSH1 0x1F DUP3 ADD AND DUP3 ADD DUP1 PUSH1 0x40 MSTORE POP DUP2 ADD SWAP1 PUSH3 0x223B SWAP2 SWAP1 PUSH3 0x5E10 JUMP JUMPDEST DUP1 ISZERO PUSH3 0x22D8 JUMPI POP PUSH1 0x5 SLOAD ISZERO DUP1 PUSH3 0x22D8 JUMPI POP PUSH1 0xD PUSH1 0x0 SWAP1 SLOAD SWAP1 PUSH2 0x100 EXP SWAP1 DIV PUSH1 0x1 PUSH1 0x1 PUSH1 0xA0 SHL SUB AND PUSH1 0x1 PUSH1 0x1 PUSH1 0xA0 SHL SUB AND PUSH4 0x295B4E17 PUSH1 0x40 MLOAD DUP2 PUSH4 0xFFFFFFFF AND PUSH1 0xE0 SHL DUP2 MSTORE PUSH1 0x4 ADD PUSH1 0x20 PUSH1 0x40 MLOAD DUP1 DUP4 SUB DUP2 DUP7 DUP1 EXTCODESIZE ISZERO DUP1 ISZERO PUSH3 0x229D JUMPI PUSH1 0x0 DUP1 REVERT JUMPDEST POP GAS STATICCALL ISZERO DUP1 ISZERO PUSH3 0x22B2 JUMPI RETURNDATASIZE PUSH1 0x0 DUP1 RETURNDATACOPY RETURNDATASIZE PUSH1 0x0 REVERT JUMPDEST POP POP POP POP PUSH1 0x40 MLOAD RETURNDATASIZE PUSH1 0x1F NOT PUSH1 0x1F DUP3 ADD AND DUP3 ADD DUP1 PUSH1 0x40 MSTORE POP DUP2 ADD SWAP1 PUSH3 0x22D8 SWAP2 SWAP1 PUSH3 0x5E10 JUMP JUMPDEST DUP1 ISZERO PUSH3 0x2375 JUMPI POP PUSH1 0x6 SLOAD ISZERO DUP1 PUSH3 0x2375 JUMPI POP PUSH1 0xF PUSH1 0x0 SWAP1 SLOAD SWAP1 PUSH2 0x100 EXP SWAP1 DIV PUSH1 0x1 PUSH1 0x1 PUSH1 0xA0 SHL SUB AND PUSH1 0x1 PUSH1 0x1 PUSH1 0xA0 SHL SUB AND PUSH4 0x295B4E17 PUSH1 0x40 MLOAD DUP2 PUSH4 0xFFFFFFFF AND PUSH1 0xE0 SHL DUP2 MSTORE PUSH1 0x4 ADD PUSH1 0x20 PUSH1 0x40 MLOAD DUP1 DUP4 SUB DUP2 DUP7 DUP1 EXTCODESIZE ISZERO DUP1 ISZERO PUSH3 0x233A JUMPI PUSH1 0x0 DUP1 REVERT JUMPDEST POP GAS STATICCALL ISZERO DUP1 ISZERO PUSH3 0x234F JUMPI RETURNDATASIZE PUSH1 0x0 DUP1 RETURNDATACOPY RETURNDATASIZE PUSH1 0x0 REVERT JUMPDEST POP POP POP POP PUSH1 0x40 MLOAD RETURNDATASIZE PUSH1 0x1F NOT PUSH1 0x1F DUP3 ADD AND DUP3 ADD DUP1 PUSH1 0x40 MSTORE POP DUP2 ADD SWAP1 PUSH3 0x2375 SWAP2 SWAP1 PUSH3 0x5E10 JUMP JUMPDEST DUP1 ISZERO PUSH3 0x2412 JUMPI POP PUSH1 0x7 SLOAD ISZERO DUP1 PUSH3 0x2412 JUMPI POP PUSH1 0xE PUSH1 0x0 SWAP1 SLOAD SWAP1 PUSH2 0x100 EXP SWAP1 DIV PUSH1 0x1 PUSH1 0x1 PUSH1 0xA0 SHL SUB AND PUSH1 0x1 PUSH1 0x1 PUSH1 0xA0 SHL SUB AND PUSH4 0x295B4E17 PUSH1 0x40 MLOAD DUP2 PUSH4 0xFFFFFFFF AND PUSH1 0xE0 SHL DUP2 MSTORE PUSH1 0x4 ADD PUSH1 0x20 PUSH1 0x40 MLOAD DUP1 DUP4 SUB DUP2 DUP7 DUP1 EXTCODESIZE ISZERO DUP1 ISZERO PUSH3 0x23D7 JUMPI PUSH1 0x0 DUP1 REVERT JUMPDEST POP GAS STATICCALL ISZERO DUP1 ISZERO PUSH3 0x23EC JUMPI RETURNDATASIZE PUSH1 0x0 DUP1 RETURNDATACOPY RETURNDATASIZE PUSH1 0x0 REVERT JUMPDEST POP POP POP POP PUSH1 0x40 MLOAD RETURNDATASIZE PUSH1 0x1F NOT PUSH1 0x1F DUP3 ADD AND DUP3 ADD DUP1 PUSH1 0x40 MSTORE POP DUP2 ADD SWAP1 PUSH3 0x2412 SWAP2 SWAP1 PUSH3 0x5E10 JUMP JUMPDEST ISZERO PUSH3 0x582C JUMPI PUSH1 0x0 DUP1 PUSH1 0x0 DUP1 PUSH1 0x0 PUSH1 0x8 SLOAD PUSH1 0x4 SLOAD GT ISZERO PUSH3 0x2441 JUMPI PUSH1 0x1 SWAP5 POP DUP1 PUSH3 0x243D DUP2 PUSH3 0x5CB9 JUMP JUMPDEST SWAP2 POP POP JUMPDEST PUSH1 0x9 SLOAD PUSH1 0x5 SLOAD GT ISZERO PUSH3 0x2462 JUMPI PUSH1 0x1 SWAP4 POP DUP1 PUSH3 0x245E DUP2 PUSH3 0x5CB9 JUMP JUMPDEST SWAP2 POP POP JUMPDEST PUSH1 0xA SLOAD PUSH1 0x6 SLOAD GT ISZERO PUSH3 0x2483 JUMPI PUSH1 0x1 SWAP3 POP DUP1 PUSH3 0x247F DUP2 PUSH3 0x5CB9 JUMP JUMPDEST SWAP2 POP POP JUMPDEST PUSH1 0xB SLOAD PUSH1 0x7 SLOAD GT ISZERO PUSH3 0x24A4 JUMPI PUSH1 0x1 SWAP2 POP DUP1 PUSH3 0x24A0 DUP2 PUSH3 0x5CB9 JUMP JUMPDEST SWAP2 POP POP JUMPDEST PUSH1 0xC SLOAD PUSH1 0x40 MLOAD PUSH4 0x70A08231 PUSH1 0xE0 SHL DUP2 MSTORE PUSH20 0x7A250D5630B4CF539739DF2C5DACB4C659F2488D SWAP2 PUSH1 0x1 PUSH1 0x1 PUSH1 0xA0 SHL SUB AND SWAP1 PUSH4 0x95EA7B3 SWAP1 DUP4 SWAP1 PUSH1 0x2 SWAP1 DUP5 SWAP1 PUSH4 0x70A08231 SWAP1 PUSH3 0x24F7 SWAP1 ADDRESS SWAP1 PUSH1 0x4 ADD PUSH3 0x5C16 JUMP JUMPDEST PUSH1 0x20 PUSH1 0x40 MLOAD DUP1 DUP4 SUB DUP2 DUP7 DUP1 EXTCODESIZE ISZERO DUP1 ISZERO PUSH3 0x2510 JUMPI PUSH1 0x0 DUP1 REVERT JUMPDEST POP GAS STATICCALL ISZERO DUP1 ISZERO PUSH3 0x2525 JUMPI RETURNDATASIZE PUSH1 0x0 DUP1 RETURNDATACOPY RETURNDATASIZE PUSH1 0x0 REVERT JUMPDEST POP POP POP POP PUSH1 0x40 MLOAD RETURNDATASIZE PUSH1 0x1F NOT PUSH1 0x1F DUP3 ADD AND DUP3 ADD DUP1 PUSH1 0x40 MSTORE POP DUP2 ADD SWAP1 PUSH3 0x254B SWAP2 SWAP1 PUSH3 0x5CE4 JUMP JUMPDEST PUSH3 0x2557 SWAP2 SWAP1 PUSH3 0x5DE3 JUMP JUMPDEST PUSH1 0x40 MLOAD DUP4 PUSH4 0xFFFFFFFF AND PUSH1 0xE0 SHL DUP2 MSTORE PUSH1 0x4 ADD PUSH3 0x2576 SWAP3 SWAP2 SWAP1 PUSH3 0x5EA4 JUMP JUMPDEST PUSH1 0x20 PUSH1 0x40 MLOAD DUP1 DUP4 SUB DUP2 PUSH1 0x0 DUP8 DUP1 EXTCODESIZE ISZERO DUP1 ISZERO PUSH3 0x2591 JUMPI PUSH1 0x0 DUP1 REVERT JUMPDEST POP GAS CALL ISZERO DUP1 ISZERO PUSH3 0x25A6 JUMPI RETURNDATASIZE PUSH1 0x0 DUP1 RETURNDATACOPY RETURNDATASIZE PUSH1 0x0 REVERT JUMPDEST POP POP POP POP PUSH1 0x40 MLOAD RETURNDATASIZE PUSH1 0x1F NOT PUSH1 0x1F DUP3 ADD AND DUP3 ADD DUP1 PUSH1 0x40 MSTORE POP DUP2 ADD SWAP1 PUSH3 0x25CC SWAP2 SWAP1 PUSH3 0x5E10 JUMP JUMPDEST POP PUSH1 0xD SLOAD PUSH1 0x40 MLOAD PUSH4 0x70A08231 PUSH1 0xE0 SHL DUP2 MSTORE PUSH1 0x1 PUSH1 0x1 PUSH1 0xA0 SHL SUB SWAP1 SWAP2 AND SWAP1 PUSH4 0x95EA7B3 SWAP1 DUP4 SWAP1 PUSH1 0x2 SWAP1 DUP5 SWAP1 PUSH4 0x70A08231 SWAP1 PUSH3 0x260C SWAP1 ADDRESS SWAP1 PUSH1 0x4 ADD PUSH3 0x5C16 JUMP JUMPDEST PUSH1 0x20 PUSH1 0x40 MLOAD DUP1 DUP4 SUB DUP2 DUP7 DUP1 EXTCODESIZE ISZERO DUP1 ISZERO PUSH3 0x2625 JUMPI PUSH1 0x0 DUP1 REVERT JUMPDEST POP GAS STATICCALL ISZERO DUP1 ISZERO PUSH3 0x263A JUMPI RETURNDATASIZE PUSH1 0x0 DUP1 RETURNDATACOPY RETURNDATASIZE PUSH1 0x0 REVERT JUMPDEST POP POP POP POP PUSH1 0x40 MLOAD RETURNDATASIZE PUSH1 0x1F NOT PUSH1 0x1F DUP3 ADD AND DUP3 ADD DUP1 PUSH1 0x40 MSTORE POP DUP2 ADD SWAP1 PUSH3 0x2660 SWAP2 SWAP1 PUSH3 0x5CE4 JUMP JUMPDEST PUSH3 0x266C SWAP2 SWAP1 PUSH3 0x5DE3 JUMP JUMPDEST PUSH1 0x40 MLOAD DUP4 PUSH4 0xFFFFFFFF AND PUSH1 0xE0 SHL DUP2 MSTORE PUSH1 0x4 ADD PUSH3 0x268B SWAP3 SWAP2 SWAP1 PUSH3 0x5EA4 JUMP JUMPDEST PUSH1 0x20 PUSH1 0x40 MLOAD DUP1 DUP4 SUB DUP2 PUSH1 0x0 DUP8 DUP1 EXTCODESIZE ISZERO DUP1 ISZERO PUSH3 0x26A6 JUMPI PUSH1 0x0 DUP1 REVERT JUMPDEST POP GAS CALL ISZERO DUP1 ISZERO PUSH3 0x26BB JUMPI RETURNDATASIZE PUSH1 0x0 DUP1 RETURNDATACOPY RETURNDATASIZE PUSH1 0x0 REVERT JUMPDEST POP POP POP POP PUSH1 0x40 MLOAD RETURNDATASIZE PUSH1 0x1F NOT PUSH1 0x1F DUP3 ADD AND DUP3 ADD DUP1 PUSH1 0x40 MSTORE POP DUP2 ADD SWAP1 PUSH3 0x26E1 SWAP2 SWAP1 PUSH3 0x5E10 JUMP JUMPDEST POP PUSH1 0xF SLOAD PUSH1 0x40 MLOAD PUSH4 0x70A08231 PUSH1 0xE0 SHL DUP2 MSTORE PUSH1 0x1 PUSH1 0x1 PUSH1 0xA0 SHL SUB SWAP1 SWAP2 AND SWAP1 PUSH4 0x95EA7B3 SWAP1 DUP4 SWAP1 PUSH1 0x2 SWAP1 DUP5 SWAP1 PUSH4 0x70A08231 SWAP1 PUSH3 0x2721 SWAP1 ADDRESS SWAP1 PUSH1 0x4 ADD PUSH3 0x5C16 JUMP JUMPDEST PUSH1 0x20 PUSH1 0x40 MLOAD DUP1 DUP4 SUB DUP2 DUP7 DUP1 EXTCODESIZE ISZERO DUP1 ISZERO PUSH3 0x273A JUMPI PUSH1 0x0 DUP1 REVERT JUMPDEST POP GAS STATICCALL ISZERO DUP1 ISZERO PUSH3 0x274F JUMPI RETURNDATASIZE PUSH1 0x0 DUP1 RETURNDATACOPY RETURNDATASIZE PUSH1 0x0 REVERT JUMPDEST POP POP POP POP PUSH1 0x40 MLOAD RETURNDATASIZE PUSH1 0x1F NOT PUSH1 0x1F DUP3 ADD AND DUP3 ADD DUP1 PUSH1 0x40 MSTORE POP DUP2 ADD SWAP1 PUSH3 0x2775 SWAP2 SWAP1 PUSH3 0x5CE4 JUMP JUMPDEST PUSH3 0x2781 SWAP2 SWAP1 PUSH3 0x5DE3 JUMP JUMPDEST PUSH1 0x40 MLOAD DUP4 PUSH4 0xFFFFFFFF AND PUSH1 0xE0 SHL DUP2 MSTORE PUSH1 0x4 ADD PUSH3 0x27A0 SWAP3 SWAP2 SWAP1 PUSH3 0x5EA4 JUMP JUMPDEST PUSH1 0x20 PUSH1 0x40 MLOAD DUP1 DUP4 SUB DUP2 PUSH1 0x0 DUP8 DUP1 EXTCODESIZE ISZERO DUP1 ISZERO PUSH3 0x27BB JUMPI PUSH1 0x0 DUP1 REVERT JUMPDEST POP GAS CALL ISZERO DUP1 ISZERO PUSH3 0x27D0 JUMPI RETURNDATASIZE PUSH1 0x0 DUP1 RETURNDATACOPY RETURNDATASIZE PUSH1 0x0 REVERT JUMPDEST POP POP POP POP PUSH1 0x40 MLOAD RETURNDATASIZE PUSH1 0x1F NOT PUSH1 0x1F DUP3 ADD AND DUP3 ADD DUP1 PUSH1 0x40 MSTORE POP DUP2 ADD SWAP1 PUSH3 0x27F6 SWAP2 SWAP1 PUSH3 0x5E10 JUMP JUMPDEST POP PUSH1 0xE SLOAD PUSH1 0x40 MLOAD PUSH4 0x70A08231 PUSH1 0xE0 SHL DUP2 MSTORE PUSH1 0x1 PUSH1 0x1 PUSH1 0xA0 SHL SUB SWAP1 SWAP2 AND SWAP1 PUSH4 0x95EA7B3 SWAP1 DUP4 SWAP1 PUSH1 0x2 SWAP1 DUP5 SWAP1 PUSH4 0x70A08231 SWAP1 PUSH3 0x2836 SWAP1 ADDRESS SWAP1 PUSH1 0x4 ADD PUSH3 0x5C16 JUMP JUMPDEST PUSH1 0x20 PUSH1 0x40 MLOAD DUP1 DUP4 SUB DUP2 DUP7 DUP1 EXTCODESIZE ISZERO DUP1 ISZERO PUSH3 0x284F JUMPI PUSH1 0x0 DUP1 REVERT JUMPDEST POP GAS STATICCALL ISZERO DUP1 ISZERO PUSH3 0x2864 JUMPI RETURNDATASIZE PUSH1 0x0 DUP1 RETURNDATACOPY RETURNDATASIZE PUSH1 0x0 REVERT JUMPDEST POP POP POP POP PUSH1 0x40 MLOAD RETURNDATASIZE PUSH1 0x1F NOT PUSH1 0x1F DUP3 ADD AND DUP3 ADD DUP1 PUSH1 0x40 MSTORE POP DUP2 ADD SWAP1 PUSH3 0x288A SWAP2 SWAP1 PUSH3 0x5CE4 JUMP JUMPDEST PUSH3 0x2896 SWAP2 SWAP1 PUSH3 0x5DE3 JUMP JUMPDEST PUSH1 0x40 MLOAD DUP4 PUSH4 0xFFFFFFFF AND PUSH1 0xE0 SHL DUP2 MSTORE PUSH1 0x4 ADD PUSH3 0x28B5 SWAP3 SWAP2 SWAP1 PUSH3 0x5EA4 JUMP JUMPDEST PUSH1 0x20 PUSH1 0x40 MLOAD DUP1 DUP4 SUB DUP2 PUSH1 0x0 DUP8 DUP1 EXTCODESIZE ISZERO DUP1 ISZERO PUSH3 0x28D0 JUMPI PUSH1 0x0 DUP1 REVERT JUMPDEST POP GAS CALL ISZERO DUP1 ISZERO PUSH3 0x28E5 JUMPI RETURNDATASIZE PUSH1 0x0 DUP1 RETURNDATACOPY RETURNDATASIZE PUSH1 0x0 REVERT JUMPDEST POP POP POP POP PUSH1 0x40 MLOAD RETURNDATASIZE PUSH1 0x1F NOT PUSH1 0x1F DUP3 ADD AND DUP3 ADD DUP1 PUSH1 0x40 MSTORE POP DUP2 ADD SWAP1 PUSH3 0x290B SWAP2 SWAP1 PUSH3 0x5E10 JUMP JUMPDEST POP PUSH1 0x1 PUSH1 0x1 PUSH1 0xA0 SHL SUB DUP2 AND PUSH4 0xF305D719 PUSH1 0x4 PUSH3 0x292A PUSH1 0xA SELFBALANCE PUSH3 0x5DE3 JUMP JUMPDEST PUSH3 0x2936 SWAP2 SWAP1 PUSH3 0x5DE3 JUMP JUMPDEST PUSH1 0xC SLOAD PUSH1 0x40 MLOAD PUSH4 0x70A08231 PUSH1 0xE0 SHL DUP2 MSTORE PUSH1 0x1 PUSH1 0x1 PUSH1 0xA0 SHL SUB SWAP1 SWAP2 AND SWAP1 PUSH1 0x2 SWAP1 DUP3 SWAP1 PUSH4 0x70A08231 SWAP1 PUSH3 0x296D SWAP1 ADDRESS SWAP1 PUSH1 0x4 ADD PUSH3 0x5C16 JUMP JUMPDEST PUSH1 0x20 PUSH1 0x40 MLOAD DUP1 DUP4 SUB DUP2 DUP7 DUP1 EXTCODESIZE ISZERO DUP1 ISZERO PUSH3 0x2986 JUMPI PUSH1 0x0 DUP1 REVERT JUMPDEST POP GAS STATICCALL ISZERO DUP1 ISZERO PUSH3 0x299B JUMPI RETURNDATASIZE PUSH1 0x0 DUP1 RETURNDATACOPY RETURNDATASIZE PUSH1 0x0 REVERT JUMPDEST POP POP POP POP PUSH1 0x40 MLOAD RETURNDATASIZE PUSH1 0x1F NOT PUSH1 0x1F DUP3 ADD AND DUP3 ADD DUP1 PUSH1 0x40 MSTORE POP DUP2 ADD SWAP1 PUSH3 0x29C1 SWAP2 SWAP1 PUSH3 0x5CE4 JUMP JUMPDEST PUSH3 0x29CD SWAP2 SWAP1 PUSH3 0x5DE3 JUMP JUMPDEST PUSH1 0x0 DUP1 ADDRESS TIMESTAMP PUSH1 0x40 MLOAD DUP9 PUSH4 0xFFFFFFFF AND PUSH1 0xE0 SHL DUP2 MSTORE PUSH1 0x4 ADD PUSH3 0x29F5 SWAP7 SWAP6 SWAP5 SWAP4 SWAP3 SWAP2 SWAP1 PUSH3 0x5ECA JUMP JUMPDEST PUSH1 0x60 PUSH1 0x40 MLOAD DUP1 DUP4 SUB DUP2 DUP6 DUP9 DUP1 EXTCODESIZE ISZERO DUP1 ISZERO PUSH3 0x2A0F JUMPI PUSH1 0x0 DUP1 REVERT JUMPDEST POP GAS CALL ISZERO DUP1 ISZERO PUSH3 0x2A24 JUMPI RETURNDATASIZE PUSH1 0x0 DUP1 RETURNDATACOPY RETURNDATASIZE PUSH1 0x0 REVERT JUMPDEST POP POP POP POP POP PUSH1 0x40 MLOAD RETURNDATASIZE PUSH1 0x1F NOT PUSH1 0x1F DUP3 ADD AND DUP3 ADD DUP1 PUSH1 0x40 MSTORE POP DUP2 ADD SWAP1 PUSH3 0x2A4B SWAP2 SWAP1 PUSH3 0x5F30 JUMP JUMPDEST POP POP POP PUSH1 0x1 PUSH1 0x1 PUSH1 0xA0 SHL SUB DUP2 AND PUSH4 0xF305D719 PUSH1 0x4 PUSH3 0x2A6C PUSH1 0xA SELFBALANCE PUSH3 0x5DE3 JUMP JUMPDEST PUSH3 0x2A78 SWAP2 SWAP1 PUSH3 0x5DE3 JUMP JUMPDEST PUSH1 0xD SLOAD PUSH1 0x40 MLOAD PUSH4 0x70A08231 PUSH1 0xE0 SHL DUP2 MSTORE PUSH1 0x1 PUSH1 0x1 PUSH1 0xA0 SHL SUB SWAP1 SWAP2 AND SWAP1 PUSH1 0x2 SWAP1 DUP3 SWAP1 PUSH4 0x70A08231 SWAP1 PUSH3 0x2AAF SWAP1 ADDRESS SWAP1 PUSH1 0x4 ADD PUSH3 0x5C16 JUMP JUMPDEST PUSH1 0x20 PUSH1 0x40 MLOAD DUP1 DUP4 SUB DUP2 DUP7 DUP1 EXTCODESIZE ISZERO DUP1 ISZERO PUSH3 0x2AC8 JUMPI PUSH1 0x0 DUP1 REVERT JUMPDEST POP GAS STATICCALL ISZERO DUP1 ISZERO PUSH3 0x2ADD JUMPI RETURNDATASIZE PUSH1 0x0 DUP1 RETURNDATACOPY RETURNDATASIZE PUSH1 0x0 REVERT JUMPDEST POP POP POP POP PUSH1 0x40 MLOAD RETURNDATASIZE PUSH1 0x1F NOT PUSH1 0x1F DUP3 ADD AND DUP3 ADD DUP1 PUSH1 0x40 MSTORE POP DUP2 ADD SWAP1 PUSH3 0x2B03 SWAP2 SWAP1 PUSH3 0x5CE4 JUMP JUMPDEST PUSH3 0x2B0F SWAP2 SWAP1 PUSH3 0x5DE3 JUMP JUMPDEST PUSH1 0x0 DUP1 ADDRESS TIMESTAMP PUSH1 0x40 MLOAD DUP9 PUSH4 0xFFFFFFFF AND PUSH1 0xE0 SHL DUP2 MSTORE PUSH1 0x4 ADD PUSH3 0x2B37 SWAP7 SWAP6 SWAP5 SWAP4 SWAP3 SWAP2 SWAP1 PUSH3 0x5ECA JUMP JUMPDEST PUSH1 0x60 PUSH1 0x40 MLOAD DUP1 DUP4 SUB DUP2 DUP6 DUP9 DUP1 EXTCODESIZE ISZERO DUP1 ISZERO PUSH3 0x2B51 JUMPI PUSH1 0x0 DUP1 REVERT JUMPDEST POP GAS CALL ISZERO DUP1 ISZERO PUSH3 0x2B66 JUMPI RETURNDATASIZE PUSH1 0x0 DUP1 RETURNDATACOPY RETURNDATASIZE PUSH1 0x0 REVERT JUMPDEST POP POP POP POP POP PUSH1 0x40 MLOAD RETURNDATASIZE PUSH1 0x1F NOT PUSH1 0x1F DUP3 ADD AND DUP3 ADD DUP1 PUSH1 0x40 MSTORE POP DUP2 ADD SWAP1 PUSH3 0x2B8D SWAP2 SWAP1 PUSH3 0x5F30 JUMP JUMPDEST POP POP POP PUSH1 0x1 PUSH1 0x1 PUSH1 0xA0 SHL SUB DUP2 AND PUSH4 0xF305D719 PUSH1 0x4 PUSH3 0x2BAE PUSH1 0xA SELFBALANCE PUSH3 0x5DE3 JUMP JUMPDEST PUSH3 0x2BBA SWAP2 SWAP1 PUSH3 0x5DE3 JUMP JUMPDEST PUSH1 0xF SLOAD PUSH1 0x40 MLOAD PUSH4 0x70A08231 PUSH1 0xE0 SHL DUP2 MSTORE PUSH1 0x1 PUSH1 0x1 PUSH1 0xA0 SHL SUB SWAP1 SWAP2 AND SWAP1 PUSH1 0x2 SWAP1 DUP3 SWAP1 PUSH4 0x70A08231 SWAP1 PUSH3 0x2BF1 SWAP1 ADDRESS SWAP1 PUSH1 0x4 ADD PUSH3 0x5C16 JUMP JUMPDEST PUSH1 0x20 PUSH1 0x40 MLOAD DUP1 DUP4 SUB DUP2 DUP7 DUP1 EXTCODESIZE ISZERO DUP1 ISZERO PUSH3 0x2C0A JUMPI PUSH1 0x0 DUP1 REVERT JUMPDEST POP GAS STATICCALL ISZERO DUP1 ISZERO PUSH3 0x2C1F JUMPI RETURNDATASIZE PUSH1 0x0 DUP1 RETURNDATACOPY RETURNDATASIZE PUSH1 0x0 REVERT JUMPDEST POP POP POP POP PUSH1 0x40 MLOAD RETURNDATASIZE PUSH1 0x1F NOT PUSH1 0x1F DUP3 ADD AND DUP3 ADD DUP1 PUSH1 0x40 MSTORE POP DUP2 ADD SWAP1 PUSH3 0x2C45 SWAP2 SWAP1 PUSH3 0x5CE4 JUMP JUMPDEST PUSH3 0x2C51 SWAP2 SWAP1 PUSH3 0x5DE3 JUMP JUMPDEST PUSH1 0x0 DUP1 ADDRESS TIMESTAMP PUSH1 0x40 MLOAD DUP9 PUSH4 0xFFFFFFFF AND PUSH1 0xE0 SHL DUP2 MSTORE PUSH1 0x4 ADD PUSH3 0x2C79 SWAP7 SWAP6 SWAP5 SWAP4 SWAP3 SWAP2 SWAP1 PUSH3 0x5ECA JUMP JUMPDEST PUSH1 0x60 PUSH1 0x40 MLOAD DUP1 DUP4 SUB DUP2 DUP6 DUP9 DUP1 EXTCODESIZE ISZERO DUP1 ISZERO PUSH3 0x2C93 JUMPI PUSH1 0x0 DUP1 REVERT JUMPDEST POP GAS CALL ISZERO DUP1 ISZERO PUSH3 0x2CA8 JUMPI RETURNDATASIZE PUSH1 0x0 DUP1 RETURNDATACOPY RETURNDATASIZE PUSH1 0x0 REVERT JUMPDEST POP POP POP POP POP PUSH1 0x40 MLOAD RETURNDATASIZE PUSH1 0x1F NOT PUSH1 0x1F DUP3 ADD AND DUP3 ADD DUP1 PUSH1 0x40 MSTORE POP DUP2 ADD SWAP1 PUSH3 0x2CCF SWAP2 SWAP1 PUSH3 0x5F30 JUMP JUMPDEST POP POP POP PUSH1 0x1 PUSH1 0x1 PUSH1 0xA0 SHL SUB DUP2 AND PUSH4 0xF305D719 PUSH1 0x4 PUSH3 0x2CF0 PUSH1 0xA SELFBALANCE PUSH3 0x5DE3 JUMP JUMPDEST PUSH3 0x2CFC SWAP2 SWAP1 PUSH3 0x5DE3 JUMP JUMPDEST PUSH1 0xE SLOAD PUSH1 0x40 MLOAD PUSH4 0x70A08231 PUSH1 0xE0 SHL DUP2 MSTORE PUSH1 0x1 PUSH1 0x1 PUSH1 0xA0 SHL SUB SWAP1 SWAP2 AND SWAP1 PUSH1 0x2 SWAP1 DUP3 SWAP1 PUSH4 0x70A08231 SWAP1 PUSH3 0x2D33 SWAP1 ADDRESS SWAP1 PUSH1 0x4 ADD PUSH3 0x5C16 JUMP JUMPDEST PUSH1 0x20 PUSH1 0x40 MLOAD DUP1 DUP4 SUB DUP2 DUP7 DUP1 EXTCODESIZE ISZERO DUP1 ISZERO PUSH3 0x2D4C JUMPI PUSH1 0x0 DUP1 REVERT JUMPDEST POP GAS STATICCALL ISZERO DUP1 ISZERO PUSH3 0x2D61 JUMPI RETURNDATASIZE PUSH1 0x0 DUP1 RETURNDATACOPY RETURNDATASIZE PUSH1 0x0 REVERT JUMPDEST POP POP POP POP PUSH1 0x40 MLOAD RETURNDATASIZE PUSH1 0x1F NOT PUSH1 0x1F DUP3 ADD AND DUP3 ADD DUP1 PUSH1 0x40 MSTORE POP DUP2 ADD SWAP1 PUSH3 0x2D87 SWAP2 SWAP1 PUSH3 0x5CE4 JUMP JUMPDEST PUSH3 0x2D93 SWAP2 SWAP1 PUSH3 0x5DE3 JUMP JUMPDEST PUSH1 0x0 DUP1 ADDRESS TIMESTAMP PUSH1 0x40 MLOAD DUP9 PUSH4 0xFFFFFFFF AND PUSH1 0xE0 SHL DUP2 MSTORE PUSH1 0x4 ADD PUSH3 0x2DBB SWAP7 SWAP6 SWAP5 SWAP4 SWAP3 SWAP2 SWAP1 PUSH3 0x5ECA JUMP JUMPDEST PUSH1 0x60 PUSH1 0x40 MLOAD DUP1 DUP4 SUB DUP2 DUP6 DUP9 DUP1 EXTCODESIZE ISZERO DUP1 ISZERO PUSH3 0x2DD5 JUMPI PUSH1 0x0 DUP1 REVERT JUMPDEST POP GAS CALL ISZERO DUP1 ISZERO PUSH3 0x2DEA JUMPI RETURNDATASIZE PUSH1 0x0 DUP1 RETURNDATACOPY RETURNDATASIZE PUSH1 0x0 REVERT JUMPDEST POP POP POP POP POP PUSH1 0x40 MLOAD RETURNDATASIZE PUSH1 0x1F NOT PUSH1 0x1F DUP3 ADD AND DUP3 ADD DUP1 PUSH1 0x40 MSTORE POP DUP2 ADD SWAP1 PUSH3 0x2E11 SWAP2 SWAP1 PUSH3 0x5F30 JUMP JUMPDEST POP POP POP DUP2 PUSH3 0x3826 JUMPI PUSH1 0xC SLOAD PUSH1 0x15 SLOAD PUSH1 0x40 MLOAD PUSH4 0x70A08231 PUSH1 0xE0 SHL DUP2 MSTORE PUSH1 0x0 SWAP3 PUSH1 0x1 PUSH1 0x1 PUSH1 0xA0 SHL SUB AND SWAP2 ADDRESS SWAP2 PUSH1 0x2 SWAP1 DUP5 SWAP1 PUSH4 0x70A08231 SWAP1 PUSH3 0x2E57 SWAP1 DUP7 SWAP1 PUSH1 0x4 ADD PUSH3 0x5C16 JUMP JUMPDEST PUSH1 0x20 PUSH1 0x40 MLOAD DUP1 DUP4 SUB DUP2 DUP7 DUP1 EXTCODESIZE ISZERO DUP1 ISZERO PUSH3 0x2E70 JUMPI PUSH1 0x0 DUP1 REVERT JUMPDEST POP GAS STATICCALL ISZERO DUP1 ISZERO PUSH3 0x2E85 JUMPI RETURNDATASIZE PUSH1 0x0 DUP1 RETURNDATACOPY RETURNDATASIZE PUSH1 0x0 REVERT JUMPDEST POP POP POP POP PUSH1 0x40 MLOAD RETURNDATASIZE PUSH1 0x1F NOT PUSH1 0x1F DUP3 ADD AND DUP3 ADD DUP1 PUSH1 0x40 MSTORE POP DUP2 ADD SWAP1 PUSH3 0x2EAB SWAP2 SWAP1 PUSH3 0x5CE4 JUMP JUMPDEST PUSH3 0x2EB7 SWAP2 SWAP1 PUSH3 0x5DE3 JUMP JUMPDEST PUSH1 0x40 MLOAD PUSH3 0x2EC5 SWAP1 PUSH3 0x5A58 JUMP JUMPDEST PUSH3 0x2ED4 SWAP5 SWAP4 SWAP3 SWAP2 SWAP1 PUSH3 0x5D09 JUMP JUMPDEST PUSH1 0x40 MLOAD DUP1 SWAP2 SUB SWAP1 PUSH1 0x0 CREATE DUP1 ISZERO DUP1 ISZERO PUSH3 0x2EF1 JUMPI RETURNDATASIZE PUSH1 0x0 DUP1 RETURNDATACOPY RETURNDATASIZE PUSH1 0x0 REVERT JUMPDEST POP SWAP1 POP PUSH1 0x1 PUSH1 0x1 PUSH1 0xA0 SHL SUB DUP2 AND PUSH1 0x4 PUSH3 0x2F0D PUSH1 0x64 SELFBALANCE PUSH3 0x5DE3 JUMP JUMPDEST PUSH3 0x2F1A SWAP1 PUSH1 0x1E PUSH3 0x5D92 JUMP JUMPDEST PUSH3 0x2F26 SWAP2 SWAP1 PUSH3 0x5DE3 JUMP JUMPDEST PUSH1 0x40 MLOAD PUSH2 0x5E4A SWAP2 SWAP1 PUSH1 0x0 DUP2 DUP2 DUP2 DUP6 DUP9 DUP9 CALL SWAP4 POP POP POP POP RETURNDATASIZE DUP1 PUSH1 0x0 DUP2 EQ PUSH3 0x2F6A JUMPI PUSH1 0x40 MLOAD SWAP2 POP PUSH1 0x1F NOT PUSH1 0x3F RETURNDATASIZE ADD AND DUP3 ADD PUSH1 0x40 MSTORE RETURNDATASIZE DUP3 MSTORE RETURNDATASIZE PUSH1 0x0 PUSH1 0x20 DUP5 ADD RETURNDATACOPY PUSH3 0x2F6F JUMP JUMPDEST PUSH1 0x60 SWAP2 POP JUMPDEST POP POP PUSH1 0x1D DUP1 SLOAD PUSH20 0xFFFFFFFFFFFFFFFFFFFFFFFFFFFFFFFFFFFFFFFF NOT AND PUSH1 0x1 PUSH1 0x1 PUSH1 0xA0 SHL SUB DUP5 DUP2 AND SWAP2 SWAP1 SWAP2 OR SWAP1 SWAP2 SSTORE PUSH1 0xC SLOAD PUSH1 0x40 MLOAD PUSH4 0x70A08231 PUSH1 0xE0 SHL DUP2 MSTORE SWAP2 AND SWAP2 POP PUSH4 0x95EA7B3 SWAP1 DUP4 SWAP1 DUP4 SWAP1 PUSH4 0x70A08231 SWAP1 PUSH3 0x2FD2 SWAP1 ADDRESS SWAP1 PUSH1 0x4 ADD PUSH3 0x5C16 JUMP JUMPDEST PUSH1 0x20 PUSH1 0x40 MLOAD DUP1 DUP4 SUB DUP2 DUP7 DUP1 EXTCODESIZE ISZERO DUP1 ISZERO PUSH3 0x2FEB JUMPI PUSH1 0x0 DUP1 REVERT JUMPDEST POP GAS STATICCALL ISZERO DUP1 ISZERO PUSH3 0x3000 JUMPI RETURNDATASIZE PUSH1 0x0 DUP1 RETURNDATACOPY RETURNDATASIZE PUSH1 0x0 REVERT JUMPDEST POP POP POP POP PUSH1 0x40 MLOAD RETURNDATASIZE PUSH1 0x1F NOT PUSH1 0x1F DUP3 ADD AND DUP3 ADD DUP1 PUSH1 0x40 MSTORE POP DUP2 ADD SWAP1 PUSH3 0x3026 SWAP2 SWAP1 PUSH3 0x5CE4 JUMP JUMPDEST PUSH1 0x40 MLOAD DUP4 PUSH4 0xFFFFFFFF AND PUSH1 0xE0 SHL DUP2 MSTORE PUSH1 0x4 ADD PUSH3 0x3045 SWAP3 SWAP2 SWAP1 PUSH3 0x5EA4 JUMP JUMPDEST PUSH1 0x20 PUSH1 0x40 MLOAD DUP1 DUP4 SUB DUP2 PUSH1 0x0 DUP8 DUP1 EXTCODESIZE ISZERO DUP1 ISZERO PUSH3 0x3060 JUMPI PUSH1 0x0 DUP1 REVERT JUMPDEST POP GAS CALL ISZERO DUP1 ISZERO PUSH3 0x3075 JUMPI RETURNDATASIZE PUSH1 0x0 DUP1 RETURNDATACOPY RETURNDATASIZE PUSH1 0x0 REVERT JUMPDEST POP POP POP POP PUSH1 0x40 MLOAD RETURNDATASIZE PUSH1 0x1F NOT PUSH1 0x1F DUP3 ADD AND DUP3 ADD DUP1 PUSH1 0x40 MSTORE POP DUP2 ADD SWAP1 PUSH3 0x309B SWAP2 SWAP1 PUSH3 0x5E10 JUMP JUMPDEST POP PUSH1 0xD SLOAD PUSH1 0x16 SLOAD PUSH1 0x40 MLOAD PUSH4 0x70A08231 PUSH1 0xE0 SHL DUP2 MSTORE PUSH1 0x0 SWAP3 PUSH1 0x1 PUSH1 0x1 PUSH1 0xA0 SHL SUB AND SWAP2 ADDRESS SWAP2 PUSH1 0x2 SWAP1 DUP5 SWAP1 PUSH4 0x70A08231 SWAP1 PUSH3 0x30D9 SWAP1 DUP7 SWAP1 PUSH1 0x4 ADD PUSH3 0x5C16 JUMP JUMPDEST PUSH1 0x20 PUSH1 0x40 MLOAD DUP1 DUP4 SUB DUP2 DUP7 DUP1 EXTCODESIZE ISZERO DUP1 ISZERO PUSH3 0x30F2 JUMPI PUSH1 0x0 DUP1 REVERT JUMPDEST POP GAS STATICCALL ISZERO DUP1 ISZERO PUSH3 0x3107 JUMPI RETURNDATASIZE PUSH1 0x0 DUP1 RETURNDATACOPY RETURNDATASIZE PUSH1 0x0 REVERT JUMPDEST POP POP POP POP PUSH1 0x40 MLOAD RETURNDATASIZE PUSH1 0x1F NOT PUSH1 0x1F DUP3 ADD AND DUP3 ADD DUP1 PUSH1 0x40 MSTORE POP DUP2 ADD SWAP1 PUSH3 0x312D SWAP2 SWAP1 PUSH3 0x5CE4 JUMP JUMPDEST PUSH3 0x3139 SWAP2 SWAP1 PUSH3 0x5DE3 JUMP JUMPDEST PUSH1 0x40 MLOAD PUSH3 0x3147 SWAP1 PUSH3 0x5A58 JUMP JUMPDEST PUSH3 0x3156 SWAP5 SWAP4 SWAP3 SWAP2 SWAP1 PUSH3 0x5D09 JUMP JUMPDEST PUSH1 0x40 MLOAD DUP1 SWAP2 SUB SWAP1 PUSH1 0x0 CREATE DUP1 ISZERO DUP1 ISZERO PUSH3 0x3173 JUMPI RETURNDATASIZE PUSH1 0x0 DUP1 RETURNDATACOPY RETURNDATASIZE PUSH1 0x0 REVERT JUMPDEST POP PUSH1 0x1E DUP1 SLOAD PUSH20 0xFFFFFFFFFFFFFFFFFFFFFFFFFFFFFFFFFFFFFFFF NOT AND PUSH1 0x1 PUSH1 0x1 PUSH1 0xA0 SHL SUB DUP4 AND SWAP1 DUP2 OR SWAP1 SWAP2 SSTORE SWAP1 SWAP2 POP PUSH1 0x4 PUSH3 0x31B1 PUSH1 0x64 SELFBALANCE PUSH3 0x5DE3 JUMP JUMPDEST PUSH3 0x31BE SWAP1 PUSH1 0x1E PUSH3 0x5D92 JUMP JUMPDEST PUSH3 0x31CA SWAP2 SWAP1 PUSH3 0x5DE3 JUMP JUMPDEST PUSH1 0x40 MLOAD PUSH2 0x5E4A SWAP2 SWAP1 PUSH1 0x0 DUP2 DUP2 DUP2 DUP6 DUP9 DUP9 CALL SWAP4 POP POP POP POP RETURNDATASIZE DUP1 PUSH1 0x0 DUP2 EQ PUSH3 0x320E JUMPI PUSH1 0x40 MLOAD SWAP2 POP PUSH1 0x1F NOT PUSH1 0x3F RETURNDATASIZE ADD AND DUP3 ADD PUSH1 0x40 MSTORE RETURNDATASIZE DUP3 MSTORE RETURNDATASIZE PUSH1 0x0 PUSH1 0x20 DUP5 ADD RETURNDATACOPY PUSH3 0x3213 JUMP JUMPDEST PUSH1 0x60 SWAP2 POP JUMPDEST POP POP PUSH1 0xD SLOAD PUSH1 0x40 MLOAD PUSH4 0x70A08231 PUSH1 0xE0 SHL DUP2 MSTORE PUSH1 0x1 PUSH1 0x1 PUSH1 0xA0 SHL SUB SWAP1 SWAP2 AND SWAP2 POP PUSH4 0x95EA7B3 SWAP1 DUP4 SWAP1 DUP4 SWAP1 PUSH4 0x70A08231 SWAP1 PUSH3 0x3252 SWAP1 ADDRESS SWAP1 PUSH1 0x4 ADD PUSH3 0x5C16 JUMP JUMPDEST PUSH1 0x20 PUSH1 0x40 MLOAD DUP1 DUP4 SUB DUP2 DUP7 DUP1 EXTCODESIZE ISZERO DUP1 ISZERO PUSH3 0x326B JUMPI PUSH1 0x0 DUP1 REVERT JUMPDEST POP GAS STATICCALL ISZERO DUP1 ISZERO PUSH3 0x3280 JUMPI RETURNDATASIZE PUSH1 0x0 DUP1 RETURNDATACOPY RETURNDATASIZE PUSH1 0x0 REVERT JUMPDEST POP POP POP POP PUSH1 0x40 MLOAD RETURNDATASIZE PUSH1 0x1F NOT PUSH1 0x1F DUP3 ADD AND DUP3 ADD DUP1 PUSH1 0x40 MSTORE POP DUP2 ADD SWAP1 PUSH3 0x32A6 SWAP2 SWAP1 PUSH3 0x5CE4 JUMP JUMPDEST PUSH1 0x40 MLOAD DUP4 PUSH4 0xFFFFFFFF AND PUSH1 0xE0 SHL DUP2 MSTORE PUSH1 0x4 ADD PUSH3 0x32C5 SWAP3 SWAP2 SWAP1 PUSH3 0x5EA4 JUMP JUMPDEST PUSH1 0x20 PUSH1 0x40 MLOAD DUP1 DUP4 SUB DUP2 PUSH1 0x0 DUP8 DUP1 EXTCODESIZE ISZERO DUP1 ISZERO PUSH3 0x32E0 JUMPI PUSH1 0x0 DUP1 REVERT JUMPDEST POP GAS CALL ISZERO DUP1 ISZERO PUSH3 0x32F5 JUMPI RETURNDATASIZE PUSH1 0x0 DUP1 RETURNDATACOPY RETURNDATASIZE PUSH1 0x0 REVERT JUMPDEST POP POP POP POP PUSH1 0x40 MLOAD RETURNDATASIZE PUSH1 0x1F NOT PUSH1 0x1F DUP3 ADD AND DUP3 ADD DUP1 PUSH1 0x40 MSTORE POP DUP2 ADD SWAP1 PUSH3 0x331B SWAP2 SWAP1 PUSH3 0x5E10 JUMP JUMPDEST POP PUSH1 0xF SLOAD PUSH1 0x17 SLOAD PUSH1 0x40 MLOAD PUSH4 0x70A08231 PUSH1 0xE0 SHL DUP2 MSTORE PUSH1 0x0 SWAP3 PUSH1 0x1 PUSH1 0x1 PUSH1 0xA0 SHL SUB AND SWAP2 ADDRESS SWAP2 PUSH1 0x2 SWAP1 DUP5 SWAP1 PUSH4 0x70A08231 SWAP1 PUSH3 0x3359 SWAP1 DUP7 SWAP1 PUSH1 0x4 ADD PUSH3 0x5C16 JUMP JUMPDEST PUSH1 0x20 PUSH1 0x40 MLOAD DUP1 DUP4 SUB DUP2 DUP7 DUP1 EXTCODESIZE ISZERO DUP1 ISZERO PUSH3 0x3372 JUMPI PUSH1 0x0 DUP1 REVERT JUMPDEST POP GAS STATICCALL ISZERO DUP1 ISZERO PUSH3 0x3387 JUMPI RETURNDATASIZE PUSH1 0x0 DUP1 RETURNDATACOPY RETURNDATASIZE PUSH1 0x0 REVERT JUMPDEST POP POP POP POP PUSH1 0x40 MLOAD RETURNDATASIZE PUSH1 0x1F NOT PUSH1 0x1F DUP3 ADD AND DUP3 ADD DUP1 PUSH1 0x40 MSTORE POP DUP2 ADD SWAP1 PUSH3 0x33AD SWAP2 SWAP1 PUSH3 0x5CE4 JUMP JUMPDEST PUSH3 0x33B9 SWAP2 SWAP1 PUSH3 0x5DE3 JUMP JUMPDEST PUSH1 0x40 MLOAD PUSH3 0x33C7 SWAP1 PUSH3 0x5A58 JUMP JUMPDEST PUSH3 0x33D6 SWAP5 SWAP4 SWAP3 SWAP2 SWAP1 PUSH3 0x5D09 JUMP JUMPDEST PUSH1 0x40 MLOAD DUP1 SWAP2 SUB SWAP1 PUSH1 0x0 CREATE DUP1 ISZERO DUP1 ISZERO PUSH3 0x33F3 JUMPI RETURNDATASIZE PUSH1 0x0 DUP1 RETURNDATACOPY RETURNDATASIZE PUSH1 0x0 REVERT JUMPDEST POP PUSH1 0x1F DUP1 SLOAD PUSH20 0xFFFFFFFFFFFFFFFFFFFFFFFFFFFFFFFFFFFFFFFF NOT AND PUSH1 0x1 PUSH1 0x1 PUSH1 0xA0 SHL SUB DUP4 AND SWAP1 DUP2 OR SWAP1 SWAP2 SSTORE SWAP1 SWAP2 POP PUSH1 0x4 PUSH3 0x3431 PUSH1 0x64 SELFBALANCE PUSH3 0x5DE3 JUMP JUMPDEST PUSH3 0x343E SWAP1 PUSH1 0x1E PUSH3 0x5D92 JUMP JUMPDEST PUSH3 0x344A SWAP2 SWAP1 PUSH3 0x5DE3 JUMP JUMPDEST PUSH1 0x40 MLOAD PUSH2 0x5E4A SWAP2 SWAP1 PUSH1 0x0 DUP2 DUP2 DUP2 DUP6 DUP9 DUP9 CALL SWAP4 POP POP POP POP RETURNDATASIZE DUP1 PUSH1 0x0 DUP2 EQ PUSH3 0x348E JUMPI PUSH1 0x40 MLOAD SWAP2 POP PUSH1 0x1F NOT PUSH1 0x3F RETURNDATASIZE ADD AND DUP3 ADD PUSH1 0x40 MSTORE RETURNDATASIZE DUP3 MSTORE RETURNDATASIZE PUSH1 0x0 PUSH1 0x20 DUP5 ADD RETURNDATACOPY PUSH3 0x3493 JUMP JUMPDEST PUSH1 0x60 SWAP2 POP JUMPDEST POP POP PUSH1 0xF SLOAD PUSH1 0x40 MLOAD PUSH4 0x70A08231 PUSH1 0xE0 SHL DUP2 MSTORE PUSH1 0x1 PUSH1 0x1 PUSH1 0xA0 SHL SUB SWAP1 SWAP2 AND SWAP2 POP PUSH4 0x95EA7B3 SWAP1 DUP4 SWAP1 DUP4 SWAP1 PUSH4 0x70A08231 SWAP1 PUSH3 0x34D2 SWAP1 ADDRESS SWAP1 PUSH1 0x4 ADD PUSH3 0x5C16 JUMP JUMPDEST PUSH1 0x20 PUSH1 0x40 MLOAD DUP1 DUP4 SUB DUP2 DUP7 DUP1 EXTCODESIZE ISZERO DUP1 ISZERO PUSH3 0x34EB JUMPI PUSH1 0x0 DUP1 REVERT JUMPDEST POP GAS STATICCALL ISZERO DUP1 ISZERO PUSH3 0x3500 JUMPI RETURNDATASIZE PUSH1 0x0 DUP1 RETURNDATACOPY RETURNDATASIZE PUSH1 0x0 REVERT JUMPDEST POP POP POP POP PUSH1 0x40 MLOAD RETURNDATASIZE PUSH1 0x1F NOT PUSH1 0x1F DUP3 ADD AND DUP3 ADD DUP1 PUSH1 0x40 MSTORE POP DUP2 ADD SWAP1 PUSH3 0x3526 SWAP2 SWAP1 PUSH3 0x5CE4 JUMP JUMPDEST PUSH1 0x40 MLOAD DUP4 PUSH4 0xFFFFFFFF AND PUSH1 0xE0 SHL DUP2 MSTORE PUSH1 0x4 ADD PUSH3 0x3545 SWAP3 SWAP2 SWAP1 PUSH3 0x5EA4 JUMP JUMPDEST PUSH1 0x20 PUSH1 0x40 MLOAD DUP1 DUP4 SUB DUP2 PUSH1 0x0 DUP8 DUP1 EXTCODESIZE ISZERO DUP1 ISZERO PUSH3 0x3560 JUMPI PUSH1 0x0 DUP1 REVERT JUMPDEST POP GAS CALL ISZERO DUP1 ISZERO PUSH3 0x3575 JUMPI RETURNDATASIZE PUSH1 0x0 DUP1 RETURNDATACOPY RETURNDATASIZE PUSH1 0x0 REVERT JUMPDEST POP POP POP POP PUSH1 0x40 MLOAD RETURNDATASIZE PUSH1 0x1F NOT PUSH1 0x1F DUP3 ADD AND DUP3 ADD DUP1 PUSH1 0x40 MSTORE POP DUP2 ADD SWAP1 PUSH3 0x359B SWAP2 SWAP1 PUSH3 0x5E10 JUMP JUMPDEST POP PUSH1 0xE SLOAD PUSH1 0x18 SLOAD PUSH1 0x40 MLOAD PUSH4 0x70A08231 PUSH1 0xE0 SHL DUP2 MSTORE PUSH1 0x0 SWAP3 PUSH1 0x1 PUSH1 0x1 PUSH1 0xA0 SHL SUB AND SWAP2 ADDRESS SWAP2 PUSH1 0x2 SWAP1 DUP5 SWAP1 PUSH4 0x70A08231 SWAP1 PUSH3 0x35D9 SWAP1 DUP7 SWAP1 PUSH1 0x4 ADD PUSH3 0x5C16 JUMP JUMPDEST PUSH1 0x20 PUSH1 0x40 MLOAD DUP1 DUP4 SUB DUP2 DUP7 DUP1 EXTCODESIZE ISZERO DUP1 ISZERO PUSH3 0x35F2 JUMPI PUSH1 0x0 DUP1 REVERT JUMPDEST POP GAS STATICCALL ISZERO DUP1 ISZERO PUSH3 0x3607 JUMPI RETURNDATASIZE PUSH1 0x0 DUP1 RETURNDATACOPY RETURNDATASIZE PUSH1 0x0 REVERT JUMPDEST POP POP POP POP PUSH1 0x40 MLOAD RETURNDATASIZE PUSH1 0x1F NOT PUSH1 0x1F DUP3 ADD AND DUP3 ADD DUP1 PUSH1 0x40 MSTORE POP DUP2 ADD SWAP1 PUSH3 0x362D SWAP2 SWAP1 PUSH3 0x5CE4 JUMP JUMPDEST PUSH3 0x3639 SWAP2 SWAP1 PUSH3 0x5DE3 JUMP JUMPDEST PUSH1 0x40 MLOAD PUSH3 0x3647 SWAP1 PUSH3 0x5A58 JUMP JUMPDEST PUSH3 0x3656 SWAP5 SWAP4 SWAP3 SWAP2 SWAP1 PUSH3 0x5D09 JUMP JUMPDEST PUSH1 0x40 MLOAD DUP1 SWAP2 SUB SWAP1 PUSH1 0x0 CREATE DUP1 ISZERO DUP1 ISZERO PUSH3 0x3673 JUMPI RETURNDATASIZE PUSH1 0x0 DUP1 RETURNDATACOPY RETURNDATASIZE PUSH1 0x0 REVERT JUMPDEST POP PUSH1 0x20 DUP1 SLOAD PUSH20 0xFFFFFFFFFFFFFFFFFFFFFFFFFFFFFFFFFFFFFFFF NOT AND PUSH1 0x1 PUSH1 0x1 PUSH1 0xA0 SHL SUB DUP4 AND SWAP1 DUP2 OR SWAP1 SWAP2 SSTORE SWAP1 SWAP2 POP PUSH1 0x4 PUSH3 0x36B1 PUSH1 0x64 SELFBALANCE PUSH3 0x5DE3 JUMP JUMPDEST PUSH3 0x36BE SWAP1 PUSH1 0x1E PUSH3 0x5D92 JUMP JUMPDEST PUSH3 0x36CA SWAP2 SWAP1 PUSH3 0x5DE3 JUMP JUMPDEST PUSH1 0x40 MLOAD PUSH2 0x5E4A SWAP2 SWAP1 PUSH1 0x0 DUP2 DUP2 DUP2 DUP6 DUP9 DUP9 CALL SWAP4 POP POP POP POP RETURNDATASIZE DUP1 PUSH1 0x0 DUP2 EQ PUSH3 0x370E JUMPI PUSH1 0x40 MLOAD SWAP2 POP PUSH1 0x1F NOT PUSH1 0x3F RETURNDATASIZE ADD AND DUP3 ADD PUSH1 0x40 MSTORE RETURNDATASIZE DUP3 MSTORE RETURNDATASIZE PUSH1 0x0 PUSH1 0x20 DUP5 ADD RETURNDATACOPY PUSH3 0x3713 JUMP JUMPDEST PUSH1 0x60 SWAP2 POP JUMPDEST POP POP PUSH1 0xE SLOAD PUSH1 0x40 MLOAD PUSH4 0x70A08231 PUSH1 0xE0 SHL DUP2 MSTORE PUSH1 0x1 PUSH1 0x1 PUSH1 0xA0 SHL SUB SWAP1 SWAP2 AND SWAP2 POP PUSH4 0x95EA7B3 SWAP1 DUP4 SWAP1 DUP4 SWAP1 PUSH4 0x70A08231 SWAP1 PUSH3 0x3752 SWAP1 ADDRESS SWAP1 PUSH1 0x4 ADD PUSH3 0x5C16 JUMP JUMPDEST PUSH1 0x20 PUSH1 0x40 MLOAD DUP1 DUP4 SUB DUP2 DUP7 DUP1 EXTCODESIZE ISZERO DUP1 ISZERO PUSH3 0x376B JUMPI PUSH1 0x0 DUP1 REVERT JUMPDEST POP GAS STATICCALL ISZERO DUP1 ISZERO PUSH3 0x3780 JUMPI RETURNDATASIZE PUSH1 0x0 DUP1 RETURNDATACOPY RETURNDATASIZE PUSH1 0x0 REVERT JUMPDEST POP POP POP POP PUSH1 0x40 MLOAD RETURNDATASIZE PUSH1 0x1F NOT PUSH1 0x1F DUP3 ADD AND DUP3 ADD DUP1 PUSH1 0x40 MSTORE POP DUP2 ADD SWAP1 PUSH3 0x37A6 SWAP2 SWAP1 PUSH3 0x5CE4 JUMP JUMPDEST PUSH1 0x40 MLOAD DUP4 PUSH4 0xFFFFFFFF AND PUSH1 0xE0 SHL DUP2 MSTORE PUSH1 0x4 ADD PUSH3 0x37C5 SWAP3 SWAP2 SWAP1 PUSH3 0x5EA4 JUMP JUMPDEST PUSH1 0x20 PUSH1 0x40 MLOAD DUP1 DUP4 SUB DUP2 PUSH1 0x0 DUP8 DUP1 EXTCODESIZE ISZERO DUP1 ISZERO PUSH3 0x37E0 JUMPI PUSH1 0x0 DUP1 REVERT JUMPDEST POP GAS CALL ISZERO DUP1 ISZERO PUSH3 0x37F5 JUMPI RETURNDATASIZE PUSH1 0x0 DUP1 RETURNDATACOPY RETURNDATASIZE PUSH1 0x0 REVERT JUMPDEST POP POP POP POP PUSH1 0x40 MLOAD RETURNDATASIZE PUSH1 0x1F NOT PUSH1 0x1F DUP3 ADD AND DUP3 ADD DUP1 PUSH1 0x40 MSTORE POP DUP2 ADD SWAP1 PUSH3 0x381B SWAP2 SWAP1 PUSH3 0x5E10 JUMP JUMPDEST POP POP POP POP POP PUSH3 0x57C0 JUMP JUMPDEST DUP2 PUSH1 0x1 EQ ISZERO PUSH3 0x4D94 JUMPI DUP6 DUP1 ISZERO PUSH3 0x383C JUMPI POP DUP5 ISZERO JUMPDEST DUP1 ISZERO PUSH3 0x3847 JUMPI POP DUP4 ISZERO JUMPDEST DUP1 ISZERO PUSH3 0x3852 JUMPI POP DUP3 ISZERO JUMPDEST ISZERO PUSH3 0x3F1B JUMPI PUSH1 0xC SLOAD PUSH1 0x15 SLOAD PUSH1 0x40 MLOAD PUSH4 0x70A08231 PUSH1 0xE0 SHL DUP2 MSTORE PUSH1 0x0 SWAP3 PUSH1 0x1 PUSH1 0x1 PUSH1 0xA0 SHL SUB AND SWAP2 ADDRESS SWAP2 PUSH1 0x2 SWAP1 DUP5 SWAP1 PUSH4 0x70A08231 SWAP1 PUSH3 0x3895 SWAP1 DUP7 SWAP1 PUSH1 0x4 ADD PUSH3 0x5C16 JUMP JUMPDEST PUSH1 0x20 PUSH1 0x40 MLOAD DUP1 DUP4 SUB DUP2 DUP7 DUP1 EXTCODESIZE ISZERO DUP1 ISZERO PUSH3 0x38AE JUMPI PUSH1 0x0 DUP1 REVERT JUMPDEST POP GAS STATICCALL ISZERO DUP1 ISZERO PUSH3 0x38C3 JUMPI RETURNDATASIZE PUSH1 0x0 DUP1 RETURNDATACOPY RETURNDATASIZE PUSH1 0x0 REVERT JUMPDEST POP POP POP POP PUSH1 0x40 MLOAD RETURNDATASIZE PUSH1 0x1F NOT PUSH1 0x1F DUP3 ADD AND DUP3 ADD DUP1 PUSH1 0x40 MSTORE POP DUP2 ADD SWAP1 PUSH3 0x38E9 SWAP2 SWAP1 PUSH3 0x5CE4 JUMP JUMPDEST PUSH3 0x38F5 SWAP2 SWAP1 PUSH3 0x5DE3 JUMP JUMPDEST PUSH1 0x40 MLOAD PUSH3 0x3903 SWAP1 PUSH3 0x5A58 JUMP JUMPDEST PUSH3 0x3912 SWAP5 SWAP4 SWAP3 SWAP2 SWAP1 PUSH3 0x5D09 JUMP JUMPDEST PUSH1 0x40 MLOAD DUP1 SWAP2 SUB SWAP1 PUSH1 0x0 CREATE DUP1 ISZERO DUP1 ISZERO PUSH3 0x392F JUMPI RETURNDATASIZE PUSH1 0x0 DUP1 RETURNDATACOPY RETURNDATASIZE PUSH1 0x0 REVERT JUMPDEST POP SWAP1 POP PUSH1 0x1 PUSH1 0x1 PUSH1 0xA0 SHL SUB DUP2 AND PUSH3 0x3949 PUSH1 0x64 SELFBALANCE PUSH3 0x5DE3 JUMP JUMPDEST PUSH3 0x3956 SWAP1 PUSH1 0x50 PUSH3 0x5D92 JUMP JUMPDEST PUSH1 0x40 MLOAD PUSH2 0x5E4A SWAP2 SWAP1 PUSH1 0x0 DUP2 DUP2 DUP2 DUP6 DUP9 DUP9 CALL SWAP4 POP POP POP POP RETURNDATASIZE DUP1 PUSH1 0x0 DUP2 EQ PUSH3 0x399A JUMPI PUSH1 0x40 MLOAD SWAP2 POP PUSH1 0x1F NOT PUSH1 0x3F RETURNDATASIZE ADD AND DUP3 ADD PUSH1 0x40 MSTORE RETURNDATASIZE DUP3 MSTORE RETURNDATASIZE PUSH1 0x0 PUSH1 0x20 DUP5 ADD RETURNDATACOPY PUSH3 0x399F JUMP JUMPDEST PUSH1 0x60 SWAP2 POP JUMPDEST POP POP PUSH1 0x1D DUP1 SLOAD PUSH20 0xFFFFFFFFFFFFFFFFFFFFFFFFFFFFFFFFFFFFFFFF NOT AND PUSH1 0x1 PUSH1 0x1 PUSH1 0xA0 SHL SUB DUP5 DUP2 AND SWAP2 SWAP1 SWAP2 OR SWAP1 SWAP2 SSTORE PUSH1 0xC SLOAD PUSH1 0x40 MLOAD PUSH4 0x70A08231 PUSH1 0xE0 SHL DUP2 MSTORE SWAP2 AND SWAP2 POP PUSH4 0x95EA7B3 SWAP1 DUP4 SWAP1 DUP4 SWAP1 PUSH4 0x70A08231 SWAP1 PUSH3 0x3A02 SWAP1 ADDRESS SWAP1 PUSH1 0x4 ADD PUSH3 0x5C16 JUMP JUMPDEST PUSH1 0x20 PUSH1 0x40 MLOAD DUP1 DUP4 SUB DUP2 DUP7 DUP1 EXTCODESIZE ISZERO DUP1 ISZERO PUSH3 0x3A1B JUMPI PUSH1 0x0 DUP1 REVERT JUMPDEST POP GAS STATICCALL ISZERO DUP1 ISZERO PUSH3 0x3A30 JUMPI RETURNDATASIZE PUSH1 0x0 DUP1 RETURNDATACOPY RETURNDATASIZE PUSH1 0x0 REVERT JUMPDEST POP POP POP POP PUSH1 0x40 MLOAD RETURNDATASIZE PUSH1 0x1F NOT PUSH1 0x1F DUP3 ADD AND DUP3 ADD DUP1 PUSH1 0x40 MSTORE POP DUP2 ADD SWAP1 PUSH3 0x3A56 SWAP2 SWAP1 PUSH3 0x5CE4 JUMP JUMPDEST PUSH1 0x40 MLOAD DUP4 PUSH4 0xFFFFFFFF AND PUSH1 0xE0 SHL DUP2 MSTORE PUSH1 0x4 ADD PUSH3 0x3A75 SWAP3 SWAP2 SWAP1 PUSH3 0x5EA4 JUMP JUMPDEST PUSH1 0x20 PUSH1 0x40 MLOAD DUP1 DUP4 SUB DUP2 PUSH1 0x0 DUP8 DUP1 EXTCODESIZE ISZERO DUP1 ISZERO PUSH3 0x3A90 JUMPI PUSH1 0x0 DUP1 REVERT JUMPDEST POP GAS CALL ISZERO DUP1 ISZERO PUSH3 0x3AA5 JUMPI RETURNDATASIZE PUSH1 0x0 DUP1 RETURNDATACOPY RETURNDATASIZE PUSH1 0x0 REVERT JUMPDEST POP POP POP POP PUSH1 0x40 MLOAD RETURNDATASIZE PUSH1 0x1F NOT PUSH1 0x1F DUP3 ADD AND DUP3 ADD DUP1 PUSH1 0x40 MSTORE POP DUP2 ADD SWAP1 PUSH3 0x3ACB SWAP2 SWAP1 PUSH3 0x5E10 JUMP JUMPDEST POP PUSH1 0xD SLOAD PUSH1 0x40 MLOAD PUSH4 0x70A08231 PUSH1 0xE0 SHL DUP2 MSTORE PUSH1 0x0 SWAP2 PUSH1 0x1 PUSH1 0x1 PUSH1 0xA0 SHL SUB AND SWAP1 PUSH4 0x70A08231 SWAP1 PUSH3 0x3AFF SWAP1 ADDRESS SWAP1 PUSH1 0x4 ADD PUSH3 0x5C16 JUMP JUMPDEST PUSH1 0x20 PUSH1 0x40 MLOAD DUP1 DUP4 SUB DUP2 DUP7 DUP1 EXTCODESIZE ISZERO DUP1 ISZERO PUSH3 0x3B18 JUMPI PUSH1 0x0 DUP1 REVERT JUMPDEST POP GAS STATICCALL ISZERO DUP1 ISZERO PUSH3 0x3B2D JUMPI RETURNDATASIZE PUSH1 0x0 DUP1 RETURNDATACOPY RETURNDATASIZE PUSH1 0x0 REVERT JUMPDEST POP POP POP POP PUSH1 0x40 MLOAD RETURNDATASIZE PUSH1 0x1F NOT PUSH1 0x1F DUP3 ADD AND DUP3 ADD DUP1 PUSH1 0x40 MSTORE POP DUP2 ADD SWAP1 PUSH3 0x3B53 SWAP2 SWAP1 PUSH3 0x5CE4 JUMP JUMPDEST GT ISZERO PUSH3 0x3C3B JUMPI PUSH1 0xD SLOAD PUSH1 0x40 MLOAD PUSH4 0x70A08231 PUSH1 0xE0 SHL DUP2 MSTORE PUSH1 0x1 PUSH1 0x1 PUSH1 0xA0 SHL SUB SWAP1 SWAP2 AND SWAP1 PUSH4 0x42966C68 SWAP1 DUP3 SWAP1 PUSH4 0x70A08231 SWAP1 PUSH3 0x3B94 SWAP1 ADDRESS SWAP1 PUSH1 0x4 ADD PUSH3 0x5C16 JUMP JUMPDEST PUSH1 0x20 PUSH1 0x40 MLOAD DUP1 DUP4 SUB DUP2 DUP7 DUP1 EXTCODESIZE ISZERO DUP1 ISZERO PUSH3 0x3BAD JUMPI PUSH1 0x0 DUP1 REVERT JUMPDEST POP GAS STATICCALL ISZERO DUP1 ISZERO PUSH3 0x3BC2 JUMPI RETURNDATASIZE PUSH1 0x0 DUP1 RETURNDATACOPY RETURNDATASIZE PUSH1 0x0 REVERT JUMPDEST POP POP POP POP PUSH1 0x40 MLOAD RETURNDATASIZE PUSH1 0x1F NOT PUSH1 0x1F DUP3 ADD AND DUP3 ADD DUP1 PUSH1 0x40 MSTORE POP DUP2 ADD SWAP1 PUSH3 0x3BE8 SWAP2 SWAP1 PUSH3 0x5CE4 JUMP JUMPDEST PUSH1 0x40 MLOAD DUP3 PUSH4 0xFFFFFFFF AND PUSH1 0xE0 SHL DUP2 MSTORE PUSH1 0x4 ADD PUSH3 0x3C06 SWAP2 SWAP1 PUSH3 0x5B1C JUMP JUMPDEST PUSH1 0x0 PUSH1 0x40 MLOAD DUP1 DUP4 SUB DUP2 PUSH1 0x0 DUP8 DUP1 EXTCODESIZE ISZERO DUP1 ISZERO PUSH3 0x3C21 JUMPI PUSH1 0x0 DUP1 REVERT JUMPDEST POP GAS CALL ISZERO DUP1 ISZERO PUSH3 0x3C36 JUMPI RETURNDATASIZE PUSH1 0x0 DUP1 RETURNDATACOPY RETURNDATASIZE PUSH1 0x0 REVERT JUMPDEST POP POP POP POP JUMPDEST PUSH1 0xE SLOAD PUSH1 0x40 MLOAD PUSH4 0x70A08231 PUSH1 0xE0 SHL DUP2 MSTORE PUSH1 0x0 SWAP2 PUSH1 0x1 PUSH1 0x1 PUSH1 0xA0 SHL SUB AND SWAP1 PUSH4 0x70A08231 SWAP1 PUSH3 0x3C6E SWAP1 ADDRESS SWAP1 PUSH1 0x4 ADD PUSH3 0x5C16 JUMP JUMPDEST PUSH1 0x20 PUSH1 0x40 MLOAD DUP1 DUP4 SUB DUP2 DUP7 DUP1 EXTCODESIZE ISZERO DUP1 ISZERO PUSH3 0x3C87 JUMPI PUSH1 0x0 DUP1 REVERT JUMPDEST POP GAS STATICCALL ISZERO DUP1 ISZERO PUSH3 0x3C9C JUMPI RETURNDATASIZE PUSH1 0x0 DUP1 RETURNDATACOPY RETURNDATASIZE PUSH1 0x0 REVERT JUMPDEST POP POP POP POP PUSH1 0x40 MLOAD RETURNDATASIZE PUSH1 0x1F NOT PUSH1 0x1F DUP3 ADD AND DUP3 ADD DUP1 PUSH1 0x40 MSTORE POP DUP2 ADD SWAP1 PUSH3 0x3CC2 SWAP2 SWAP1 PUSH3 0x5CE4 JUMP JUMPDEST GT ISZERO PUSH3 0x3DAA JUMPI PUSH1 0xE SLOAD PUSH1 0x40 MLOAD PUSH4 0x70A08231 PUSH1 0xE0 SHL DUP2 MSTORE PUSH1 0x1 PUSH1 0x1 PUSH1 0xA0 SHL SUB SWAP1 SWAP2 AND SWAP1 PUSH4 0x42966C68 SWAP1 DUP3 SWAP1 PUSH4 0x70A08231 SWAP1 PUSH3 0x3D03 SWAP1 ADDRESS SWAP1 PUSH1 0x4 ADD PUSH3 0x5C16 JUMP JUMPDEST PUSH1 0x20 PUSH1 0x40 MLOAD DUP1 DUP4 SUB DUP2 DUP7 DUP1 EXTCODESIZE ISZERO DUP1 ISZERO PUSH3 0x3D1C JUMPI PUSH1 0x0 DUP1 REVERT JUMPDEST POP GAS STATICCALL ISZERO DUP1 ISZERO PUSH3 0x3D31 JUMPI RETURNDATASIZE PUSH1 0x0 DUP1 RETURNDATACOPY RETURNDATASIZE PUSH1 0x0 REVERT JUMPDEST POP POP POP POP PUSH1 0x40 MLOAD RETURNDATASIZE PUSH1 0x1F NOT PUSH1 0x1F DUP3 ADD AND DUP3 ADD DUP1 PUSH1 0x40 MSTORE POP DUP2 ADD SWAP1 PUSH3 0x3D57 SWAP2 SWAP1 PUSH3 0x5CE4 JUMP JUMPDEST PUSH1 0x40 MLOAD DUP3 PUSH4 0xFFFFFFFF AND PUSH1 0xE0 SHL DUP2 MSTORE PUSH1 0x4 ADD PUSH3 0x3D75 SWAP2 SWAP1 PUSH3 0x5B1C JUMP JUMPDEST PUSH1 0x0 PUSH1 0x40 MLOAD DUP1 DUP4 SUB DUP2 PUSH1 0x0 DUP8 DUP1 EXTCODESIZE ISZERO DUP1 ISZERO PUSH3 0x3D90 JUMPI PUSH1 0x0 DUP1 REVERT JUMPDEST POP GAS CALL ISZERO DUP1 ISZERO PUSH3 0x3DA5 JUMPI RETURNDATASIZE PUSH1 0x0 DUP1 RETURNDATACOPY RETURNDATASIZE PUSH1 0x0 REVERT JUMPDEST POP POP POP POP JUMPDEST PUSH1 0xF SLOAD PUSH1 0x40 MLOAD PUSH4 0x70A08231 PUSH1 0xE0 SHL DUP2 MSTORE PUSH1 0x0 SWAP2 PUSH1 0x1 PUSH1 0x1 PUSH1 0xA0 SHL SUB AND SWAP1 PUSH4 0x70A08231 SWAP1 PUSH3 0x3DDD SWAP1 ADDRESS SWAP1 PUSH1 0x4 ADD PUSH3 0x5C16 JUMP JUMPDEST PUSH1 0x20 PUSH1 0x40 MLOAD DUP1 DUP4 SUB DUP2 DUP7 DUP1 EXTCODESIZE ISZERO DUP1 ISZERO PUSH3 0x3DF6 JUMPI PUSH1 0x0 DUP1 REVERT JUMPDEST POP GAS STATICCALL ISZERO DUP1 ISZERO PUSH3 0x3E0B JUMPI RETURNDATASIZE PUSH1 0x0 DUP1 RETURNDATACOPY RETURNDATASIZE PUSH1 0x0 REVERT JUMPDEST POP POP POP POP PUSH1 0x40 MLOAD RETURNDATASIZE PUSH1 0x1F NOT PUSH1 0x1F DUP3 ADD AND DUP3 ADD DUP1 PUSH1 0x40 MSTORE POP DUP2 ADD SWAP1 PUSH3 0x3E31 SWAP2 SWAP1 PUSH3 0x5CE4 JUMP JUMPDEST GT ISZERO PUSH3 0x3F14 JUMPI PUSH1 0xF SLOAD PUSH1 0x40 MLOAD PUSH4 0x70A08231 PUSH1 0xE0 SHL DUP2 MSTORE PUSH1 0x1 PUSH1 0x1 PUSH1 0xA0 SHL SUB SWAP1 SWAP2 AND SWAP1 PUSH4 0x42966C68 SWAP1 DUP3 SWAP1 PUSH4 0x70A08231 SWAP1 PUSH3 0x3E72 SWAP1 ADDRESS SWAP1 PUSH1 0x4 ADD PUSH3 0x5C16 JUMP JUMPDEST PUSH1 0x20 PUSH1 0x40 MLOAD DUP1 DUP4 SUB DUP2 DUP7 DUP1 EXTCODESIZE ISZERO DUP1 ISZERO PUSH3 0x3E8B JUMPI PUSH1 0x0 DUP1 REVERT JUMPDEST POP GAS STATICCALL ISZERO DUP1 ISZERO PUSH3 0x3EA0 JUMPI RETURNDATASIZE PUSH1 0x0 DUP1 RETURNDATACOPY RETURNDATASIZE PUSH1 0x0 REVERT JUMPDEST POP POP POP POP PUSH1 0x40 MLOAD RETURNDATASIZE PUSH1 0x1F NOT PUSH1 0x1F DUP3 ADD AND DUP3 ADD DUP1 PUSH1 0x40 MSTORE POP DUP2 ADD SWAP1 PUSH3 0x3EC6 SWAP2 SWAP1 PUSH3 0x5CE4 JUMP JUMPDEST PUSH1 0x40 MLOAD DUP3 PUSH4 0xFFFFFFFF AND PUSH1 0xE0 SHL DUP2 MSTORE PUSH1 0x4 ADD PUSH3 0x3EE4 SWAP2 SWAP1 PUSH3 0x5B1C JUMP JUMPDEST PUSH1 0x0 PUSH1 0x40 MLOAD DUP1 DUP4 SUB DUP2 PUSH1 0x0 DUP8 DUP1 EXTCODESIZE ISZERO DUP1 ISZERO PUSH3 0x3EFF JUMPI PUSH1 0x0 DUP1 REVERT JUMPDEST POP GAS CALL ISZERO DUP1 ISZERO PUSH3 0x381B JUMPI RETURNDATASIZE PUSH1 0x0 DUP1 RETURNDATACOPY RETURNDATASIZE PUSH1 0x0 REVERT JUMPDEST POP PUSH3 0x57C0 JUMP JUMPDEST DUP5 DUP1 ISZERO PUSH3 0x3F27 JUMPI POP DUP6 ISZERO JUMPDEST DUP1 ISZERO PUSH3 0x3F32 JUMPI POP DUP4 ISZERO JUMPDEST DUP1 ISZERO PUSH3 0x3F3D JUMPI POP DUP3 ISZERO JUMPDEST ISZERO PUSH3 0x43EC JUMPI PUSH1 0xD SLOAD PUSH1 0x16 SLOAD PUSH1 0x40 MLOAD PUSH4 0x70A08231 PUSH1 0xE0 SHL DUP2 MSTORE PUSH1 0x0 SWAP3 PUSH1 0x1 PUSH1 0x1 PUSH1 0xA0 SHL SUB AND SWAP2 ADDRESS SWAP2 PUSH1 0x2 SWAP1 DUP5 SWAP1 PUSH4 0x70A08231 SWAP1 PUSH3 0x3F80 SWAP1 DUP7 SWAP1 PUSH1 0x4 ADD PUSH3 0x5C16 JUMP JUMPDEST PUSH1 0x20 PUSH1 0x40 MLOAD DUP1 DUP4 SUB DUP2 DUP7 DUP1 EXTCODESIZE ISZERO DUP1 ISZERO PUSH3 0x3F99 JUMPI PUSH1 0x0 DUP1 REVERT JUMPDEST POP GAS STATICCALL ISZERO DUP1 ISZERO PUSH3 0x3FAE JUMPI RETURNDATASIZE PUSH1 0x0 DUP1 RETURNDATACOPY RETURNDATASIZE PUSH1 0x0 REVERT JUMPDEST POP POP POP POP PUSH1 0x40 MLOAD RETURNDATASIZE PUSH1 0x1F NOT PUSH1 0x1F DUP3 ADD AND DUP3 ADD DUP1 PUSH1 0x40 MSTORE POP DUP2 ADD SWAP1 PUSH3 0x3FD4 SWAP2 SWAP1 PUSH3 0x5CE4 JUMP JUMPDEST PUSH3 0x3FE0 SWAP2 SWAP1 PUSH3 0x5DE3 JUMP JUMPDEST PUSH1 0x40 MLOAD PUSH3 0x3FEE SWAP1 PUSH3 0x5A58 JUMP JUMPDEST PUSH3 0x3FFD SWAP5 SWAP4 SWAP3 SWAP2 SWAP1 PUSH3 0x5D09 JUMP JUMPDEST PUSH1 0x40 MLOAD DUP1 SWAP2 SUB SWAP1 PUSH1 0x0 CREATE DUP1 ISZERO DUP1 ISZERO PUSH3 0x401A JUMPI RETURNDATASIZE PUSH1 0x0 DUP1 RETURNDATACOPY RETURNDATASIZE PUSH1 0x0 REVERT JUMPDEST POP PUSH1 0x1E DUP1 SLOAD PUSH20 0xFFFFFFFFFFFFFFFFFFFFFFFFFFFFFFFFFFFFFFFF NOT AND PUSH1 0x1 PUSH1 0x1 PUSH1 0xA0 SHL SUB DUP4 AND SWAP1 DUP2 OR SWAP1 SWAP2 SSTORE SWAP1 SWAP2 POP PUSH3 0x4056 PUSH1 0x64 SELFBALANCE PUSH3 0x5DE3 JUMP JUMPDEST PUSH3 0x4063 SWAP1 PUSH1 0x50 PUSH3 0x5D92 JUMP JUMPDEST PUSH1 0x40 MLOAD PUSH2 0x5E4A SWAP2 SWAP1 PUSH1 0x0 DUP2 DUP2 DUP2 DUP6 DUP9 DUP9 CALL SWAP4 POP POP POP POP RETURNDATASIZE DUP1 PUSH1 0x0 DUP2 EQ PUSH3 0x40A7 JUMPI PUSH1 0x40 MLOAD SWAP2 POP PUSH1 0x1F NOT PUSH1 0x3F RETURNDATASIZE ADD AND DUP3 ADD PUSH1 0x40 MSTORE RETURNDATASIZE DUP3 MSTORE RETURNDATASIZE PUSH1 0x0 PUSH1 0x20 DUP5 ADD RETURNDATACOPY PUSH3 0x40AC JUMP JUMPDEST PUSH1 0x60 SWAP2 POP JUMPDEST POP POP PUSH1 0xD SLOAD PUSH1 0x40 MLOAD PUSH4 0x70A08231 PUSH1 0xE0 SHL DUP2 MSTORE PUSH1 0x1 PUSH1 0x1 PUSH1 0xA0 SHL SUB SWAP1 SWAP2 AND SWAP2 POP PUSH4 0x95EA7B3 SWAP1 DUP4 SWAP1 DUP4 SWAP1 PUSH4 0x70A08231 SWAP1 PUSH3 0x40EB SWAP1 ADDRESS SWAP1 PUSH1 0x4 ADD PUSH3 0x5C16 JUMP JUMPDEST PUSH1 0x20 PUSH1 0x40 MLOAD DUP1 DUP4 SUB DUP2 DUP7 DUP1 EXTCODESIZE ISZERO DUP1 ISZERO PUSH3 0x4104 JUMPI PUSH1 0x0 DUP1 REVERT JUMPDEST POP GAS STATICCALL ISZERO DUP1 ISZERO PUSH3 0x4119 JUMPI RETURNDATASIZE PUSH1 0x0 DUP1 RETURNDATACOPY RETURNDATASIZE PUSH1 0x0 REVERT JUMPDEST POP POP POP POP PUSH1 0x40 MLOAD RETURNDATASIZE PUSH1 0x1F NOT PUSH1 0x1F DUP3 ADD AND DUP3 ADD DUP1 PUSH1 0x40 MSTORE POP DUP2 ADD SWAP1 PUSH3 0x413F SWAP2 SWAP1 PUSH3 0x5CE4 JUMP JUMPDEST PUSH1 0x40 MLOAD DUP4 PUSH4 0xFFFFFFFF AND PUSH1 0xE0 SHL DUP2 MSTORE PUSH1 0x4 ADD PUSH3 0x415E SWAP3 SWAP2 SWAP1 PUSH3 0x5EA4 JUMP JUMPDEST PUSH1 0x20 PUSH1 0x40 MLOAD DUP1 DUP4 SUB DUP2 PUSH1 0x0 DUP8 DUP1 EXTCODESIZE ISZERO DUP1 ISZERO PUSH3 0x4179 JUMPI PUSH1 0x0 DUP1 REVERT JUMPDEST POP GAS CALL ISZERO DUP1 ISZERO PUSH3 0x418E JUMPI RETURNDATASIZE PUSH1 0x0 DUP1 RETURNDATACOPY RETURNDATASIZE PUSH1 0x0 REVERT JUMPDEST POP POP POP POP PUSH1 0x40 MLOAD RETURNDATASIZE PUSH1 0x1F NOT PUSH1 0x1F DUP3 ADD AND DUP3 ADD DUP1 PUSH1 0x40 MSTORE POP DUP2 ADD SWAP1 PUSH3 0x41B4 SWAP2 SWAP1 PUSH3 0x5E10 JUMP JUMPDEST POP PUSH1 0xE SLOAD PUSH1 0x40 MLOAD PUSH4 0x70A08231 PUSH1 0xE0 SHL DUP2 MSTORE PUSH1 0x0 SWAP2 PUSH1 0x1 PUSH1 0x1 PUSH1 0xA0 SHL SUB AND SWAP1 PUSH4 0x70A08231 SWAP1 PUSH3 0x41E8 SWAP1 ADDRESS SWAP1 PUSH1 0x4 ADD PUSH3 0x5C16 JUMP JUMPDEST PUSH1 0x20 PUSH1 0x40 MLOAD DUP1 DUP4 SUB DUP2 DUP7 DUP1 EXTCODESIZE ISZERO DUP1 ISZERO PUSH3 0x4201 JUMPI PUSH1 0x0 DUP1 REVERT JUMPDEST POP GAS STATICCALL ISZERO DUP1 ISZERO PUSH3 0x4216 JUMPI RETURNDATASIZE PUSH1 0x0 DUP1 RETURNDATACOPY RETURNDATASIZE PUSH1 0x0 REVERT JUMPDEST POP POP POP POP PUSH1 0x40 MLOAD RETURNDATASIZE PUSH1 0x1F NOT PUSH1 0x1F DUP3 ADD AND DUP3 ADD DUP1 PUSH1 0x40 MSTORE POP DUP2 ADD SWAP1 PUSH3 0x423C SWAP2 SWAP1 PUSH3 0x5CE4 JUMP JUMPDEST GT ISZERO PUSH3 0x4324 JUMPI PUSH1 0xE SLOAD PUSH1 0x40 MLOAD PUSH4 0x70A08231 PUSH1 0xE0 SHL DUP2 MSTORE PUSH1 0x1 PUSH1 0x1 PUSH1 0xA0 SHL SUB SWAP1 SWAP2 AND SWAP1 PUSH4 0x42966C68 SWAP1 DUP3 SWAP1 PUSH4 0x70A08231 SWAP1 PUSH3 0x427D SWAP1 ADDRESS SWAP1 PUSH1 0x4 ADD PUSH3 0x5C16 JUMP JUMPDEST PUSH1 0x20 PUSH1 0x40 MLOAD DUP1 DUP4 SUB DUP2 DUP7 DUP1 EXTCODESIZE ISZERO DUP1 ISZERO PUSH3 0x4296 JUMPI PUSH1 0x0 DUP1 REVERT JUMPDEST POP GAS STATICCALL ISZERO DUP1 ISZERO PUSH3 0x42AB JUMPI RETURNDATASIZE PUSH1 0x0 DUP1 RETURNDATACOPY RETURNDATASIZE PUSH1 0x0 REVERT JUMPDEST POP POP POP POP PUSH1 0x40 MLOAD RETURNDATASIZE PUSH1 0x1F NOT PUSH1 0x1F DUP3 ADD AND DUP3 ADD DUP1 PUSH1 0x40 MSTORE POP DUP2 ADD SWAP1 PUSH3 0x42D1 SWAP2 SWAP1 PUSH3 0x5CE4 JUMP JUMPDEST PUSH1 0x40 MLOAD DUP3 PUSH4 0xFFFFFFFF AND PUSH1 0xE0 SHL DUP2 MSTORE PUSH1 0x4 ADD PUSH3 0x42EF SWAP2 SWAP1 PUSH3 0x5B1C JUMP JUMPDEST PUSH1 0x0 PUSH1 0x40 MLOAD DUP1 DUP4 SUB DUP2 PUSH1 0x0 DUP8 DUP1 EXTCODESIZE ISZERO DUP1 ISZERO PUSH3 0x430A JUMPI PUSH1 0x0 DUP1 REVERT JUMPDEST POP GAS CALL ISZERO DUP1 ISZERO PUSH3 0x431F JUMPI RETURNDATASIZE PUSH1 0x0 DUP1 RETURNDATACOPY RETURNDATASIZE PUSH1 0x0 REVERT JUMPDEST POP POP POP POP JUMPDEST PUSH1 0xC SLOAD PUSH1 0x40 MLOAD PUSH4 0x70A08231 PUSH1 0xE0 SHL DUP2 MSTORE PUSH1 0x0 SWAP2 PUSH1 0x1 PUSH1 0x1 PUSH1 0xA0 SHL SUB AND SWAP1 PUSH4 0x70A08231 SWAP1 PUSH3 0x4357 SWAP1 ADDRESS SWAP1 PUSH1 0x4 ADD PUSH3 0x5C16 JUMP JUMPDEST PUSH1 0x20 PUSH1 0x40 MLOAD DUP1 DUP4 SUB DUP2 DUP7 DUP1 EXTCODESIZE ISZERO DUP1 ISZERO PUSH3 0x4370 JUMPI PUSH1 0x0 DUP1 REVERT JUMPDEST POP GAS STATICCALL ISZERO DUP1 ISZERO PUSH3 0x4385 JUMPI RETURNDATASIZE PUSH1 0x0 DUP1 RETURNDATACOPY RETURNDATASIZE PUSH1 0x0 REVERT JUMPDEST POP POP POP POP PUSH1 0x40 MLOAD RETURNDATASIZE PUSH1 0x1F NOT PUSH1 0x1F DUP3 ADD AND DUP3 ADD DUP1 PUSH1 0x40 MSTORE POP DUP2 ADD SWAP1 PUSH3 0x43AB SWAP2 SWAP1 PUSH3 0x5CE4 JUMP JUMPDEST GT ISZERO PUSH3 0x3DAA JUMPI PUSH1 0xC SLOAD PUSH1 0x40 MLOAD PUSH4 0x70A08231 PUSH1 0xE0 SHL DUP2 MSTORE PUSH1 0x1 PUSH1 0x1 PUSH1 0xA0 SHL SUB SWAP1 SWAP2 AND SWAP1 PUSH4 0x42966C68 SWAP1 DUP3 SWAP1 PUSH4 0x70A08231 SWAP1 PUSH3 0x3D03 SWAP1 ADDRESS SWAP1 PUSH1 0x4 ADD PUSH3 0x5C16 JUMP JUMPDEST DUP4 DUP1 ISZERO PUSH3 0x43F8 JUMPI POP DUP5 ISZERO JUMPDEST DUP1 ISZERO PUSH3 0x4403 JUMPI POP DUP6 ISZERO JUMPDEST DUP1 ISZERO PUSH3 0x440E JUMPI POP DUP3 ISZERO JUMPDEST ISZERO PUSH3 0x4A2C JUMPI PUSH1 0xF SLOAD PUSH1 0x17 SLOAD PUSH1 0x40 MLOAD PUSH4 0x70A08231 PUSH1 0xE0 SHL DUP2 MSTORE PUSH1 0x0 SWAP3 PUSH1 0x1 PUSH1 0x1 PUSH1 0xA0 SHL SUB AND SWAP2 ADDRESS SWAP2 PUSH1 0x2 SWAP1 DUP5 SWAP1 PUSH4 0x70A08231 SWAP1 PUSH3 0x4451 SWAP1 DUP7 SWAP1 PUSH1 0x4 ADD PUSH3 0x5C16 JUMP JUMPDEST PUSH1 0x20 PUSH1 0x40 MLOAD DUP1 DUP4 SUB DUP2 DUP7 DUP1 EXTCODESIZE ISZERO DUP1 ISZERO PUSH3 0x446A JUMPI PUSH1 0x0 DUP1 REVERT JUMPDEST POP GAS STATICCALL ISZERO DUP1 ISZERO PUSH3 0x447F JUMPI RETURNDATASIZE PUSH1 0x0 DUP1 RETURNDATACOPY RETURNDATASIZE PUSH1 0x0 REVERT JUMPDEST POP POP POP POP PUSH1 0x40 MLOAD RETURNDATASIZE PUSH1 0x1F NOT PUSH1 0x1F DUP3 ADD AND DUP3 ADD DUP1 PUSH1 0x40 MSTORE POP DUP2 ADD SWAP1 PUSH3 0x44A5 SWAP2 SWAP1 PUSH3 0x5CE4 JUMP JUMPDEST PUSH3 0x44B1 SWAP2 SWAP1 PUSH3 0x5DE3 JUMP JUMPDEST PUSH1 0x40 MLOAD PUSH3 0x44BF SWAP1 PUSH3 0x5A58 JUMP JUMPDEST PUSH3 0x44CE SWAP5 SWAP4 SWAP3 SWAP2 SWAP1 PUSH3 0x5D09 JUMP JUMPDEST PUSH1 0x40 MLOAD DUP1 SWAP2 SUB SWAP1 PUSH1 0x0 CREATE DUP1 ISZERO DUP1 ISZERO PUSH3 0x44EB JUMPI RETURNDATASIZE PUSH1 0x0 DUP1 RETURNDATACOPY RETURNDATASIZE PUSH1 0x0 REVERT JUMPDEST POP PUSH1 0x1F DUP1 SLOAD PUSH20 0xFFFFFFFFFFFFFFFFFFFFFFFFFFFFFFFFFFFFFFFF NOT AND PUSH1 0x1 PUSH1 0x1 PUSH1 0xA0 SHL SUB DUP4 AND SWAP1 DUP2 OR SWAP1 SWAP2 SSTORE SWAP1 SWAP2 POP PUSH3 0x4527 PUSH1 0x64 SELFBALANCE PUSH3 0x5DE3 JUMP JUMPDEST PUSH3 0x4534 SWAP1 PUSH1 0x50 PUSH3 0x5D92 JUMP JUMPDEST PUSH1 0x40 MLOAD PUSH2 0x5E4A SWAP2 SWAP1 PUSH1 0x0 DUP2 DUP2 DUP2 DUP6 DUP9 DUP9 CALL SWAP4 POP POP POP POP RETURNDATASIZE DUP1 PUSH1 0x0 DUP2 EQ PUSH3 0x4578 JUMPI PUSH1 0x40 MLOAD SWAP2 POP PUSH1 0x1F NOT PUSH1 0x3F RETURNDATASIZE ADD AND DUP3 ADD PUSH1 0x40 MSTORE RETURNDATASIZE DUP3 MSTORE RETURNDATASIZE PUSH1 0x0 PUSH1 0x20 DUP5 ADD RETURNDATACOPY PUSH3 0x457D JUMP JUMPDEST PUSH1 0x60 SWAP2 POP JUMPDEST POP POP PUSH1 0xF SLOAD PUSH1 0x40 MLOAD PUSH4 0x70A08231 PUSH1 0xE0 SHL DUP2 MSTORE PUSH1 0x1 PUSH1 0x1 PUSH1 0xA0 SHL SUB SWAP1 SWAP2 AND SWAP2 POP PUSH4 0x95EA7B3 SWAP1 DUP4 SWAP1 DUP4 SWAP1 PUSH4 0x70A08231 SWAP1 PUSH3 0x45BC SWAP1 ADDRESS SWAP1 PUSH1 0x4 ADD PUSH3 0x5C16 JUMP JUMPDEST PUSH1 0x20 PUSH1 0x40 MLOAD DUP1 DUP4 SUB DUP2 DUP7 DUP1 EXTCODESIZE ISZERO DUP1 ISZERO PUSH3 0x45D5 JUMPI PUSH1 0x0 DUP1 REVERT JUMPDEST POP GAS STATICCALL ISZERO DUP1 ISZERO PUSH3 0x45EA JUMPI RETURNDATASIZE PUSH1 0x0 DUP1 RETURNDATACOPY RETURNDATASIZE PUSH1 0x0 REVERT JUMPDEST POP POP POP POP PUSH1 0x40 MLOAD RETURNDATASIZE PUSH1 0x1F NOT PUSH1 0x1F DUP3 ADD AND DUP3 ADD DUP1 PUSH1 0x40 MSTORE POP DUP2 ADD SWAP1 PUSH3 0x4610 SWAP2 SWAP1 PUSH3 0x5CE4 JUMP JUMPDEST PUSH1 0x40 MLOAD DUP4 PUSH4 0xFFFFFFFF AND PUSH1 0xE0 SHL DUP2 MSTORE PUSH1 0x4 ADD PUSH3 0x462F SWAP3 SWAP2 SWAP1 PUSH3 0x5EA4 JUMP JUMPDEST PUSH1 0x20 PUSH1 0x40 MLOAD DUP1 DUP4 SUB DUP2 PUSH1 0x0 DUP8 DUP1 EXTCODESIZE ISZERO DUP1 ISZERO PUSH3 0x464A JUMPI PUSH1 0x0 DUP1 REVERT JUMPDEST POP GAS CALL ISZERO DUP1 ISZERO PUSH3 0x465F JUMPI RETURNDATASIZE PUSH1 0x0 DUP1 RETURNDATACOPY RETURNDATASIZE PUSH1 0x0 REVERT JUMPDEST POP POP POP POP PUSH1 0x40 MLOAD RETURNDATASIZE PUSH1 0x1F NOT PUSH1 0x1F DUP3 ADD AND DUP3 ADD DUP1 PUSH1 0x40 MSTORE POP DUP2 ADD SWAP1 PUSH3 0x4685 SWAP2 SWAP1 PUSH3 0x5E10 JUMP JUMPDEST POP PUSH1 0xD SLOAD PUSH1 0x40 MLOAD PUSH4 0x70A08231 PUSH1 0xE0 SHL DUP2 MSTORE PUSH1 0x0 SWAP2 PUSH1 0x1 PUSH1 0x1 PUSH1 0xA0 SHL SUB AND SWAP1 PUSH4 0x70A08231 SWAP1 PUSH3 0x46B9 SWAP1 ADDRESS SWAP1 PUSH1 0x4 ADD PUSH3 0x5C16 JUMP JUMPDEST PUSH1 0x20 PUSH1 0x40 MLOAD DUP1 DUP4 SUB DUP2 DUP7 DUP1 EXTCODESIZE ISZERO DUP1 ISZERO PUSH3 0x46D2 JUMPI PUSH1 0x0 DUP1 REVERT JUMPDEST POP GAS STATICCALL ISZERO DUP1 ISZERO PUSH3 0x46E7 JUMPI RETURNDATASIZE PUSH1 0x0 DUP1 RETURNDATACOPY RETURNDATASIZE PUSH1 0x0 REVERT JUMPDEST POP POP POP POP PUSH1 0x40 MLOAD RETURNDATASIZE PUSH1 0x1F NOT PUSH1 0x1F DUP3 ADD AND DUP3 ADD DUP1 PUSH1 0x40 MSTORE POP DUP2 ADD SWAP1 PUSH3 0x470D SWAP2 SWAP1 PUSH3 0x5CE4 JUMP JUMPDEST GT ISZERO PUSH3 0x47F5 JUMPI PUSH1 0xD SLOAD PUSH1 0x40 MLOAD PUSH4 0x70A08231 PUSH1 0xE0 SHL DUP2 MSTORE PUSH1 0x1 PUSH1 0x1 PUSH1 0xA0 SHL SUB SWAP1 SWAP2 AND SWAP1 PUSH4 0x42966C68 SWAP1 DUP3 SWAP1 PUSH4 0x70A08231 SWAP1 PUSH3 0x474E SWAP1 ADDRESS SWAP1 PUSH1 0x4 ADD PUSH3 0x5C16 JUMP JUMPDEST PUSH1 0x20 PUSH1 0x40 MLOAD DUP1 DUP4 SUB DUP2 DUP7 DUP1 EXTCODESIZE ISZERO DUP1 ISZERO PUSH3 0x4767 JUMPI PUSH1 0x0 DUP1 REVERT JUMPDEST POP GAS STATICCALL ISZERO DUP1 ISZERO PUSH3 0x477C JUMPI RETURNDATASIZE PUSH1 0x0 DUP1 RETURNDATACOPY RETURNDATASIZE PUSH1 0x0 REVERT JUMPDEST POP POP POP POP PUSH1 0x40 MLOAD RETURNDATASIZE PUSH1 0x1F NOT PUSH1 0x1F DUP3 ADD AND DUP3 ADD DUP1 PUSH1 0x40 MSTORE POP DUP2 ADD SWAP1 PUSH3 0x47A2 SWAP2 SWAP1 PUSH3 0x5CE4 JUMP JUMPDEST PUSH1 0x40 MLOAD DUP3 PUSH4 0xFFFFFFFF AND PUSH1 0xE0 SHL DUP2 MSTORE PUSH1 0x4 ADD PUSH3 0x47C0 SWAP2 SWAP1 PUSH3 0x5B1C JUMP JUMPDEST PUSH1 0x0 PUSH1 0x40 MLOAD DUP1 DUP4 SUB DUP2 PUSH1 0x0 DUP8 DUP1 EXTCODESIZE ISZERO DUP1 ISZERO PUSH3 0x47DB JUMPI PUSH1 0x0 DUP1 REVERT JUMPDEST POP GAS CALL ISZERO DUP1 ISZERO PUSH3 0x47F0 JUMPI RETURNDATASIZE PUSH1 0x0 DUP1 RETURNDATACOPY RETURNDATASIZE PUSH1 0x0 REVERT JUMPDEST POP POP POP POP JUMPDEST PUSH1 0xC SLOAD PUSH1 0x40 MLOAD PUSH4 0x70A08231 PUSH1 0xE0 SHL DUP2 MSTORE PUSH1 0x0 SWAP2 PUSH1 0x1 PUSH1 0x1 PUSH1 0xA0 SHL SUB AND SWAP1 PUSH4 0x70A08231 SWAP1 PUSH3 0x4828 SWAP1 ADDRESS SWAP1 PUSH1 0x4 ADD PUSH3 0x5C16 JUMP JUMPDEST PUSH1 0x20 PUSH1 0x40 MLOAD DUP1 DUP4 SUB DUP2 DUP7 DUP1 EXTCODESIZE ISZERO DUP1 ISZERO PUSH3 0x4841 JUMPI PUSH1 0x0 DUP1 REVERT JUMPDEST POP GAS STATICCALL ISZERO DUP1 ISZERO PUSH3 0x4856 JUMPI RETURNDATASIZE PUSH1 0x0 DUP1 RETURNDATACOPY RETURNDATASIZE PUSH1 0x0 REVERT JUMPDEST POP POP POP POP PUSH1 0x40 MLOAD RETURNDATASIZE PUSH1 0x1F NOT PUSH1 0x1F DUP3 ADD AND DUP3 ADD DUP1 PUSH1 0x40 MSTORE POP DUP2 ADD SWAP1 PUSH3 0x487C SWAP2 SWAP1 PUSH3 0x5CE4 JUMP JUMPDEST GT ISZERO PUSH3 0x4964 JUMPI PUSH1 0xC SLOAD PUSH1 0x40 MLOAD PUSH4 0x70A08231 PUSH1 0xE0 SHL DUP2 MSTORE PUSH1 0x1 PUSH1 0x1 PUSH1 0xA0 SHL SUB SWAP1 SWAP2 AND SWAP1 PUSH4 0x42966C68 SWAP1 DUP3 SWAP1 PUSH4 0x70A08231 SWAP1 PUSH3 0x48BD SWAP1 ADDRESS SWAP1 PUSH1 0x4 ADD PUSH3 0x5C16 JUMP JUMPDEST PUSH1 0x20 PUSH1 0x40 MLOAD DUP1 DUP4 SUB DUP2 DUP7 DUP1 EXTCODESIZE ISZERO DUP1 ISZERO PUSH3 0x48D6 JUMPI PUSH1 0x0 DUP1 REVERT JUMPDEST POP GAS STATICCALL ISZERO DUP1 ISZERO PUSH3 0x48EB JUMPI RETURNDATASIZE PUSH1 0x0 DUP1 RETURNDATACOPY RETURNDATASIZE PUSH1 0x0 REVERT JUMPDEST POP POP POP POP PUSH1 0x40 MLOAD RETURNDATASIZE PUSH1 0x1F NOT PUSH1 0x1F DUP3 ADD AND DUP3 ADD DUP1 PUSH1 0x40 MSTORE POP DUP2 ADD SWAP1 PUSH3 0x4911 SWAP2 SWAP1 PUSH3 0x5CE4 JUMP JUMPDEST PUSH1 0x40 MLOAD DUP3 PUSH4 0xFFFFFFFF AND PUSH1 0xE0 SHL DUP2 MSTORE PUSH1 0x4 ADD PUSH3 0x492F SWAP2 SWAP1 PUSH3 0x5B1C JUMP JUMPDEST PUSH1 0x0 PUSH1 0x40 MLOAD DUP1 DUP4 SUB DUP2 PUSH1 0x0 DUP8 DUP1 EXTCODESIZE ISZERO DUP1 ISZERO PUSH3 0x494A JUMPI PUSH1 0x0 DUP1 REVERT JUMPDEST POP GAS CALL ISZERO DUP1 ISZERO PUSH3 0x495F JUMPI RETURNDATASIZE PUSH1 0x0 DUP1 RETURNDATACOPY RETURNDATASIZE PUSH1 0x0 REVERT JUMPDEST POP POP POP POP JUMPDEST PUSH1 0xE SLOAD PUSH1 0x40 MLOAD PUSH4 0x70A08231 PUSH1 0xE0 SHL DUP2 MSTORE PUSH1 0x0 SWAP2 PUSH1 0x1 PUSH1 0x1 PUSH1 0xA0 SHL SUB AND SWAP1 PUSH4 0x70A08231 SWAP1 PUSH3 0x4997 SWAP1 ADDRESS SWAP1 PUSH1 0x4 ADD PUSH3 0x5C16 JUMP JUMPDEST PUSH1 0x20 PUSH1 0x40 MLOAD DUP1 DUP4 SUB DUP2 DUP7 DUP1 EXTCODESIZE ISZERO DUP1 ISZERO PUSH3 0x49B0 JUMPI PUSH1 0x0 DUP1 REVERT JUMPDEST POP GAS STATICCALL ISZERO DUP1 ISZERO PUSH3 0x49C5 JUMPI RETURNDATASIZE PUSH1 0x0 DUP1 RETURNDATACOPY RETURNDATASIZE PUSH1 0x0 REVERT JUMPDEST POP POP POP POP PUSH1 0x40 MLOAD RETURNDATASIZE PUSH1 0x1F NOT PUSH1 0x1F DUP3 ADD AND DUP3 ADD DUP1 PUSH1 0x40 MSTORE POP DUP2 ADD SWAP1 PUSH3 0x49EB SWAP2 SWAP1 PUSH3 0x5CE4 JUMP JUMPDEST GT ISZERO PUSH3 0x3F14 JUMPI PUSH1 0xE SLOAD PUSH1 0x40 MLOAD PUSH4 0x70A08231 PUSH1 0xE0 SHL DUP2 MSTORE PUSH1 0x1 PUSH1 0x1 PUSH1 0xA0 SHL SUB SWAP1 SWAP2 AND SWAP1 PUSH4 0x42966C68 SWAP1 DUP3 SWAP1 PUSH4 0x70A08231 SWAP1 PUSH3 0x3E72 SWAP1 ADDRESS SWAP1 PUSH1 0x4 ADD PUSH3 0x5C16 JUMP JUMPDEST DUP3 DUP1 ISZERO PUSH3 0x4A38 JUMPI POP DUP5 ISZERO JUMPDEST DUP1 ISZERO PUSH3 0x4A43 JUMPI POP DUP4 ISZERO JUMPDEST DUP1 ISZERO PUSH3 0x4A4E JUMPI POP DUP6 ISZERO JUMPDEST ISZERO PUSH3 0x4D8E JUMPI PUSH1 0xE SLOAD PUSH1 0x18 SLOAD PUSH1 0x40 MLOAD PUSH4 0x70A08231 PUSH1 0xE0 SHL DUP2 MSTORE PUSH1 0x0 SWAP3 PUSH1 0x1 PUSH1 0x1 PUSH1 0xA0 SHL SUB AND SWAP2 ADDRESS SWAP2 PUSH1 0x2 SWAP1 DUP5 SWAP1 PUSH4 0x70A08231 SWAP1 PUSH3 0x4A91 SWAP1 DUP7 SWAP1 PUSH1 0x4 ADD PUSH3 0x5C16 JUMP JUMPDEST PUSH1 0x20 PUSH1 0x40 MLOAD DUP1 DUP4 SUB DUP2 DUP7 DUP1 EXTCODESIZE ISZERO DUP1 ISZERO PUSH3 0x4AAA JUMPI PUSH1 0x0 DUP1 REVERT JUMPDEST POP GAS STATICCALL ISZERO DUP1 ISZERO PUSH3 0x4ABF JUMPI RETURNDATASIZE PUSH1 0x0 DUP1 RETURNDATACOPY RETURNDATASIZE PUSH1 0x0 REVERT JUMPDEST POP POP POP POP PUSH1 0x40 MLOAD RETURNDATASIZE PUSH1 0x1F NOT PUSH1 0x1F DUP3 ADD AND DUP3 ADD DUP1 PUSH1 0x40 MSTORE POP DUP2 ADD SWAP1 PUSH3 0x4AE5 SWAP2 SWAP1 PUSH3 0x5CE4 JUMP JUMPDEST PUSH3 0x4AF1 SWAP2 SWAP1 PUSH3 0x5DE3 JUMP JUMPDEST PUSH1 0x40 MLOAD PUSH3 0x4AFF SWAP1 PUSH3 0x5A58 JUMP JUMPDEST PUSH3 0x4B0E SWAP5 SWAP4 SWAP3 SWAP2 SWAP1 PUSH3 0x5D09 JUMP JUMPDEST PUSH1 0x40 MLOAD DUP1 SWAP2 SUB SWAP1 PUSH1 0x0 CREATE DUP1 ISZERO DUP1 ISZERO PUSH3 0x4B2B JUMPI RETURNDATASIZE PUSH1 0x0 DUP1 RETURNDATACOPY RETURNDATASIZE PUSH1 0x0 REVERT JUMPDEST POP PUSH1 0xE SLOAD PUSH1 0x40 MLOAD PUSH4 0x70A08231 PUSH1 0xE0 SHL DUP2 MSTORE SWAP2 SWAP3 POP PUSH1 0x1 PUSH1 0x1 PUSH1 0xA0 SHL SUB AND SWAP1 PUSH4 0x95EA7B3 SWAP1 DUP4 SWAP1 DUP4 SWAP1 PUSH4 0x70A08231 SWAP1 PUSH3 0x4B69 SWAP1 ADDRESS SWAP1 PUSH1 0x4 ADD PUSH3 0x5C16 JUMP JUMPDEST PUSH1 0x20 PUSH1 0x40 MLOAD DUP1 DUP4 SUB DUP2 DUP7 DUP1 EXTCODESIZE ISZERO DUP1 ISZERO PUSH3 0x4B82 JUMPI PUSH1 0x0 DUP1 REVERT JUMPDEST POP GAS STATICCALL ISZERO DUP1 ISZERO PUSH3 0x4B97 JUMPI RETURNDATASIZE PUSH1 0x0 DUP1 RETURNDATACOPY RETURNDATASIZE PUSH1 0x0 REVERT JUMPDEST POP POP POP POP PUSH1 0x40 MLOAD RETURNDATASIZE PUSH1 0x1F NOT PUSH1 0x1F DUP3 ADD AND DUP3 ADD DUP1 PUSH1 0x40 MSTORE POP DUP2 ADD SWAP1 PUSH3 0x4BBD SWAP2 SWAP1 PUSH3 0x5CE4 JUMP JUMPDEST PUSH1 0x40 MLOAD DUP4 PUSH4 0xFFFFFFFF AND PUSH1 0xE0 SHL DUP2 MSTORE PUSH1 0x4 ADD PUSH3 0x4BDC SWAP3 SWAP2 SWAP1 PUSH3 0x5EA4 JUMP JUMPDEST PUSH1 0x20 PUSH1 0x40 MLOAD DUP1 DUP4 SUB DUP2 PUSH1 0x0 DUP8 DUP1 EXTCODESIZE ISZERO DUP1 ISZERO PUSH3 0x4BF7 JUMPI PUSH1 0x0 DUP1 REVERT JUMPDEST POP GAS CALL ISZERO DUP1 ISZERO PUSH3 0x4C0C JUMPI RETURNDATASIZE PUSH1 0x0 DUP1 RETURNDATACOPY RETURNDATASIZE PUSH1 0x0 REVERT JUMPDEST POP POP POP POP PUSH1 0x40 MLOAD RETURNDATASIZE PUSH1 0x1F NOT PUSH1 0x1F DUP3 ADD AND DUP3 ADD DUP1 PUSH1 0x40 MSTORE POP DUP2 ADD SWAP1 PUSH3 0x4C32 SWAP2 SWAP1 PUSH3 0x5E10 JUMP JUMPDEST POP PUSH1 0x20 DUP1 SLOAD PUSH20 0xFFFFFFFFFFFFFFFFFFFFFFFFFFFFFFFFFFFFFFFF NOT AND PUSH1 0x1 PUSH1 0x1 PUSH1 0xA0 SHL SUB DUP4 AND SWAP1 DUP2 OR SWAP1 SWAP2 SSTORE PUSH3 0x4C6B PUSH1 0x64 SELFBALANCE PUSH3 0x5DE3 JUMP JUMPDEST PUSH3 0x4C78 SWAP1 PUSH1 0x50 PUSH3 0x5D92 JUMP JUMPDEST PUSH1 0x40 MLOAD PUSH2 0x5E4A SWAP2 SWAP1 PUSH1 0x0 DUP2 DUP2 DUP2 DUP6 DUP9 DUP9 CALL SWAP4 POP POP POP POP RETURNDATASIZE DUP1 PUSH1 0x0 DUP2 EQ PUSH3 0x4CBC JUMPI PUSH1 0x40 MLOAD SWAP2 POP PUSH1 0x1F NOT PUSH1 0x3F RETURNDATASIZE ADD AND DUP3 ADD PUSH1 0x40 MSTORE RETURNDATASIZE DUP3 MSTORE RETURNDATASIZE PUSH1 0x0 PUSH1 0x20 DUP5 ADD RETURNDATACOPY PUSH3 0x4CC1 JUMP JUMPDEST PUSH1 0x60 SWAP2 POP JUMPDEST POP POP PUSH1 0xD SLOAD PUSH1 0x40 MLOAD PUSH4 0x70A08231 PUSH1 0xE0 SHL DUP2 MSTORE PUSH1 0x0 SWAP3 POP PUSH1 0x1 PUSH1 0x1 PUSH1 0xA0 SHL SUB SWAP1 SWAP2 AND SWAP1 PUSH4 0x70A08231 SWAP1 PUSH3 0x4CF9 SWAP1 ADDRESS SWAP1 PUSH1 0x4 ADD PUSH3 0x5C16 JUMP JUMPDEST PUSH1 0x20 PUSH1 0x40 MLOAD DUP1 DUP4 SUB DUP2 DUP7 DUP1 EXTCODESIZE ISZERO DUP1 ISZERO PUSH3 0x4D12 JUMPI PUSH1 0x0 DUP1 REVERT JUMPDEST POP GAS STATICCALL ISZERO DUP1 ISZERO PUSH3 0x4D27 JUMPI RETURNDATASIZE PUSH1 0x0 DUP1 RETURNDATACOPY RETURNDATASIZE PUSH1 0x0 REVERT JUMPDEST POP POP POP POP PUSH1 0x40 MLOAD RETURNDATASIZE PUSH1 0x1F NOT PUSH1 0x1F DUP3 ADD AND DUP3 ADD DUP1 PUSH1 0x40 MSTORE POP DUP2 ADD SWAP1 PUSH3 0x4D4D SWAP2 SWAP1 PUSH3 0x5CE4 JUMP JUMPDEST GT ISZERO PUSH3 0x4324 JUMPI PUSH1 0xD SLOAD PUSH1 0x40 MLOAD PUSH4 0x70A08231 PUSH1 0xE0 SHL DUP2 MSTORE PUSH1 0x1 PUSH1 0x1 PUSH1 0xA0 SHL SUB SWAP1 SWAP2 AND SWAP1 PUSH4 0x42966C68 SWAP1 DUP3 SWAP1 PUSH4 0x70A08231 SWAP1 PUSH3 0x427D SWAP1 ADDRESS SWAP1 PUSH1 0x4 ADD PUSH3 0x5C16 JUMP JUMPDEST PUSH3 0x57C0 JUMP JUMPDEST PUSH1 0x1 DUP3 GT DUP1 ISZERO PUSH3 0x4DA5 JUMPI POP PUSH1 0x4 DUP3 LT JUMPDEST ISZERO PUSH3 0x4DB1 JUMPI PUSH3 0x57C0 JUMP JUMPDEST DUP2 PUSH1 0x4 EQ ISZERO PUSH3 0x57C0 JUMPI PUSH1 0xC SLOAD PUSH1 0x15 SLOAD PUSH1 0x40 MLOAD PUSH4 0x70A08231 PUSH1 0xE0 SHL DUP2 MSTORE PUSH1 0x0 SWAP3 PUSH1 0x1 PUSH1 0x1 PUSH1 0xA0 SHL SUB AND SWAP2 ADDRESS SWAP2 PUSH1 0x2 SWAP1 DUP5 SWAP1 PUSH4 0x70A08231 SWAP1 PUSH3 0x4DF8 SWAP1 DUP7 SWAP1 PUSH1 0x4 ADD PUSH3 0x5C16 JUMP JUMPDEST PUSH1 0x20 PUSH1 0x40 MLOAD DUP1 DUP4 SUB DUP2 DUP7 DUP1 EXTCODESIZE ISZERO DUP1 ISZERO PUSH3 0x4E11 JUMPI PUSH1 0x0 DUP1 REVERT JUMPDEST POP GAS STATICCALL ISZERO DUP1 ISZERO PUSH3 0x4E26 JUMPI RETURNDATASIZE PUSH1 0x0 DUP1 RETURNDATACOPY RETURNDATASIZE PUSH1 0x0 REVERT JUMPDEST POP POP POP POP PUSH1 0x40 MLOAD RETURNDATASIZE PUSH1 0x1F NOT PUSH1 0x1F DUP3 ADD AND DUP3 ADD DUP1 PUSH1 0x40 MSTORE POP DUP2 ADD SWAP1 PUSH3 0x4E4C SWAP2 SWAP1 PUSH3 0x5CE4 JUMP JUMPDEST PUSH3 0x4E58 SWAP2 SWAP1 PUSH3 0x5DE3 JUMP JUMPDEST PUSH1 0x40 MLOAD PUSH3 0x4E66 SWAP1 PUSH3 0x5A58 JUMP JUMPDEST PUSH3 0x4E75 SWAP5 SWAP4 SWAP3 SWAP2 SWAP1 PUSH3 0x5D09 JUMP JUMPDEST PUSH1 0x40 MLOAD DUP1 SWAP2 SUB SWAP1 PUSH1 0x0 CREATE DUP1 ISZERO DUP1 ISZERO PUSH3 0x4E92 JUMPI RETURNDATASIZE PUSH1 0x0 DUP1 RETURNDATACOPY RETURNDATASIZE PUSH1 0x0 REVERT JUMPDEST POP PUSH1 0x1D DUP1 SLOAD PUSH20 0xFFFFFFFFFFFFFFFFFFFFFFFFFFFFFFFFFFFFFFFF NOT AND PUSH1 0x1 PUSH1 0x1 PUSH1 0xA0 SHL SUB DUP4 AND SWAP1 DUP2 OR SWAP1 SWAP2 SSTORE SWAP1 SWAP2 POP PUSH1 0x4 PUSH3 0x4ED0 PUSH1 0x64 SELFBALANCE PUSH3 0x5DE3 JUMP JUMPDEST PUSH3 0x4EDD SWAP1 PUSH1 0xA PUSH3 0x5D92 JUMP JUMPDEST PUSH3 0x4EE9 SWAP2 SWAP1 PUSH3 0x5DE3 JUMP JUMPDEST PUSH1 0x40 MLOAD PUSH2 0x5E4A SWAP2 SWAP1 PUSH1 0x0 DUP2 DUP2 DUP2 DUP6 DUP9 DUP9 CALL SWAP4 POP POP POP POP RETURNDATASIZE DUP1 PUSH1 0x0 DUP2 EQ PUSH3 0x4F2D JUMPI PUSH1 0x40 MLOAD SWAP2 POP PUSH1 0x1F NOT PUSH1 0x3F RETURNDATASIZE ADD AND DUP3 ADD PUSH1 0x40 MSTORE RETURNDATASIZE DUP3 MSTORE RETURNDATASIZE PUSH1 0x0 PUSH1 0x20 DUP5 ADD RETURNDATACOPY PUSH3 0x4F32 JUMP JUMPDEST PUSH1 0x60 SWAP2 POP JUMPDEST POP POP PUSH1 0xC SLOAD PUSH1 0x40 MLOAD PUSH4 0x70A08231 PUSH1 0xE0 SHL DUP2 MSTORE PUSH1 0x1 PUSH1 0x1 PUSH1 0xA0 SHL SUB SWAP1 SWAP2 AND SWAP2 POP PUSH4 0x95EA7B3 SWAP1 DUP4 SWAP1 DUP4 SWAP1 PUSH4 0x70A08231 SWAP1 PUSH3 0x4F71 SWAP1 ADDRESS SWAP1 PUSH1 0x4 ADD PUSH3 0x5C16 JUMP JUMPDEST PUSH1 0x20 PUSH1 0x40 MLOAD DUP1 DUP4 SUB DUP2 DUP7 DUP1 EXTCODESIZE ISZERO DUP1 ISZERO PUSH3 0x4F8A JUMPI PUSH1 0x0 DUP1 REVERT JUMPDEST POP GAS STATICCALL ISZERO DUP1 ISZERO PUSH3 0x4F9F JUMPI RETURNDATASIZE PUSH1 0x0 DUP1 RETURNDATACOPY RETURNDATASIZE PUSH1 0x0 REVERT JUMPDEST POP POP POP POP PUSH1 0x40 MLOAD RETURNDATASIZE PUSH1 0x1F NOT PUSH1 0x1F DUP3 ADD AND DUP3 ADD DUP1 PUSH1 0x40 MSTORE POP DUP2 ADD SWAP1 PUSH3 0x4FC5 SWAP2 SWAP1 PUSH3 0x5CE4 JUMP JUMPDEST PUSH1 0x40 MLOAD DUP4 PUSH4 0xFFFFFFFF AND PUSH1 0xE0 SHL DUP2 MSTORE PUSH1 0x4 ADD PUSH3 0x4FE4 SWAP3 SWAP2 SWAP1 PUSH3 0x5EA4 JUMP JUMPDEST PUSH1 0x20 PUSH1 0x40 MLOAD DUP1 DUP4 SUB DUP2 PUSH1 0x0 DUP8 DUP1 EXTCODESIZE ISZERO DUP1 ISZERO PUSH3 0x4FFF JUMPI PUSH1 0x0 DUP1 REVERT JUMPDEST POP GAS CALL ISZERO DUP1 ISZERO PUSH3 0x5014 JUMPI RETURNDATASIZE PUSH1 0x0 DUP1 RETURNDATACOPY RETURNDATASIZE PUSH1 0x0 REVERT JUMPDEST POP POP POP POP PUSH1 0x40 MLOAD RETURNDATASIZE PUSH1 0x1F NOT PUSH1 0x1F DUP3 ADD AND DUP3 ADD DUP1 PUSH1 0x40 MSTORE POP DUP2 ADD SWAP1 PUSH3 0x503A SWAP2 SWAP1 PUSH3 0x5E10 JUMP JUMPDEST POP PUSH1 0xD SLOAD PUSH1 0x16 SLOAD PUSH1 0x40 MLOAD PUSH4 0x70A08231 PUSH1 0xE0 SHL DUP2 MSTORE PUSH1 0x0 SWAP3 PUSH1 0x1 PUSH1 0x1 PUSH1 0xA0 SHL SUB AND SWAP2 ADDRESS SWAP2 PUSH1 0x2 SWAP1 DUP5 SWAP1 PUSH4 0x70A08231 SWAP1 PUSH3 0x5078 SWAP1 DUP7 SWAP1 PUSH1 0x4 ADD PUSH3 0x5C16 JUMP JUMPDEST PUSH1 0x20 PUSH1 0x40 MLOAD DUP1 DUP4 SUB DUP2 DUP7 DUP1 EXTCODESIZE ISZERO DUP1 ISZERO PUSH3 0x5091 JUMPI PUSH1 0x0 DUP1 REVERT JUMPDEST POP GAS STATICCALL ISZERO DUP1 ISZERO PUSH3 0x50A6 JUMPI RETURNDATASIZE PUSH1 0x0 DUP1 RETURNDATACOPY RETURNDATASIZE PUSH1 0x0 REVERT JUMPDEST POP POP POP POP PUSH1 0x40 MLOAD RETURNDATASIZE PUSH1 0x1F NOT PUSH1 0x1F DUP3 ADD AND DUP3 ADD DUP1 PUSH1 0x40 MSTORE POP DUP2 ADD SWAP1 PUSH3 0x50CC SWAP2 SWAP1 PUSH3 0x5CE4 JUMP JUMPDEST PUSH3 0x50D8 SWAP2 SWAP1 PUSH3 0x5DE3 JUMP JUMPDEST PUSH1 0x40 MLOAD PUSH3 0x50E6 SWAP1 PUSH3 0x5A58 JUMP JUMPDEST PUSH3 0x50F5 SWAP5 SWAP4 SWAP3 SWAP2 SWAP1 PUSH3 0x5D09 JUMP JUMPDEST PUSH1 0x40 MLOAD DUP1 SWAP2 SUB SWAP1 PUSH1 0x0 CREATE DUP1 ISZERO DUP1 ISZERO PUSH3 0x5112 JUMPI RETURNDATASIZE PUSH1 0x0 DUP1 RETURNDATACOPY RETURNDATASIZE PUSH1 0x0 REVERT JUMPDEST POP PUSH1 0x1E DUP1 SLOAD PUSH20 0xFFFFFFFFFFFFFFFFFFFFFFFFFFFFFFFFFFFFFFFF NOT AND PUSH1 0x1 PUSH1 0x1 PUSH1 0xA0 SHL SUB DUP4 AND SWAP1 DUP2 OR SWAP1 SWAP2 SSTORE SWAP1 SWAP2 POP PUSH1 0x4 PUSH3 0x5150 PUSH1 0x64 SELFBALANCE PUSH3 0x5DE3 JUMP JUMPDEST PUSH3 0x515D SWAP1 PUSH1 0xA PUSH3 0x5D92 JUMP JUMPDEST PUSH3 0x5169 SWAP2 SWAP1 PUSH3 0x5DE3 JUMP JUMPDEST PUSH1 0x40 MLOAD PUSH2 0x5E4A SWAP2 SWAP1 PUSH1 0x0 DUP2 DUP2 DUP2 DUP6 DUP9 DUP9 CALL SWAP4 POP POP POP POP RETURNDATASIZE DUP1 PUSH1 0x0 DUP2 EQ PUSH3 0x51AD JUMPI PUSH1 0x40 MLOAD SWAP2 POP PUSH1 0x1F NOT PUSH1 0x3F RETURNDATASIZE ADD AND DUP3 ADD PUSH1 0x40 MSTORE RETURNDATASIZE DUP3 MSTORE RETURNDATASIZE PUSH1 0x0 PUSH1 0x20 DUP5 ADD RETURNDATACOPY PUSH3 0x51B2 JUMP JUMPDEST PUSH1 0x60 SWAP2 POP JUMPDEST POP POP PUSH1 0xD SLOAD PUSH1 0x40 MLOAD PUSH4 0x70A08231 PUSH1 0xE0 SHL DUP2 MSTORE PUSH1 0x1 PUSH1 0x1 PUSH1 0xA0 SHL SUB SWAP1 SWAP2 AND SWAP2 POP PUSH4 0x95EA7B3 SWAP1 DUP4 SWAP1 DUP4 SWAP1 PUSH4 0x70A08231 SWAP1 PUSH3 0x51F1 SWAP1 ADDRESS SWAP1 PUSH1 0x4 ADD PUSH3 0x5C16 JUMP JUMPDEST PUSH1 0x20 PUSH1 0x40 MLOAD DUP1 DUP4 SUB DUP2 DUP7 DUP1 EXTCODESIZE ISZERO DUP1 ISZERO PUSH3 0x520A JUMPI PUSH1 0x0 DUP1 REVERT JUMPDEST POP GAS STATICCALL ISZERO DUP1 ISZERO PUSH3 0x521F JUMPI RETURNDATASIZE PUSH1 0x0 DUP1 RETURNDATACOPY RETURNDATASIZE PUSH1 0x0 REVERT JUMPDEST POP POP POP POP PUSH1 0x40 MLOAD RETURNDATASIZE PUSH1 0x1F NOT PUSH1 0x1F DUP3 ADD AND DUP3 ADD DUP1 PUSH1 0x40 MSTORE POP DUP2 ADD SWAP1 PUSH3 0x5245 SWAP2 SWAP1 PUSH3 0x5CE4 JUMP JUMPDEST PUSH1 0x40 MLOAD DUP4 PUSH4 0xFFFFFFFF AND PUSH1 0xE0 SHL DUP2 MSTORE PUSH1 0x4 ADD PUSH3 0x5264 SWAP3 SWAP2 SWAP1 PUSH3 0x5EA4 JUMP JUMPDEST PUSH1 0x20 PUSH1 0x40 MLOAD DUP1 DUP4 SUB DUP2 PUSH1 0x0 DUP8 DUP1 EXTCODESIZE ISZERO DUP1 ISZERO PUSH3 0x527F JUMPI PUSH1 0x0 DUP1 REVERT JUMPDEST POP GAS CALL ISZERO DUP1 ISZERO PUSH3 0x5294 JUMPI RETURNDATASIZE PUSH1 0x0 DUP1 RETURNDATACOPY RETURNDATASIZE PUSH1 0x0 REVERT JUMPDEST POP POP POP POP PUSH1 0x40 MLOAD RETURNDATASIZE PUSH1 0x1F NOT PUSH1 0x1F DUP3 ADD AND DUP3 ADD DUP1 PUSH1 0x40 MSTORE POP DUP2 ADD SWAP1 PUSH3 0x52BA SWAP2 SWAP1 PUSH3 0x5E10 JUMP JUMPDEST POP PUSH1 0xF SLOAD PUSH1 0x17 SLOAD PUSH1 0x40 MLOAD PUSH4 0x70A08231 PUSH1 0xE0 SHL DUP2 MSTORE PUSH1 0x0 SWAP3 PUSH1 0x1 PUSH1 0x1 PUSH1 0xA0 SHL SUB AND SWAP2 ADDRESS SWAP2 PUSH1 0x2 SWAP1 DUP5 SWAP1 PUSH4 0x70A08231 SWAP1 PUSH3 0x52F8 SWAP1 DUP7 SWAP1 PUSH1 0x4 ADD PUSH3 0x5C16 JUMP JUMPDEST PUSH1 0x20 PUSH1 0x40 MLOAD DUP1 DUP4 SUB DUP2 DUP7 DUP1 EXTCODESIZE ISZERO DUP1 ISZERO PUSH3 0x5311 JUMPI PUSH1 0x0 DUP1 REVERT JUMPDEST POP GAS STATICCALL ISZERO DUP1 ISZERO PUSH3 0x5326 JUMPI RETURNDATASIZE PUSH1 0x0 DUP1 RETURNDATACOPY RETURNDATASIZE PUSH1 0x0 REVERT JUMPDEST POP POP POP POP PUSH1 0x40 MLOAD RETURNDATASIZE PUSH1 0x1F NOT PUSH1 0x1F DUP3 ADD AND DUP3 ADD DUP1 PUSH1 0x40 MSTORE POP DUP2 ADD SWAP1 PUSH3 0x534C SWAP2 SWAP1 PUSH3 0x5CE4 JUMP JUMPDEST PUSH3 0x5358 SWAP2 SWAP1 PUSH3 0x5DE3 JUMP JUMPDEST PUSH1 0x40 MLOAD PUSH3 0x5366 SWAP1 PUSH3 0x5A58 JUMP JUMPDEST PUSH3 0x5375 SWAP5 SWAP4 SWAP3 SWAP2 SWAP1 PUSH3 0x5D09 JUMP JUMPDEST PUSH1 0x40 MLOAD DUP1 SWAP2 SUB SWAP1 PUSH1 0x0 CREATE DUP1 ISZERO DUP1 ISZERO PUSH3 0x5392 JUMPI RETURNDATASIZE PUSH1 0x0 DUP1 RETURNDATACOPY RETURNDATASIZE PUSH1 0x0 REVERT JUMPDEST POP PUSH1 0x1F DUP1 SLOAD PUSH20 0xFFFFFFFFFFFFFFFFFFFFFFFFFFFFFFFFFFFFFFFF NOT AND PUSH1 0x1 PUSH1 0x1 PUSH1 0xA0 SHL SUB DUP4 AND SWAP1 DUP2 OR SWAP1 SWAP2 SSTORE SWAP1 SWAP2 POP PUSH1 0x4 PUSH3 0x53D0 PUSH1 0x64 SELFBALANCE PUSH3 0x5DE3 JUMP JUMPDEST PUSH3 0x53DD SWAP1 PUSH1 0xA PUSH3 0x5D92 JUMP JUMPDEST PUSH3 0x53E9 SWAP2 SWAP1 PUSH3 0x5DE3 JUMP JUMPDEST PUSH1 0x40 MLOAD PUSH2 0x5E4A SWAP2 SWAP1 PUSH1 0x0 DUP2 DUP2 DUP2 DUP6 DUP9 DUP9 CALL SWAP4 POP POP POP POP RETURNDATASIZE DUP1 PUSH1 0x0 DUP2 EQ PUSH3 0x542D JUMPI PUSH1 0x40 MLOAD SWAP2 POP PUSH1 0x1F NOT PUSH1 0x3F RETURNDATASIZE ADD AND DUP3 ADD PUSH1 0x40 MSTORE RETURNDATASIZE DUP3 MSTORE RETURNDATASIZE PUSH1 0x0 PUSH1 0x20 DUP5 ADD RETURNDATACOPY PUSH3 0x5432 JUMP JUMPDEST PUSH1 0x60 SWAP2 POP JUMPDEST POP POP PUSH1 0xF SLOAD PUSH1 0x40 MLOAD PUSH4 0x70A08231 PUSH1 0xE0 SHL DUP2 MSTORE PUSH1 0x1 PUSH1 0x1 PUSH1 0xA0 SHL SUB SWAP1 SWAP2 AND SWAP2 POP PUSH4 0x95EA7B3 SWAP1 DUP4 SWAP1 DUP4 SWAP1 PUSH4 0x70A08231 SWAP1 PUSH3 0x5471 SWAP1 ADDRESS SWAP1 PUSH1 0x4 ADD PUSH3 0x5C16 JUMP JUMPDEST PUSH1 0x20 PUSH1 0x40 MLOAD DUP1 DUP4 SUB DUP2 DUP7 DUP1 EXTCODESIZE ISZERO DUP1 ISZERO PUSH3 0x548A JUMPI PUSH1 0x0 DUP1 REVERT JUMPDEST POP GAS STATICCALL ISZERO DUP1 ISZERO PUSH3 0x549F JUMPI RETURNDATASIZE PUSH1 0x0 DUP1 RETURNDATACOPY RETURNDATASIZE PUSH1 0x0 REVERT JUMPDEST POP POP POP POP PUSH1 0x40 MLOAD RETURNDATASIZE PUSH1 0x1F NOT PUSH1 0x1F DUP3 ADD AND DUP3 ADD DUP1 PUSH1 0x40 MSTORE POP DUP2 ADD SWAP1 PUSH3 0x54C5 SWAP2 SWAP1 PUSH3 0x5CE4 JUMP JUMPDEST PUSH1 0x40 MLOAD DUP4 PUSH4 0xFFFFFFFF AND PUSH1 0xE0 SHL DUP2 MSTORE PUSH1 0x4 ADD PUSH3 0x54E4 SWAP3 SWAP2 SWAP1 PUSH3 0x5EA4 JUMP JUMPDEST PUSH1 0x20 PUSH1 0x40 MLOAD DUP1 DUP4 SUB DUP2 PUSH1 0x0 DUP8 DUP1 EXTCODESIZE ISZERO DUP1 ISZERO PUSH3 0x54FF JUMPI PUSH1 0x0 DUP1 REVERT JUMPDEST POP GAS CALL ISZERO DUP1 ISZERO PUSH3 0x5514 JUMPI RETURNDATASIZE PUSH1 0x0 DUP1 RETURNDATACOPY RETURNDATASIZE PUSH1 0x0 REVERT JUMPDEST POP POP POP POP PUSH1 0x40 MLOAD RETURNDATASIZE PUSH1 0x1F NOT PUSH1 0x1F DUP3 ADD AND DUP3 ADD DUP1 PUSH1 0x40 MSTORE POP DUP2 ADD SWAP1 PUSH3 0x553A SWAP2 SWAP1 PUSH3 0x5E10 JUMP JUMPDEST POP PUSH1 0xE SLOAD PUSH1 0x18 SLOAD PUSH1 0x40 MLOAD PUSH4 0x70A08231 PUSH1 0xE0 SHL DUP2 MSTORE PUSH1 0x0 SWAP3 PUSH1 0x1 PUSH1 0x1 PUSH1 0xA0 SHL SUB AND SWAP2 ADDRESS SWAP2 PUSH1 0x2 SWAP1 DUP5 SWAP1 PUSH4 0x70A08231 SWAP1 PUSH3 0x5578 SWAP1 DUP7 SWAP1 PUSH1 0x4 ADD PUSH3 0x5C16 JUMP JUMPDEST PUSH1 0x20 PUSH1 0x40 MLOAD DUP1 DUP4 SUB DUP2 DUP7 DUP1 EXTCODESIZE ISZERO DUP1 ISZERO PUSH3 0x5591 JUMPI PUSH1 0x0 DUP1 REVERT JUMPDEST POP GAS STATICCALL ISZERO DUP1 ISZERO PUSH3 0x55A6 JUMPI RETURNDATASIZE PUSH1 0x0 DUP1 RETURNDATACOPY RETURNDATASIZE PUSH1 0x0 REVERT JUMPDEST POP POP POP POP PUSH1 0x40 MLOAD RETURNDATASIZE PUSH1 0x1F NOT PUSH1 0x1F DUP3 ADD AND DUP3 ADD DUP1 PUSH1 0x40 MSTORE POP DUP2 ADD SWAP1 PUSH3 0x55CC SWAP2 SWAP1 PUSH3 0x5CE4 JUMP JUMPDEST PUSH3 0x55D8 SWAP2 SWAP1 PUSH3 0x5DE3 JUMP JUMPDEST PUSH1 0x40 MLOAD PUSH3 0x55E6 SWAP1 PUSH3 0x5A58 JUMP JUMPDEST PUSH3 0x55F5 SWAP5 SWAP4 SWAP3 SWAP2 SWAP1 PUSH3 0x5D09 JUMP JUMPDEST PUSH1 0x40 MLOAD DUP1 SWAP2 SUB SWAP1 PUSH1 0x0 CREATE DUP1 ISZERO DUP1 ISZERO PUSH3 0x5612 JUMPI RETURNDATASIZE PUSH1 0x0 DUP1 RETURNDATACOPY RETURNDATASIZE PUSH1 0x0 REVERT JUMPDEST POP PUSH1 0x20 DUP1 SLOAD PUSH20 0xFFFFFFFFFFFFFFFFFFFFFFFFFFFFFFFFFFFFFFFF NOT AND PUSH1 0x1 PUSH1 0x1 PUSH1 0xA0 SHL SUB DUP4 AND SWAP1 DUP2 OR SWAP1 SWAP2 SSTORE SWAP1 SWAP2 POP PUSH1 0x4 PUSH3 0x5650 PUSH1 0x64 SELFBALANCE PUSH3 0x5DE3 JUMP JUMPDEST PUSH3 0x565D SWAP1 PUSH1 0xA PUSH3 0x5D92 JUMP JUMPDEST PUSH3 0x5669 SWAP2 SWAP1 PUSH3 0x5DE3 JUMP JUMPDEST PUSH1 0x40 MLOAD PUSH2 0x5E4A SWAP2 SWAP1 PUSH1 0x0 DUP2 DUP2 DUP2 DUP6 DUP9 DUP9 CALL SWAP4 POP POP POP POP RETURNDATASIZE DUP1 PUSH1 0x0 DUP2 EQ PUSH3 0x56AD JUMPI PUSH1 0x40 MLOAD SWAP2 POP PUSH1 0x1F NOT PUSH1 0x3F RETURNDATASIZE ADD AND DUP3 ADD PUSH1 0x40 MSTORE RETURNDATASIZE DUP3 MSTORE RETURNDATASIZE PUSH1 0x0 PUSH1 0x20 DUP5 ADD RETURNDATACOPY PUSH3 0x56B2 JUMP JUMPDEST PUSH1 0x60 SWAP2 POP JUMPDEST POP POP PUSH1 0xE SLOAD PUSH1 0x40 MLOAD PUSH4 0x70A08231 PUSH1 0xE0 SHL DUP2 MSTORE PUSH1 0x1 PUSH1 0x1 PUSH1 0xA0 SHL SUB SWAP1 SWAP2 AND SWAP2 POP PUSH4 0x95EA7B3 SWAP1 DUP4 SWAP1 DUP4 SWAP1 PUSH4 0x70A08231 SWAP1 PUSH3 0x56F1 SWAP1 ADDRESS SWAP1 PUSH1 0x4 ADD PUSH3 0x5C16 JUMP JUMPDEST PUSH1 0x20 PUSH1 0x40 MLOAD DUP1 DUP4 SUB DUP2 DUP7 DUP1 EXTCODESIZE ISZERO DUP1 ISZERO PUSH3 0x570A JUMPI PUSH1 0x0 DUP1 REVERT JUMPDEST POP GAS STATICCALL ISZERO DUP1 ISZERO PUSH3 0x571F JUMPI RETURNDATASIZE PUSH1 0x0 DUP1 RETURNDATACOPY RETURNDATASIZE PUSH1 0x0 REVERT JUMPDEST POP POP POP POP PUSH1 0x40 MLOAD RETURNDATASIZE PUSH1 0x1F NOT PUSH1 0x1F DUP3 ADD AND DUP3 ADD DUP1 PUSH1 0x40 MSTORE POP DUP2 ADD SWAP1 PUSH3 0x5745 SWAP2 SWAP1 PUSH3 0x5CE4 JUMP JUMPDEST PUSH1 0x40 MLOAD DUP4 PUSH4 0xFFFFFFFF AND PUSH1 0xE0 SHL DUP2 MSTORE PUSH1 0x4 ADD PUSH3 0x5764 SWAP3 SWAP2 SWAP1 PUSH3 0x5EA4 JUMP JUMPDEST PUSH1 0x20 PUSH1 0x40 MLOAD DUP1 DUP4 SUB DUP2 PUSH1 0x0 DUP8 DUP1 EXTCODESIZE ISZERO DUP1 ISZERO PUSH3 0x577F JUMPI PUSH1 0x0 DUP1 REVERT JUMPDEST POP GAS CALL ISZERO DUP1 ISZERO PUSH3 0x5794 JUMPI RETURNDATASIZE PUSH1 0x0 DUP1 RETURNDATACOPY RETURNDATASIZE PUSH1 0x0 REVERT JUMPDEST POP POP POP POP PUSH1 0x40 MLOAD RETURNDATASIZE PUSH1 0x1F NOT PUSH1 0x1F DUP3 ADD AND DUP3 ADD DUP1 PUSH1 0x40 MSTORE POP DUP2 ADD SWAP1 PUSH3 0x57BA SWAP2 SWAP1 PUSH3 0x5E10 JUMP JUMPDEST POP POP POP POP POP JUMPDEST PUSH3 0x57CE TIMESTAMP PUSH2 0x12C PUSH3 0x5A95 JUMP JUMPDEST PUSH1 0x2 SSTORE PUSH1 0x1 SLOAD PUSH3 0x57E2 SWAP1 PUSH1 0xA SWAP1 PUSH3 0x5DE3 JUMP JUMPDEST PUSH1 0x1 SSTORE PUSH1 0x0 PUSH1 0x4 DUP2 SWAP1 SSTORE PUSH1 0x5 DUP2 SWAP1 SSTORE PUSH1 0x6 DUP2 SWAP1 SSTORE PUSH1 0x7 DUP2 SWAP1 SSTORE PUSH1 0x8 DUP2 SWAP1 SSTORE PUSH1 0x9 DUP2 SWAP1 SSTORE PUSH1 0xA DUP2 SWAP1 SSTORE PUSH1 0xB DUP2 SWAP1 SSTORE PUSH1 0x10 SLOAD SWAP1 SSTORE PUSH3 0x5822 TIMESTAMP PUSH2 0x12C PUSH3 0x5A95 JUMP JUMPDEST PUSH1 0x2 SSTORE POP POP POP POP POP POP JUMPDEST JUMP JUMPDEST CALLER PUSH1 0x0 SWAP1 DUP2 MSTORE PUSH1 0x14 PUSH1 0x20 MSTORE PUSH1 0x40 SWAP1 KECCAK256 SLOAD PUSH1 0xFF AND PUSH3 0x584B JUMPI PUSH1 0x0 DUP1 REVERT JUMPDEST CALLER PUSH1 0x0 SWAP1 DUP2 MSTORE PUSH1 0x14 PUSH1 0x20 MSTORE PUSH1 0x40 DUP2 KECCAK256 DUP1 SLOAD PUSH1 0xFF NOT AND SWAP1 SSTORE PUSH1 0x18 DUP1 SLOAD SWAP2 PUSH3 0x91C DUP4 PUSH3 0x5D4F JUMP JUMPDEST CALLER PUSH1 0x0 SWAP1 DUP2 MSTORE PUSH1 0x14 PUSH1 0x20 MSTORE PUSH1 0x40 SWAP1 KECCAK256 SLOAD PUSH1 0xFF AND PUSH3 0x588F JUMPI PUSH1 0x0 DUP1 REVERT JUMPDEST PUSH1 0x0 DUP3 GT PUSH3 0x589D JUMPI PUSH1 0x0 DUP1 REVERT JUMPDEST PUSH1 0xE SLOAD PUSH1 0x40 MLOAD PUSH4 0x70A08231 PUSH1 0xE0 SHL DUP2 MSTORE DUP4 SWAP2 PUSH1 0x1 PUSH1 0x1 PUSH1 0xA0 SHL SUB AND SWAP1 PUSH4 0x70A08231 SWAP1 PUSH3 0x58CF SWAP1 CALLER SWAP1 PUSH1 0x4 ADD PUSH3 0x5C16 JUMP JUMPDEST PUSH1 0x20 PUSH1 0x40 MLOAD DUP1 DUP4 SUB DUP2 DUP7 DUP1 EXTCODESIZE ISZERO DUP1 ISZERO PUSH3 0x58E8 JUMPI PUSH1 0x0 DUP1 REVERT JUMPDEST POP GAS STATICCALL ISZERO DUP1 ISZERO PUSH3 0x58FD JUMPI RETURNDATASIZE PUSH1 0x0 DUP1 RETURNDATACOPY RETURNDATASIZE PUSH1 0x0 REVERT JUMPDEST POP POP POP POP PUSH1 0x40 MLOAD RETURNDATASIZE PUSH1 0x1F NOT PUSH1 0x1F DUP3 ADD AND DUP3 ADD DUP1 PUSH1 0x40 MSTORE POP DUP2 ADD SWAP1 PUSH3 0x5923 SWAP2 SWAP1 PUSH3 0x5CE4 JUMP JUMPDEST LT ISZERO PUSH3 0x592F JUMPI PUSH1 0x0 DUP1 REVERT JUMPDEST DUP2 PUSH1 0xB PUSH1 0x0 DUP3 DUP3 SLOAD PUSH3 0xA3C SWAP2 SWAP1 PUSH3 0x5A95 JUMP JUMPDEST CALLER PUSH1 0x0 SWAP1 DUP2 MSTORE PUSH1 0x12 PUSH1 0x20 MSTORE PUSH1 0x40 SWAP1 KECCAK256 SLOAD PUSH1 0xFF AND PUSH3 0x5960 JUMPI PUSH1 0x0 DUP1 REVERT JUMPDEST PUSH1 0x0 DUP3 GT PUSH3 0x596E JUMPI PUSH1 0x0 DUP1 REVERT JUMPDEST PUSH1 0xD SLOAD PUSH1 0x40 MLOAD PUSH4 0x70A08231 PUSH1 0xE0 SHL DUP2 MSTORE DUP4 SWAP2 PUSH1 0x1 PUSH1 0x1 PUSH1 0xA0 SHL SUB AND SWAP1 PUSH4 0x70A08231 SWAP1 PUSH3 0x59A0 SWAP1 CALLER SWAP1 PUSH1 0x4 ADD PUSH3 0x5C16 JUMP JUMPDEST PUSH1 0x20 PUSH1 0x40 MLOAD DUP1 DUP4 SUB DUP2 DUP7 DUP1 EXTCODESIZE ISZERO DUP1 ISZERO PUSH3 0x59B9 JUMPI PUSH1 0x0 DUP1 REVERT JUMPDEST POP GAS STATICCALL ISZERO DUP1 ISZERO PUSH3 0x59CE JUMPI RETURNDATASIZE PUSH1 0x0 DUP1 RETURNDATACOPY RETURNDATASIZE PUSH1 0x0 REVERT JUMPDEST POP POP POP POP PUSH1 0x40 MLOAD RETURNDATASIZE PUSH1 0x1F NOT PUSH1 0x1F DUP3 ADD AND DUP3 ADD DUP1 PUSH1 0x40 MSTORE POP DUP2 ADD SWAP1 PUSH3 0x59F4 SWAP2 SWAP1 PUSH3 0x5CE4 JUMP JUMPDEST LT ISZERO PUSH3 0x5A00 JUMPI PUSH1 0x0 DUP1 REVERT JUMPDEST DUP2 PUSH1 0x9 PUSH1 0x0 DUP3 DUP3 SLOAD PUSH3 0xB9E SWAP2 SWAP1 PUSH3 0x5A95 JUMP JUMPDEST CALLER PUSH1 0x0 SWAP1 DUP2 MSTORE PUSH1 0x11 PUSH1 0x20 MSTORE PUSH1 0x40 SWAP1 KECCAK256 SLOAD PUSH1 0xFF AND PUSH3 0x5A31 JUMPI PUSH1 0x0 DUP1 REVERT JUMPDEST CALLER PUSH1 0x0 SWAP1 DUP2 MSTORE PUSH1 0x11 PUSH1 0x20 MSTORE PUSH1 0x40 DUP2 KECCAK256 DUP1 SLOAD PUSH1 0xFF NOT AND SWAP1 SSTORE PUSH1 0x15 DUP1 SLOAD SWAP2 PUSH3 0x91C DUP4 PUSH3 0x5D4F JUMP JUMPDEST PUSH2 0x7AE DUP1 PUSH3 0x5F7F DUP4 CODECOPY ADD SWAP1 JUMP JUMPDEST PUSH32 0x4E487B7100000000000000000000000000000000000000000000000000000000 PUSH1 0x0 MSTORE PUSH1 0x11 PUSH1 0x4 MSTORE PUSH1 0x24 PUSH1 0x0 REVERT JUMPDEST PUSH1 0x0 DUP3 NOT DUP3 GT ISZERO PUSH3 0x5AAB JUMPI PUSH3 0x5AAB PUSH3 0x5A66 JUMP JUMPDEST POP ADD SWAP1 JUMP JUMPDEST PUSH1 0x0 PUSH1 0x1 PUSH1 0x1 PUSH1 0xA0 SHL SUB DUP3 AND JUMPDEST SWAP3 SWAP2 POP POP JUMP JUMPDEST PUSH3 0x5ACE DUP2 PUSH3 0x5AB0 JUMP JUMPDEST DUP2 EQ PUSH3 0xC8C JUMPI PUSH1 0x0 DUP1 REVERT JUMPDEST DUP1 CALLDATALOAD PUSH3 0x5ABD DUP2 PUSH3 0x5AC3 JUMP JUMPDEST PUSH1 0x0 PUSH1 0x20 DUP3 DUP5 SUB SLT ISZERO PUSH3 0x5AFE JUMPI PUSH3 0x5AFE PUSH1 0x0 DUP1 REVERT JUMPDEST PUSH1 0x0 PUSH3 0x5B0C DUP5 DUP5 PUSH3 0x5ADA JUMP JUMPDEST SWAP5 SWAP4 POP POP POP POP JUMP JUMPDEST DUP1 JUMPDEST DUP3 MSTORE POP POP JUMP JUMPDEST PUSH1 0x20 DUP2 ADD PUSH3 0x5ABD DUP3 DUP5 PUSH3 0x5B14 JUMP JUMPDEST PUSH1 0x0 PUSH3 0x5ABD PUSH1 0x1 PUSH1 0x1 PUSH1 0xA0 SHL SUB DUP4 AND PUSH3 0x5B45 JUMP JUMPDEST SWAP1 JUMP JUMPDEST PUSH1 0x1 PUSH1 0x1 PUSH1 0xA0 SHL SUB AND SWAP1 JUMP JUMPDEST PUSH1 0x0 PUSH3 0x5ABD DUP3 PUSH3 0x5B2C JUMP JUMPDEST PUSH1 0x0 PUSH3 0x5ABD DUP3 PUSH3 0x5B51 JUMP JUMPDEST PUSH3 0x5B16 DUP2 PUSH3 0x5B5E JUMP JUMPDEST PUSH1 0x20 DUP2 ADD PUSH3 0x5ABD DUP3 DUP5 PUSH3 0x5B6B JUMP JUMPDEST DUP1 ISZERO ISZERO PUSH3 0x5B16 JUMP JUMPDEST PUSH1 0x20 DUP2 ADD PUSH3 0x5ABD DUP3 DUP5 PUSH3 0x5B86 JUMP JUMPDEST DUP1 PUSH3 0x5ACE JUMP JUMPDEST DUP1 CALLDATALOAD PUSH3 0x5ABD DUP2 PUSH3 0x5B9F JUMP JUMPDEST PUSH1 0x0 DUP1 PUSH1 0x0 PUSH1 0x60 DUP5 DUP7 SUB SLT ISZERO PUSH3 0x5BCD JUMPI PUSH3 0x5BCD PUSH1 0x0 DUP1 REVERT JUMPDEST PUSH1 0x0 PUSH3 0x5BDB DUP7 DUP7 PUSH3 0x5BA6 JUMP JUMPDEST SWAP4 POP POP PUSH1 0x20 PUSH3 0x5BEE DUP7 DUP3 DUP8 ADD PUSH3 0x5BA6 JUMP JUMPDEST SWAP3 POP POP PUSH1 0x40 PUSH3 0x5C01 DUP7 DUP3 DUP8 ADD PUSH3 0x5BA6 JUMP JUMPDEST SWAP2 POP POP SWAP3 POP SWAP3 POP SWAP3 JUMP JUMPDEST PUSH3 0x5B16 DUP2 PUSH3 0x5AB0 JUMP JUMPDEST PUSH1 0x20 DUP2 ADD PUSH3 0x5ABD DUP3 DUP5 PUSH3 0x5C0B JUMP JUMPDEST PUSH1 0x0 PUSH1 0x20 DUP3 DUP5 SUB SLT ISZERO PUSH3 0x5C3D JUMPI PUSH3 0x5C3D PUSH1 0x0 DUP1 REVERT JUMPDEST PUSH1 0x0 PUSH3 0x5B0C DUP5 DUP5 PUSH3 0x5BA6 JUMP JUMPDEST PUSH1 0x0 DUP1 PUSH1 0x0 DUP1 PUSH1 0x80 DUP6 DUP8 SUB SLT ISZERO PUSH3 0x5C66 JUMPI PUSH3 0x5C66 PUSH1 0x0 DUP1 REVERT JUMPDEST PUSH1 0x0 PUSH3 0x5C74 DUP8 DUP8 PUSH3 0x5ADA JUMP JUMPDEST SWAP5 POP POP PUSH1 0x20 PUSH3 0x5C87 DUP8 DUP3 DUP9 ADD PUSH3 0x5ADA JUMP JUMPDEST SWAP4 POP POP PUSH1 0x40 PUSH3 0x5C9A DUP8 DUP3 DUP9 ADD PUSH3 0x5ADA JUMP JUMPDEST SWAP3 POP POP PUSH1 0x60 PUSH3 0x5CAD DUP8 DUP3 DUP9 ADD PUSH3 0x5ADA JUMP JUMPDEST SWAP2 POP POP SWAP3 SWAP6 SWAP2 SWAP5 POP SWAP3 POP JUMP JUMPDEST PUSH1 0x0 PUSH1 0x0 NOT DUP3 EQ ISZERO PUSH3 0x5CD0 JUMPI PUSH3 0x5CD0 PUSH3 0x5A66 JUMP JUMPDEST POP PUSH1 0x1 ADD SWAP1 JUMP JUMPDEST DUP1 MLOAD PUSH3 0x5ABD DUP2 PUSH3 0x5B9F JUMP JUMPDEST PUSH1 0x0 PUSH1 0x20 DUP3 DUP5 SUB SLT ISZERO PUSH3 0x5CFB JUMPI PUSH3 0x5CFB PUSH1 0x0 DUP1 REVERT JUMPDEST PUSH1 0x0 PUSH3 0x5B0C DUP5 DUP5 PUSH3 0x5CD7 JUMP JUMPDEST PUSH1 0x80 DUP2 ADD PUSH3 0x5D19 DUP3 DUP8 PUSH3 0x5C0B JUMP JUMPDEST PUSH3 0x5D28 PUSH1 0x20 DUP4 ADD DUP7 PUSH3 0x5C0B JUMP JUMPDEST PUSH3 0x5D37 PUSH1 0x40 DUP4 ADD DUP6 PUSH3 0x5B14 JUMP JUMPDEST PUSH3 0x5D46 PUSH1 0x60 DUP4 ADD DUP5 PUSH3 0x5B14 JUMP JUMPDEST SWAP6 SWAP5 POP POP POP POP POP JUMP JUMPDEST PUSH1 0x0 DUP2 PUSH3 0x5D61 JUMPI PUSH3 0x5D61 PUSH3 0x5A66 JUMP JUMPDEST POP PUSH1 0x0 NOT ADD SWAP1 JUMP JUMPDEST PUSH1 0x0 PUSH3 0x5ABD PUSH3 0x5B42 DUP4 DUP2 JUMP JUMPDEST PUSH3 0x5B16 DUP2 PUSH3 0x5D69 JUMP JUMPDEST PUSH1 0x20 DUP2 ADD PUSH3 0x5ABD DUP3 DUP5 PUSH3 0x5D77 JUMP JUMPDEST PUSH1 0x0 DUP2 PUSH1 0x0 NOT DIV DUP4 GT DUP3 ISZERO ISZERO AND ISZERO PUSH3 0x5DAF JUMPI PUSH3 0x5DAF PUSH3 0x5A66 JUMP JUMPDEST POP MUL SWAP1 JUMP JUMPDEST PUSH32 0x4E487B7100000000000000000000000000000000000000000000000000000000 PUSH1 0x0 MSTORE PUSH1 0x12 PUSH1 0x4 MSTORE PUSH1 0x24 PUSH1 0x0 REVERT JUMPDEST PUSH1 0x0 DUP3 PUSH3 0x5DF5 JUMPI PUSH3 0x5DF5 PUSH3 0x5DB4 JUMP JUMPDEST POP DIV SWAP1 JUMP JUMPDEST DUP1 ISZERO ISZERO PUSH3 0x5ACE JUMP JUMPDEST DUP1 MLOAD PUSH3 0x5ABD DUP2 PUSH3 0x5DFA JUMP JUMPDEST PUSH1 0x0 PUSH1 0x20 DUP3 DUP5 SUB SLT ISZERO PUSH3 0x5E27 JUMPI PUSH3 0x5E27 PUSH1 0x0 DUP1 REVERT JUMPDEST PUSH1 0x0 PUSH3 0x5B0C DUP5 DUP5 PUSH3 0x5E03 JUMP JUMPDEST DUP1 MLOAD PUSH3 0x5ABD DUP2 PUSH3 0x5AC3 JUMP JUMPDEST PUSH1 0x0 DUP1 PUSH1 0x0 DUP1 PUSH1 0x80 DUP6 DUP8 SUB SLT ISZERO PUSH3 0x5E5D JUMPI PUSH3 0x5E5D PUSH1 0x0 DUP1 REVERT JUMPDEST PUSH1 0x0 PUSH3 0x5E6B DUP8 DUP8 PUSH3 0x5E35 JUMP JUMPDEST SWAP5 POP POP PUSH1 0x20 PUSH3 0x5E7E DUP8 DUP3 DUP9 ADD PUSH3 0x5E35 JUMP JUMPDEST SWAP4 POP POP PUSH1 0x40 PUSH3 0x5E91 DUP8 DUP3 DUP9 ADD PUSH3 0x5CD7 JUMP JUMPDEST SWAP3 POP POP PUSH1 0x60 PUSH3 0x5CAD DUP8 DUP3 DUP9 ADD PUSH3 0x5CD7 JUMP JUMPDEST PUSH1 0x40 DUP2 ADD PUSH3 0x5EB4 DUP3 DUP6 PUSH3 0x5C0B JUMP JUMPDEST PUSH3 0x5EC3 PUSH1 0x20 DUP4 ADD DUP5 PUSH3 0x5B14 JUMP JUMPDEST SWAP4 SWAP3 POP POP POP JUMP JUMPDEST PUSH1 0xC0 DUP2 ADD PUSH3 0x5EDA DUP3 DUP10 PUSH3 0x5C0B JUMP JUMPDEST PUSH3 0x5EE9 PUSH1 0x20 DUP4 ADD DUP9 PUSH3 0x5B14 JUMP JUMPDEST PUSH3 0x5EF8 PUSH1 0x40 DUP4 ADD DUP8 PUSH3 0x5D77 JUMP JUMPDEST PUSH3 0x5F07 PUSH1 0x60 DUP4 ADD DUP7 PUSH3 0x5D77 JUMP JUMPDEST PUSH3 0x5F16 PUSH1 0x80 DUP4 ADD DUP6 PUSH3 0x5C0B JUMP JUMPDEST PUSH3 0x5F25 PUSH1 0xA0 DUP4 ADD DUP5 PUSH3 0x5B14 JUMP JUMPDEST SWAP8 SWAP7 POP POP POP POP POP POP POP JUMP JUMPDEST PUSH1 0x0 DUP1 PUSH1 0x0 PUSH1 0x60 DUP5 DUP7 SUB SLT ISZERO PUSH3 0x5F4A JUMPI PUSH3 0x5F4A PUSH1 0x0 DUP1 REVERT JUMPDEST PUSH1 0x0 PUSH3 0x5F58 DUP7 DUP7 PUSH3 0x5CD7 JUMP JUMPDEST SWAP4 POP POP PUSH1 0x20 PUSH3 0x5F6B DUP7 DUP3 DUP8 ADD PUSH3 0x5CD7 JUMP JUMPDEST SWAP3 POP POP PUSH1 0x40 PUSH3 0x5C01 DUP7 DUP3 DUP8 ADD PUSH3 0x5CD7 JUMP INVALID PUSH1 0x80 PUSH1 0x40 MSTORE CALLVALUE DUP1 ISZERO PUSH2 0x10 JUMPI PUSH1 0x0 DUP1 REVERT JUMPDEST POP PUSH1 0x40 MLOAD PUSH2 0x7AE CODESIZE SUB DUP1 PUSH2 0x7AE DUP4 CODECOPY DUP2 ADD PUSH1 0x40 DUP2 SWAP1 MSTORE PUSH2 0x2F SWAP2 PUSH2 0xB7 JUMP JUMPDEST PUSH1 0x1 SWAP2 SWAP1 SWAP2 SSTORE PUSH1 0x5 DUP2 SWAP1 SSTORE PUSH1 0x6 SSTORE PUSH1 0x3 DUP1 SLOAD PUSH1 0x1 PUSH1 0x1 PUSH1 0xA0 SHL SUB SWAP3 DUP4 AND PUSH1 0x1 PUSH1 0x1 PUSH1 0xA0 SHL SUB NOT SWAP2 DUP3 AND OR SWAP1 SWAP2 SSTORE PUSH1 0x2 DUP1 SLOAD SWAP4 SWAP1 SWAP3 AND SWAP3 AND SWAP2 SWAP1 SWAP2 OR SWAP1 SSTORE PUSH2 0x11B JUMP JUMPDEST PUSH1 0x0 PUSH1 0x1 PUSH1 0x1 PUSH1 0xA0 SHL SUB DUP3 AND JUMPDEST SWAP3 SWAP2 POP POP JUMP JUMPDEST PUSH2 0x8D DUP2 PUSH2 0x71 JUMP JUMPDEST DUP2 EQ PUSH2 0x98 JUMPI PUSH1 0x0 DUP1 REVERT JUMPDEST POP JUMP JUMPDEST DUP1 MLOAD PUSH2 0x7E DUP2 PUSH2 0x84 JUMP JUMPDEST DUP1 PUSH2 0x8D JUMP JUMPDEST DUP1 MLOAD PUSH2 0x7E DUP2 PUSH2 0xA6 JUMP JUMPDEST PUSH1 0x0 DUP1 PUSH1 0x0 DUP1 PUSH1 0x80 DUP6 DUP8 SUB SLT ISZERO PUSH2 0xD0 JUMPI PUSH2 0xD0 PUSH1 0x0 DUP1 REVERT JUMPDEST PUSH1 0x0 PUSH2 0xDC DUP8 DUP8 PUSH2 0x9B JUMP JUMPDEST SWAP5 POP POP PUSH1 0x20 PUSH2 0xED DUP8 DUP3 DUP9 ADD PUSH2 0x9B JUMP JUMPDEST SWAP4 POP POP PUSH1 0x40 PUSH2 0xFE DUP8 DUP3 DUP9 ADD PUSH2 0xAC JUMP JUMPDEST SWAP3 POP POP PUSH1 0x60 PUSH2 0x10F DUP8 DUP3 DUP9 ADD PUSH2 0xAC JUMP JUMPDEST SWAP2 POP POP SWAP3 SWAP6 SWAP2 SWAP5 POP SWAP3 POP JUMP JUMPDEST PUSH2 0x684 DUP1 PUSH2 0x12A PUSH1 0x0 CODECOPY PUSH1 0x0 RETURN INVALID PUSH1 0x80 PUSH1 0x40 MSTORE PUSH1 0x4 CALLDATASIZE LT PUSH2 0x7F JUMPI PUSH1 0x0 CALLDATALOAD PUSH1 0xE0 SHR DUP1 PUSH4 0xB69EF8A8 GT PUSH2 0x4E JUMPI DUP1 PUSH4 0xB69EF8A8 EQ PUSH2 0x135 JUMPI DUP1 PUSH4 0xC5379317 EQ PUSH2 0x14B JUMPI DUP1 PUSH4 0xC884EF83 EQ PUSH2 0x161 JUMPI DUP1 PUSH4 0xFC0C546A EQ PUSH2 0x19E JUMPI PUSH1 0x0 DUP1 REVERT JUMPDEST DUP1 PUSH4 0x27810B6E EQ PUSH2 0xA2 JUMPI DUP1 PUSH4 0x3A98EF39 EQ PUSH2 0xE5 JUMPI DUP1 PUSH4 0x4E71D92D EQ PUSH2 0x108 JUMPI DUP1 PUSH4 0xB0CF0196 EQ PUSH2 0x11F JUMPI PUSH1 0x0 DUP1 REVERT JUMPDEST CALLDATASIZE PUSH2 0x9D JUMPI CALLVALUE PUSH1 0x4 PUSH1 0x0 DUP3 DUP3 SLOAD PUSH2 0x96 SWAP2 SWAP1 PUSH2 0x407 JUMP JUMPDEST SWAP1 SWAP2 SSTORE POP POP STOP JUMPDEST PUSH1 0x0 DUP1 REVERT JUMPDEST CALLVALUE DUP1 ISZERO PUSH2 0xAE JUMPI PUSH1 0x0 DUP1 REVERT JUMPDEST POP PUSH1 0x3 SLOAD PUSH2 0xCF SWAP1 PUSH20 0xFFFFFFFFFFFFFFFFFFFFFFFFFFFFFFFFFFFFFFFF AND DUP2 JUMP JUMPDEST PUSH1 0x40 MLOAD PUSH2 0xDC SWAP2 SWAP1 PUSH2 0x44E JUMP JUMPDEST PUSH1 0x40 MLOAD DUP1 SWAP2 SUB SWAP1 RETURN JUMPDEST CALLVALUE DUP1 ISZERO PUSH2 0xF1 JUMPI PUSH1 0x0 DUP1 REVERT JUMPDEST POP PUSH2 0xFB PUSH1 0x1 SLOAD DUP2 JUMP JUMPDEST PUSH1 0x40 MLOAD PUSH2 0xDC SWAP2 SWAP1 PUSH2 0x462 JUMP JUMPDEST CALLVALUE DUP1 ISZERO PUSH2 0x114 JUMPI PUSH1 0x0 DUP1 REVERT JUMPDEST POP PUSH2 0x11D PUSH2 0x1D8 JUMP JUMPDEST STOP JUMPDEST CALLVALUE DUP1 ISZERO PUSH2 0x12B JUMPI PUSH1 0x0 DUP1 REVERT JUMPDEST POP PUSH2 0xFB PUSH1 0x6 SLOAD DUP2 JUMP JUMPDEST CALLVALUE DUP1 ISZERO PUSH2 0x141 JUMPI PUSH1 0x0 DUP1 REVERT JUMPDEST POP PUSH2 0xFB PUSH1 0x4 SLOAD DUP2 JUMP JUMPDEST CALLVALUE DUP1 ISZERO PUSH2 0x157 JUMPI PUSH1 0x0 DUP1 REVERT JUMPDEST POP PUSH2 0xFB PUSH1 0x5 SLOAD DUP2 JUMP JUMPDEST CALLVALUE DUP1 ISZERO PUSH2 0x16D JUMPI PUSH1 0x0 DUP1 REVERT JUMPDEST POP PUSH2 0x191 PUSH2 0x17C CALLDATASIZE PUSH1 0x4 PUSH2 0x492 JUMP JUMPDEST PUSH1 0x0 PUSH1 0x20 DUP2 SWAP1 MSTORE SWAP1 DUP2 MSTORE PUSH1 0x40 SWAP1 KECCAK256 SLOAD PUSH1 0xFF AND DUP2 JUMP JUMPDEST PUSH1 0x40 MLOAD PUSH2 0xDC SWAP2 SWAP1 PUSH2 0x4C3 JUMP JUMPDEST CALLVALUE DUP1 ISZERO PUSH2 0x1AA JUMPI PUSH1 0x0 DUP1 REVERT JUMPDEST POP PUSH1 0x2 SLOAD PUSH2 0x1CB SWAP1 PUSH20 0xFFFFFFFFFFFFFFFFFFFFFFFFFFFFFFFFFFFFFFFF AND DUP2 JUMP JUMPDEST PUSH1 0x40 MLOAD PUSH2 0xDC SWAP2 SWAP1 PUSH2 0x50E JUMP JUMPDEST CALLER PUSH1 0x0 SWAP1 DUP2 MSTORE PUSH1 0x20 DUP2 SWAP1 MSTORE PUSH1 0x40 SWAP1 KECCAK256 SLOAD PUSH1 0xFF AND ISZERO PUSH2 0x22B JUMPI PUSH1 0x40 MLOAD PUSH32 0x8C379A000000000000000000000000000000000000000000000000000000000 DUP2 MSTORE PUSH1 0x4 ADD PUSH2 0x222 SWAP1 PUSH2 0x51C JUMP JUMPDEST PUSH1 0x40 MLOAD DUP1 SWAP2 SUB SWAP1 REVERT JUMPDEST PUSH1 0x0 PUSH1 0x1 SLOAD PUSH1 0x6 SLOAD PUSH2 0x23D SWAP2 SWAP1 PUSH2 0x5AC JUMP JUMPDEST SWAP1 POP PUSH1 0x0 PUSH1 0x1 SLOAD PUSH1 0x4 SLOAD PUSH2 0x251 SWAP2 SWAP1 PUSH2 0x5AC JUMP JUMPDEST PUSH1 0x2 SLOAD PUSH1 0x3 SLOAD PUSH1 0x40 MLOAD PUSH32 0x23B872DD00000000000000000000000000000000000000000000000000000000 DUP2 MSTORE SWAP3 SWAP4 POP PUSH20 0xFFFFFFFFFFFFFFFFFFFFFFFFFFFFFFFFFFFFFFFF SWAP2 DUP3 AND SWAP3 PUSH4 0x23B872DD SWAP3 PUSH2 0x2B1 SWAP3 AND SWAP1 CALLER SWAP1 DUP8 SWAP1 PUSH1 0x4 ADD PUSH2 0x5C0 JUMP JUMPDEST PUSH1 0x20 PUSH1 0x40 MLOAD DUP1 DUP4 SUB DUP2 PUSH1 0x0 DUP8 DUP1 EXTCODESIZE ISZERO DUP1 ISZERO PUSH2 0x2CB JUMPI PUSH1 0x0 DUP1 REVERT JUMPDEST POP GAS CALL ISZERO DUP1 ISZERO PUSH2 0x2DF JUMPI RETURNDATASIZE PUSH1 0x0 DUP1 RETURNDATACOPY RETURNDATASIZE PUSH1 0x0 REVERT JUMPDEST POP POP POP POP PUSH1 0x40 MLOAD RETURNDATASIZE PUSH1 0x1F NOT PUSH1 0x1F DUP3 ADD AND DUP3 ADD DUP1 PUSH1 0x40 MSTORE POP DUP2 ADD SWAP1 PUSH2 0x303 SWAP2 SWAP1 PUSH2 0x5FB JUMP JUMPDEST POP PUSH1 0x40 MLOAD CALLER SWAP1 DUP3 ISZERO PUSH2 0x8FC MUL SWAP1 DUP4 SWAP1 PUSH1 0x0 DUP2 DUP2 DUP2 DUP6 DUP9 DUP9 CALL SWAP4 POP POP POP POP ISZERO DUP1 ISZERO PUSH2 0x331 JUMPI RETURNDATASIZE PUSH1 0x0 DUP1 RETURNDATACOPY RETURNDATASIZE PUSH1 0x0 REVERT JUMPDEST POP PUSH1 0x1 DUP1 PUSH1 0x0 DUP3 DUP3 SLOAD PUSH2 0x344 SWAP2 SWAP1 PUSH2 0x61C JUMP JUMPDEST SWAP3 POP POP DUP2 SWAP1 SSTORE POP DUP1 PUSH1 0x4 PUSH1 0x0 DUP3 DUP3 SLOAD PUSH2 0x35D SWAP2 SWAP1 PUSH2 0x61C JUMP JUMPDEST SWAP1 SWAP2 SSTORE POP POP CALLER PUSH1 0x0 DUP2 DUP2 MSTORE PUSH1 0x20 DUP2 SWAP1 MSTORE PUSH1 0x40 SWAP1 DUP2 SWAP1 KECCAK256 DUP1 SLOAD PUSH32 0xFFFFFFFFFFFFFFFFFFFFFFFFFFFFFFFFFFFFFFFFFFFFFFFFFFFFFFFFFFFFFF00 AND PUSH1 0x1 OR SWAP1 SSTORE MLOAD PUSH32 0x987D620F307FF6B94D58743CB7A7509F24071586A77759B77C2D4E29F75A2F9A SWAP2 PUSH2 0x3CC SWAP2 DUP6 SWAP1 DUP6 SWAP1 PUSH2 0x633 JUMP JUMPDEST PUSH1 0x40 MLOAD DUP1 SWAP2 SUB SWAP1 LOG1 POP POP JUMP JUMPDEST PUSH32 0x4E487B7100000000000000000000000000000000000000000000000000000000 PUSH1 0x0 MSTORE PUSH1 0x11 PUSH1 0x4 MSTORE PUSH1 0x24 PUSH1 0x0 REVERT JUMPDEST PUSH1 0x0 DUP3 NOT DUP3 GT ISZERO PUSH2 0x41A JUMPI PUSH2 0x41A PUSH2 0x3D8 JUMP JUMPDEST POP ADD SWAP1 JUMP JUMPDEST PUSH1 0x0 PUSH20 0xFFFFFFFFFFFFFFFFFFFFFFFFFFFFFFFFFFFFFFFF DUP3 AND JUMPDEST SWAP3 SWAP2 POP POP JUMP JUMPDEST PUSH2 0x448 DUP2 PUSH2 0x41F JUMP JUMPDEST DUP3 MSTORE POP POP JUMP JUMPDEST PUSH1 0x20 DUP2 ADD PUSH2 0x439 DUP3 DUP5 PUSH2 0x43F JUMP JUMPDEST DUP1 PUSH2 0x448 JUMP JUMPDEST PUSH1 0x20 DUP2 ADD PUSH2 0x439 DUP3 DUP5 PUSH2 0x45C JUMP JUMPDEST PUSH2 0x479 DUP2 PUSH2 0x41F JUMP JUMPDEST DUP2 EQ PUSH2 0x484 JUMPI PUSH1 0x0 DUP1 REVERT JUMPDEST POP JUMP JUMPDEST DUP1 CALLDATALOAD PUSH2 0x439 DUP2 PUSH2 0x470 JUMP JUMPDEST PUSH1 0x0 PUSH1 0x20 DUP3 DUP5 SUB SLT ISZERO PUSH2 0x4A7 JUMPI PUSH2 0x4A7 PUSH1 0x0 DUP1 REVERT JUMPDEST PUSH1 0x0 PUSH2 0x4B3 DUP5 DUP5 PUSH2 0x487 JUMP JUMPDEST SWAP5 SWAP4 POP POP POP POP JUMP JUMPDEST DUP1 ISZERO ISZERO PUSH2 0x448 JUMP JUMPDEST PUSH1 0x20 DUP2 ADD PUSH2 0x439 DUP3 DUP5 PUSH2 0x4BB JUMP JUMPDEST PUSH1 0x0 PUSH20 0xFFFFFFFFFFFFFFFFFFFFFFFFFFFFFFFFFFFFFFFF DUP3 AND PUSH2 0x439 JUMP JUMPDEST PUSH1 0x0 PUSH2 0x439 DUP3 PUSH2 0x4D1 JUMP JUMPDEST PUSH1 0x0 PUSH2 0x439 DUP3 PUSH2 0x4EF JUMP JUMPDEST PUSH2 0x448 DUP2 PUSH2 0x4FA JUMP JUMPDEST PUSH1 0x20 DUP2 ADD PUSH2 0x439 DUP3 DUP5 PUSH2 0x505 JUMP JUMPDEST PUSH1 0x20 DUP1 DUP3 MSTORE DUP2 ADD PUSH2 0x439 DUP2 PUSH1 0x24 DUP2 MSTORE PUSH32 0x596F75206861766520616C726561647920636C61696D656420796F7572207368 PUSH1 0x20 DUP3 ADD MSTORE PUSH32 0x6172652100000000000000000000000000000000000000000000000000000000 PUSH1 0x40 DUP3 ADD MSTORE PUSH1 0x60 ADD SWAP1 JUMP JUMPDEST PUSH32 0x4E487B7100000000000000000000000000000000000000000000000000000000 PUSH1 0x0 MSTORE PUSH1 0x12 PUSH1 0x4 MSTORE PUSH1 0x24 PUSH1 0x0 REVERT JUMPDEST PUSH1 0x0 DUP3 PUSH2 0x5BB JUMPI PUSH2 0x5BB PUSH2 0x57D JUMP JUMPDEST POP DIV SWAP1 JUMP JUMPDEST PUSH1 0x60 DUP2 ADD PUSH2 0x5CE DUP3 DUP7 PUSH2 0x43F JUMP JUMPDEST PUSH2 0x5DB PUSH1 0x20 DUP4 ADD DUP6 PUSH2 0x43F JUMP JUMPDEST PUSH2 0x4B3 PUSH1 0x40 DUP4 ADD DUP5 PUSH2 0x45C JUMP JUMPDEST DUP1 ISZERO ISZERO PUSH2 0x479 JUMP JUMPDEST DUP1 MLOAD PUSH2 0x439 DUP2 PUSH2 0x5E8 JUMP JUMPDEST PUSH1 0x0 PUSH1 0x20 DUP3 DUP5 SUB SLT ISZERO PUSH2 0x610 JUMPI PUSH2 0x610 PUSH1 0x0 DUP1 REVERT JUMPDEST PUSH1 0x0 PUSH2 0x4B3 DUP5 DUP5 PUSH2 0x5F0 JUMP JUMPDEST PUSH1 0x0 DUP3 DUP3 LT ISZERO PUSH2 0x62E JUMPI PUSH2 0x62E PUSH2 0x3D8 JUMP JUMPDEST POP SUB SWAP1 JUMP JUMPDEST PUSH1 0x60 DUP2 ADD PUSH2 0x641 DUP3 DUP7 PUSH2 0x43F JUMP JUMPDEST PUSH2 0x5DB PUSH1 0x20 DUP4 ADD DUP6 PUSH2 0x45C JUMP INVALID LOG2 PUSH5 0x6970667358 0x22 SLT KECCAK256 PUSH24 0x98243E95B59307F5D0B11EDD70B932E0C258ABF4BEAAD25B 0xE6 0xE9 0x27 0xCF 0x4E 0x4E 0xBD PUSH5 0x736F6C6343 STOP ADDMOD MULMOD STOP CALLER LOG2 PUSH5 0x6970667358 0x22 SLT KECCAK256 0xCD 0xD4 DUP6 PUSH8 0xDEFD9FC8F1C65B13 0x25 SWAP5 SHR MOD CALL 0x29 LOG2 SWAP5 SWAP2 TIMESTAMP PC CALLDATALOAD SUB CALLER SWAP11 0xBD 0x27 0xF9 NUMBER 0x21 PUSH5 0x736F6C6343 STOP ADDMOD MULMOD STOP CALLER "},"methodIdentifiers":{"blueTeam()":"740e820d","blueTeamMembers(address)":"4f489743","blueTeamTokens(address)":"b93e6788","concludeRound()":"d4114afb","greenTeam()":"ed0bee5c","greenTeamMembers(address)":"f7586795","greenTeamTokens(address)":"0eb5b32b","joinBlueTeam()":"73d726d0","joinGreenTeam()":"50444476","joinRedTeam()":"24305229","joinYellowTeam()":"1aee4ea3","leaveBlueTeam()":"31e1afa7","leaveGreenTeam()":"712981e4","leaveRedTeam()":"f1348ba6","leaveYellowTeam()":"e201cf4c","owner()":"8da5cb5b","pot()":"4ba2363a","price()":"a035b1fe","purchaseKey(uint256)":"567bcf13","recentFanout1()":"5d0864a7","recentFanout2()":"fdd4a317","recentFanout3()":"af91cdc1","recentFanout4()":"2fff91c9","redTeam()":"198c6845","redTeamMembers(address)":"49e0a8ea","redTeamTokens(address)":"41eb4f82","setTeams(address,address,address,address)":"a5e2fb5b","stakeBlueTeamTokens(uint256,uint256,uint256)":"301f9e80","stakeBlueTeamTokensDef(uint256,uint256,uint256)":"ecd84163","stakeGreenTeamTokens(uint256,uint256,uint256)":"7df72a66","stakeGreenTeamTokensDef(uint256,uint256,uint256)":"8f8022e3","stakeRedTeamTokens(uint256,uint256,uint256)":"c4a97fce","stakeRedTeamTokensDef(uint256,uint256,uint256)":"3d9553ee","stakeYellowTeamTokens(uint256,uint256,uint256)":"2a18c2fa","stakeYellowTeamTokensDef(uint256,uint256,uint256)":"eb94893b","timer()":"88c9cb3c","withdraw()":"3ccfd60b","yellowTeam()":"dca32f5a","yellowTeamMembers(address)":"24ba7e3d","yellowTeamTokens(address)":"6d4885d1"}}}}}