{"contracts/fanout.sol":{"Fanout":{"abi":[{"inputs":[{"internalType":"address","name":"_tokenAddress","type":"address"},{"internalType":"address","name":"_burnerAddress","type":"address"},{"internalType":"uint256","name":"_totalShares","type":"uint256"},{"internalType":"uint256","name":"_tokBalance","type":"uint256"}],"stateMutability":"nonpayable","type":"constructor"},{"anonymous":false,"inputs":[{"indexed":false,"internalType":"address","name":"user","type":"address"},{"indexed":false,"internalType":"uint256","name":"tokenShares","type":"uint256"},{"indexed":false,"internalType":"uint256","name":"etherShares","type":"uint256"}],"name":"Claimed","type":"event"},{"inputs":[],"name":"balance","outputs":[{"internalType":"uint256","name":"","type":"uint256"}],"stateMutability":"view","type":"function"},{"inputs":[],"name":"burner","outputs":[{"internalType":"address","name":"","type":"address"}],"stateMutability":"view","type":"function"},{"inputs":[],"name":"claim","outputs":[],"stateMutability":"nonpayable","type":"function"},{"inputs":[{"internalType":"address","name":"","type":"address"}],"name":"claimed","outputs":[{"internalType":"bool","name":"","type":"bool"}],"stateMutability":"view","type":"function"},{"inputs":[],"name":"tokBalance","outputs":[{"internalType":"uint256","name":"","type":"uint256"}],"stateMutability":"view","type":"function"},{"inputs":[],"name":"tokBalanceo","outputs":[{"internalType":"uint256","name":"","type":"uint256"}],"stateMutability":"view","type":"function"},{"inputs":[],"name":"token","outputs":[{"internalType":"contract ERC20Burnable","name":"","type":"address"}],"stateMutability":"view","type":"function"},{"inputs":[],"name":"totalShares","outputs":[{"internalType":"uint256","name":"","type":"uint256"}],"stateMutability":"view","type":"function"},{"stateMutability":"payable","type":"receive"}],"evm":{"bytecode":{"linkReferences":{},"object":"608060405234801561001057600080fd5b506040516107ae3803806107ae83398101604081905261002f916100b7565b6001919091556005819055600655600380546001600160a01b039283166001600160a01b0319918216179091556002805493909216921691909117905561011b565b60006001600160a01b0382165b92915050565b61008d81610071565b811461009857600080fd5b50565b805161007e81610084565b8061008d565b805161007e816100a6565b600080600080608085870312156100d0576100d0600080fd5b60006100dc878761009b565b94505060206100ed8782880161009b565b93505060406100fe878288016100ac565b925050606061010f878288016100ac565b91505092959194509250565b6106848061012a6000396000f3fe60806040526004361061007f5760003560e01c8063b69ef8a81161004e578063b69ef8a814610135578063c53793171461014b578063c884ef8314610161578063fc0c546a1461019e57600080fd5b806327810b6e146100a25780633a98ef39146100e55780634e71d92d14610108578063b0cf01961461011f57600080fd5b3661009d5734600460008282546100969190610407565b9091555050005b600080fd5b3480156100ae57600080fd5b506003546100cf9073ffffffffffffffffffffffffffffffffffffffff1681565b6040516100dc919061044e565b60405180910390f35b3480156100f157600080fd5b506100fb60015481565b6040516100dc9190610462565b34801561011457600080fd5b5061011d6101d8565b005b34801561012b57600080fd5b506100fb60065481565b34801561014157600080fd5b506100fb60045481565b34801561015757600080fd5b506100fb60055481565b34801561016d57600080fd5b5061019161017c366004610492565b60006020819052908152604090205460ff1681565b6040516100dc91906104c3565b3480156101aa57600080fd5b506002546101cb9073ffffffffffffffffffffffffffffffffffffffff1681565b6040516100dc919061050e565b3360009081526020819052604090205460ff161561022b576040517f08c379a00000000000000000000000000000000000000000000000000000000081526004016102229061051c565b60405180910390fd5b600060015460065461023d91906105ac565b9050600060015460045461025191906105ac565b6002546003546040517f23b872dd00000000000000000000000000000000000000000000000000000000815292935073ffffffffffffffffffffffffffffffffffffffff918216926323b872dd926102b1921690339087906004016105c0565b602060405180830381600087803b1580156102cb57600080fd5b505af11580156102df573d6000803e3d6000fd5b505050506040513d601f19601f8201168201806040525081019061030391906105fb565b50604051339082156108fc029083906000818181858888f19350505050158015610331573d6000803e3d6000fd5b506001806000828254610344919061061c565b92505081905550806004600082825461035d919061061c565b9091555050336000818152602081905260409081902080547fffffffffffffffffffffffffffffffffffffffffffffffffffffffffffffff00166001179055517f987d620f307ff6b94d58743cb7a7509f24071586a77759b77c2d4e29f75a2f9a916103cc9185908590610633565b60405180910390a15050565b7f4e487b7100000000000000000000000000000000000000000000000000000000600052601160045260246000fd5b6000821982111561041a5761041a6103d8565b500190565b600073ffffffffffffffffffffffffffffffffffffffff82165b92915050565b6104488161041f565b82525050565b60208101610439828461043f565b80610448565b60208101610439828461045c565b6104798161041f565b811461048457600080fd5b50565b803561043981610470565b6000602082840312156104a7576104a7600080fd5b60006104b38484610487565b949350505050565b801515610448565b6020810161043982846104bb565b600073ffffffffffffffffffffffffffffffffffffffff8216610439565b6000610439826104d1565b6000610439826104ef565b610448816104fa565b602081016104398284610505565b6020808252810161043981602481527f596f75206861766520616c726561647920636c61696d656420796f757220736860208201527f6172652100000000000000000000000000000000000000000000000000000000604082015260600190565b7f4e487b7100000000000000000000000000000000000000000000000000000000600052601260045260246000fd5b6000826105bb576105bb61057d565b500490565b606081016105ce828661043f565b6105db602083018561043f565b6104b3604083018461045c565b801515610479565b8051610439816105e8565b60006020828403121561061057610610600080fd5b60006104b384846105f0565b60008282101561062e5761062e6103d8565b500390565b60608101610641828661043f565b6105db602083018561045c56fea26469706673582212207798243e95b59307f5d0b11edd70b932e0c258abf4beaad25be6e927cf4e4ebd64736f6c63430008090033","opcodes":"PUSH1 0x80 PUSH1 0x40 MSTORE CALLVALUE DUP1 ISZERO PUSH2 0x10 JUMPI PUSH1 0x0 DUP1 REVERT JUMPDEST POP PUSH1 0x40 MLOAD PUSH2 0x7AE CODESIZE SUB DUP1 PUSH2 0x7AE DUP4 CODECOPY DUP2 ADD PUSH1 0x40 DUP2 SWAP1 MSTORE PUSH2 0x2F SWAP2 PUSH2 0xB7 JUMP JUMPDEST PUSH1 0x1 SWAP2 SWAP1 SWAP2 SSTORE PUSH1 0x5 DUP2 SWAP1 SSTORE PUSH1 0x6 SSTORE PUSH1 0x3 DUP1 SLOAD PUSH1 0x1 PUSH1 0x1 PUSH1 0xA0 SHL SUB SWAP3 DUP4 AND PUSH1 0x1 PUSH1 0x1 PUSH1 0xA0 SHL SUB NOT SWAP2 DUP3 AND OR SWAP1 SWAP2 SSTORE PUSH1 0x2 DUP1 SLOAD SWAP4 SWAP1 SWAP3 AND SWAP3 AND SWAP2 SWAP1 SWAP2 OR SWAP1 SSTORE PUSH2 0x11B JUMP JUMPDEST PUSH1 0x0 PUSH1 0x1 PUSH1 0x1 PUSH1 0xA0 SHL SUB DUP3 AND JUMPDEST SWAP3 SWAP2 POP POP JUMP JUMPDEST PUSH2 0x8D DUP2 PUSH2 0x71 JUMP JUMPDEST DUP2 EQ PUSH2 0x98 JUMPI PUSH1 0x0 DUP1 REVERT JUMPDEST POP JUMP JUMPDEST DUP1 MLOAD PUSH2 0x7E DUP2 PUSH2 0x84 JUMP JUMPDEST DUP1 PUSH2 0x8D JUMP JUMPDEST DUP1 MLOAD PUSH2 0x7E DUP2 PUSH2 0xA6 JUMP JUMPDEST PUSH1 0x0 DUP1 PUSH1 0x0 DUP1 PUSH1 0x80 DUP6 DUP8 SUB SLT ISZERO PUSH2 0xD0 JUMPI PUSH2 0xD0 PUSH1 0x0 DUP1 REVERT JUMPDEST PUSH1 0x0 PUSH2 0xDC DUP8 DUP8 PUSH2 0x9B JUMP JUMPDEST SWAP5 POP POP PUSH1 0x20 PUSH2 0xED DUP8 DUP3 DUP9 ADD PUSH2 0x9B JUMP JUMPDEST SWAP4 POP POP PUSH1 0x40 PUSH2 0xFE DUP8 DUP3 DUP9 ADD PUSH2 0xAC JUMP JUMPDEST SWAP3 POP POP PUSH1 0x60 PUSH2 0x10F DUP8 DUP3 DUP9 ADD PUSH2 0xAC JUMP JUMPDEST SWAP2 POP POP SWAP3 SWAP6 SWAP2 SWAP5 POP SWAP3 POP JUMP JUMPDEST PUSH2 0x684 DUP1 PUSH2 0x12A PUSH1 0x0 CODECOPY PUSH1 0x0 RETURN INVALID PUSH1 0x80 PUSH1 0x40 MSTORE PUSH1 0x4 CALLDATASIZE LT PUSH2 0x7F JUMPI PUSH1 0x0 CALLDATALOAD PUSH1 0xE0 SHR DUP1 PUSH4 0xB69EF8A8 GT PUSH2 0x4E JUMPI DUP1 PUSH4 0xB69EF8A8 EQ PUSH2 0x135 JUMPI DUP1 PUSH4 0xC5379317 EQ PUSH2 0x14B JUMPI DUP1 PUSH4 0xC884EF83 EQ PUSH2 0x161 JUMPI DUP1 PUSH4 0xFC0C546A EQ PUSH2 0x19E JUMPI PUSH1 0x0 DUP1 REVERT JUMPDEST DUP1 PUSH4 0x27810B6E EQ PUSH2 0xA2 JUMPI DUP1 PUSH4 0x3A98EF39 EQ PUSH2 0xE5 JUMPI DUP1 PUSH4 0x4E71D92D EQ PUSH2 0x108 JUMPI DUP1 PUSH4 0xB0CF0196 EQ PUSH2 0x11F JUMPI PUSH1 0x0 DUP1 REVERT JUMPDEST CALLDATASIZE PUSH2 0x9D JUMPI CALLVALUE PUSH1 0x4 PUSH1 0x0 DUP3 DUP3 SLOAD PUSH2 0x96 SWAP2 SWAP1 PUSH2 0x407 JUMP JUMPDEST SWAP1 SWAP2 SSTORE POP POP STOP JUMPDEST PUSH1 0x0 DUP1 REVERT JUMPDEST CALLVALUE DUP1 ISZERO PUSH2 0xAE JUMPI PUSH1 0x0 DUP1 REVERT JUMPDEST POP PUSH1 0x3 SLOAD PUSH2 0xCF SWAP1 PUSH20 0xFFFFFFFFFFFFFFFFFFFFFFFFFFFFFFFFFFFFFFFF AND DUP2 JUMP JUMPDEST PUSH1 0x40 MLOAD PUSH2 0xDC SWAP2 SWAP1 PUSH2 0x44E JUMP JUMPDEST PUSH1 0x40 MLOAD DUP1 SWAP2 SUB SWAP1 RETURN JUMPDEST CALLVALUE DUP1 ISZERO PUSH2 0xF1 JUMPI PUSH1 0x0 DUP1 REVERT JUMPDEST POP PUSH2 0xFB PUSH1 0x1 SLOAD DUP2 JUMP JUMPDEST PUSH1 0x40 MLOAD PUSH2 0xDC SWAP2 SWAP1 PUSH2 0x462 JUMP JUMPDEST CALLVALUE DUP1 ISZERO PUSH2 0x114 JUMPI PUSH1 0x0 DUP1 REVERT JUMPDEST POP PUSH2 0x11D PUSH2 0x1D8 JUMP JUMPDEST STOP JUMPDEST CALLVALUE DUP1 ISZERO PUSH2 0x12B JUMPI PUSH1 0x0 DUP1 REVERT JUMPDEST POP PUSH2 0xFB PUSH1 0x6 SLOAD DUP2 JUMP JUMPDEST CALLVALUE DUP1 ISZERO PUSH2 0x141 JUMPI PUSH1 0x0 DUP1 REVERT JUMPDEST POP PUSH2 0xFB PUSH1 0x4 SLOAD DUP2 JUMP JUMPDEST CALLVALUE DUP1 ISZERO PUSH2 0x157 JUMPI PUSH1 0x0 DUP1 REVERT JUMPDEST POP PUSH2 0xFB PUSH1 0x5 SLOAD DUP2 JUMP JUMPDEST CALLVALUE DUP1 ISZERO PUSH2 0x16D JUMPI PUSH1 0x0 DUP1 REVERT JUMPDEST POP PUSH2 0x191 PUSH2 0x17C CALLDATASIZE PUSH1 0x4 PUSH2 0x492 JUMP JUMPDEST PUSH1 0x0 PUSH1 0x20 DUP2 SWAP1 MSTORE SWAP1 DUP2 MSTORE PUSH1 0x40 SWAP1 KECCAK256 SLOAD PUSH1 0xFF AND DUP2 JUMP JUMPDEST PUSH1 0x40 MLOAD PUSH2 0xDC SWAP2 SWAP1 PUSH2 0x4C3 JUMP JUMPDEST CALLVALUE DUP1 ISZERO PUSH2 0x1AA JUMPI PUSH1 0x0 DUP1 REVERT JUMPDEST POP PUSH1 0x2 SLOAD PUSH2 0x1CB SWAP1 PUSH20 0xFFFFFFFFFFFFFFFFFFFFFFFFFFFFFFFFFFFFFFFF AND DUP2 JUMP JUMPDEST PUSH1 0x40 MLOAD PUSH2 0xDC SWAP2 SWAP1 PUSH2 0x50E JUMP JUMPDEST CALLER PUSH1 0x0 SWAP1 DUP2 MSTORE PUSH1 0x20 DUP2 SWAP1 MSTORE PUSH1 0x40 SWAP1 KECCAK256 SLOAD PUSH1 0xFF AND ISZERO PUSH2 0x22B JUMPI PUSH1 0x40 MLOAD PUSH32 0x8C379A000000000000000000000000000000000000000000000000000000000 DUP2 MSTORE PUSH1 0x4 ADD PUSH2 0x222 SWAP1 PUSH2 0x51C JUMP JUMPDEST PUSH1 0x40 MLOAD DUP1 SWAP2 SUB SWAP1 REVERT JUMPDEST PUSH1 0x0 PUSH1 0x1 SLOAD PUSH1 0x6 SLOAD PUSH2 0x23D SWAP2 SWAP1 PUSH2 0x5AC JUMP JUMPDEST SWAP1 POP PUSH1 0x0 PUSH1 0x1 SLOAD PUSH1 0x4 SLOAD PUSH2 0x251 SWAP2 SWAP1 PUSH2 0x5AC JUMP JUMPDEST PUSH1 0x2 SLOAD PUSH1 0x3 SLOAD PUSH1 0x40 MLOAD PUSH32 0x23B872DD00000000000000000000000000000000000000000000000000000000 DUP2 MSTORE SWAP3 SWAP4 POP PUSH20 0xFFFFFFFFFFFFFFFFFFFFFFFFFFFFFFFFFFFFFFFF SWAP2 DUP3 AND SWAP3 PUSH4 0x23B872DD SWAP3 PUSH2 0x2B1 SWAP3 AND SWAP1 CALLER SWAP1 DUP8 SWAP1 PUSH1 0x4 ADD PUSH2 0x5C0 JUMP JUMPDEST PUSH1 0x20 PUSH1 0x40 MLOAD DUP1 DUP4 SUB DUP2 PUSH1 0x0 DUP8 DUP1 EXTCODESIZE ISZERO DUP1 ISZERO PUSH2 0x2CB JUMPI PUSH1 0x0 DUP1 REVERT JUMPDEST POP GAS CALL ISZERO DUP1 ISZERO PUSH2 0x2DF JUMPI RETURNDATASIZE PUSH1 0x0 DUP1 RETURNDATACOPY RETURNDATASIZE PUSH1 0x0 REVERT JUMPDEST POP POP POP POP PUSH1 0x40 MLOAD RETURNDATASIZE PUSH1 0x1F NOT PUSH1 0x1F DUP3 ADD AND DUP3 ADD DUP1 PUSH1 0x40 MSTORE POP DUP2 ADD SWAP1 PUSH2 0x303 SWAP2 SWAP1 PUSH2 0x5FB JUMP JUMPDEST POP PUSH1 0x40 MLOAD CALLER SWAP1 DUP3 ISZERO PUSH2 0x8FC MUL SWAP1 DUP4 SWAP1 PUSH1 0x0 DUP2 DUP2 DUP2 DUP6 DUP9 DUP9 CALL SWAP4 POP POP POP POP ISZERO DUP1 ISZERO PUSH2 0x331 JUMPI RETURNDATASIZE PUSH1 0x0 DUP1 RETURNDATACOPY RETURNDATASIZE PUSH1 0x0 REVERT JUMPDEST POP PUSH1 0x1 DUP1 PUSH1 0x0 DUP3 DUP3 SLOAD PUSH2 0x344 SWAP2 SWAP1 PUSH2 0x61C JUMP JUMPDEST SWAP3 POP POP DUP2 SWAP1 SSTORE POP DUP1 PUSH1 0x4 PUSH1 0x0 DUP3 DUP3 SLOAD PUSH2 0x35D SWAP2 SWAP1 PUSH2 0x61C JUMP JUMPDEST SWAP1 SWAP2 SSTORE POP POP CALLER PUSH1 0x0 DUP2 DUP2 MSTORE PUSH1 0x20 DUP2 SWAP1 MSTORE PUSH1 0x40 SWAP1 DUP2 SWAP1 KECCAK256 DUP1 SLOAD PUSH32 0xFFFFFFFFFFFFFFFFFFFFFFFFFFFFFFFFFFFFFFFFFFFFFFFFFFFFFFFFFFFFFF00 AND PUSH1 0x1 OR SWAP1 SSTORE MLOAD PUSH32 0x987D620F307FF6B94D58743CB7A7509F24071586A77759B77C2D4E29F75A2F9A SWAP2 PUSH2 0x3CC SWAP2 DUP6 SWAP1 DUP6 SWAP1 PUSH2 0x633 JUMP JUMPDEST PUSH1 0x40 MLOAD DUP1 SWAP2 SUB SWAP1 LOG1 POP POP JUMP JUMPDEST PUSH32 0x4E487B7100000000000000000000000000000000000000000000000000000000 PUSH1 0x0 MSTORE PUSH1 0x11 PUSH1 0x4 MSTORE PUSH1 0x24 PUSH1 0x0 REVERT JUMPDEST PUSH1 0x0 DUP3 NOT DUP3 GT ISZERO PUSH2 0x41A JUMPI PUSH2 0x41A PUSH2 0x3D8 JUMP JUMPDEST POP ADD SWAP1 JUMP JUMPDEST PUSH1 0x0 PUSH20 0xFFFFFFFFFFFFFFFFFFFFFFFFFFFFFFFFFFFFFFFF DUP3 AND JUMPDEST SWAP3 SWAP2 POP POP JUMP JUMPDEST PUSH2 0x448 DUP2 PUSH2 0x41F JUMP JUMPDEST DUP3 MSTORE POP POP JUMP JUMPDEST PUSH1 0x20 DUP2 ADD PUSH2 0x439 DUP3 DUP5 PUSH2 0x43F JUMP JUMPDEST DUP1 PUSH2 0x448 JUMP JUMPDEST PUSH1 0x20 DUP2 ADD PUSH2 0x439 DUP3 DUP5 PUSH2 0x45C JUMP JUMPDEST PUSH2 0x479 DUP2 PUSH2 0x41F JUMP JUMPDEST DUP2 EQ PUSH2 0x484 JUMPI PUSH1 0x0 DUP1 REVERT JUMPDEST POP JUMP JUMPDEST DUP1 CALLDATALOAD PUSH2 0x439 DUP2 PUSH2 0x470 JUMP JUMPDEST PUSH1 0x0 PUSH1 0x20 DUP3 DUP5 SUB SLT ISZERO PUSH2 0x4A7 JUMPI PUSH2 0x4A7 PUSH1 0x0 DUP1 REVERT JUMPDEST PUSH1 0x0 PUSH2 0x4B3 DUP5 DUP5 PUSH2 0x487 JUMP JUMPDEST SWAP5 SWAP4 POP POP POP POP JUMP JUMPDEST DUP1 ISZERO ISZERO PUSH2 0x448 JUMP JUMPDEST PUSH1 0x20 DUP2 ADD PUSH2 0x439 DUP3 DUP5 PUSH2 0x4BB JUMP JUMPDEST PUSH1 0x0 PUSH20 0xFFFFFFFFFFFFFFFFFFFFFFFFFFFFFFFFFFFFFFFF DUP3 AND PUSH2 0x439 JUMP JUMPDEST PUSH1 0x0 PUSH2 0x439 DUP3 PUSH2 0x4D1 JUMP JUMPDEST PUSH1 0x0 PUSH2 0x439 DUP3 PUSH2 0x4EF JUMP JUMPDEST PUSH2 0x448 DUP2 PUSH2 0x4FA JUMP JUMPDEST PUSH1 0x20 DUP2 ADD PUSH2 0x439 DUP3 DUP5 PUSH2 0x505 JUMP JUMPDEST PUSH1 0x20 DUP1 DUP3 MSTORE DUP2 ADD PUSH2 0x439 DUP2 PUSH1 0x24 DUP2 MSTORE PUSH32 0x596F75206861766520616C726561647920636C61696D656420796F7572207368 PUSH1 0x20 DUP3 ADD MSTORE PUSH32 0x6172652100000000000000000000000000000000000000000000000000000000 PUSH1 0x40 DUP3 ADD MSTORE PUSH1 0x60 ADD SWAP1 JUMP JUMPDEST PUSH32 0x4E487B7100000000000000000000000000000000000000000000000000000000 PUSH1 0x0 MSTORE PUSH1 0x12 PUSH1 0x4 MSTORE PUSH1 0x24 PUSH1 0x0 REVERT JUMPDEST PUSH1 0x0 DUP3 PUSH2 0x5BB JUMPI PUSH2 0x5BB PUSH2 0x57D JUMP JUMPDEST POP DIV SWAP1 JUMP JUMPDEST PUSH1 0x60 DUP2 ADD PUSH2 0x5CE DUP3 DUP7 PUSH2 0x43F JUMP JUMPDEST PUSH2 0x5DB PUSH1 0x20 DUP4 ADD DUP6 PUSH2 0x43F JUMP JUMPDEST PUSH2 0x4B3 PUSH1 0x40 DUP4 ADD DUP5 PUSH2 0x45C JUMP JUMPDEST DUP1 ISZERO ISZERO PUSH2 0x479 JUMP JUMPDEST DUP1 MLOAD PUSH2 0x439 DUP2 PUSH2 0x5E8 JUMP JUMPDEST PUSH1 0x0 PUSH1 0x20 DUP3 DUP5 SUB SLT ISZERO PUSH2 0x610 JUMPI PUSH2 0x610 PUSH1 0x0 DUP1 REVERT JUMPDEST PUSH1 0x0 PUSH2 0x4B3 DUP5 DUP5 PUSH2 0x5F0 JUMP JUMPDEST PUSH1 0x0 DUP3 DUP3 LT ISZERO PUSH2 0x62E JUMPI PUSH2 0x62E PUSH2 0x3D8 JUMP JUMPDEST POP SUB SWAP1 JUMP JUMPDEST PUSH1 0x60 DUP2 ADD PUSH2 0x641 DUP3 DUP7 PUSH2 0x43F JUMP JUMPDEST PUSH2 0x5DB PUSH1 0x20 DUP4 ADD DUP6 PUSH2 0x45C JUMP INVALID LOG2 PUSH5 0x6970667358 0x22 SLT KECCAK256 PUSH24 0x98243E95B59307F5D0B11EDD70B932E0C258ABF4BEAAD25B 0xE6 0xE9 0x27 0xCF 0x4E 0x4E 0xBD PUSH5 0x736F6C6343 STOP ADDMOD MULMOD STOP CALLER "},"methodIdentifiers":{"balance()":"b69ef8a8","burner()":"27810b6e","claim()":"4e71d92d","claimed(address)":"c884ef83","tokBalance()":"c5379317","tokBalanceo()":"b0cf0196","token()":"fc0c546a","totalShares()":"3a98ef39"}}}}}