{
  "_format": "hh-sol-artifact-1",
  "contractName": "Fanout",
  "sourceName": "contracts/fanout.sol",
  "abi": [
    {
      "inputs": [
        {
          "internalType": "address",
          "name": "_tokenAddress",
          "type": "address"
        },
        {
          "internalType": "address",
          "name": "_burnerAddress",
          "type": "address"
        },
        {
          "internalType": "uint256",
          "name": "_totalShares",
          "type": "uint256"
        },
        {
          "internalType": "uint256",
          "name": "_tokBalance",
          "type": "uint256"
        }
      ],
      "stateMutability": "nonpayable",
      "type": "constructor"
    },
    {
      "anonymous": false,
      "inputs": [
        {
          "indexed": false,
          "internalType": "address",
          "name": "user",
          "type": "address"
        },
        {
          "indexed": false,
          "internalType": "uint256",
          "name": "tokenShares",
          "type": "uint256"
        },
        {
          "indexed": false,
          "internalType": "uint256",
          "name": "etherShares",
          "type": "uint256"
        }
      ],
      "name": "Claimed",
      "type": "event"
    },
    {
      "inputs": [],
      "name": "balance",
      "outputs": [
        {
          "internalType": "uint256",
          "name": "",
          "type": "uint256"
        }
      ],
      "stateMutability": "view",
      "type": "function"
    },
    {
      "inputs": [],
      "name": "burner",
      "outputs": [
        {
          "internalType": "address",
          "name": "",
          "type": "address"
        }
      ],
      "stateMutability": "view",
      "type": "function"
    },
    {
      "inputs": [],
      "name": "claim",
      "outputs": [],
      "stateMutability": "nonpayable",
      "type": "function"
    },
    {
      "inputs": [
        {
          "internalType": "address",
          "name": "",
          "type": "address"
        }
      ],
      "name": "claimed",
      "outputs": [
        {
          "internalType": "bool",
          "name": "",
          "type": "bool"
        }
      ],
      "stateMutability": "view",
      "type": "function"
    },
    {
      "inputs": [],
      "name": "tokBalance",
      "outputs": [
        {
          "internalType": "uint256",
          "name": "",
          "type": "uint256"
        }
      ],
      "stateMutability": "view",
      "type": "function"
    },
    {
      "inputs": [],
      "name": "tokBalanceo",
      "outputs": [
        {
          "internalType": "uint256",
          "name": "",
          "type": "uint256"
        }
      ],
      "stateMutability": "view",
      "type": "function"
    },
    {
      "inputs": [],
      "name": "token",
      "outputs": [
        {
          "internalType": "contract ERC20Burnable",
          "name": "",
          "type": "address"
        }
      ],
      "stateMutability": "view",
      "type": "function"
    },
    {
      "inputs": [],
      "name": "totalShares",
      "outputs": [
        {
          "internalType": "uint256",
          "name": "",
          "type": "uint256"
        }
      ],
      "stateMutability": "view",
      "type": "function"
    },
    {
      "stateMutability": "payable",
      "type": "receive"
    }
  ],
  "bytecode": "0x608060405234801561001057600080fd5b506040516107ae3803806107ae83398101604081905261002f916100b7565b6001919091556005819055600655600380546001600160a01b039283166001600160a01b0319918216179091556002805493909216921691909117905561011b565b60006001600160a01b0382165b92915050565b61008d81610071565b811461009857600080fd5b50565b805161007e81610084565b8061008d565b805161007e816100a6565b600080600080608085870312156100d0576100d0600080fd5b60006100dc878761009b565b94505060206100ed8782880161009b565b93505060406100fe878288016100ac565b925050606061010f878288016100ac565b91505092959194509250565b6106848061012a6000396000f3fe60806040526004361061007f5760003560e01c8063b69ef8a81161004e578063b69ef8a814610135578063c53793171461014b578063c884ef8314610161578063fc0c546a1461019e57600080fd5b806327810b6e146100a25780633a98ef39146100e55780634e71d92d14610108578063b0cf01961461011f57600080fd5b3661009d5734600460008282546100969190610407565b9091555050005b600080fd5b3480156100ae57600080fd5b506003546100cf9073ffffffffffffffffffffffffffffffffffffffff1681565b6040516100dc919061044e565b60405180910390f35b3480156100f157600080fd5b506100fb60015481565b6040516100dc9190610462565b34801561011457600080fd5b5061011d6101d8565b005b34801561012b57600080fd5b506100fb60065481565b34801561014157600080fd5b506100fb60045481565b34801561015757600080fd5b506100fb60055481565b34801561016d57600080fd5b5061019161017c366004610492565b60006020819052908152604090205460ff1681565b6040516100dc91906104c3565b3480156101aa57600080fd5b506002546101cb9073ffffffffffffffffffffffffffffffffffffffff1681565b6040516100dc919061050e565b3360009081526020819052604090205460ff161561022b576040517f08c379a00000000000000000000000000000000000000000000000000000000081526004016102229061051c565b60405180910390fd5b600060015460065461023d91906105ac565b9050600060015460045461025191906105ac565b6002546003546040517f23b872dd00000000000000000000000000000000000000000000000000000000815292935073ffffffffffffffffffffffffffffffffffffffff918216926323b872dd926102b1921690339087906004016105c0565b602060405180830381600087803b1580156102cb57600080fd5b505af11580156102df573d6000803e3d6000fd5b505050506040513d601f19601f8201168201806040525081019061030391906105fb565b50604051339082156108fc029083906000818181858888f19350505050158015610331573d6000803e3d6000fd5b506001806000828254610344919061061c565b92505081905550806004600082825461035d919061061c565b9091555050336000818152602081905260409081902080547fffffffffffffffffffffffffffffffffffffffffffffffffffffffffffffff00166001179055517f987d620f307ff6b94d58743cb7a7509f24071586a77759b77c2d4e29f75a2f9a916103cc9185908590610633565b60405180910390a15050565b7f4e487b7100000000000000000000000000000000000000000000000000000000600052601160045260246000fd5b6000821982111561041a5761041a6103d8565b500190565b600073ffffffffffffffffffffffffffffffffffffffff82165b92915050565b6104488161041f565b82525050565b60208101610439828461043f565b80610448565b60208101610439828461045c565b6104798161041f565b811461048457600080fd5b50565b803561043981610470565b6000602082840312156104a7576104a7600080fd5b60006104b38484610487565b949350505050565b801515610448565b6020810161043982846104bb565b600073ffffffffffffffffffffffffffffffffffffffff8216610439565b6000610439826104d1565b6000610439826104ef565b610448816104fa565b602081016104398284610505565b6020808252810161043981602481527f596f75206861766520616c726561647920636c61696d656420796f757220736860208201527f6172652100000000000000000000000000000000000000000000000000000000604082015260600190565b7f4e487b7100000000000000000000000000000000000000000000000000000000600052601260045260246000fd5b6000826105bb576105bb61057d565b500490565b606081016105ce828661043f565b6105db602083018561043f565b6104b3604083018461045c565b801515610479565b8051610439816105e8565b60006020828403121561061057610610600080fd5b60006104b384846105f0565b60008282101561062e5761062e6103d8565b500390565b60608101610641828661043f565b6105db602083018561045c56fea26469706673582212207798243e95b59307f5d0b11edd70b932e0c258abf4beaad25be6e927cf4e4ebd64736f6c63430008090033",
  "linkReferences": {},
  "deployedLinkReferences": {}
}