{
	"data": {
		"bytecode": {
			"linkReferences": {},
			"object": "60806040526000600455600060055560006006556000600755600060085560006009556000600a556000600b5560006015556000601655600060175560006018553480156200004d57600080fd5b506040516200608d3803806200608d8339810160408190526200007091620000a4565b60008190556010819055600380546001600160a01b031916331790556200009a4261012c620000be565b60025550620000e5565b600060208284031215620000b757600080fd5b5051919050565b60008219821115620000e057634e487b7160e01b600052601160045260246000fd5b500190565b615f9880620000f56000396000f3fe6080604052600436106200026f5760003560e01c806373d726d01162000147578063c4a97fce11620000b9578063ecd841631162000078578063ecd84163146200078f578063ed0bee5c14620007b4578063f1348ba614620007d6578063f758679514620007ee578063fdd4a317146200082257600080fd5b8063c4a97fce14620006f3578063d4114afb1462000718578063dca32f5a1462000730578063e201cf4c1462000752578063eb94893b146200076a57600080fd5b80638f8022e311620001065780638f8022e3146200063e578063a035b1fe1462000663578063a5e2fb5b146200067b578063af91cdc114620006a0578063b93e678814620006c257600080fd5b806373d726d014620005a5578063740e820d14620005bd5780637df72a6614620005df57806388c9cb3c14620006045780638da5cb5b146200061c57600080fd5b80633d9553ee11620001e15780635044447611620001a057806350444476146200050b578063567bcf1314620005235780635d0864a7146200053a5780636d4885d1146200055c578063712981e4146200058d57600080fd5b80633d9553ee146200043557806341eb4f82146200045a57806349e0a8ea146200048b5780634ba2363a14620004bf5780634f48974314620004d757600080fd5b80632a18c2fa116200022e5780632a18c2fa14620003995780632fff91c914620003be578063301f9e8014620003e057806331e1afa714620004055780633ccfd60b146200041d57600080fd5b80630eb5b32b14620002a3578063198c684514620002e75780631aee4ea3146200032257806324305229146200033c57806324ba7e3d146200035457600080fd5b366200029e57600034116200028357600080fd5b346001600082825462000297919062005933565b9091555050005b600080fd5b348015620002b057600080fd5b50620002d4620002c236600462005729565b601b6020526000908152604090205481565b6040519081526020015b60405180910390f35b348015620002f457600080fd5b50600c5462000309906001600160a01b031681565b6040516001600160a01b039091168152602001620002de565b3480156200032f57600080fd5b506200033a62000844565b005b3480156200034957600080fd5b506200033a62000893565b3480156200036157600080fd5b50620003886200037336600462005729565b60146020526000908152604090205460ff1681565b6040519015158152602001620002de565b348015620003a657600080fd5b506200033a620003b83660046200585a565b620008db565b348015620003cb57600080fd5b5060205462000309906001600160a01b031681565b348015620003ed57600080fd5b506200033a620003ff3660046200585a565b62000a1d565b3480156200041257600080fd5b506200033a62000b26565b3480156200042a57600080fd5b506200033a62000b6a565b3480156200044257600080fd5b506200033a620004543660046200585a565b62000bbf565b3480156200046757600080fd5b50620002d46200047936600462005729565b60196020526000908152604090205481565b3480156200049857600080fd5b5062000388620004aa36600462005729565b60116020526000908152604090205460ff1681565b348015620004cc57600080fd5b50620002d460015481565b348015620004e457600080fd5b5062000388620004f636600462005729565b60126020526000908152604090205460ff1681565b3480156200051857600080fd5b506200033a62000cc8565b6200033a6200053436600462005826565b62000d10565b3480156200054757600080fd5b50601d5462000309906001600160a01b031681565b3480156200056957600080fd5b50620002d46200057b36600462005729565b601c6020526000908152604090205481565b3480156200059a57600080fd5b506200033a6200111d565b348015620005b257600080fd5b506200033a62001161565b348015620005ca57600080fd5b50600d5462000309906001600160a01b031681565b348015620005ec57600080fd5b506200033a620005fe3660046200585a565b620011a9565b3480156200061157600080fd5b50620002d460025481565b3480156200062957600080fd5b5060035462000309906001600160a01b031681565b3480156200064b57600080fd5b506200033a6200065d3660046200585a565b620012b2565b3480156200067057600080fd5b50620002d460005481565b3480156200068857600080fd5b506200033a6200069a36600462005750565b6200137c565b348015620006ad57600080fd5b50601f5462000309906001600160a01b031681565b348015620006cf57600080fd5b50620002d4620006e136600462005729565b601a6020526000908152604090205481565b3480156200070057600080fd5b506200033a620007123660046200585a565b620013e4565b3480156200072557600080fd5b506200033a620014ae565b3480156200073d57600080fd5b50600e5462000309906001600160a01b031681565b3480156200075f57600080fd5b506200033a620054ff565b3480156200077757600080fd5b506200033a620007893660046200585a565b62005543565b3480156200079c57600080fd5b506200033a620007ae3660046200585a565b6200560d565b348015620007c157600080fd5b50600f5462000309906001600160a01b031681565b348015620007e357600080fd5b506200033a620056d7565b348015620007fb57600080fd5b50620003886200080d36600462005729565b60136020526000908152604090205460ff1681565b3480156200082f57600080fd5b50601e5462000309906001600160a01b031681565b3360009081526014602052604090205460ff16156200086257600080fd5b336000908152601460205260408120805460ff1916600117905560188054916200088c83620059ad565b9190505550565b3360009081526011602052604090205460ff1615620008b157600080fd5b336000908152601160205260408120805460ff1916600117905560158054916200088c83620059ad565b3360009081526014602052604090205460ff16620008f857600080fd5b600082116200090657600080fd5b600e546040516370a0823160e01b815233600482015283916001600160a01b0316906370a082319060240160206040518083038186803b1580156200094a57600080fd5b505afa1580156200095f573d6000803e3d6000fd5b505050506040513d601f19601f8201168201806040525081019062000985919062005840565b10156200099157600080fd5b8160076000828254620009a5919062005933565b9091555050600e5460025460405163cb8bf55960e01b81526001600160a01b039092169163cb8bf55991620009e49133913091889190600401620058b6565b600060405180830381600087803b158015620009ff57600080fd5b505af115801562000a14573d6000803e3d6000fd5b50505050505050565b3360009081526012602052604090205460ff1662000a3a57600080fd5b6000821162000a4857600080fd5b600d546040516370a0823160e01b815233600482015283916001600160a01b0316906370a082319060240160206040518083038186803b15801562000a8c57600080fd5b505afa15801562000aa1573d6000803e3d6000fd5b505050506040513d601f19601f8201168201806040525081019062000ac7919062005840565b101562000ad357600080fd5b816005600082825462000ae7919062005933565b9091555050600d5460025460405163cb8bf55960e01b81526001600160a01b039092169163cb8bf55991620009e49133913091889190600401620058b6565b3360009081526012602052604090205460ff1662000b4357600080fd5b336000908152601260205260408120805460ff1916905560168054916200088c8362005993565b6003546001600160a01b0316331462000b8257600080fd5b6003546040516001600160a01b03909116904780156108fc02916000818181858888f1935050505015801562000bbc573d6000803e3d6000fd5b50565b3360009081526011602052604090205460ff1662000bdc57600080fd5b6000821162000bea57600080fd5b600c546040516370a0823160e01b815233600482015283916001600160a01b0316906370a082319060240160206040518083038186803b15801562000c2e57600080fd5b505afa15801562000c43573d6000803e3d6000fd5b505050506040513d601f19601f8201168201806040525081019062000c69919062005840565b101562000c7557600080fd5b816008600082825462000c89919062005933565b9091555050600c5460025460405163cb8bf55960e01b81526001600160a01b039092169163cb8bf55991620009e49133913091889190600401620058b6565b3360009081526013602052604090205460ff161562000ce657600080fd5b336000908152601360205260408120805460ff1916600117905560178054916200088c83620059ad565b6000341162000d1e57600080fd5b80341462000d2b57600080fd5b600054341462000d3a57600080fd5b600254421062000d4957600080fd5b3360009081526011602052604090205460ff168062000d7757503360009081526012602052604090205460ff165b8062000d9257503360009081526013602052604090205460ff165b8062000dad57503360009081526014602052604090205460ff165b62000db757600080fd5b3360009081526011602052604090205460ff161562000e96576005546004541015801562000de9575060065460045410155b801562000dfa575060075460045410155b62000e0457600080fd5b346001600082825462000e18919062005933565b9091555050600c5460405163910bdaeb60e01b8152600360048201526001600160a01b039091169063910bdaeb90602401600060405180830381600087803b15801562000e6457600080fd5b505af115801562000e79573d6000803e3d6000fd5b505050504261012c62000e8d919062005933565b600255620010f8565b3360009081526012602052604090205460ff161562000f75576004546005541015801562000ec8575060065460055410155b801562000ed9575060075460055410155b62000ee357600080fd5b346001600082825462000ef7919062005933565b9091555062000f0b90504261012c62005933565b600255600d5460405163910bdaeb60e01b8152600360048201526001600160a01b039091169063910bdaeb906024015b600060405180830381600087803b15801562000f5657600080fd5b505af115801562000f6b573d6000803e3d6000fd5b50505050620010f8565b3360009081526013602052604090205460ff16156200101f576004546006541015801562000fa7575060055460065410155b801562000fb8575060075460065410155b62000fc257600080fd5b346001600082825462000fd6919062005933565b9091555062000fea90504261012c62005933565b600255600f5460405163910bdaeb60e01b8152600360048201526001600160a01b039091169063910bdaeb9060240162000f3b565b3360009081526014602052604090205460ff1615620010f8576004546007541015801562001051575060055460075410155b801562001062575060065460075410155b6200106c57600080fd5b346001600082825462001080919062005933565b909155506200109490504261012c62005933565b600255600e5460405163910bdaeb60e01b8152600360048201526001600160a01b039091169063910bdaeb90602401600060405180830381600087803b158015620010de57600080fd5b505af1158015620010f3573d6000803e3d6000fd5b505050505b606460005460656200110b919062005971565b6200111791906200594e565b60005550565b3360009081526013602052604090205460ff166200113a57600080fd5b336000908152601360205260408120805460ff1916905560178054916200088c8362005993565b3360009081526012602052604090205460ff16156200117f57600080fd5b336000908152601260205260408120805460ff1916600117905560168054916200088c83620059ad565b3360009081526013602052604090205460ff16620011c657600080fd5b60008211620011d457600080fd5b600f546040516370a0823160e01b815233600482015283916001600160a01b0316906370a082319060240160206040518083038186803b1580156200121857600080fd5b505afa1580156200122d573d6000803e3d6000fd5b505050506040513d601f19601f8201168201806040525081019062001253919062005840565b10156200125f57600080fd5b816006600082825462001273919062005933565b9091555050600f5460025460405163cb8bf55960e01b81526001600160a01b039092169163cb8bf55991620009e49133913091889190600401620058b6565b3360009081526013602052604090205460ff16620012cf57600080fd5b60008211620012dd57600080fd5b600f546040516370a0823160e01b815233600482015283916001600160a01b0316906370a082319060240160206040518083038186803b1580156200132157600080fd5b505afa15801562001336573d6000803e3d6000fd5b505050506040513d601f19601f820116820180604052508101906200135c919062005840565b10156200136857600080fd5b81600a600082825462001273919062005933565b6003546001600160a01b031633146200139457600080fd5b600c80546001600160a01b039586166001600160a01b031991821617909155600d805494861694821694909417909355600f805492851692841692909217909155600e8054919093169116179055565b3360009081526011602052604090205460ff166200140157600080fd5b600082116200140f57600080fd5b600c546040516370a0823160e01b815233600482015283916001600160a01b0316906370a082319060240160206040518083038186803b1580156200145357600080fd5b505afa15801562001468573d6000803e3d6000fd5b505050506040513d601f19601f820116820180604052508101906200148e919062005840565b10156200149a57600080fd5b816004600082825462000c89919062005933565b600254421015620014be57600080fd5b600454156200174157600c60009054906101000a90046001600160a01b03166001600160a01b031663295b4e176040518163ffffffff1660e01b815260040160206040518083038186803b1580156200151657600080fd5b505afa1580156200152b573d6000803e3d6000fd5b505050506040513d601f19601f8201168201806040525081019062001551919062005802565b6200174157600c5460025460405163c290d69160e01b81526000928392839283926001600160a01b03169163c290d6919162001594919060040190815260200190565b608060405180830381600087803b158015620015af57600080fd5b505af1158015620015c4573d6000803e3d6000fd5b505050506040513d601f19601f82011682018060405250810190620015ea9190620057b5565b600c546040516323dc200560e11b815294985092965090945092506001600160a01b0316906347b8400a906200162b908790879087908790600401620058b6565b602060405180830381600087803b1580156200164657600080fd5b505af192505050801562001679575060408051601f3d908101601f19168201909252620016769181019062005802565b60015b6200173a573d808015620016aa576040519150601f19603f3d011682016040523d82523d6000602084013e620016af565b606091505b50600c54604051631397983560e31b8152600481018490526001600160a01b0390911690639cbcc1a890602401602060405180830381600087803b158015620016f757600080fd5b505af11580156200170c573d6000803e3d6000fd5b505050506040513d601f19601f8201168201806040525081019062001732919062005802565b50506200173c565b505b505050505b60055415620019c457600d60009054906101000a90046001600160a01b03166001600160a01b031663295b4e176040518163ffffffff1660e01b815260040160206040518083038186803b1580156200179957600080fd5b505afa158015620017ae573d6000803e3d6000fd5b505050506040513d601f19601f82011682018060405250810190620017d4919062005802565b620019c457600d5460025460405163c290d69160e01b81526000928392839283926001600160a01b03169163c290d6919162001817919060040190815260200190565b608060405180830381600087803b1580156200183257600080fd5b505af115801562001847573d6000803e3d6000fd5b505050506040513d601f19601f820116820180604052508101906200186d9190620057b5565b600d546040516323dc200560e11b815294985092965090945092506001600160a01b0316906347b8400a90620018ae908790879087908790600401620058b6565b602060405180830381600087803b158015620018c957600080fd5b505af1925050508015620018fc575060408051601f3d908101601f19168201909252620018f99181019062005802565b60015b620019bd573d8080156200192d576040519150601f19603f3d011682016040523d82523d6000602084013e62001932565b606091505b50600d54604051631397983560e31b8152600481018490526001600160a01b0390911690639cbcc1a890602401602060405180830381600087803b1580156200197a57600080fd5b505af11580156200198f573d6000803e3d6000fd5b505050506040513d601f19601f82011682018060405250810190620019b5919062005802565b5050620019bf565b505b505050505b6006541562001c4757600f60009054906101000a90046001600160a01b03166001600160a01b031663295b4e176040518163ffffffff1660e01b815260040160206040518083038186803b15801562001a1c57600080fd5b505afa15801562001a31573d6000803e3d6000fd5b505050506040513d601f19601f8201168201806040525081019062001a57919062005802565b62001c4757600f5460025460405163c290d69160e01b81526000928392839283926001600160a01b03169163c290d6919162001a9a919060040190815260200190565b608060405180830381600087803b15801562001ab557600080fd5b505af115801562001aca573d6000803e3d6000fd5b505050506040513d601f19601f8201168201806040525081019062001af09190620057b5565b600f546040516323dc200560e11b815294985092965090945092506001600160a01b0316906347b8400a9062001b31908790879087908790600401620058b6565b602060405180830381600087803b15801562001b4c57600080fd5b505af192505050801562001b7f575060408051601f3d908101601f1916820190925262001b7c9181019062005802565b60015b62001c40573d80801562001bb0576040519150601f19603f3d011682016040523d82523d6000602084013e62001bb5565b606091505b50600f54604051631397983560e31b8152600481018490526001600160a01b0390911690639cbcc1a890602401602060405180830381600087803b15801562001bfd57600080fd5b505af115801562001c12573d6000803e3d6000fd5b505050506040513d601f19601f8201168201806040525081019062001c38919062005802565b505062001c42565b505b505050505b6007541562001eca57600e60009054906101000a90046001600160a01b03166001600160a01b031663295b4e176040518163ffffffff1660e01b815260040160206040518083038186803b15801562001c9f57600080fd5b505afa15801562001cb4573d6000803e3d6000fd5b505050506040513d601f19601f8201168201806040525081019062001cda919062005802565b62001eca57600e5460025460405163c290d69160e01b81526000928392839283926001600160a01b03169163c290d6919162001d1d919060040190815260200190565b608060405180830381600087803b15801562001d3857600080fd5b505af115801562001d4d573d6000803e3d6000fd5b505050506040513d601f19601f8201168201806040525081019062001d739190620057b5565b600e546040516323dc200560e11b815294985092965090945092506001600160a01b0316906347b8400a9062001db4908790879087908790600401620058b6565b602060405180830381600087803b15801562001dcf57600080fd5b505af192505050801562001e02575060408051601f3d908101601f1916820190925262001dff9181019062005802565b60015b62001ec3573d80801562001e33576040519150601f19603f3d011682016040523d82523d6000602084013e62001e38565b606091505b50600e54604051631397983560e31b8152600481018490526001600160a01b0390911690639cbcc1a890602401602060405180830381600087803b15801562001e8057600080fd5b505af115801562001e95573d6000803e3d6000fd5b505050506040513d601f19601f8201168201806040525081019062001ebb919062005802565b505062001ec5565b505b505050505b600454158062001f5f5750600c60009054906101000a90046001600160a01b03166001600160a01b031663295b4e176040518163ffffffff1660e01b815260040160206040518083038186803b15801562001f2457600080fd5b505afa15801562001f39573d6000803e3d6000fd5b505050506040513d601f19601f8201168201806040525081019062001f5f919062005802565b801562001ffc5750600554158062001ffc5750600d60009054906101000a90046001600160a01b03166001600160a01b031663295b4e176040518163ffffffff1660e01b815260040160206040518083038186803b15801562001fc157600080fd5b505afa15801562001fd6573d6000803e3d6000fd5b505050506040513d601f19601f8201168201806040525081019062001ffc919062005802565b80156200209957506006541580620020995750600f60009054906101000a90046001600160a01b03166001600160a01b031663295b4e176040518163ffffffff1660e01b815260040160206040518083038186803b1580156200205e57600080fd5b505afa15801562002073573d6000803e3d6000fd5b505050506040513d601f19601f8201168201806040525081019062002099919062005802565b80156200213657506007541580620021365750600e60009054906101000a90046001600160a01b03166001600160a01b031663295b4e176040518163ffffffff1660e01b815260040160206040518083038186803b158015620020fb57600080fd5b505afa15801562002110573d6000803e3d6000fd5b505050506040513d601f19601f8201168201806040525081019062002136919062005802565b15620054fd5760008060008060006008546004541115620021655760019450806200216181620059ad565b9150505b6009546005541115620021865760019350806200218281620059ad565b9150505b600a546006541115620021a7576001925080620021a381620059ad565b9150505b600b546007541115620021c8576001915080620021c481620059ad565b9150505b600c546040516370a0823160e01b8152306004820152737a250d5630b4cf539739df2c5dacb4c659f2488d916001600160a01b03169063095ea7b390839060029084906370a082319060240160206040518083038186803b1580156200222d57600080fd5b505afa15801562002242573d6000803e3d6000fd5b505050506040513d601f19601f8201168201806040525081019062002268919062005840565b6200227491906200594e565b6040518363ffffffff1660e01b815260040162002293929190620058df565b602060405180830381600087803b158015620022ae57600080fd5b505af1158015620022c3573d6000803e3d6000fd5b505050506040513d601f19601f82011682018060405250810190620022e9919062005802565b50600d546040516370a0823160e01b81523060048201526001600160a01b039091169063095ea7b390839060029084906370a082319060240160206040518083038186803b1580156200233b57600080fd5b505afa15801562002350573d6000803e3d6000fd5b505050506040513d601f19601f8201168201806040525081019062002376919062005840565b6200238291906200594e565b6040518363ffffffff1660e01b8152600401620023a1929190620058df565b602060405180830381600087803b158015620023bc57600080fd5b505af1158015620023d1573d6000803e3d6000fd5b505050506040513d601f19601f82011682018060405250810190620023f7919062005802565b50600f546040516370a0823160e01b81523060048201526001600160a01b039091169063095ea7b390839060029084906370a082319060240160206040518083038186803b1580156200244957600080fd5b505afa1580156200245e573d6000803e3d6000fd5b505050506040513d601f19601f8201168201806040525081019062002484919062005840565b6200249091906200594e565b6040518363ffffffff1660e01b8152600401620024af929190620058df565b602060405180830381600087803b158015620024ca57600080fd5b505af1158015620024df573d6000803e3d6000fd5b505050506040513d601f19601f8201168201806040525081019062002505919062005802565b50600e546040516370a0823160e01b81523060048201526001600160a01b039091169063095ea7b390839060029084906370a082319060240160206040518083038186803b1580156200255757600080fd5b505afa1580156200256c573d6000803e3d6000fd5b505050506040513d601f19601f8201168201806040525081019062002592919062005840565b6200259e91906200594e565b6040518363ffffffff1660e01b8152600401620025bd929190620058df565b602060405180830381600087803b158015620025d857600080fd5b505af1158015620025ed573d6000803e3d6000fd5b505050506040513d601f19601f8201168201806040525081019062002613919062005802565b506001600160a01b03811663f305d719600462002632600a476200594e565b6200263e91906200594e565b600c546040516370a0823160e01b81523060048201526001600160a01b039091169060029082906370a082319060240160206040518083038186803b1580156200268757600080fd5b505afa1580156200269c573d6000803e3d6000fd5b505050506040513d601f19601f82011682018060405250810190620026c2919062005840565b620026ce91906200594e565b60008030426040518863ffffffff1660e01b8152600401620026f696959493929190620058f8565b6060604051808303818588803b1580156200271057600080fd5b505af115801562002725573d6000803e3d6000fd5b50505050506040513d601f19601f820116820180604052508101906200274c919062005887565b5050506001600160a01b03811663f305d71960046200276d600a476200594e565b6200277991906200594e565b600d546040516370a0823160e01b81523060048201526001600160a01b039091169060029082906370a082319060240160206040518083038186803b158015620027c257600080fd5b505afa158015620027d7573d6000803e3d6000fd5b505050506040513d601f19601f82011682018060405250810190620027fd919062005840565b6200280991906200594e565b60008030426040518863ffffffff1660e01b81526004016200283196959493929190620058f8565b6060604051808303818588803b1580156200284b57600080fd5b505af115801562002860573d6000803e3d6000fd5b50505050506040513d601f19601f8201168201806040525081019062002887919062005887565b5050506001600160a01b03811663f305d7196004620028a8600a476200594e565b620028b491906200594e565b600f546040516370a0823160e01b81523060048201526001600160a01b039091169060029082906370a082319060240160206040518083038186803b158015620028fd57600080fd5b505afa15801562002912573d6000803e3d6000fd5b505050506040513d601f19601f8201168201806040525081019062002938919062005840565b6200294491906200594e565b60008030426040518863ffffffff1660e01b81526004016200296c96959493929190620058f8565b6060604051808303818588803b1580156200298657600080fd5b505af11580156200299b573d6000803e3d6000fd5b50505050506040513d601f19601f82011682018060405250810190620029c2919062005887565b5050506001600160a01b03811663f305d7196004620029e3600a476200594e565b620029ef91906200594e565b600e546040516370a0823160e01b81523060048201526001600160a01b039091169060029082906370a082319060240160206040518083038186803b15801562002a3857600080fd5b505afa15801562002a4d573d6000803e3d6000fd5b505050506040513d601f19601f8201168201806040525081019062002a73919062005840565b62002a7f91906200594e565b60008030426040518863ffffffff1660e01b815260040162002aa796959493929190620058f8565b6060604051808303818588803b15801562002ac157600080fd5b505af115801562002ad6573d6000803e3d6000fd5b50505050506040513d601f19601f8201168201806040525081019062002afd919062005887565b50505081620034ae57600c546015546040516370a0823160e01b815230600482018190526000936001600160a01b031692909160029084906370a082319060240160206040518083038186803b15801562002b5757600080fd5b505afa15801562002b6c573d6000803e3d6000fd5b505050506040513d601f19601f8201168201806040525081019062002b92919062005840565b62002b9e91906200594e565b60405162002bac906200571b565b62002bbb9493929190620058b6565b604051809103906000f08015801562002bd8573d6000803e3d6000fd5b5090506001600160a01b038116600462002bf46064476200594e565b62002c0190601e62005971565b62002c0d91906200594e565b604051615e4a91906000818181858888f193505050503d806000811462002c51576040519150601f19603f3d011682016040523d82523d6000602084013e62002c56565b606091505b5050601d80546001600160a01b0319166001600160a01b0384811691909117909155600c546040516370a0823160e01b81523060048201529116915063095ea7b390839083906370a082319060240160206040518083038186803b15801562002cbe57600080fd5b505afa15801562002cd3573d6000803e3d6000fd5b505050506040513d601f19601f8201168201806040525081019062002cf9919062005840565b6040518363ffffffff1660e01b815260040162002d18929190620058df565b602060405180830381600087803b15801562002d3357600080fd5b505af115801562002d48573d6000803e3d6000fd5b505050506040513d601f19601f8201168201806040525081019062002d6e919062005802565b50600d546016546040516370a0823160e01b815230600482018190526000936001600160a01b031692909160029084906370a082319060240160206040518083038186803b15801562002dc057600080fd5b505afa15801562002dd5573d6000803e3d6000fd5b505050506040513d601f19601f8201168201806040525081019062002dfb919062005840565b62002e0791906200594e565b60405162002e15906200571b565b62002e249493929190620058b6565b604051809103906000f08015801562002e41573d6000803e3d6000fd5b50601e80546001600160a01b0319166001600160a01b038316908117909155909150600462002e726064476200594e565b62002e7f90601e62005971565b62002e8b91906200594e565b604051615e4a91906000818181858888f193505050503d806000811462002ecf576040519150601f19603f3d011682016040523d82523d6000602084013e62002ed4565b606091505b5050600d546040516370a0823160e01b81523060048201526001600160a01b03909116915063095ea7b390839083906370a082319060240160206040518083038186803b15801562002f2557600080fd5b505afa15801562002f3a573d6000803e3d6000fd5b505050506040513d601f19601f8201168201806040525081019062002f60919062005840565b6040518363ffffffff1660e01b815260040162002f7f929190620058df565b602060405180830381600087803b15801562002f9a57600080fd5b505af115801562002faf573d6000803e3d6000fd5b505050506040513d601f19601f8201168201806040525081019062002fd5919062005802565b50600f546017546040516370a0823160e01b815230600482018190526000936001600160a01b031692909160029084906370a082319060240160206040518083038186803b1580156200302757600080fd5b505afa1580156200303c573d6000803e3d6000fd5b505050506040513d601f19601f8201168201806040525081019062003062919062005840565b6200306e91906200594e565b6040516200307c906200571b565b6200308b9493929190620058b6565b604051809103906000f080158015620030a8573d6000803e3d6000fd5b50601f80546001600160a01b0319166001600160a01b0383169081179091559091506004620030d96064476200594e565b620030e690601e62005971565b620030f291906200594e565b604051615e4a91906000818181858888f193505050503d806000811462003136576040519150601f19603f3d011682016040523d82523d6000602084013e6200313b565b606091505b5050600f546040516370a0823160e01b81523060048201526001600160a01b03909116915063095ea7b390839083906370a082319060240160206040518083038186803b1580156200318c57600080fd5b505afa158015620031a1573d6000803e3d6000fd5b505050506040513d601f19601f82011682018060405250810190620031c7919062005840565b6040518363ffffffff1660e01b8152600401620031e6929190620058df565b602060405180830381600087803b1580156200320157600080fd5b505af115801562003216573d6000803e3d6000fd5b505050506040513d601f19601f820116820180604052508101906200323c919062005802565b50600e546018546040516370a0823160e01b815230600482018190526000936001600160a01b031692909160029084906370a082319060240160206040518083038186803b1580156200328e57600080fd5b505afa158015620032a3573d6000803e3d6000fd5b505050506040513d601f19601f82011682018060405250810190620032c9919062005840565b620032d591906200594e565b604051620032e3906200571b565b620032f29493929190620058b6565b604051809103906000f0801580156200330f573d6000803e3d6000fd5b50602080546001600160a01b0319166001600160a01b0383169081179091559091506004620033406064476200594e565b6200334d90601e62005971565b6200335991906200594e565b604051615e4a91906000818181858888f193505050503d80600081146200339d576040519150601f19603f3d011682016040523d82523d6000602084013e620033a2565b606091505b5050600e546040516370a0823160e01b81523060048201526001600160a01b03909116915063095ea7b390839083906370a082319060240160206040518083038186803b158015620033f357600080fd5b505afa15801562003408573d6000803e3d6000fd5b505050506040513d601f19601f820116820180604052508101906200342e919062005840565b6040518363ffffffff1660e01b81526004016200344d929190620058df565b602060405180830381600087803b1580156200346857600080fd5b505af11580156200347d573d6000803e3d6000fd5b505050506040513d601f19601f82011682018060405250810190620034a3919062005802565b505050505062005491565b816001141562004ac957858015620034c4575084155b8015620034cf575083155b8015620034da575082155b1562003b6557600c546015546040516370a0823160e01b815230600482018190526000936001600160a01b031692909160029084906370a082319060240160206040518083038186803b1580156200353157600080fd5b505afa15801562003546573d6000803e3d6000fd5b505050506040513d601f19601f820116820180604052508101906200356c919062005840565b6200357891906200594e565b60405162003586906200571b565b620035959493929190620058b6565b604051809103906000f080158015620035b2573d6000803e3d6000fd5b5090506001600160a01b038116620035cc6064476200594e565b620035d990605062005971565b604051615e4a91906000818181858888f193505050503d80600081146200361d576040519150601f19603f3d011682016040523d82523d6000602084013e62003622565b606091505b5050601d80546001600160a01b0319166001600160a01b0384811691909117909155600c546040516370a0823160e01b81523060048201529116915063095ea7b390839083906370a082319060240160206040518083038186803b1580156200368a57600080fd5b505afa1580156200369f573d6000803e3d6000fd5b505050506040513d601f19601f82011682018060405250810190620036c5919062005840565b6040518363ffffffff1660e01b8152600401620036e4929190620058df565b602060405180830381600087803b158015620036ff57600080fd5b505af115801562003714573d6000803e3d6000fd5b505050506040513d601f19601f820116820180604052508101906200373a919062005802565b50600d546040516370a0823160e01b81523060048201526000916001600160a01b0316906370a082319060240160206040518083038186803b1580156200378057600080fd5b505afa15801562003795573d6000803e3d6000fd5b505050506040513d601f19601f82011682018060405250810190620037bb919062005840565b11156200389d57600d546040516370a0823160e01b81523060048201526001600160a01b03909116906342966c689082906370a082319060240160206040518083038186803b1580156200380e57600080fd5b505afa15801562003823573d6000803e3d6000fd5b505050506040513d601f19601f8201168201806040525081019062003849919062005840565b6040518263ffffffff1660e01b81526004016200386891815260200190565b600060405180830381600087803b1580156200388357600080fd5b505af115801562003898573d6000803e3d6000fd5b505050505b600e546040516370a0823160e01b81523060048201526000916001600160a01b0316906370a082319060240160206040518083038186803b158015620038e257600080fd5b505afa158015620038f7573d6000803e3d6000fd5b505050506040513d601f19601f820116820180604052508101906200391d919062005840565b111562003a0057600e546040516370a0823160e01b81523060048201526001600160a01b03909116906342966c689082906370a08231906024015b60206040518083038186803b1580156200397157600080fd5b505afa15801562003986573d6000803e3d6000fd5b505050506040513d601f19601f82011682018060405250810190620039ac919062005840565b6040518263ffffffff1660e01b8152600401620039cb91815260200190565b600060405180830381600087803b158015620039e657600080fd5b505af1158015620039fb573d6000803e3d6000fd5b505050505b600f546040516370a0823160e01b81523060048201526000916001600160a01b0316906370a082319060240160206040518083038186803b15801562003a4557600080fd5b505afa15801562003a5a573d6000803e3d6000fd5b505050506040513d601f19601f8201168201806040525081019062003a80919062005840565b111562003b5e57600f546040516370a0823160e01b81523060048201526001600160a01b03909116906342966c689082906370a08231906024015b60206040518083038186803b15801562003ad457600080fd5b505afa15801562003ae9573d6000803e3d6000fd5b505050506040513d601f19601f8201168201806040525081019062003b0f919062005840565b6040518263ffffffff1660e01b815260040162003b2e91815260200190565b600060405180830381600087803b15801562003b4957600080fd5b505af1158015620034a3573d6000803e3d6000fd5b5062005491565b84801562003b71575085155b801562003b7c575083155b801562003b87575082155b156200401b57600d546016546040516370a0823160e01b815230600482018190526000936001600160a01b031692909160029084906370a082319060240160206040518083038186803b15801562003bde57600080fd5b505afa15801562003bf3573d6000803e3d6000fd5b505050506040513d601f19601f8201168201806040525081019062003c19919062005840565b62003c2591906200594e565b60405162003c33906200571b565b62003c429493929190620058b6565b604051809103906000f08015801562003c5f573d6000803e3d6000fd5b50601e80546001600160a01b0319166001600160a01b03831690811790915590915062003c8e6064476200594e565b62003c9b90605062005971565b604051615e4a91906000818181858888f193505050503d806000811462003cdf576040519150601f19603f3d011682016040523d82523d6000602084013e62003ce4565b606091505b5050600d546040516370a0823160e01b81523060048201526001600160a01b03909116915063095ea7b390839083906370a082319060240160206040518083038186803b15801562003d3557600080fd5b505afa15801562003d4a573d6000803e3d6000fd5b505050506040513d601f19601f8201168201806040525081019062003d70919062005840565b6040518363ffffffff1660e01b815260040162003d8f929190620058df565b602060405180830381600087803b15801562003daa57600080fd5b505af115801562003dbf573d6000803e3d6000fd5b505050506040513d601f19601f8201168201806040525081019062003de5919062005802565b50600e546040516370a0823160e01b81523060048201526000916001600160a01b0316906370a082319060240160206040518083038186803b15801562003e2b57600080fd5b505afa15801562003e40573d6000803e3d6000fd5b505050506040513d601f19601f8201168201806040525081019062003e66919062005840565b111562003f4857600e546040516370a0823160e01b81523060048201526001600160a01b03909116906342966c689082906370a082319060240160206040518083038186803b15801562003eb957600080fd5b505afa15801562003ece573d6000803e3d6000fd5b505050506040513d601f19601f8201168201806040525081019062003ef4919062005840565b6040518263ffffffff1660e01b815260040162003f1391815260200190565b600060405180830381600087803b15801562003f2e57600080fd5b505af115801562003f43573d6000803e3d6000fd5b505050505b600c546040516370a0823160e01b81523060048201526000916001600160a01b0316906370a082319060240160206040518083038186803b15801562003f8d57600080fd5b505afa15801562003fa2573d6000803e3d6000fd5b505050506040513d601f19601f8201168201806040525081019062003fc8919062005840565b111562003a0057600c546040516370a0823160e01b81523060048201526001600160a01b03909116906342966c689082906370a082319060240160206040518083038186803b1580156200397157600080fd5b83801562004027575084155b801562004032575085155b80156200403d575082155b156200462057600f546017546040516370a0823160e01b815230600482018190526000936001600160a01b031692909160029084906370a082319060240160206040518083038186803b1580156200409457600080fd5b505afa158015620040a9573d6000803e3d6000fd5b505050506040513d601f19601f82011682018060405250810190620040cf919062005840565b620040db91906200594e565b604051620040e9906200571b565b620040f89493929190620058b6565b604051809103906000f08015801562004115573d6000803e3d6000fd5b50601f80546001600160a01b0319166001600160a01b038316908117909155909150620041446064476200594e565b6200415190605062005971565b604051615e4a91906000818181858888f193505050503d806000811462004195576040519150601f19603f3d011682016040523d82523d6000602084013e6200419a565b606091505b5050600f546040516370a0823160e01b81523060048201526001600160a01b03909116915063095ea7b390839083906370a082319060240160206040518083038186803b158015620041eb57600080fd5b505afa15801562004200573d6000803e3d6000fd5b505050506040513d601f19601f8201168201806040525081019062004226919062005840565b6040518363ffffffff1660e01b815260040162004245929190620058df565b602060405180830381600087803b1580156200426057600080fd5b505af115801562004275573d6000803e3d6000fd5b505050506040513d601f19601f820116820180604052508101906200429b919062005802565b50600d546040516370a0823160e01b81523060048201526000916001600160a01b0316906370a082319060240160206040518083038186803b158015620042e157600080fd5b505afa158015620042f6573d6000803e3d6000fd5b505050506040513d601f19601f820116820180604052508101906200431c919062005840565b1115620043fe57600d546040516370a0823160e01b81523060048201526001600160a01b03909116906342966c689082906370a082319060240160206040518083038186803b1580156200436f57600080fd5b505afa15801562004384573d6000803e3d6000fd5b505050506040513d601f19601f82011682018060405250810190620043aa919062005840565b6040518263ffffffff1660e01b8152600401620043c991815260200190565b600060405180830381600087803b158015620043e457600080fd5b505af1158015620043f9573d6000803e3d6000fd5b505050505b600c546040516370a0823160e01b81523060048201526000916001600160a01b0316906370a082319060240160206040518083038186803b1580156200444357600080fd5b505afa15801562004458573d6000803e3d6000fd5b505050506040513d601f19601f820116820180604052508101906200447e919062005840565b11156200456057600c546040516370a0823160e01b81523060048201526001600160a01b03909116906342966c689082906370a082319060240160206040518083038186803b158015620044d157600080fd5b505afa158015620044e6573d6000803e3d6000fd5b505050506040513d601f19601f820116820180604052508101906200450c919062005840565b6040518263ffffffff1660e01b81526004016200452b91815260200190565b600060405180830381600087803b1580156200454657600080fd5b505af11580156200455b573d6000803e3d6000fd5b505050505b600e546040516370a0823160e01b81523060048201526000916001600160a01b0316906370a082319060240160206040518083038186803b158015620045a557600080fd5b505afa158015620045ba573d6000803e3d6000fd5b505050506040513d601f19601f82011682018060405250810190620045e0919062005840565b111562003b5e57600e546040516370a0823160e01b81523060048201526001600160a01b03909116906342966c689082906370a082319060240162003abb565b8280156200462c575084155b801562004637575083155b801562004642575085155b1562004ac357600e546018546040516370a0823160e01b815230600482018190526000936001600160a01b031692909160029084906370a082319060240160206040518083038186803b1580156200469957600080fd5b505afa158015620046ae573d6000803e3d6000fd5b505050506040513d601f19601f82011682018060405250810190620046d4919062005840565b620046e091906200594e565b604051620046ee906200571b565b620046fd9493929190620058b6565b604051809103906000f0801580156200471a573d6000803e3d6000fd5b50600e546040516370a0823160e01b81523060048201529192506001600160a01b03169063095ea7b390839083906370a082319060240160206040518083038186803b1580156200476a57600080fd5b505afa1580156200477f573d6000803e3d6000fd5b505050506040513d601f19601f82011682018060405250810190620047a5919062005840565b6040518363ffffffff1660e01b8152600401620047c4929190620058df565b602060405180830381600087803b158015620047df57600080fd5b505af1158015620047f4573d6000803e3d6000fd5b505050506040513d601f19601f820116820180604052508101906200481a919062005802565b50602080546001600160a01b0319166001600160a01b038316908117909155620048466064476200594e565b6200485390605062005971565b604051615e4a91906000818181858888f193505050503d806000811462004897576040519150601f19603f3d011682016040523d82523d6000602084013e6200489c565b606091505b5050600d546040516370a0823160e01b8152306004820152600092506001600160a01b03909116906370a082319060240160206040518083038186803b158015620048e657600080fd5b505afa158015620048fb573d6000803e3d6000fd5b505050506040513d601f19601f8201168201806040525081019062004921919062005840565b111562004a0357600d546040516370a0823160e01b81523060048201526001600160a01b03909116906342966c689082906370a082319060240160206040518083038186803b1580156200497457600080fd5b505afa15801562004989573d6000803e3d6000fd5b505050506040513d601f19601f82011682018060405250810190620049af919062005840565b6040518263ffffffff1660e01b8152600401620049ce91815260200190565b600060405180830381600087803b158015620049e957600080fd5b505af1158015620049fe573d6000803e3d6000fd5b505050505b600c546040516370a0823160e01b81523060048201526000916001600160a01b0316906370a082319060240160206040518083038186803b15801562004a4857600080fd5b505afa15801562004a5d573d6000803e3d6000fd5b505050506040513d601f19601f8201168201806040525081019062004a83919062005840565b111562003a0057600c546040516370a0823160e01b81523060048201526001600160a01b03909116906342966c689082906370a082319060240162003958565b62005491565b60018211801562004ada5750600482105b1562004ae65762005491565b81600414156200549157600c546015546040516370a0823160e01b815230600482018190526000936001600160a01b031692909160029084906370a082319060240160206040518083038186803b15801562004b4157600080fd5b505afa15801562004b56573d6000803e3d6000fd5b505050506040513d601f19601f8201168201806040525081019062004b7c919062005840565b62004b8891906200594e565b60405162004b96906200571b565b62004ba59493929190620058b6565b604051809103906000f08015801562004bc2573d6000803e3d6000fd5b50601d80546001600160a01b0319166001600160a01b038316908117909155909150600462004bf36064476200594e565b62004c0090600a62005971565b62004c0c91906200594e565b604051615e4a91906000818181858888f193505050503d806000811462004c50576040519150601f19603f3d011682016040523d82523d6000602084013e62004c55565b606091505b5050600c546040516370a0823160e01b81523060048201526001600160a01b03909116915063095ea7b390839083906370a082319060240160206040518083038186803b15801562004ca657600080fd5b505afa15801562004cbb573d6000803e3d6000fd5b505050506040513d601f19601f8201168201806040525081019062004ce1919062005840565b6040518363ffffffff1660e01b815260040162004d00929190620058df565b602060405180830381600087803b15801562004d1b57600080fd5b505af115801562004d30573d6000803e3d6000fd5b505050506040513d601f19601f8201168201806040525081019062004d56919062005802565b50600d546016546040516370a0823160e01b815230600482018190526000936001600160a01b031692909160029084906370a082319060240160206040518083038186803b15801562004da857600080fd5b505afa15801562004dbd573d6000803e3d6000fd5b505050506040513d601f19601f8201168201806040525081019062004de3919062005840565b62004def91906200594e565b60405162004dfd906200571b565b62004e0c9493929190620058b6565b604051809103906000f08015801562004e29573d6000803e3d6000fd5b50601e80546001600160a01b0319166001600160a01b038316908117909155909150600462004e5a6064476200594e565b62004e6790600a62005971565b62004e7391906200594e565b604051615e4a91906000818181858888f193505050503d806000811462004eb7576040519150601f19603f3d011682016040523d82523d6000602084013e62004ebc565b606091505b5050600d546040516370a0823160e01b81523060048201526001600160a01b03909116915063095ea7b390839083906370a082319060240160206040518083038186803b15801562004f0d57600080fd5b505afa15801562004f22573d6000803e3d6000fd5b505050506040513d601f19601f8201168201806040525081019062004f48919062005840565b6040518363ffffffff1660e01b815260040162004f67929190620058df565b602060405180830381600087803b15801562004f8257600080fd5b505af115801562004f97573d6000803e3d6000fd5b505050506040513d601f19601f8201168201806040525081019062004fbd919062005802565b50600f546017546040516370a0823160e01b815230600482018190526000936001600160a01b031692909160029084906370a082319060240160206040518083038186803b1580156200500f57600080fd5b505afa15801562005024573d6000803e3d6000fd5b505050506040513d601f19601f820116820180604052508101906200504a919062005840565b6200505691906200594e565b60405162005064906200571b565b620050739493929190620058b6565b604051809103906000f08015801562005090573d6000803e3d6000fd5b50601f80546001600160a01b0319166001600160a01b0383169081179091559091506004620050c16064476200594e565b620050ce90600a62005971565b620050da91906200594e565b604051615e4a91906000818181858888f193505050503d80600081146200511e576040519150601f19603f3d011682016040523d82523d6000602084013e62005123565b606091505b5050600f546040516370a0823160e01b81523060048201526001600160a01b03909116915063095ea7b390839083906370a082319060240160206040518083038186803b1580156200517457600080fd5b505afa15801562005189573d6000803e3d6000fd5b505050506040513d601f19601f82011682018060405250810190620051af919062005840565b6040518363ffffffff1660e01b8152600401620051ce929190620058df565b602060405180830381600087803b158015620051e957600080fd5b505af1158015620051fe573d6000803e3d6000fd5b505050506040513d601f19601f8201168201806040525081019062005224919062005802565b50600e546018546040516370a0823160e01b815230600482018190526000936001600160a01b031692909160029084906370a082319060240160206040518083038186803b1580156200527657600080fd5b505afa1580156200528b573d6000803e3d6000fd5b505050506040513d601f19601f82011682018060405250810190620052b1919062005840565b620052bd91906200594e565b604051620052cb906200571b565b620052da9493929190620058b6565b604051809103906000f080158015620052f7573d6000803e3d6000fd5b50602080546001600160a01b0319166001600160a01b0383169081179091559091506004620053286064476200594e565b6200533590600a62005971565b6200534191906200594e565b604051615e4a91906000818181858888f193505050503d806000811462005385576040519150601f19603f3d011682016040523d82523d6000602084013e6200538a565b606091505b5050600e546040516370a0823160e01b81523060048201526001600160a01b03909116915063095ea7b390839083906370a082319060240160206040518083038186803b158015620053db57600080fd5b505afa158015620053f0573d6000803e3d6000fd5b505050506040513d601f19601f8201168201806040525081019062005416919062005840565b6040518363ffffffff1660e01b815260040162005435929190620058df565b602060405180830381600087803b1580156200545057600080fd5b505af115801562005465573d6000803e3d6000fd5b505050506040513d601f19601f820116820180604052508101906200548b919062005802565b50505050505b6200549f4261012c62005933565b600255600154620054b390600a906200594e565b6001556000600481905560058190556006819055600781905560088190556009819055600a819055600b8190556010549055620054f34261012c62005933565b6002555050505050505b565b3360009081526014602052604090205460ff166200551c57600080fd5b336000908152601460205260408120805460ff1916905560188054916200088c8362005993565b3360009081526014602052604090205460ff166200556057600080fd5b600082116200556e57600080fd5b600e546040516370a0823160e01b815233600482015283916001600160a01b0316906370a082319060240160206040518083038186803b158015620055b257600080fd5b505afa158015620055c7573d6000803e3d6000fd5b505050506040513d601f19601f82011682018060405250810190620055ed919062005840565b1015620055f957600080fd5b81600b6000828254620009a5919062005933565b3360009081526012602052604090205460ff166200562a57600080fd5b600082116200563857600080fd5b600d546040516370a0823160e01b815233600482015283916001600160a01b0316906370a082319060240160206040518083038186803b1580156200567c57600080fd5b505afa15801562005691573d6000803e3d6000fd5b505050506040513d601f19601f82011682018060405250810190620056b7919062005840565b1015620056c357600080fd5b816009600082825462000ae7919062005933565b3360009081526011602052604090205460ff16620056f457600080fd5b336000908152601160205260408120805460ff1916905560158054916200088c8362005993565b61056b80620059f883390190565b6000602082840312156200573c57600080fd5b81356200574981620059e1565b9392505050565b600080600080608085870312156200576757600080fd5b84356200577481620059e1565b935060208501356200578681620059e1565b925060408501356200579881620059e1565b91506060850135620057aa81620059e1565b939692955090935050565b60008060008060808587031215620057cc57600080fd5b8451620057d981620059e1565b6020860151909450620057ec81620059e1565b6040860151606090960151949790965092505050565b6000602082840312156200581557600080fd5b815180151581146200574957600080fd5b6000602082840312156200583957600080fd5b5035919050565b6000602082840312156200585357600080fd5b5051919050565b6000806000606084860312156200587057600080fd5b505081359360208301359350604090920135919050565b6000806000606084860312156200589d57600080fd5b8351925060208401519150604084015190509250925092565b6001600160a01b0394851681529290931660208301526040820152606081019190915260800190565b6001600160a01b03929092168252602082015260400190565b6001600160a01b039687168152602081019590955260408501939093526060840191909152909216608082015260a081019190915260c00190565b60008219821115620059495762005949620059cb565b500190565b6000826200596c57634e487b7160e01b600052601260045260246000fd5b500490565b60008160001904831182151516156200598e576200598e620059cb565b500290565b600081620059a557620059a5620059cb565b506000190190565b6000600019821415620059c457620059c4620059cb565b5060010190565b634e487b7160e01b600052601160045260246000fd5b6001600160a01b038116811462000bbc57600080fdfe608060405234801561001057600080fd5b5060405161056b38038061056b83398101604081905261002f9161008d565b6001919091556005819055600655600380546001600160a01b039283166001600160a01b031991821617909155600280549390921692169190911790556100d0565b80516001600160a01b038116811461008857600080fd5b919050565b600080600080608085870312156100a357600080fd5b6100ac85610071565b93506100ba60208601610071565b6040860151606090960151949790965092505050565b61048c806100df6000396000f3fe60806040526004361061007f5760003560e01c8063b69ef8a81161004e578063b69ef8a814610130578063c537931714610146578063c884ef831461015c578063fc0c546a1461019c57600080fd5b806327810b6e146100a25780633a98ef39146100df5780634e71d92d14610103578063b0cf01961461011a57600080fd5b3661009d57346004600082825461009691906103ef565b9091555050005b600080fd5b3480156100ae57600080fd5b506003546100c2906001600160a01b031681565b6040516001600160a01b0390911681526020015b60405180910390f35b3480156100eb57600080fd5b506100f560015481565b6040519081526020016100d6565b34801561010f57600080fd5b506101186101bc565b005b34801561012657600080fd5b506100f560065481565b34801561013c57600080fd5b506100f560045481565b34801561015257600080fd5b506100f560055481565b34801561016857600080fd5b5061018c61017736600461039d565b60006020819052908152604090205460ff1681565b60405190151581526020016100d6565b3480156101a857600080fd5b506002546100c2906001600160a01b031681565b3360009081526020819052604090205460ff161561022c5760405162461bcd60e51b8152602060048201526024808201527f596f75206861766520616c726561647920636c61696d656420796f75722073686044820152636172652160e01b606482015260840160405180910390fd5b600060015460065461023e9190610407565b905060006001546004546102529190610407565b6002546003546040516323b872dd60e01b81526001600160a01b0391821660048201523360248201526044810186905292935016906323b872dd90606401602060405180830381600087803b1580156102aa57600080fd5b505af11580156102be573d6000803e3d6000fd5b505050506040513d601f19601f820116820180604052508101906102e291906103cd565b50604051339082156108fc029083906000818181858888f19350505050158015610310573d6000803e3d6000fd5b5060018060008282546103239190610429565b92505081905550806004600082825461033c9190610429565b90915550503360008181526020818152604091829020805460ff191660011790558151928352820184905281018290527f987d620f307ff6b94d58743cb7a7509f24071586a77759b77c2d4e29f75a2f9a9060600160405180910390a15050565b6000602082840312156103af57600080fd5b81356001600160a01b03811681146103c657600080fd5b9392505050565b6000602082840312156103df57600080fd5b815180151581146103c657600080fd5b6000821982111561040257610402610440565b500190565b60008261042457634e487b7160e01b600052601260045260246000fd5b500490565b60008282101561043b5761043b610440565b500390565b634e487b7160e01b600052601160045260246000fdfea2646970667358221220a942b9935f078b97175553e4805735edaf3deac9dcc19b04f849d7a69b3973cb64736f6c63430008070033a2646970667358221220b194fb43626d110b1f3549ab0ba848923a73619e2f6b0244d9a1e59c32e69cc764736f6c63430008070033",
			"opcodes": "PUSH1 0x80 PUSH1 0x40 MSTORE PUSH1 0x0 PUSH1 0x4 SSTORE PUSH1 0x0 PUSH1 0x5 SSTORE PUSH1 0x0 PUSH1 0x6 SSTORE PUSH1 0x0 PUSH1 0x7 SSTORE PUSH1 0x0 PUSH1 0x8 SSTORE PUSH1 0x0 PUSH1 0x9 SSTORE PUSH1 0x0 PUSH1 0xA SSTORE PUSH1 0x0 PUSH1 0xB SSTORE PUSH1 0x0 PUSH1 0x15 SSTORE PUSH1 0x0 PUSH1 0x16 SSTORE PUSH1 0x0 PUSH1 0x17 SSTORE PUSH1 0x0 PUSH1 0x18 SSTORE CALLVALUE DUP1 ISZERO PUSH3 0x4D JUMPI PUSH1 0x0 DUP1 REVERT JUMPDEST POP PUSH1 0x40 MLOAD PUSH3 0x608D CODESIZE SUB DUP1 PUSH3 0x608D DUP4 CODECOPY DUP2 ADD PUSH1 0x40 DUP2 SWAP1 MSTORE PUSH3 0x70 SWAP2 PUSH3 0xA4 JUMP JUMPDEST PUSH1 0x0 DUP2 SWAP1 SSTORE PUSH1 0x10 DUP2 SWAP1 SSTORE PUSH1 0x3 DUP1 SLOAD PUSH1 0x1 PUSH1 0x1 PUSH1 0xA0 SHL SUB NOT AND CALLER OR SWAP1 SSTORE PUSH3 0x9A TIMESTAMP PUSH2 0x12C PUSH3 0xBE JUMP JUMPDEST PUSH1 0x2 SSTORE POP PUSH3 0xE5 JUMP JUMPDEST PUSH1 0x0 PUSH1 0x20 DUP3 DUP5 SUB SLT ISZERO PUSH3 0xB7 JUMPI PUSH1 0x0 DUP1 REVERT JUMPDEST POP MLOAD SWAP2 SWAP1 POP JUMP JUMPDEST PUSH1 0x0 DUP3 NOT DUP3 GT ISZERO PUSH3 0xE0 JUMPI PUSH4 0x4E487B71 PUSH1 0xE0 SHL PUSH1 0x0 MSTORE PUSH1 0x11 PUSH1 0x4 MSTORE PUSH1 0x24 PUSH1 0x0 REVERT JUMPDEST POP ADD SWAP1 JUMP JUMPDEST PUSH2 0x5F98 DUP1 PUSH3 0xF5 PUSH1 0x0 CODECOPY PUSH1 0x0 RETURN INVALID PUSH1 0x80 PUSH1 0x40 MSTORE PUSH1 0x4 CALLDATASIZE LT PUSH3 0x26F JUMPI PUSH1 0x0 CALLDATALOAD PUSH1 0xE0 SHR DUP1 PUSH4 0x73D726D0 GT PUSH3 0x147 JUMPI DUP1 PUSH4 0xC4A97FCE GT PUSH3 0xB9 JUMPI DUP1 PUSH4 0xECD84163 GT PUSH3 0x78 JUMPI DUP1 PUSH4 0xECD84163 EQ PUSH3 0x78F JUMPI DUP1 PUSH4 0xED0BEE5C EQ PUSH3 0x7B4 JUMPI DUP1 PUSH4 0xF1348BA6 EQ PUSH3 0x7D6 JUMPI DUP1 PUSH4 0xF7586795 EQ PUSH3 0x7EE JUMPI DUP1 PUSH4 0xFDD4A317 EQ PUSH3 0x822 JUMPI PUSH1 0x0 DUP1 REVERT JUMPDEST DUP1 PUSH4 0xC4A97FCE EQ PUSH3 0x6F3 JUMPI DUP1 PUSH4 0xD4114AFB EQ PUSH3 0x718 JUMPI DUP1 PUSH4 0xDCA32F5A EQ PUSH3 0x730 JUMPI DUP1 PUSH4 0xE201CF4C EQ PUSH3 0x752 JUMPI DUP1 PUSH4 0xEB94893B EQ PUSH3 0x76A JUMPI PUSH1 0x0 DUP1 REVERT JUMPDEST DUP1 PUSH4 0x8F8022E3 GT PUSH3 0x106 JUMPI DUP1 PUSH4 0x8F8022E3 EQ PUSH3 0x63E JUMPI DUP1 PUSH4 0xA035B1FE EQ PUSH3 0x663 JUMPI DUP1 PUSH4 0xA5E2FB5B EQ PUSH3 0x67B JUMPI DUP1 PUSH4 0xAF91CDC1 EQ PUSH3 0x6A0 JUMPI DUP1 PUSH4 0xB93E6788 EQ PUSH3 0x6C2 JUMPI PUSH1 0x0 DUP1 REVERT JUMPDEST DUP1 PUSH4 0x73D726D0 EQ PUSH3 0x5A5 JUMPI DUP1 PUSH4 0x740E820D EQ PUSH3 0x5BD JUMPI DUP1 PUSH4 0x7DF72A66 EQ PUSH3 0x5DF JUMPI DUP1 PUSH4 0x88C9CB3C EQ PUSH3 0x604 JUMPI DUP1 PUSH4 0x8DA5CB5B EQ PUSH3 0x61C JUMPI PUSH1 0x0 DUP1 REVERT JUMPDEST DUP1 PUSH4 0x3D9553EE GT PUSH3 0x1E1 JUMPI DUP1 PUSH4 0x50444476 GT PUSH3 0x1A0 JUMPI DUP1 PUSH4 0x50444476 EQ PUSH3 0x50B JUMPI DUP1 PUSH4 0x567BCF13 EQ PUSH3 0x523 JUMPI DUP1 PUSH4 0x5D0864A7 EQ PUSH3 0x53A JUMPI DUP1 PUSH4 0x6D4885D1 EQ PUSH3 0x55C JUMPI DUP1 PUSH4 0x712981E4 EQ PUSH3 0x58D JUMPI PUSH1 0x0 DUP1 REVERT JUMPDEST DUP1 PUSH4 0x3D9553EE EQ PUSH3 0x435 JUMPI DUP1 PUSH4 0x41EB4F82 EQ PUSH3 0x45A JUMPI DUP1 PUSH4 0x49E0A8EA EQ PUSH3 0x48B JUMPI DUP1 PUSH4 0x4BA2363A EQ PUSH3 0x4BF JUMPI DUP1 PUSH4 0x4F489743 EQ PUSH3 0x4D7 JUMPI PUSH1 0x0 DUP1 REVERT JUMPDEST DUP1 PUSH4 0x2A18C2FA GT PUSH3 0x22E JUMPI DUP1 PUSH4 0x2A18C2FA EQ PUSH3 0x399 JUMPI DUP1 PUSH4 0x2FFF91C9 EQ PUSH3 0x3BE JUMPI DUP1 PUSH4 0x301F9E80 EQ PUSH3 0x3E0 JUMPI DUP1 PUSH4 0x31E1AFA7 EQ PUSH3 0x405 JUMPI DUP1 PUSH4 0x3CCFD60B EQ PUSH3 0x41D JUMPI PUSH1 0x0 DUP1 REVERT JUMPDEST DUP1 PUSH4 0xEB5B32B EQ PUSH3 0x2A3 JUMPI DUP1 PUSH4 0x198C6845 EQ PUSH3 0x2E7 JUMPI DUP1 PUSH4 0x1AEE4EA3 EQ PUSH3 0x322 JUMPI DUP1 PUSH4 0x24305229 EQ PUSH3 0x33C JUMPI DUP1 PUSH4 0x24BA7E3D EQ PUSH3 0x354 JUMPI PUSH1 0x0 DUP1 REVERT JUMPDEST CALLDATASIZE PUSH3 0x29E JUMPI PUSH1 0x0 CALLVALUE GT PUSH3 0x283 JUMPI PUSH1 0x0 DUP1 REVERT JUMPDEST CALLVALUE PUSH1 0x1 PUSH1 0x0 DUP3 DUP3 SLOAD PUSH3 0x297 SWAP2 SWAP1 PUSH3 0x5933 JUMP JUMPDEST SWAP1 SWAP2 SSTORE POP POP STOP JUMPDEST PUSH1 0x0 DUP1 REVERT JUMPDEST CALLVALUE DUP1 ISZERO PUSH3 0x2B0 JUMPI PUSH1 0x0 DUP1 REVERT JUMPDEST POP PUSH3 0x2D4 PUSH3 0x2C2 CALLDATASIZE PUSH1 0x4 PUSH3 0x5729 JUMP JUMPDEST PUSH1 0x1B PUSH1 0x20 MSTORE PUSH1 0x0 SWAP1 DUP2 MSTORE PUSH1 0x40 SWAP1 KECCAK256 SLOAD DUP2 JUMP JUMPDEST PUSH1 0x40 MLOAD SWAP1 DUP2 MSTORE PUSH1 0x20 ADD JUMPDEST PUSH1 0x40 MLOAD DUP1 SWAP2 SUB SWAP1 RETURN JUMPDEST CALLVALUE DUP1 ISZERO PUSH3 0x2F4 JUMPI PUSH1 0x0 DUP1 REVERT JUMPDEST POP PUSH1 0xC SLOAD PUSH3 0x309 SWAP1 PUSH1 0x1 PUSH1 0x1 PUSH1 0xA0 SHL SUB AND DUP2 JUMP JUMPDEST PUSH1 0x40 MLOAD PUSH1 0x1 PUSH1 0x1 PUSH1 0xA0 SHL SUB SWAP1 SWAP2 AND DUP2 MSTORE PUSH1 0x20 ADD PUSH3 0x2DE JUMP JUMPDEST CALLVALUE DUP1 ISZERO PUSH3 0x32F JUMPI PUSH1 0x0 DUP1 REVERT JUMPDEST POP PUSH3 0x33A PUSH3 0x844 JUMP JUMPDEST STOP JUMPDEST CALLVALUE DUP1 ISZERO PUSH3 0x349 JUMPI PUSH1 0x0 DUP1 REVERT JUMPDEST POP PUSH3 0x33A PUSH3 0x893 JUMP JUMPDEST CALLVALUE DUP1 ISZERO PUSH3 0x361 JUMPI PUSH1 0x0 DUP1 REVERT JUMPDEST POP PUSH3 0x388 PUSH3 0x373 CALLDATASIZE PUSH1 0x4 PUSH3 0x5729 JUMP JUMPDEST PUSH1 0x14 PUSH1 0x20 MSTORE PUSH1 0x0 SWAP1 DUP2 MSTORE PUSH1 0x40 SWAP1 KECCAK256 SLOAD PUSH1 0xFF AND DUP2 JUMP JUMPDEST PUSH1 0x40 MLOAD SWAP1 ISZERO ISZERO DUP2 MSTORE PUSH1 0x20 ADD PUSH3 0x2DE JUMP JUMPDEST CALLVALUE DUP1 ISZERO PUSH3 0x3A6 JUMPI PUSH1 0x0 DUP1 REVERT JUMPDEST POP PUSH3 0x33A PUSH3 0x3B8 CALLDATASIZE PUSH1 0x4 PUSH3 0x585A JUMP JUMPDEST PUSH3 0x8DB JUMP JUMPDEST CALLVALUE DUP1 ISZERO PUSH3 0x3CB JUMPI PUSH1 0x0 DUP1 REVERT JUMPDEST POP PUSH1 0x20 SLOAD PUSH3 0x309 SWAP1 PUSH1 0x1 PUSH1 0x1 PUSH1 0xA0 SHL SUB AND DUP2 JUMP JUMPDEST CALLVALUE DUP1 ISZERO PUSH3 0x3ED JUMPI PUSH1 0x0 DUP1 REVERT JUMPDEST POP PUSH3 0x33A PUSH3 0x3FF CALLDATASIZE PUSH1 0x4 PUSH3 0x585A JUMP JUMPDEST PUSH3 0xA1D JUMP JUMPDEST CALLVALUE DUP1 ISZERO PUSH3 0x412 JUMPI PUSH1 0x0 DUP1 REVERT JUMPDEST POP PUSH3 0x33A PUSH3 0xB26 JUMP JUMPDEST CALLVALUE DUP1 ISZERO PUSH3 0x42A JUMPI PUSH1 0x0 DUP1 REVERT JUMPDEST POP PUSH3 0x33A PUSH3 0xB6A JUMP JUMPDEST CALLVALUE DUP1 ISZERO PUSH3 0x442 JUMPI PUSH1 0x0 DUP1 REVERT JUMPDEST POP PUSH3 0x33A PUSH3 0x454 CALLDATASIZE PUSH1 0x4 PUSH3 0x585A JUMP JUMPDEST PUSH3 0xBBF JUMP JUMPDEST CALLVALUE DUP1 ISZERO PUSH3 0x467 JUMPI PUSH1 0x0 DUP1 REVERT JUMPDEST POP PUSH3 0x2D4 PUSH3 0x479 CALLDATASIZE PUSH1 0x4 PUSH3 0x5729 JUMP JUMPDEST PUSH1 0x19 PUSH1 0x20 MSTORE PUSH1 0x0 SWAP1 DUP2 MSTORE PUSH1 0x40 SWAP1 KECCAK256 SLOAD DUP2 JUMP JUMPDEST CALLVALUE DUP1 ISZERO PUSH3 0x498 JUMPI PUSH1 0x0 DUP1 REVERT JUMPDEST POP PUSH3 0x388 PUSH3 0x4AA CALLDATASIZE PUSH1 0x4 PUSH3 0x5729 JUMP JUMPDEST PUSH1 0x11 PUSH1 0x20 MSTORE PUSH1 0x0 SWAP1 DUP2 MSTORE PUSH1 0x40 SWAP1 KECCAK256 SLOAD PUSH1 0xFF AND DUP2 JUMP JUMPDEST CALLVALUE DUP1 ISZERO PUSH3 0x4CC JUMPI PUSH1 0x0 DUP1 REVERT JUMPDEST POP PUSH3 0x2D4 PUSH1 0x1 SLOAD DUP2 JUMP JUMPDEST CALLVALUE DUP1 ISZERO PUSH3 0x4E4 JUMPI PUSH1 0x0 DUP1 REVERT JUMPDEST POP PUSH3 0x388 PUSH3 0x4F6 CALLDATASIZE PUSH1 0x4 PUSH3 0x5729 JUMP JUMPDEST PUSH1 0x12 PUSH1 0x20 MSTORE PUSH1 0x0 SWAP1 DUP2 MSTORE PUSH1 0x40 SWAP1 KECCAK256 SLOAD PUSH1 0xFF AND DUP2 JUMP JUMPDEST CALLVALUE DUP1 ISZERO PUSH3 0x518 JUMPI PUSH1 0x0 DUP1 REVERT JUMPDEST POP PUSH3 0x33A PUSH3 0xCC8 JUMP JUMPDEST PUSH3 0x33A PUSH3 0x534 CALLDATASIZE PUSH1 0x4 PUSH3 0x5826 JUMP JUMPDEST PUSH3 0xD10 JUMP JUMPDEST CALLVALUE DUP1 ISZERO PUSH3 0x547 JUMPI PUSH1 0x0 DUP1 REVERT JUMPDEST POP PUSH1 0x1D SLOAD PUSH3 0x309 SWAP1 PUSH1 0x1 PUSH1 0x1 PUSH1 0xA0 SHL SUB AND DUP2 JUMP JUMPDEST CALLVALUE DUP1 ISZERO PUSH3 0x569 JUMPI PUSH1 0x0 DUP1 REVERT JUMPDEST POP PUSH3 0x2D4 PUSH3 0x57B CALLDATASIZE PUSH1 0x4 PUSH3 0x5729 JUMP JUMPDEST PUSH1 0x1C PUSH1 0x20 MSTORE PUSH1 0x0 SWAP1 DUP2 MSTORE PUSH1 0x40 SWAP1 KECCAK256 SLOAD DUP2 JUMP JUMPDEST CALLVALUE DUP1 ISZERO PUSH3 0x59A JUMPI PUSH1 0x0 DUP1 REVERT JUMPDEST POP PUSH3 0x33A PUSH3 0x111D JUMP JUMPDEST CALLVALUE DUP1 ISZERO PUSH3 0x5B2 JUMPI PUSH1 0x0 DUP1 REVERT JUMPDEST POP PUSH3 0x33A PUSH3 0x1161 JUMP JUMPDEST CALLVALUE DUP1 ISZERO PUSH3 0x5CA JUMPI PUSH1 0x0 DUP1 REVERT JUMPDEST POP PUSH1 0xD SLOAD PUSH3 0x309 SWAP1 PUSH1 0x1 PUSH1 0x1 PUSH1 0xA0 SHL SUB AND DUP2 JUMP JUMPDEST CALLVALUE DUP1 ISZERO PUSH3 0x5EC JUMPI PUSH1 0x0 DUP1 REVERT JUMPDEST POP PUSH3 0x33A PUSH3 0x5FE CALLDATASIZE PUSH1 0x4 PUSH3 0x585A JUMP JUMPDEST PUSH3 0x11A9 JUMP JUMPDEST CALLVALUE DUP1 ISZERO PUSH3 0x611 JUMPI PUSH1 0x0 DUP1 REVERT JUMPDEST POP PUSH3 0x2D4 PUSH1 0x2 SLOAD DUP2 JUMP JUMPDEST CALLVALUE DUP1 ISZERO PUSH3 0x629 JUMPI PUSH1 0x0 DUP1 REVERT JUMPDEST POP PUSH1 0x3 SLOAD PUSH3 0x309 SWAP1 PUSH1 0x1 PUSH1 0x1 PUSH1 0xA0 SHL SUB AND DUP2 JUMP JUMPDEST CALLVALUE DUP1 ISZERO PUSH3 0x64B JUMPI PUSH1 0x0 DUP1 REVERT JUMPDEST POP PUSH3 0x33A PUSH3 0x65D CALLDATASIZE PUSH1 0x4 PUSH3 0x585A JUMP JUMPDEST PUSH3 0x12B2 JUMP JUMPDEST CALLVALUE DUP1 ISZERO PUSH3 0x670 JUMPI PUSH1 0x0 DUP1 REVERT JUMPDEST POP PUSH3 0x2D4 PUSH1 0x0 SLOAD DUP2 JUMP JUMPDEST CALLVALUE DUP1 ISZERO PUSH3 0x688 JUMPI PUSH1 0x0 DUP1 REVERT JUMPDEST POP PUSH3 0x33A PUSH3 0x69A CALLDATASIZE PUSH1 0x4 PUSH3 0x5750 JUMP JUMPDEST PUSH3 0x137C JUMP JUMPDEST CALLVALUE DUP1 ISZERO PUSH3 0x6AD JUMPI PUSH1 0x0 DUP1 REVERT JUMPDEST POP PUSH1 0x1F SLOAD PUSH3 0x309 SWAP1 PUSH1 0x1 PUSH1 0x1 PUSH1 0xA0 SHL SUB AND DUP2 JUMP JUMPDEST CALLVALUE DUP1 ISZERO PUSH3 0x6CF JUMPI PUSH1 0x0 DUP1 REVERT JUMPDEST POP PUSH3 0x2D4 PUSH3 0x6E1 CALLDATASIZE PUSH1 0x4 PUSH3 0x5729 JUMP JUMPDEST PUSH1 0x1A PUSH1 0x20 MSTORE PUSH1 0x0 SWAP1 DUP2 MSTORE PUSH1 0x40 SWAP1 KECCAK256 SLOAD DUP2 JUMP JUMPDEST CALLVALUE DUP1 ISZERO PUSH3 0x700 JUMPI PUSH1 0x0 DUP1 REVERT JUMPDEST POP PUSH3 0x33A PUSH3 0x712 CALLDATASIZE PUSH1 0x4 PUSH3 0x585A JUMP JUMPDEST PUSH3 0x13E4 JUMP JUMPDEST CALLVALUE DUP1 ISZERO PUSH3 0x725 JUMPI PUSH1 0x0 DUP1 REVERT JUMPDEST POP PUSH3 0x33A PUSH3 0x14AE JUMP JUMPDEST CALLVALUE DUP1 ISZERO PUSH3 0x73D JUMPI PUSH1 0x0 DUP1 REVERT JUMPDEST POP PUSH1 0xE SLOAD PUSH3 0x309 SWAP1 PUSH1 0x1 PUSH1 0x1 PUSH1 0xA0 SHL SUB AND DUP2 JUMP JUMPDEST CALLVALUE DUP1 ISZERO PUSH3 0x75F JUMPI PUSH1 0x0 DUP1 REVERT JUMPDEST POP PUSH3 0x33A PUSH3 0x54FF JUMP JUMPDEST CALLVALUE DUP1 ISZERO PUSH3 0x777 JUMPI PUSH1 0x0 DUP1 REVERT JUMPDEST POP PUSH3 0x33A PUSH3 0x789 CALLDATASIZE PUSH1 0x4 PUSH3 0x585A JUMP JUMPDEST PUSH3 0x5543 JUMP JUMPDEST CALLVALUE DUP1 ISZERO PUSH3 0x79C JUMPI PUSH1 0x0 DUP1 REVERT JUMPDEST POP PUSH3 0x33A PUSH3 0x7AE CALLDATASIZE PUSH1 0x4 PUSH3 0x585A JUMP JUMPDEST PUSH3 0x560D JUMP JUMPDEST CALLVALUE DUP1 ISZERO PUSH3 0x7C1 JUMPI PUSH1 0x0 DUP1 REVERT JUMPDEST POP PUSH1 0xF SLOAD PUSH3 0x309 SWAP1 PUSH1 0x1 PUSH1 0x1 PUSH1 0xA0 SHL SUB AND DUP2 JUMP JUMPDEST CALLVALUE DUP1 ISZERO PUSH3 0x7E3 JUMPI PUSH1 0x0 DUP1 REVERT JUMPDEST POP PUSH3 0x33A PUSH3 0x56D7 JUMP JUMPDEST CALLVALUE DUP1 ISZERO PUSH3 0x7FB JUMPI PUSH1 0x0 DUP1 REVERT JUMPDEST POP PUSH3 0x388 PUSH3 0x80D CALLDATASIZE PUSH1 0x4 PUSH3 0x5729 JUMP JUMPDEST PUSH1 0x13 PUSH1 0x20 MSTORE PUSH1 0x0 SWAP1 DUP2 MSTORE PUSH1 0x40 SWAP1 KECCAK256 SLOAD PUSH1 0xFF AND DUP2 JUMP JUMPDEST CALLVALUE DUP1 ISZERO PUSH3 0x82F JUMPI PUSH1 0x0 DUP1 REVERT JUMPDEST POP PUSH1 0x1E SLOAD PUSH3 0x309 SWAP1 PUSH1 0x1 PUSH1 0x1 PUSH1 0xA0 SHL SUB AND DUP2 JUMP JUMPDEST CALLER PUSH1 0x0 SWAP1 DUP2 MSTORE PUSH1 0x14 PUSH1 0x20 MSTORE PUSH1 0x40 SWAP1 KECCAK256 SLOAD PUSH1 0xFF AND ISZERO PUSH3 0x862 JUMPI PUSH1 0x0 DUP1 REVERT JUMPDEST CALLER PUSH1 0x0 SWAP1 DUP2 MSTORE PUSH1 0x14 PUSH1 0x20 MSTORE PUSH1 0x40 DUP2 KECCAK256 DUP1 SLOAD PUSH1 0xFF NOT AND PUSH1 0x1 OR SWAP1 SSTORE PUSH1 0x18 DUP1 SLOAD SWAP2 PUSH3 0x88C DUP4 PUSH3 0x59AD JUMP JUMPDEST SWAP2 SWAP1 POP SSTORE POP JUMP JUMPDEST CALLER PUSH1 0x0 SWAP1 DUP2 MSTORE PUSH1 0x11 PUSH1 0x20 MSTORE PUSH1 0x40 SWAP1 KECCAK256 SLOAD PUSH1 0xFF AND ISZERO PUSH3 0x8B1 JUMPI PUSH1 0x0 DUP1 REVERT JUMPDEST CALLER PUSH1 0x0 SWAP1 DUP2 MSTORE PUSH1 0x11 PUSH1 0x20 MSTORE PUSH1 0x40 DUP2 KECCAK256 DUP1 SLOAD PUSH1 0xFF NOT AND PUSH1 0x1 OR SWAP1 SSTORE PUSH1 0x15 DUP1 SLOAD SWAP2 PUSH3 0x88C DUP4 PUSH3 0x59AD JUMP JUMPDEST CALLER PUSH1 0x0 SWAP1 DUP2 MSTORE PUSH1 0x14 PUSH1 0x20 MSTORE PUSH1 0x40 SWAP1 KECCAK256 SLOAD PUSH1 0xFF AND PUSH3 0x8F8 JUMPI PUSH1 0x0 DUP1 REVERT JUMPDEST PUSH1 0x0 DUP3 GT PUSH3 0x906 JUMPI PUSH1 0x0 DUP1 REVERT JUMPDEST PUSH1 0xE SLOAD PUSH1 0x40 MLOAD PUSH4 0x70A08231 PUSH1 0xE0 SHL DUP2 MSTORE CALLER PUSH1 0x4 DUP3 ADD MSTORE DUP4 SWAP2 PUSH1 0x1 PUSH1 0x1 PUSH1 0xA0 SHL SUB AND SWAP1 PUSH4 0x70A08231 SWAP1 PUSH1 0x24 ADD PUSH1 0x20 PUSH1 0x40 MLOAD DUP1 DUP4 SUB DUP2 DUP7 DUP1 EXTCODESIZE ISZERO DUP1 ISZERO PUSH3 0x94A JUMPI PUSH1 0x0 DUP1 REVERT JUMPDEST POP GAS STATICCALL ISZERO DUP1 ISZERO PUSH3 0x95F JUMPI RETURNDATASIZE PUSH1 0x0 DUP1 RETURNDATACOPY RETURNDATASIZE PUSH1 0x0 REVERT JUMPDEST POP POP POP POP PUSH1 0x40 MLOAD RETURNDATASIZE PUSH1 0x1F NOT PUSH1 0x1F DUP3 ADD AND DUP3 ADD DUP1 PUSH1 0x40 MSTORE POP DUP2 ADD SWAP1 PUSH3 0x985 SWAP2 SWAP1 PUSH3 0x5840 JUMP JUMPDEST LT ISZERO PUSH3 0x991 JUMPI PUSH1 0x0 DUP1 REVERT JUMPDEST DUP2 PUSH1 0x7 PUSH1 0x0 DUP3 DUP3 SLOAD PUSH3 0x9A5 SWAP2 SWAP1 PUSH3 0x5933 JUMP JUMPDEST SWAP1 SWAP2 SSTORE POP POP PUSH1 0xE SLOAD PUSH1 0x2 SLOAD PUSH1 0x40 MLOAD PUSH4 0xCB8BF559 PUSH1 0xE0 SHL DUP2 MSTORE PUSH1 0x1 PUSH1 0x1 PUSH1 0xA0 SHL SUB SWAP1 SWAP3 AND SWAP2 PUSH4 0xCB8BF559 SWAP2 PUSH3 0x9E4 SWAP2 CALLER SWAP2 ADDRESS SWAP2 DUP9 SWAP2 SWAP1 PUSH1 0x4 ADD PUSH3 0x58B6 JUMP JUMPDEST PUSH1 0x0 PUSH1 0x40 MLOAD DUP1 DUP4 SUB DUP2 PUSH1 0x0 DUP8 DUP1 EXTCODESIZE ISZERO DUP1 ISZERO PUSH3 0x9FF JUMPI PUSH1 0x0 DUP1 REVERT JUMPDEST POP GAS CALL ISZERO DUP1 ISZERO PUSH3 0xA14 JUMPI RETURNDATASIZE PUSH1 0x0 DUP1 RETURNDATACOPY RETURNDATASIZE PUSH1 0x0 REVERT JUMPDEST POP POP POP POP POP POP POP JUMP JUMPDEST CALLER PUSH1 0x0 SWAP1 DUP2 MSTORE PUSH1 0x12 PUSH1 0x20 MSTORE PUSH1 0x40 SWAP1 KECCAK256 SLOAD PUSH1 0xFF AND PUSH3 0xA3A JUMPI PUSH1 0x0 DUP1 REVERT JUMPDEST PUSH1 0x0 DUP3 GT PUSH3 0xA48 JUMPI PUSH1 0x0 DUP1 REVERT JUMPDEST PUSH1 0xD SLOAD PUSH1 0x40 MLOAD PUSH4 0x70A08231 PUSH1 0xE0 SHL DUP2 MSTORE CALLER PUSH1 0x4 DUP3 ADD MSTORE DUP4 SWAP2 PUSH1 0x1 PUSH1 0x1 PUSH1 0xA0 SHL SUB AND SWAP1 PUSH4 0x70A08231 SWAP1 PUSH1 0x24 ADD PUSH1 0x20 PUSH1 0x40 MLOAD DUP1 DUP4 SUB DUP2 DUP7 DUP1 EXTCODESIZE ISZERO DUP1 ISZERO PUSH3 0xA8C JUMPI PUSH1 0x0 DUP1 REVERT JUMPDEST POP GAS STATICCALL ISZERO DUP1 ISZERO PUSH3 0xAA1 JUMPI RETURNDATASIZE PUSH1 0x0 DUP1 RETURNDATACOPY RETURNDATASIZE PUSH1 0x0 REVERT JUMPDEST POP POP POP POP PUSH1 0x40 MLOAD RETURNDATASIZE PUSH1 0x1F NOT PUSH1 0x1F DUP3 ADD AND DUP3 ADD DUP1 PUSH1 0x40 MSTORE POP DUP2 ADD SWAP1 PUSH3 0xAC7 SWAP2 SWAP1 PUSH3 0x5840 JUMP JUMPDEST LT ISZERO PUSH3 0xAD3 JUMPI PUSH1 0x0 DUP1 REVERT JUMPDEST DUP2 PUSH1 0x5 PUSH1 0x0 DUP3 DUP3 SLOAD PUSH3 0xAE7 SWAP2 SWAP1 PUSH3 0x5933 JUMP JUMPDEST SWAP1 SWAP2 SSTORE POP POP PUSH1 0xD SLOAD PUSH1 0x2 SLOAD PUSH1 0x40 MLOAD PUSH4 0xCB8BF559 PUSH1 0xE0 SHL DUP2 MSTORE PUSH1 0x1 PUSH1 0x1 PUSH1 0xA0 SHL SUB SWAP1 SWAP3 AND SWAP2 PUSH4 0xCB8BF559 SWAP2 PUSH3 0x9E4 SWAP2 CALLER SWAP2 ADDRESS SWAP2 DUP9 SWAP2 SWAP1 PUSH1 0x4 ADD PUSH3 0x58B6 JUMP JUMPDEST CALLER PUSH1 0x0 SWAP1 DUP2 MSTORE PUSH1 0x12 PUSH1 0x20 MSTORE PUSH1 0x40 SWAP1 KECCAK256 SLOAD PUSH1 0xFF AND PUSH3 0xB43 JUMPI PUSH1 0x0 DUP1 REVERT JUMPDEST CALLER PUSH1 0x0 SWAP1 DUP2 MSTORE PUSH1 0x12 PUSH1 0x20 MSTORE PUSH1 0x40 DUP2 KECCAK256 DUP1 SLOAD PUSH1 0xFF NOT AND SWAP1 SSTORE PUSH1 0x16 DUP1 SLOAD SWAP2 PUSH3 0x88C DUP4 PUSH3 0x5993 JUMP JUMPDEST PUSH1 0x3 SLOAD PUSH1 0x1 PUSH1 0x1 PUSH1 0xA0 SHL SUB AND CALLER EQ PUSH3 0xB82 JUMPI PUSH1 0x0 DUP1 REVERT JUMPDEST PUSH1 0x3 SLOAD PUSH1 0x40 MLOAD PUSH1 0x1 PUSH1 0x1 PUSH1 0xA0 SHL SUB SWAP1 SWAP2 AND SWAP1 SELFBALANCE DUP1 ISZERO PUSH2 0x8FC MUL SWAP2 PUSH1 0x0 DUP2 DUP2 DUP2 DUP6 DUP9 DUP9 CALL SWAP4 POP POP POP POP ISZERO DUP1 ISZERO PUSH3 0xBBC JUMPI RETURNDATASIZE PUSH1 0x0 DUP1 RETURNDATACOPY RETURNDATASIZE PUSH1 0x0 REVERT JUMPDEST POP JUMP JUMPDEST CALLER PUSH1 0x0 SWAP1 DUP2 MSTORE PUSH1 0x11 PUSH1 0x20 MSTORE PUSH1 0x40 SWAP1 KECCAK256 SLOAD PUSH1 0xFF AND PUSH3 0xBDC JUMPI PUSH1 0x0 DUP1 REVERT JUMPDEST PUSH1 0x0 DUP3 GT PUSH3 0xBEA JUMPI PUSH1 0x0 DUP1 REVERT JUMPDEST PUSH1 0xC SLOAD PUSH1 0x40 MLOAD PUSH4 0x70A08231 PUSH1 0xE0 SHL DUP2 MSTORE CALLER PUSH1 0x4 DUP3 ADD MSTORE DUP4 SWAP2 PUSH1 0x1 PUSH1 0x1 PUSH1 0xA0 SHL SUB AND SWAP1 PUSH4 0x70A08231 SWAP1 PUSH1 0x24 ADD PUSH1 0x20 PUSH1 0x40 MLOAD DUP1 DUP4 SUB DUP2 DUP7 DUP1 EXTCODESIZE ISZERO DUP1 ISZERO PUSH3 0xC2E JUMPI PUSH1 0x0 DUP1 REVERT JUMPDEST POP GAS STATICCALL ISZERO DUP1 ISZERO PUSH3 0xC43 JUMPI RETURNDATASIZE PUSH1 0x0 DUP1 RETURNDATACOPY RETURNDATASIZE PUSH1 0x0 REVERT JUMPDEST POP POP POP POP PUSH1 0x40 MLOAD RETURNDATASIZE PUSH1 0x1F NOT PUSH1 0x1F DUP3 ADD AND DUP3 ADD DUP1 PUSH1 0x40 MSTORE POP DUP2 ADD SWAP1 PUSH3 0xC69 SWAP2 SWAP1 PUSH3 0x5840 JUMP JUMPDEST LT ISZERO PUSH3 0xC75 JUMPI PUSH1 0x0 DUP1 REVERT JUMPDEST DUP2 PUSH1 0x8 PUSH1 0x0 DUP3 DUP3 SLOAD PUSH3 0xC89 SWAP2 SWAP1 PUSH3 0x5933 JUMP JUMPDEST SWAP1 SWAP2 SSTORE POP POP PUSH1 0xC SLOAD PUSH1 0x2 SLOAD PUSH1 0x40 MLOAD PUSH4 0xCB8BF559 PUSH1 0xE0 SHL DUP2 MSTORE PUSH1 0x1 PUSH1 0x1 PUSH1 0xA0 SHL SUB SWAP1 SWAP3 AND SWAP2 PUSH4 0xCB8BF559 SWAP2 PUSH3 0x9E4 SWAP2 CALLER SWAP2 ADDRESS SWAP2 DUP9 SWAP2 SWAP1 PUSH1 0x4 ADD PUSH3 0x58B6 JUMP JUMPDEST CALLER PUSH1 0x0 SWAP1 DUP2 MSTORE PUSH1 0x13 PUSH1 0x20 MSTORE PUSH1 0x40 SWAP1 KECCAK256 SLOAD PUSH1 0xFF AND ISZERO PUSH3 0xCE6 JUMPI PUSH1 0x0 DUP1 REVERT JUMPDEST CALLER PUSH1 0x0 SWAP1 DUP2 MSTORE PUSH1 0x13 PUSH1 0x20 MSTORE PUSH1 0x40 DUP2 KECCAK256 DUP1 SLOAD PUSH1 0xFF NOT AND PUSH1 0x1 OR SWAP1 SSTORE PUSH1 0x17 DUP1 SLOAD SWAP2 PUSH3 0x88C DUP4 PUSH3 0x59AD JUMP JUMPDEST PUSH1 0x0 CALLVALUE GT PUSH3 0xD1E JUMPI PUSH1 0x0 DUP1 REVERT JUMPDEST DUP1 CALLVALUE EQ PUSH3 0xD2B JUMPI PUSH1 0x0 DUP1 REVERT JUMPDEST PUSH1 0x0 SLOAD CALLVALUE EQ PUSH3 0xD3A JUMPI PUSH1 0x0 DUP1 REVERT JUMPDEST PUSH1 0x2 SLOAD TIMESTAMP LT PUSH3 0xD49 JUMPI PUSH1 0x0 DUP1 REVERT JUMPDEST CALLER PUSH1 0x0 SWAP1 DUP2 MSTORE PUSH1 0x11 PUSH1 0x20 MSTORE PUSH1 0x40 SWAP1 KECCAK256 SLOAD PUSH1 0xFF AND DUP1 PUSH3 0xD77 JUMPI POP CALLER PUSH1 0x0 SWAP1 DUP2 MSTORE PUSH1 0x12 PUSH1 0x20 MSTORE PUSH1 0x40 SWAP1 KECCAK256 SLOAD PUSH1 0xFF AND JUMPDEST DUP1 PUSH3 0xD92 JUMPI POP CALLER PUSH1 0x0 SWAP1 DUP2 MSTORE PUSH1 0x13 PUSH1 0x20 MSTORE PUSH1 0x40 SWAP1 KECCAK256 SLOAD PUSH1 0xFF AND JUMPDEST DUP1 PUSH3 0xDAD JUMPI POP CALLER PUSH1 0x0 SWAP1 DUP2 MSTORE PUSH1 0x14 PUSH1 0x20 MSTORE PUSH1 0x40 SWAP1 KECCAK256 SLOAD PUSH1 0xFF AND JUMPDEST PUSH3 0xDB7 JUMPI PUSH1 0x0 DUP1 REVERT JUMPDEST CALLER PUSH1 0x0 SWAP1 DUP2 MSTORE PUSH1 0x11 PUSH1 0x20 MSTORE PUSH1 0x40 SWAP1 KECCAK256 SLOAD PUSH1 0xFF AND ISZERO PUSH3 0xE96 JUMPI PUSH1 0x5 SLOAD PUSH1 0x4 SLOAD LT ISZERO DUP1 ISZERO PUSH3 0xDE9 JUMPI POP PUSH1 0x6 SLOAD PUSH1 0x4 SLOAD LT ISZERO JUMPDEST DUP1 ISZERO PUSH3 0xDFA JUMPI POP PUSH1 0x7 SLOAD PUSH1 0x4 SLOAD LT ISZERO JUMPDEST PUSH3 0xE04 JUMPI PUSH1 0x0 DUP1 REVERT JUMPDEST CALLVALUE PUSH1 0x1 PUSH1 0x0 DUP3 DUP3 SLOAD PUSH3 0xE18 SWAP2 SWAP1 PUSH3 0x5933 JUMP JUMPDEST SWAP1 SWAP2 SSTORE POP POP PUSH1 0xC SLOAD PUSH1 0x40 MLOAD PUSH4 0x910BDAEB PUSH1 0xE0 SHL DUP2 MSTORE PUSH1 0x3 PUSH1 0x4 DUP3 ADD MSTORE PUSH1 0x1 PUSH1 0x1 PUSH1 0xA0 SHL SUB SWAP1 SWAP2 AND SWAP1 PUSH4 0x910BDAEB SWAP1 PUSH1 0x24 ADD PUSH1 0x0 PUSH1 0x40 MLOAD DUP1 DUP4 SUB DUP2 PUSH1 0x0 DUP8 DUP1 EXTCODESIZE ISZERO DUP1 ISZERO PUSH3 0xE64 JUMPI PUSH1 0x0 DUP1 REVERT JUMPDEST POP GAS CALL ISZERO DUP1 ISZERO PUSH3 0xE79 JUMPI RETURNDATASIZE PUSH1 0x0 DUP1 RETURNDATACOPY RETURNDATASIZE PUSH1 0x0 REVERT JUMPDEST POP POP POP POP TIMESTAMP PUSH2 0x12C PUSH3 0xE8D SWAP2 SWAP1 PUSH3 0x5933 JUMP JUMPDEST PUSH1 0x2 SSTORE PUSH3 0x10F8 JUMP JUMPDEST CALLER PUSH1 0x0 SWAP1 DUP2 MSTORE PUSH1 0x12 PUSH1 0x20 MSTORE PUSH1 0x40 SWAP1 KECCAK256 SLOAD PUSH1 0xFF AND ISZERO PUSH3 0xF75 JUMPI PUSH1 0x4 SLOAD PUSH1 0x5 SLOAD LT ISZERO DUP1 ISZERO PUSH3 0xEC8 JUMPI POP PUSH1 0x6 SLOAD PUSH1 0x5 SLOAD LT ISZERO JUMPDEST DUP1 ISZERO PUSH3 0xED9 JUMPI POP PUSH1 0x7 SLOAD PUSH1 0x5 SLOAD LT ISZERO JUMPDEST PUSH3 0xEE3 JUMPI PUSH1 0x0 DUP1 REVERT JUMPDEST CALLVALUE PUSH1 0x1 PUSH1 0x0 DUP3 DUP3 SLOAD PUSH3 0xEF7 SWAP2 SWAP1 PUSH3 0x5933 JUMP JUMPDEST SWAP1 SWAP2 SSTORE POP PUSH3 0xF0B SWAP1 POP TIMESTAMP PUSH2 0x12C PUSH3 0x5933 JUMP JUMPDEST PUSH1 0x2 SSTORE PUSH1 0xD SLOAD PUSH1 0x40 MLOAD PUSH4 0x910BDAEB PUSH1 0xE0 SHL DUP2 MSTORE PUSH1 0x3 PUSH1 0x4 DUP3 ADD MSTORE PUSH1 0x1 PUSH1 0x1 PUSH1 0xA0 SHL SUB SWAP1 SWAP2 AND SWAP1 PUSH4 0x910BDAEB SWAP1 PUSH1 0x24 ADD JUMPDEST PUSH1 0x0 PUSH1 0x40 MLOAD DUP1 DUP4 SUB DUP2 PUSH1 0x0 DUP8 DUP1 EXTCODESIZE ISZERO DUP1 ISZERO PUSH3 0xF56 JUMPI PUSH1 0x0 DUP1 REVERT JUMPDEST POP GAS CALL ISZERO DUP1 ISZERO PUSH3 0xF6B JUMPI RETURNDATASIZE PUSH1 0x0 DUP1 RETURNDATACOPY RETURNDATASIZE PUSH1 0x0 REVERT JUMPDEST POP POP POP POP PUSH3 0x10F8 JUMP JUMPDEST CALLER PUSH1 0x0 SWAP1 DUP2 MSTORE PUSH1 0x13 PUSH1 0x20 MSTORE PUSH1 0x40 SWAP1 KECCAK256 SLOAD PUSH1 0xFF AND ISZERO PUSH3 0x101F JUMPI PUSH1 0x4 SLOAD PUSH1 0x6 SLOAD LT ISZERO DUP1 ISZERO PUSH3 0xFA7 JUMPI POP PUSH1 0x5 SLOAD PUSH1 0x6 SLOAD LT ISZERO JUMPDEST DUP1 ISZERO PUSH3 0xFB8 JUMPI POP PUSH1 0x7 SLOAD PUSH1 0x6 SLOAD LT ISZERO JUMPDEST PUSH3 0xFC2 JUMPI PUSH1 0x0 DUP1 REVERT JUMPDEST CALLVALUE PUSH1 0x1 PUSH1 0x0 DUP3 DUP3 SLOAD PUSH3 0xFD6 SWAP2 SWAP1 PUSH3 0x5933 JUMP JUMPDEST SWAP1 SWAP2 SSTORE POP PUSH3 0xFEA SWAP1 POP TIMESTAMP PUSH2 0x12C PUSH3 0x5933 JUMP JUMPDEST PUSH1 0x2 SSTORE PUSH1 0xF SLOAD PUSH1 0x40 MLOAD PUSH4 0x910BDAEB PUSH1 0xE0 SHL DUP2 MSTORE PUSH1 0x3 PUSH1 0x4 DUP3 ADD MSTORE PUSH1 0x1 PUSH1 0x1 PUSH1 0xA0 SHL SUB SWAP1 SWAP2 AND SWAP1 PUSH4 0x910BDAEB SWAP1 PUSH1 0x24 ADD PUSH3 0xF3B JUMP JUMPDEST CALLER PUSH1 0x0 SWAP1 DUP2 MSTORE PUSH1 0x14 PUSH1 0x20 MSTORE PUSH1 0x40 SWAP1 KECCAK256 SLOAD PUSH1 0xFF AND ISZERO PUSH3 0x10F8 JUMPI PUSH1 0x4 SLOAD PUSH1 0x7 SLOAD LT ISZERO DUP1 ISZERO PUSH3 0x1051 JUMPI POP PUSH1 0x5 SLOAD PUSH1 0x7 SLOAD LT ISZERO JUMPDEST DUP1 ISZERO PUSH3 0x1062 JUMPI POP PUSH1 0x6 SLOAD PUSH1 0x7 SLOAD LT ISZERO JUMPDEST PUSH3 0x106C JUMPI PUSH1 0x0 DUP1 REVERT JUMPDEST CALLVALUE PUSH1 0x1 PUSH1 0x0 DUP3 DUP3 SLOAD PUSH3 0x1080 SWAP2 SWAP1 PUSH3 0x5933 JUMP JUMPDEST SWAP1 SWAP2 SSTORE POP PUSH3 0x1094 SWAP1 POP TIMESTAMP PUSH2 0x12C PUSH3 0x5933 JUMP JUMPDEST PUSH1 0x2 SSTORE PUSH1 0xE SLOAD PUSH1 0x40 MLOAD PUSH4 0x910BDAEB PUSH1 0xE0 SHL DUP2 MSTORE PUSH1 0x3 PUSH1 0x4 DUP3 ADD MSTORE PUSH1 0x1 PUSH1 0x1 PUSH1 0xA0 SHL SUB SWAP1 SWAP2 AND SWAP1 PUSH4 0x910BDAEB SWAP1 PUSH1 0x24 ADD PUSH1 0x0 PUSH1 0x40 MLOAD DUP1 DUP4 SUB DUP2 PUSH1 0x0 DUP8 DUP1 EXTCODESIZE ISZERO DUP1 ISZERO PUSH3 0x10DE JUMPI PUSH1 0x0 DUP1 REVERT JUMPDEST POP GAS CALL ISZERO DUP1 ISZERO PUSH3 0x10F3 JUMPI RETURNDATASIZE PUSH1 0x0 DUP1 RETURNDATACOPY RETURNDATASIZE PUSH1 0x0 REVERT JUMPDEST POP POP POP POP JUMPDEST PUSH1 0x64 PUSH1 0x0 SLOAD PUSH1 0x65 PUSH3 0x110B SWAP2 SWAP1 PUSH3 0x5971 JUMP JUMPDEST PUSH3 0x1117 SWAP2 SWAP1 PUSH3 0x594E JUMP JUMPDEST PUSH1 0x0 SSTORE POP JUMP JUMPDEST CALLER PUSH1 0x0 SWAP1 DUP2 MSTORE PUSH1 0x13 PUSH1 0x20 MSTORE PUSH1 0x40 SWAP1 KECCAK256 SLOAD PUSH1 0xFF AND PUSH3 0x113A JUMPI PUSH1 0x0 DUP1 REVERT JUMPDEST CALLER PUSH1 0x0 SWAP1 DUP2 MSTORE PUSH1 0x13 PUSH1 0x20 MSTORE PUSH1 0x40 DUP2 KECCAK256 DUP1 SLOAD PUSH1 0xFF NOT AND SWAP1 SSTORE PUSH1 0x17 DUP1 SLOAD SWAP2 PUSH3 0x88C DUP4 PUSH3 0x5993 JUMP JUMPDEST CALLER PUSH1 0x0 SWAP1 DUP2 MSTORE PUSH1 0x12 PUSH1 0x20 MSTORE PUSH1 0x40 SWAP1 KECCAK256 SLOAD PUSH1 0xFF AND ISZERO PUSH3 0x117F JUMPI PUSH1 0x0 DUP1 REVERT JUMPDEST CALLER PUSH1 0x0 SWAP1 DUP2 MSTORE PUSH1 0x12 PUSH1 0x20 MSTORE PUSH1 0x40 DUP2 KECCAK256 DUP1 SLOAD PUSH1 0xFF NOT AND PUSH1 0x1 OR SWAP1 SSTORE PUSH1 0x16 DUP1 SLOAD SWAP2 PUSH3 0x88C DUP4 PUSH3 0x59AD JUMP JUMPDEST CALLER PUSH1 0x0 SWAP1 DUP2 MSTORE PUSH1 0x13 PUSH1 0x20 MSTORE PUSH1 0x40 SWAP1 KECCAK256 SLOAD PUSH1 0xFF AND PUSH3 0x11C6 JUMPI PUSH1 0x0 DUP1 REVERT JUMPDEST PUSH1 0x0 DUP3 GT PUSH3 0x11D4 JUMPI PUSH1 0x0 DUP1 REVERT JUMPDEST PUSH1 0xF SLOAD PUSH1 0x40 MLOAD PUSH4 0x70A08231 PUSH1 0xE0 SHL DUP2 MSTORE CALLER PUSH1 0x4 DUP3 ADD MSTORE DUP4 SWAP2 PUSH1 0x1 PUSH1 0x1 PUSH1 0xA0 SHL SUB AND SWAP1 PUSH4 0x70A08231 SWAP1 PUSH1 0x24 ADD PUSH1 0x20 PUSH1 0x40 MLOAD DUP1 DUP4 SUB DUP2 DUP7 DUP1 EXTCODESIZE ISZERO DUP1 ISZERO PUSH3 0x1218 JUMPI PUSH1 0x0 DUP1 REVERT JUMPDEST POP GAS STATICCALL ISZERO DUP1 ISZERO PUSH3 0x122D JUMPI RETURNDATASIZE PUSH1 0x0 DUP1 RETURNDATACOPY RETURNDATASIZE PUSH1 0x0 REVERT JUMPDEST POP POP POP POP PUSH1 0x40 MLOAD RETURNDATASIZE PUSH1 0x1F NOT PUSH1 0x1F DUP3 ADD AND DUP3 ADD DUP1 PUSH1 0x40 MSTORE POP DUP2 ADD SWAP1 PUSH3 0x1253 SWAP2 SWAP1 PUSH3 0x5840 JUMP JUMPDEST LT ISZERO PUSH3 0x125F JUMPI PUSH1 0x0 DUP1 REVERT JUMPDEST DUP2 PUSH1 0x6 PUSH1 0x0 DUP3 DUP3 SLOAD PUSH3 0x1273 SWAP2 SWAP1 PUSH3 0x5933 JUMP JUMPDEST SWAP1 SWAP2 SSTORE POP POP PUSH1 0xF SLOAD PUSH1 0x2 SLOAD PUSH1 0x40 MLOAD PUSH4 0xCB8BF559 PUSH1 0xE0 SHL DUP2 MSTORE PUSH1 0x1 PUSH1 0x1 PUSH1 0xA0 SHL SUB SWAP1 SWAP3 AND SWAP2 PUSH4 0xCB8BF559 SWAP2 PUSH3 0x9E4 SWAP2 CALLER SWAP2 ADDRESS SWAP2 DUP9 SWAP2 SWAP1 PUSH1 0x4 ADD PUSH3 0x58B6 JUMP JUMPDEST CALLER PUSH1 0x0 SWAP1 DUP2 MSTORE PUSH1 0x13 PUSH1 0x20 MSTORE PUSH1 0x40 SWAP1 KECCAK256 SLOAD PUSH1 0xFF AND PUSH3 0x12CF JUMPI PUSH1 0x0 DUP1 REVERT JUMPDEST PUSH1 0x0 DUP3 GT PUSH3 0x12DD JUMPI PUSH1 0x0 DUP1 REVERT JUMPDEST PUSH1 0xF SLOAD PUSH1 0x40 MLOAD PUSH4 0x70A08231 PUSH1 0xE0 SHL DUP2 MSTORE CALLER PUSH1 0x4 DUP3 ADD MSTORE DUP4 SWAP2 PUSH1 0x1 PUSH1 0x1 PUSH1 0xA0 SHL SUB AND SWAP1 PUSH4 0x70A08231 SWAP1 PUSH1 0x24 ADD PUSH1 0x20 PUSH1 0x40 MLOAD DUP1 DUP4 SUB DUP2 DUP7 DUP1 EXTCODESIZE ISZERO DUP1 ISZERO PUSH3 0x1321 JUMPI PUSH1 0x0 DUP1 REVERT JUMPDEST POP GAS STATICCALL ISZERO DUP1 ISZERO PUSH3 0x1336 JUMPI RETURNDATASIZE PUSH1 0x0 DUP1 RETURNDATACOPY RETURNDATASIZE PUSH1 0x0 REVERT JUMPDEST POP POP POP POP PUSH1 0x40 MLOAD RETURNDATASIZE PUSH1 0x1F NOT PUSH1 0x1F DUP3 ADD AND DUP3 ADD DUP1 PUSH1 0x40 MSTORE POP DUP2 ADD SWAP1 PUSH3 0x135C SWAP2 SWAP1 PUSH3 0x5840 JUMP JUMPDEST LT ISZERO PUSH3 0x1368 JUMPI PUSH1 0x0 DUP1 REVERT JUMPDEST DUP2 PUSH1 0xA PUSH1 0x0 DUP3 DUP3 SLOAD PUSH3 0x1273 SWAP2 SWAP1 PUSH3 0x5933 JUMP JUMPDEST PUSH1 0x3 SLOAD PUSH1 0x1 PUSH1 0x1 PUSH1 0xA0 SHL SUB AND CALLER EQ PUSH3 0x1394 JUMPI PUSH1 0x0 DUP1 REVERT JUMPDEST PUSH1 0xC DUP1 SLOAD PUSH1 0x1 PUSH1 0x1 PUSH1 0xA0 SHL SUB SWAP6 DUP7 AND PUSH1 0x1 PUSH1 0x1 PUSH1 0xA0 SHL SUB NOT SWAP2 DUP3 AND OR SWAP1 SWAP2 SSTORE PUSH1 0xD DUP1 SLOAD SWAP5 DUP7 AND SWAP5 DUP3 AND SWAP5 SWAP1 SWAP5 OR SWAP1 SWAP4 SSTORE PUSH1 0xF DUP1 SLOAD SWAP3 DUP6 AND SWAP3 DUP5 AND SWAP3 SWAP1 SWAP3 OR SWAP1 SWAP2 SSTORE PUSH1 0xE DUP1 SLOAD SWAP2 SWAP1 SWAP4 AND SWAP2 AND OR SWAP1 SSTORE JUMP JUMPDEST CALLER PUSH1 0x0 SWAP1 DUP2 MSTORE PUSH1 0x11 PUSH1 0x20 MSTORE PUSH1 0x40 SWAP1 KECCAK256 SLOAD PUSH1 0xFF AND PUSH3 0x1401 JUMPI PUSH1 0x0 DUP1 REVERT JUMPDEST PUSH1 0x0 DUP3 GT PUSH3 0x140F JUMPI PUSH1 0x0 DUP1 REVERT JUMPDEST PUSH1 0xC SLOAD PUSH1 0x40 MLOAD PUSH4 0x70A08231 PUSH1 0xE0 SHL DUP2 MSTORE CALLER PUSH1 0x4 DUP3 ADD MSTORE DUP4 SWAP2 PUSH1 0x1 PUSH1 0x1 PUSH1 0xA0 SHL SUB AND SWAP1 PUSH4 0x70A08231 SWAP1 PUSH1 0x24 ADD PUSH1 0x20 PUSH1 0x40 MLOAD DUP1 DUP4 SUB DUP2 DUP7 DUP1 EXTCODESIZE ISZERO DUP1 ISZERO PUSH3 0x1453 JUMPI PUSH1 0x0 DUP1 REVERT JUMPDEST POP GAS STATICCALL ISZERO DUP1 ISZERO PUSH3 0x1468 JUMPI RETURNDATASIZE PUSH1 0x0 DUP1 RETURNDATACOPY RETURNDATASIZE PUSH1 0x0 REVERT JUMPDEST POP POP POP POP PUSH1 0x40 MLOAD RETURNDATASIZE PUSH1 0x1F NOT PUSH1 0x1F DUP3 ADD AND DUP3 ADD DUP1 PUSH1 0x40 MSTORE POP DUP2 ADD SWAP1 PUSH3 0x148E SWAP2 SWAP1 PUSH3 0x5840 JUMP JUMPDEST LT ISZERO PUSH3 0x149A JUMPI PUSH1 0x0 DUP1 REVERT JUMPDEST DUP2 PUSH1 0x4 PUSH1 0x0 DUP3 DUP3 SLOAD PUSH3 0xC89 SWAP2 SWAP1 PUSH3 0x5933 JUMP JUMPDEST PUSH1 0x2 SLOAD TIMESTAMP LT ISZERO PUSH3 0x14BE JUMPI PUSH1 0x0 DUP1 REVERT JUMPDEST PUSH1 0x4 SLOAD ISZERO PUSH3 0x1741 JUMPI PUSH1 0xC PUSH1 0x0 SWAP1 SLOAD SWAP1 PUSH2 0x100 EXP SWAP1 DIV PUSH1 0x1 PUSH1 0x1 PUSH1 0xA0 SHL SUB AND PUSH1 0x1 PUSH1 0x1 PUSH1 0xA0 SHL SUB AND PUSH4 0x295B4E17 PUSH1 0x40 MLOAD DUP2 PUSH4 0xFFFFFFFF AND PUSH1 0xE0 SHL DUP2 MSTORE PUSH1 0x4 ADD PUSH1 0x20 PUSH1 0x40 MLOAD DUP1 DUP4 SUB DUP2 DUP7 DUP1 EXTCODESIZE ISZERO DUP1 ISZERO PUSH3 0x1516 JUMPI PUSH1 0x0 DUP1 REVERT JUMPDEST POP GAS STATICCALL ISZERO DUP1 ISZERO PUSH3 0x152B JUMPI RETURNDATASIZE PUSH1 0x0 DUP1 RETURNDATACOPY RETURNDATASIZE PUSH1 0x0 REVERT JUMPDEST POP POP POP POP PUSH1 0x40 MLOAD RETURNDATASIZE PUSH1 0x1F NOT PUSH1 0x1F DUP3 ADD AND DUP3 ADD DUP1 PUSH1 0x40 MSTORE POP DUP2 ADD SWAP1 PUSH3 0x1551 SWAP2 SWAP1 PUSH3 0x5802 JUMP JUMPDEST PUSH3 0x1741 JUMPI PUSH1 0xC SLOAD PUSH1 0x2 SLOAD PUSH1 0x40 MLOAD PUSH4 0xC290D691 PUSH1 0xE0 SHL DUP2 MSTORE PUSH1 0x0 SWAP3 DUP4 SWAP3 DUP4 SWAP3 DUP4 SWAP3 PUSH1 0x1 PUSH1 0x1 PUSH1 0xA0 SHL SUB AND SWAP2 PUSH4 0xC290D691 SWAP2 PUSH3 0x1594 SWAP2 SWAP1 PUSH1 0x4 ADD SWAP1 DUP2 MSTORE PUSH1 0x20 ADD SWAP1 JUMP JUMPDEST PUSH1 0x80 PUSH1 0x40 MLOAD DUP1 DUP4 SUB DUP2 PUSH1 0x0 DUP8 DUP1 EXTCODESIZE ISZERO DUP1 ISZERO PUSH3 0x15AF JUMPI PUSH1 0x0 DUP1 REVERT JUMPDEST POP GAS CALL ISZERO DUP1 ISZERO PUSH3 0x15C4 JUMPI RETURNDATASIZE PUSH1 0x0 DUP1 RETURNDATACOPY RETURNDATASIZE PUSH1 0x0 REVERT JUMPDEST POP POP POP POP PUSH1 0x40 MLOAD RETURNDATASIZE PUSH1 0x1F NOT PUSH1 0x1F DUP3 ADD AND DUP3 ADD DUP1 PUSH1 0x40 MSTORE POP DUP2 ADD SWAP1 PUSH3 0x15EA SWAP2 SWAP1 PUSH3 0x57B5 JUMP JUMPDEST PUSH1 0xC SLOAD PUSH1 0x40 MLOAD PUSH4 0x23DC2005 PUSH1 0xE1 SHL DUP2 MSTORE SWAP5 SWAP9 POP SWAP3 SWAP7 POP SWAP1 SWAP5 POP SWAP3 POP PUSH1 0x1 PUSH1 0x1 PUSH1 0xA0 SHL SUB AND SWAP1 PUSH4 0x47B8400A SWAP1 PUSH3 0x162B SWAP1 DUP8 SWAP1 DUP8 SWAP1 DUP8 SWAP1 DUP8 SWAP1 PUSH1 0x4 ADD PUSH3 0x58B6 JUMP JUMPDEST PUSH1 0x20 PUSH1 0x40 MLOAD DUP1 DUP4 SUB DUP2 PUSH1 0x0 DUP8 DUP1 EXTCODESIZE ISZERO DUP1 ISZERO PUSH3 0x1646 JUMPI PUSH1 0x0 DUP1 REVERT JUMPDEST POP GAS CALL SWAP3 POP POP POP DUP1 ISZERO PUSH3 0x1679 JUMPI POP PUSH1 0x40 DUP1 MLOAD PUSH1 0x1F RETURNDATASIZE SWAP1 DUP2 ADD PUSH1 0x1F NOT AND DUP3 ADD SWAP1 SWAP3 MSTORE PUSH3 0x1676 SWAP2 DUP2 ADD SWAP1 PUSH3 0x5802 JUMP JUMPDEST PUSH1 0x1 JUMPDEST PUSH3 0x173A JUMPI RETURNDATASIZE DUP1 DUP1 ISZERO PUSH3 0x16AA JUMPI PUSH1 0x40 MLOAD SWAP2 POP PUSH1 0x1F NOT PUSH1 0x3F RETURNDATASIZE ADD AND DUP3 ADD PUSH1 0x40 MSTORE RETURNDATASIZE DUP3 MSTORE RETURNDATASIZE PUSH1 0x0 PUSH1 0x20 DUP5 ADD RETURNDATACOPY PUSH3 0x16AF JUMP JUMPDEST PUSH1 0x60 SWAP2 POP JUMPDEST POP PUSH1 0xC SLOAD PUSH1 0x40 MLOAD PUSH4 0x13979835 PUSH1 0xE3 SHL DUP2 MSTORE PUSH1 0x4 DUP2 ADD DUP5 SWAP1 MSTORE PUSH1 0x1 PUSH1 0x1 PUSH1 0xA0 SHL SUB SWAP1 SWAP2 AND SWAP1 PUSH4 0x9CBCC1A8 SWAP1 PUSH1 0x24 ADD PUSH1 0x20 PUSH1 0x40 MLOAD DUP1 DUP4 SUB DUP2 PUSH1 0x0 DUP8 DUP1 EXTCODESIZE ISZERO DUP1 ISZERO PUSH3 0x16F7 JUMPI PUSH1 0x0 DUP1 REVERT JUMPDEST POP GAS CALL ISZERO DUP1 ISZERO PUSH3 0x170C JUMPI RETURNDATASIZE PUSH1 0x0 DUP1 RETURNDATACOPY RETURNDATASIZE PUSH1 0x0 REVERT JUMPDEST POP POP POP POP PUSH1 0x40 MLOAD RETURNDATASIZE PUSH1 0x1F NOT PUSH1 0x1F DUP3 ADD AND DUP3 ADD DUP1 PUSH1 0x40 MSTORE POP DUP2 ADD SWAP1 PUSH3 0x1732 SWAP2 SWAP1 PUSH3 0x5802 JUMP JUMPDEST POP POP PUSH3 0x173C JUMP JUMPDEST POP JUMPDEST POP POP POP POP JUMPDEST PUSH1 0x5 SLOAD ISZERO PUSH3 0x19C4 JUMPI PUSH1 0xD PUSH1 0x0 SWAP1 SLOAD SWAP1 PUSH2 0x100 EXP SWAP1 DIV PUSH1 0x1 PUSH1 0x1 PUSH1 0xA0 SHL SUB AND PUSH1 0x1 PUSH1 0x1 PUSH1 0xA0 SHL SUB AND PUSH4 0x295B4E17 PUSH1 0x40 MLOAD DUP2 PUSH4 0xFFFFFFFF AND PUSH1 0xE0 SHL DUP2 MSTORE PUSH1 0x4 ADD PUSH1 0x20 PUSH1 0x40 MLOAD DUP1 DUP4 SUB DUP2 DUP7 DUP1 EXTCODESIZE ISZERO DUP1 ISZERO PUSH3 0x1799 JUMPI PUSH1 0x0 DUP1 REVERT JUMPDEST POP GAS STATICCALL ISZERO DUP1 ISZERO PUSH3 0x17AE JUMPI RETURNDATASIZE PUSH1 0x0 DUP1 RETURNDATACOPY RETURNDATASIZE PUSH1 0x0 REVERT JUMPDEST POP POP POP POP PUSH1 0x40 MLOAD RETURNDATASIZE PUSH1 0x1F NOT PUSH1 0x1F DUP3 ADD AND DUP3 ADD DUP1 PUSH1 0x40 MSTORE POP DUP2 ADD SWAP1 PUSH3 0x17D4 SWAP2 SWAP1 PUSH3 0x5802 JUMP JUMPDEST PUSH3 0x19C4 JUMPI PUSH1 0xD SLOAD PUSH1 0x2 SLOAD PUSH1 0x40 MLOAD PUSH4 0xC290D691 PUSH1 0xE0 SHL DUP2 MSTORE PUSH1 0x0 SWAP3 DUP4 SWAP3 DUP4 SWAP3 DUP4 SWAP3 PUSH1 0x1 PUSH1 0x1 PUSH1 0xA0 SHL SUB AND SWAP2 PUSH4 0xC290D691 SWAP2 PUSH3 0x1817 SWAP2 SWAP1 PUSH1 0x4 ADD SWAP1 DUP2 MSTORE PUSH1 0x20 ADD SWAP1 JUMP JUMPDEST PUSH1 0x80 PUSH1 0x40 MLOAD DUP1 DUP4 SUB DUP2 PUSH1 0x0 DUP8 DUP1 EXTCODESIZE ISZERO DUP1 ISZERO PUSH3 0x1832 JUMPI PUSH1 0x0 DUP1 REVERT JUMPDEST POP GAS CALL ISZERO DUP1 ISZERO PUSH3 0x1847 JUMPI RETURNDATASIZE PUSH1 0x0 DUP1 RETURNDATACOPY RETURNDATASIZE PUSH1 0x0 REVERT JUMPDEST POP POP POP POP PUSH1 0x40 MLOAD RETURNDATASIZE PUSH1 0x1F NOT PUSH1 0x1F DUP3 ADD AND DUP3 ADD DUP1 PUSH1 0x40 MSTORE POP DUP2 ADD SWAP1 PUSH3 0x186D SWAP2 SWAP1 PUSH3 0x57B5 JUMP JUMPDEST PUSH1 0xD SLOAD PUSH1 0x40 MLOAD PUSH4 0x23DC2005 PUSH1 0xE1 SHL DUP2 MSTORE SWAP5 SWAP9 POP SWAP3 SWAP7 POP SWAP1 SWAP5 POP SWAP3 POP PUSH1 0x1 PUSH1 0x1 PUSH1 0xA0 SHL SUB AND SWAP1 PUSH4 0x47B8400A SWAP1 PUSH3 0x18AE SWAP1 DUP8 SWAP1 DUP8 SWAP1 DUP8 SWAP1 DUP8 SWAP1 PUSH1 0x4 ADD PUSH3 0x58B6 JUMP JUMPDEST PUSH1 0x20 PUSH1 0x40 MLOAD DUP1 DUP4 SUB DUP2 PUSH1 0x0 DUP8 DUP1 EXTCODESIZE ISZERO DUP1 ISZERO PUSH3 0x18C9 JUMPI PUSH1 0x0 DUP1 REVERT JUMPDEST POP GAS CALL SWAP3 POP POP POP DUP1 ISZERO PUSH3 0x18FC JUMPI POP PUSH1 0x40 DUP1 MLOAD PUSH1 0x1F RETURNDATASIZE SWAP1 DUP2 ADD PUSH1 0x1F NOT AND DUP3 ADD SWAP1 SWAP3 MSTORE PUSH3 0x18F9 SWAP2 DUP2 ADD SWAP1 PUSH3 0x5802 JUMP JUMPDEST PUSH1 0x1 JUMPDEST PUSH3 0x19BD JUMPI RETURNDATASIZE DUP1 DUP1 ISZERO PUSH3 0x192D JUMPI PUSH1 0x40 MLOAD SWAP2 POP PUSH1 0x1F NOT PUSH1 0x3F RETURNDATASIZE ADD AND DUP3 ADD PUSH1 0x40 MSTORE RETURNDATASIZE DUP3 MSTORE RETURNDATASIZE PUSH1 0x0 PUSH1 0x20 DUP5 ADD RETURNDATACOPY PUSH3 0x1932 JUMP JUMPDEST PUSH1 0x60 SWAP2 POP JUMPDEST POP PUSH1 0xD SLOAD PUSH1 0x40 MLOAD PUSH4 0x13979835 PUSH1 0xE3 SHL DUP2 MSTORE PUSH1 0x4 DUP2 ADD DUP5 SWAP1 MSTORE PUSH1 0x1 PUSH1 0x1 PUSH1 0xA0 SHL SUB SWAP1 SWAP2 AND SWAP1 PUSH4 0x9CBCC1A8 SWAP1 PUSH1 0x24 ADD PUSH1 0x20 PUSH1 0x40 MLOAD DUP1 DUP4 SUB DUP2 PUSH1 0x0 DUP8 DUP1 EXTCODESIZE ISZERO DUP1 ISZERO PUSH3 0x197A JUMPI PUSH1 0x0 DUP1 REVERT JUMPDEST POP GAS CALL ISZERO DUP1 ISZERO PUSH3 0x198F JUMPI RETURNDATASIZE PUSH1 0x0 DUP1 RETURNDATACOPY RETURNDATASIZE PUSH1 0x0 REVERT JUMPDEST POP POP POP POP PUSH1 0x40 MLOAD RETURNDATASIZE PUSH1 0x1F NOT PUSH1 0x1F DUP3 ADD AND DUP3 ADD DUP1 PUSH1 0x40 MSTORE POP DUP2 ADD SWAP1 PUSH3 0x19B5 SWAP2 SWAP1 PUSH3 0x5802 JUMP JUMPDEST POP POP PUSH3 0x19BF JUMP JUMPDEST POP JUMPDEST POP POP POP POP JUMPDEST PUSH1 0x6 SLOAD ISZERO PUSH3 0x1C47 JUMPI PUSH1 0xF PUSH1 0x0 SWAP1 SLOAD SWAP1 PUSH2 0x100 EXP SWAP1 DIV PUSH1 0x1 PUSH1 0x1 PUSH1 0xA0 SHL SUB AND PUSH1 0x1 PUSH1 0x1 PUSH1 0xA0 SHL SUB AND PUSH4 0x295B4E17 PUSH1 0x40 MLOAD DUP2 PUSH4 0xFFFFFFFF AND PUSH1 0xE0 SHL DUP2 MSTORE PUSH1 0x4 ADD PUSH1 0x20 PUSH1 0x40 MLOAD DUP1 DUP4 SUB DUP2 DUP7 DUP1 EXTCODESIZE ISZERO DUP1 ISZERO PUSH3 0x1A1C JUMPI PUSH1 0x0 DUP1 REVERT JUMPDEST POP GAS STATICCALL ISZERO DUP1 ISZERO PUSH3 0x1A31 JUMPI RETURNDATASIZE PUSH1 0x0 DUP1 RETURNDATACOPY RETURNDATASIZE PUSH1 0x0 REVERT JUMPDEST POP POP POP POP PUSH1 0x40 MLOAD RETURNDATASIZE PUSH1 0x1F NOT PUSH1 0x1F DUP3 ADD AND DUP3 ADD DUP1 PUSH1 0x40 MSTORE POP DUP2 ADD SWAP1 PUSH3 0x1A57 SWAP2 SWAP1 PUSH3 0x5802 JUMP JUMPDEST PUSH3 0x1C47 JUMPI PUSH1 0xF SLOAD PUSH1 0x2 SLOAD PUSH1 0x40 MLOAD PUSH4 0xC290D691 PUSH1 0xE0 SHL DUP2 MSTORE PUSH1 0x0 SWAP3 DUP4 SWAP3 DUP4 SWAP3 DUP4 SWAP3 PUSH1 0x1 PUSH1 0x1 PUSH1 0xA0 SHL SUB AND SWAP2 PUSH4 0xC290D691 SWAP2 PUSH3 0x1A9A SWAP2 SWAP1 PUSH1 0x4 ADD SWAP1 DUP2 MSTORE PUSH1 0x20 ADD SWAP1 JUMP JUMPDEST PUSH1 0x80 PUSH1 0x40 MLOAD DUP1 DUP4 SUB DUP2 PUSH1 0x0 DUP8 DUP1 EXTCODESIZE ISZERO DUP1 ISZERO PUSH3 0x1AB5 JUMPI PUSH1 0x0 DUP1 REVERT JUMPDEST POP GAS CALL ISZERO DUP1 ISZERO PUSH3 0x1ACA JUMPI RETURNDATASIZE PUSH1 0x0 DUP1 RETURNDATACOPY RETURNDATASIZE PUSH1 0x0 REVERT JUMPDEST POP POP POP POP PUSH1 0x40 MLOAD RETURNDATASIZE PUSH1 0x1F NOT PUSH1 0x1F DUP3 ADD AND DUP3 ADD DUP1 PUSH1 0x40 MSTORE POP DUP2 ADD SWAP1 PUSH3 0x1AF0 SWAP2 SWAP1 PUSH3 0x57B5 JUMP JUMPDEST PUSH1 0xF SLOAD PUSH1 0x40 MLOAD PUSH4 0x23DC2005 PUSH1 0xE1 SHL DUP2 MSTORE SWAP5 SWAP9 POP SWAP3 SWAP7 POP SWAP1 SWAP5 POP SWAP3 POP PUSH1 0x1 PUSH1 0x1 PUSH1 0xA0 SHL SUB AND SWAP1 PUSH4 0x47B8400A SWAP1 PUSH3 0x1B31 SWAP1 DUP8 SWAP1 DUP8 SWAP1 DUP8 SWAP1 DUP8 SWAP1 PUSH1 0x4 ADD PUSH3 0x58B6 JUMP JUMPDEST PUSH1 0x20 PUSH1 0x40 MLOAD DUP1 DUP4 SUB DUP2 PUSH1 0x0 DUP8 DUP1 EXTCODESIZE ISZERO DUP1 ISZERO PUSH3 0x1B4C JUMPI PUSH1 0x0 DUP1 REVERT JUMPDEST POP GAS CALL SWAP3 POP POP POP DUP1 ISZERO PUSH3 0x1B7F JUMPI POP PUSH1 0x40 DUP1 MLOAD PUSH1 0x1F RETURNDATASIZE SWAP1 DUP2 ADD PUSH1 0x1F NOT AND DUP3 ADD SWAP1 SWAP3 MSTORE PUSH3 0x1B7C SWAP2 DUP2 ADD SWAP1 PUSH3 0x5802 JUMP JUMPDEST PUSH1 0x1 JUMPDEST PUSH3 0x1C40 JUMPI RETURNDATASIZE DUP1 DUP1 ISZERO PUSH3 0x1BB0 JUMPI PUSH1 0x40 MLOAD SWAP2 POP PUSH1 0x1F NOT PUSH1 0x3F RETURNDATASIZE ADD AND DUP3 ADD PUSH1 0x40 MSTORE RETURNDATASIZE DUP3 MSTORE RETURNDATASIZE PUSH1 0x0 PUSH1 0x20 DUP5 ADD RETURNDATACOPY PUSH3 0x1BB5 JUMP JUMPDEST PUSH1 0x60 SWAP2 POP JUMPDEST POP PUSH1 0xF SLOAD PUSH1 0x40 MLOAD PUSH4 0x13979835 PUSH1 0xE3 SHL DUP2 MSTORE PUSH1 0x4 DUP2 ADD DUP5 SWAP1 MSTORE PUSH1 0x1 PUSH1 0x1 PUSH1 0xA0 SHL SUB SWAP1 SWAP2 AND SWAP1 PUSH4 0x9CBCC1A8 SWAP1 PUSH1 0x24 ADD PUSH1 0x20 PUSH1 0x40 MLOAD DUP1 DUP4 SUB DUP2 PUSH1 0x0 DUP8 DUP1 EXTCODESIZE ISZERO DUP1 ISZERO PUSH3 0x1BFD JUMPI PUSH1 0x0 DUP1 REVERT JUMPDEST POP GAS CALL ISZERO DUP1 ISZERO PUSH3 0x1C12 JUMPI RETURNDATASIZE PUSH1 0x0 DUP1 RETURNDATACOPY RETURNDATASIZE PUSH1 0x0 REVERT JUMPDEST POP POP POP POP PUSH1 0x40 MLOAD RETURNDATASIZE PUSH1 0x1F NOT PUSH1 0x1F DUP3 ADD AND DUP3 ADD DUP1 PUSH1 0x40 MSTORE POP DUP2 ADD SWAP1 PUSH3 0x1C38 SWAP2 SWAP1 PUSH3 0x5802 JUMP JUMPDEST POP POP PUSH3 0x1C42 JUMP JUMPDEST POP JUMPDEST POP POP POP POP JUMPDEST PUSH1 0x7 SLOAD ISZERO PUSH3 0x1ECA JUMPI PUSH1 0xE PUSH1 0x0 SWAP1 SLOAD SWAP1 PUSH2 0x100 EXP SWAP1 DIV PUSH1 0x1 PUSH1 0x1 PUSH1 0xA0 SHL SUB AND PUSH1 0x1 PUSH1 0x1 PUSH1 0xA0 SHL SUB AND PUSH4 0x295B4E17 PUSH1 0x40 MLOAD DUP2 PUSH4 0xFFFFFFFF AND PUSH1 0xE0 SHL DUP2 MSTORE PUSH1 0x4 ADD PUSH1 0x20 PUSH1 0x40 MLOAD DUP1 DUP4 SUB DUP2 DUP7 DUP1 EXTCODESIZE ISZERO DUP1 ISZERO PUSH3 0x1C9F JUMPI PUSH1 0x0 DUP1 REVERT JUMPDEST POP GAS STATICCALL ISZERO DUP1 ISZERO PUSH3 0x1CB4 JUMPI RETURNDATASIZE PUSH1 0x0 DUP1 RETURNDATACOPY RETURNDATASIZE PUSH1 0x0 REVERT JUMPDEST POP POP POP POP PUSH1 0x40 MLOAD RETURNDATASIZE PUSH1 0x1F NOT PUSH1 0x1F DUP3 ADD AND DUP3 ADD DUP1 PUSH1 0x40 MSTORE POP DUP2 ADD SWAP1 PUSH3 0x1CDA SWAP2 SWAP1 PUSH3 0x5802 JUMP JUMPDEST PUSH3 0x1ECA JUMPI PUSH1 0xE SLOAD PUSH1 0x2 SLOAD PUSH1 0x40 MLOAD PUSH4 0xC290D691 PUSH1 0xE0 SHL DUP2 MSTORE PUSH1 0x0 SWAP3 DUP4 SWAP3 DUP4 SWAP3 DUP4 SWAP3 PUSH1 0x1 PUSH1 0x1 PUSH1 0xA0 SHL SUB AND SWAP2 PUSH4 0xC290D691 SWAP2 PUSH3 0x1D1D SWAP2 SWAP1 PUSH1 0x4 ADD SWAP1 DUP2 MSTORE PUSH1 0x20 ADD SWAP1 JUMP JUMPDEST PUSH1 0x80 PUSH1 0x40 MLOAD DUP1 DUP4 SUB DUP2 PUSH1 0x0 DUP8 DUP1 EXTCODESIZE ISZERO DUP1 ISZERO PUSH3 0x1D38 JUMPI PUSH1 0x0 DUP1 REVERT JUMPDEST POP GAS CALL ISZERO DUP1 ISZERO PUSH3 0x1D4D JUMPI RETURNDATASIZE PUSH1 0x0 DUP1 RETURNDATACOPY RETURNDATASIZE PUSH1 0x0 REVERT JUMPDEST POP POP POP POP PUSH1 0x40 MLOAD RETURNDATASIZE PUSH1 0x1F NOT PUSH1 0x1F DUP3 ADD AND DUP3 ADD DUP1 PUSH1 0x40 MSTORE POP DUP2 ADD SWAP1 PUSH3 0x1D73 SWAP2 SWAP1 PUSH3 0x57B5 JUMP JUMPDEST PUSH1 0xE SLOAD PUSH1 0x40 MLOAD PUSH4 0x23DC2005 PUSH1 0xE1 SHL DUP2 MSTORE SWAP5 SWAP9 POP SWAP3 SWAP7 POP SWAP1 SWAP5 POP SWAP3 POP PUSH1 0x1 PUSH1 0x1 PUSH1 0xA0 SHL SUB AND SWAP1 PUSH4 0x47B8400A SWAP1 PUSH3 0x1DB4 SWAP1 DUP8 SWAP1 DUP8 SWAP1 DUP8 SWAP1 DUP8 SWAP1 PUSH1 0x4 ADD PUSH3 0x58B6 JUMP JUMPDEST PUSH1 0x20 PUSH1 0x40 MLOAD DUP1 DUP4 SUB DUP2 PUSH1 0x0 DUP8 DUP1 EXTCODESIZE ISZERO DUP1 ISZERO PUSH3 0x1DCF JUMPI PUSH1 0x0 DUP1 REVERT JUMPDEST POP GAS CALL SWAP3 POP POP POP DUP1 ISZERO PUSH3 0x1E02 JUMPI POP PUSH1 0x40 DUP1 MLOAD PUSH1 0x1F RETURNDATASIZE SWAP1 DUP2 ADD PUSH1 0x1F NOT AND DUP3 ADD SWAP1 SWAP3 MSTORE PUSH3 0x1DFF SWAP2 DUP2 ADD SWAP1 PUSH3 0x5802 JUMP JUMPDEST PUSH1 0x1 JUMPDEST PUSH3 0x1EC3 JUMPI RETURNDATASIZE DUP1 DUP1 ISZERO PUSH3 0x1E33 JUMPI PUSH1 0x40 MLOAD SWAP2 POP PUSH1 0x1F NOT PUSH1 0x3F RETURNDATASIZE ADD AND DUP3 ADD PUSH1 0x40 MSTORE RETURNDATASIZE DUP3 MSTORE RETURNDATASIZE PUSH1 0x0 PUSH1 0x20 DUP5 ADD RETURNDATACOPY PUSH3 0x1E38 JUMP JUMPDEST PUSH1 0x60 SWAP2 POP JUMPDEST POP PUSH1 0xE SLOAD PUSH1 0x40 MLOAD PUSH4 0x13979835 PUSH1 0xE3 SHL DUP2 MSTORE PUSH1 0x4 DUP2 ADD DUP5 SWAP1 MSTORE PUSH1 0x1 PUSH1 0x1 PUSH1 0xA0 SHL SUB SWAP1 SWAP2 AND SWAP1 PUSH4 0x9CBCC1A8 SWAP1 PUSH1 0x24 ADD PUSH1 0x20 PUSH1 0x40 MLOAD DUP1 DUP4 SUB DUP2 PUSH1 0x0 DUP8 DUP1 EXTCODESIZE ISZERO DUP1 ISZERO PUSH3 0x1E80 JUMPI PUSH1 0x0 DUP1 REVERT JUMPDEST POP GAS CALL ISZERO DUP1 ISZERO PUSH3 0x1E95 JUMPI RETURNDATASIZE PUSH1 0x0 DUP1 RETURNDATACOPY RETURNDATASIZE PUSH1 0x0 REVERT JUMPDEST POP POP POP POP PUSH1 0x40 MLOAD RETURNDATASIZE PUSH1 0x1F NOT PUSH1 0x1F DUP3 ADD AND DUP3 ADD DUP1 PUSH1 0x40 MSTORE POP DUP2 ADD SWAP1 PUSH3 0x1EBB SWAP2 SWAP1 PUSH3 0x5802 JUMP JUMPDEST POP POP PUSH3 0x1EC5 JUMP JUMPDEST POP JUMPDEST POP POP POP POP JUMPDEST PUSH1 0x4 SLOAD ISZERO DUP1 PUSH3 0x1F5F JUMPI POP PUSH1 0xC PUSH1 0x0 SWAP1 SLOAD SWAP1 PUSH2 0x100 EXP SWAP1 DIV PUSH1 0x1 PUSH1 0x1 PUSH1 0xA0 SHL SUB AND PUSH1 0x1 PUSH1 0x1 PUSH1 0xA0 SHL SUB AND PUSH4 0x295B4E17 PUSH1 0x40 MLOAD DUP2 PUSH4 0xFFFFFFFF AND PUSH1 0xE0 SHL DUP2 MSTORE PUSH1 0x4 ADD PUSH1 0x20 PUSH1 0x40 MLOAD DUP1 DUP4 SUB DUP2 DUP7 DUP1 EXTCODESIZE ISZERO DUP1 ISZERO PUSH3 0x1F24 JUMPI PUSH1 0x0 DUP1 REVERT JUMPDEST POP GAS STATICCALL ISZERO DUP1 ISZERO PUSH3 0x1F39 JUMPI RETURNDATASIZE PUSH1 0x0 DUP1 RETURNDATACOPY RETURNDATASIZE PUSH1 0x0 REVERT JUMPDEST POP POP POP POP PUSH1 0x40 MLOAD RETURNDATASIZE PUSH1 0x1F NOT PUSH1 0x1F DUP3 ADD AND DUP3 ADD DUP1 PUSH1 0x40 MSTORE POP DUP2 ADD SWAP1 PUSH3 0x1F5F SWAP2 SWAP1 PUSH3 0x5802 JUMP JUMPDEST DUP1 ISZERO PUSH3 0x1FFC JUMPI POP PUSH1 0x5 SLOAD ISZERO DUP1 PUSH3 0x1FFC JUMPI POP PUSH1 0xD PUSH1 0x0 SWAP1 SLOAD SWAP1 PUSH2 0x100 EXP SWAP1 DIV PUSH1 0x1 PUSH1 0x1 PUSH1 0xA0 SHL SUB AND PUSH1 0x1 PUSH1 0x1 PUSH1 0xA0 SHL SUB AND PUSH4 0x295B4E17 PUSH1 0x40 MLOAD DUP2 PUSH4 0xFFFFFFFF AND PUSH1 0xE0 SHL DUP2 MSTORE PUSH1 0x4 ADD PUSH1 0x20 PUSH1 0x40 MLOAD DUP1 DUP4 SUB DUP2 DUP7 DUP1 EXTCODESIZE ISZERO DUP1 ISZERO PUSH3 0x1FC1 JUMPI PUSH1 0x0 DUP1 REVERT JUMPDEST POP GAS STATICCALL ISZERO DUP1 ISZERO PUSH3 0x1FD6 JUMPI RETURNDATASIZE PUSH1 0x0 DUP1 RETURNDATACOPY RETURNDATASIZE PUSH1 0x0 REVERT JUMPDEST POP POP POP POP PUSH1 0x40 MLOAD RETURNDATASIZE PUSH1 0x1F NOT PUSH1 0x1F DUP3 ADD AND DUP3 ADD DUP1 PUSH1 0x40 MSTORE POP DUP2 ADD SWAP1 PUSH3 0x1FFC SWAP2 SWAP1 PUSH3 0x5802 JUMP JUMPDEST DUP1 ISZERO PUSH3 0x2099 JUMPI POP PUSH1 0x6 SLOAD ISZERO DUP1 PUSH3 0x2099 JUMPI POP PUSH1 0xF PUSH1 0x0 SWAP1 SLOAD SWAP1 PUSH2 0x100 EXP SWAP1 DIV PUSH1 0x1 PUSH1 0x1 PUSH1 0xA0 SHL SUB AND PUSH1 0x1 PUSH1 0x1 PUSH1 0xA0 SHL SUB AND PUSH4 0x295B4E17 PUSH1 0x40 MLOAD DUP2 PUSH4 0xFFFFFFFF AND PUSH1 0xE0 SHL DUP2 MSTORE PUSH1 0x4 ADD PUSH1 0x20 PUSH1 0x40 MLOAD DUP1 DUP4 SUB DUP2 DUP7 DUP1 EXTCODESIZE ISZERO DUP1 ISZERO PUSH3 0x205E JUMPI PUSH1 0x0 DUP1 REVERT JUMPDEST POP GAS STATICCALL ISZERO DUP1 ISZERO PUSH3 0x2073 JUMPI RETURNDATASIZE PUSH1 0x0 DUP1 RETURNDATACOPY RETURNDATASIZE PUSH1 0x0 REVERT JUMPDEST POP POP POP POP PUSH1 0x40 MLOAD RETURNDATASIZE PUSH1 0x1F NOT PUSH1 0x1F DUP3 ADD AND DUP3 ADD DUP1 PUSH1 0x40 MSTORE POP DUP2 ADD SWAP1 PUSH3 0x2099 SWAP2 SWAP1 PUSH3 0x5802 JUMP JUMPDEST DUP1 ISZERO PUSH3 0x2136 JUMPI POP PUSH1 0x7 SLOAD ISZERO DUP1 PUSH3 0x2136 JUMPI POP PUSH1 0xE PUSH1 0x0 SWAP1 SLOAD SWAP1 PUSH2 0x100 EXP SWAP1 DIV PUSH1 0x1 PUSH1 0x1 PUSH1 0xA0 SHL SUB AND PUSH1 0x1 PUSH1 0x1 PUSH1 0xA0 SHL SUB AND PUSH4 0x295B4E17 PUSH1 0x40 MLOAD DUP2 PUSH4 0xFFFFFFFF AND PUSH1 0xE0 SHL DUP2 MSTORE PUSH1 0x4 ADD PUSH1 0x20 PUSH1 0x40 MLOAD DUP1 DUP4 SUB DUP2 DUP7 DUP1 EXTCODESIZE ISZERO DUP1 ISZERO PUSH3 0x20FB JUMPI PUSH1 0x0 DUP1 REVERT JUMPDEST POP GAS STATICCALL ISZERO DUP1 ISZERO PUSH3 0x2110 JUMPI RETURNDATASIZE PUSH1 0x0 DUP1 RETURNDATACOPY RETURNDATASIZE PUSH1 0x0 REVERT JUMPDEST POP POP POP POP PUSH1 0x40 MLOAD RETURNDATASIZE PUSH1 0x1F NOT PUSH1 0x1F DUP3 ADD AND DUP3 ADD DUP1 PUSH1 0x40 MSTORE POP DUP2 ADD SWAP1 PUSH3 0x2136 SWAP2 SWAP1 PUSH3 0x5802 JUMP JUMPDEST ISZERO PUSH3 0x54FD JUMPI PUSH1 0x0 DUP1 PUSH1 0x0 DUP1 PUSH1 0x0 PUSH1 0x8 SLOAD PUSH1 0x4 SLOAD GT ISZERO PUSH3 0x2165 JUMPI PUSH1 0x1 SWAP5 POP DUP1 PUSH3 0x2161 DUP2 PUSH3 0x59AD JUMP JUMPDEST SWAP2 POP POP JUMPDEST PUSH1 0x9 SLOAD PUSH1 0x5 SLOAD GT ISZERO PUSH3 0x2186 JUMPI PUSH1 0x1 SWAP4 POP DUP1 PUSH3 0x2182 DUP2 PUSH3 0x59AD JUMP JUMPDEST SWAP2 POP POP JUMPDEST PUSH1 0xA SLOAD PUSH1 0x6 SLOAD GT ISZERO PUSH3 0x21A7 JUMPI PUSH1 0x1 SWAP3 POP DUP1 PUSH3 0x21A3 DUP2 PUSH3 0x59AD JUMP JUMPDEST SWAP2 POP POP JUMPDEST PUSH1 0xB SLOAD PUSH1 0x7 SLOAD GT ISZERO PUSH3 0x21C8 JUMPI PUSH1 0x1 SWAP2 POP DUP1 PUSH3 0x21C4 DUP2 PUSH3 0x59AD JUMP JUMPDEST SWAP2 POP POP JUMPDEST PUSH1 0xC SLOAD PUSH1 0x40 MLOAD PUSH4 0x70A08231 PUSH1 0xE0 SHL DUP2 MSTORE ADDRESS PUSH1 0x4 DUP3 ADD MSTORE PUSH20 0x7A250D5630B4CF539739DF2C5DACB4C659F2488D SWAP2 PUSH1 0x1 PUSH1 0x1 PUSH1 0xA0 SHL SUB AND SWAP1 PUSH4 0x95EA7B3 SWAP1 DUP4 SWAP1 PUSH1 0x2 SWAP1 DUP5 SWAP1 PUSH4 0x70A08231 SWAP1 PUSH1 0x24 ADD PUSH1 0x20 PUSH1 0x40 MLOAD DUP1 DUP4 SUB DUP2 DUP7 DUP1 EXTCODESIZE ISZERO DUP1 ISZERO PUSH3 0x222D JUMPI PUSH1 0x0 DUP1 REVERT JUMPDEST POP GAS STATICCALL ISZERO DUP1 ISZERO PUSH3 0x2242 JUMPI RETURNDATASIZE PUSH1 0x0 DUP1 RETURNDATACOPY RETURNDATASIZE PUSH1 0x0 REVERT JUMPDEST POP POP POP POP PUSH1 0x40 MLOAD RETURNDATASIZE PUSH1 0x1F NOT PUSH1 0x1F DUP3 ADD AND DUP3 ADD DUP1 PUSH1 0x40 MSTORE POP DUP2 ADD SWAP1 PUSH3 0x2268 SWAP2 SWAP1 PUSH3 0x5840 JUMP JUMPDEST PUSH3 0x2274 SWAP2 SWAP1 PUSH3 0x594E JUMP JUMPDEST PUSH1 0x40 MLOAD DUP4 PUSH4 0xFFFFFFFF AND PUSH1 0xE0 SHL DUP2 MSTORE PUSH1 0x4 ADD PUSH3 0x2293 SWAP3 SWAP2 SWAP1 PUSH3 0x58DF JUMP JUMPDEST PUSH1 0x20 PUSH1 0x40 MLOAD DUP1 DUP4 SUB DUP2 PUSH1 0x0 DUP8 DUP1 EXTCODESIZE ISZERO DUP1 ISZERO PUSH3 0x22AE JUMPI PUSH1 0x0 DUP1 REVERT JUMPDEST POP GAS CALL ISZERO DUP1 ISZERO PUSH3 0x22C3 JUMPI RETURNDATASIZE PUSH1 0x0 DUP1 RETURNDATACOPY RETURNDATASIZE PUSH1 0x0 REVERT JUMPDEST POP POP POP POP PUSH1 0x40 MLOAD RETURNDATASIZE PUSH1 0x1F NOT PUSH1 0x1F DUP3 ADD AND DUP3 ADD DUP1 PUSH1 0x40 MSTORE POP DUP2 ADD SWAP1 PUSH3 0x22E9 SWAP2 SWAP1 PUSH3 0x5802 JUMP JUMPDEST POP PUSH1 0xD SLOAD PUSH1 0x40 MLOAD PUSH4 0x70A08231 PUSH1 0xE0 SHL DUP2 MSTORE ADDRESS PUSH1 0x4 DUP3 ADD MSTORE PUSH1 0x1 PUSH1 0x1 PUSH1 0xA0 SHL SUB SWAP1 SWAP2 AND SWAP1 PUSH4 0x95EA7B3 SWAP1 DUP4 SWAP1 PUSH1 0x2 SWAP1 DUP5 SWAP1 PUSH4 0x70A08231 SWAP1 PUSH1 0x24 ADD PUSH1 0x20 PUSH1 0x40 MLOAD DUP1 DUP4 SUB DUP2 DUP7 DUP1 EXTCODESIZE ISZERO DUP1 ISZERO PUSH3 0x233B JUMPI PUSH1 0x0 DUP1 REVERT JUMPDEST POP GAS STATICCALL ISZERO DUP1 ISZERO PUSH3 0x2350 JUMPI RETURNDATASIZE PUSH1 0x0 DUP1 RETURNDATACOPY RETURNDATASIZE PUSH1 0x0 REVERT JUMPDEST POP POP POP POP PUSH1 0x40 MLOAD RETURNDATASIZE PUSH1 0x1F NOT PUSH1 0x1F DUP3 ADD AND DUP3 ADD DUP1 PUSH1 0x40 MSTORE POP DUP2 ADD SWAP1 PUSH3 0x2376 SWAP2 SWAP1 PUSH3 0x5840 JUMP JUMPDEST PUSH3 0x2382 SWAP2 SWAP1 PUSH3 0x594E JUMP JUMPDEST PUSH1 0x40 MLOAD DUP4 PUSH4 0xFFFFFFFF AND PUSH1 0xE0 SHL DUP2 MSTORE PUSH1 0x4 ADD PUSH3 0x23A1 SWAP3 SWAP2 SWAP1 PUSH3 0x58DF JUMP JUMPDEST PUSH1 0x20 PUSH1 0x40 MLOAD DUP1 DUP4 SUB DUP2 PUSH1 0x0 DUP8 DUP1 EXTCODESIZE ISZERO DUP1 ISZERO PUSH3 0x23BC JUMPI PUSH1 0x0 DUP1 REVERT JUMPDEST POP GAS CALL ISZERO DUP1 ISZERO PUSH3 0x23D1 JUMPI RETURNDATASIZE PUSH1 0x0 DUP1 RETURNDATACOPY RETURNDATASIZE PUSH1 0x0 REVERT JUMPDEST POP POP POP POP PUSH1 0x40 MLOAD RETURNDATASIZE PUSH1 0x1F NOT PUSH1 0x1F DUP3 ADD AND DUP3 ADD DUP1 PUSH1 0x40 MSTORE POP DUP2 ADD SWAP1 PUSH3 0x23F7 SWAP2 SWAP1 PUSH3 0x5802 JUMP JUMPDEST POP PUSH1 0xF SLOAD PUSH1 0x40 MLOAD PUSH4 0x70A08231 PUSH1 0xE0 SHL DUP2 MSTORE ADDRESS PUSH1 0x4 DUP3 ADD MSTORE PUSH1 0x1 PUSH1 0x1 PUSH1 0xA0 SHL SUB SWAP1 SWAP2 AND SWAP1 PUSH4 0x95EA7B3 SWAP1 DUP4 SWAP1 PUSH1 0x2 SWAP1 DUP5 SWAP1 PUSH4 0x70A08231 SWAP1 PUSH1 0x24 ADD PUSH1 0x20 PUSH1 0x40 MLOAD DUP1 DUP4 SUB DUP2 DUP7 DUP1 EXTCODESIZE ISZERO DUP1 ISZERO PUSH3 0x2449 JUMPI PUSH1 0x0 DUP1 REVERT JUMPDEST POP GAS STATICCALL ISZERO DUP1 ISZERO PUSH3 0x245E JUMPI RETURNDATASIZE PUSH1 0x0 DUP1 RETURNDATACOPY RETURNDATASIZE PUSH1 0x0 REVERT JUMPDEST POP POP POP POP PUSH1 0x40 MLOAD RETURNDATASIZE PUSH1 0x1F NOT PUSH1 0x1F DUP3 ADD AND DUP3 ADD DUP1 PUSH1 0x40 MSTORE POP DUP2 ADD SWAP1 PUSH3 0x2484 SWAP2 SWAP1 PUSH3 0x5840 JUMP JUMPDEST PUSH3 0x2490 SWAP2 SWAP1 PUSH3 0x594E JUMP JUMPDEST PUSH1 0x40 MLOAD DUP4 PUSH4 0xFFFFFFFF AND PUSH1 0xE0 SHL DUP2 MSTORE PUSH1 0x4 ADD PUSH3 0x24AF SWAP3 SWAP2 SWAP1 PUSH3 0x58DF JUMP JUMPDEST PUSH1 0x20 PUSH1 0x40 MLOAD DUP1 DUP4 SUB DUP2 PUSH1 0x0 DUP8 DUP1 EXTCODESIZE ISZERO DUP1 ISZERO PUSH3 0x24CA JUMPI PUSH1 0x0 DUP1 REVERT JUMPDEST POP GAS CALL ISZERO DUP1 ISZERO PUSH3 0x24DF JUMPI RETURNDATASIZE PUSH1 0x0 DUP1 RETURNDATACOPY RETURNDATASIZE PUSH1 0x0 REVERT JUMPDEST POP POP POP POP PUSH1 0x40 MLOAD RETURNDATASIZE PUSH1 0x1F NOT PUSH1 0x1F DUP3 ADD AND DUP3 ADD DUP1 PUSH1 0x40 MSTORE POP DUP2 ADD SWAP1 PUSH3 0x2505 SWAP2 SWAP1 PUSH3 0x5802 JUMP JUMPDEST POP PUSH1 0xE SLOAD PUSH1 0x40 MLOAD PUSH4 0x70A08231 PUSH1 0xE0 SHL DUP2 MSTORE ADDRESS PUSH1 0x4 DUP3 ADD MSTORE PUSH1 0x1 PUSH1 0x1 PUSH1 0xA0 SHL SUB SWAP1 SWAP2 AND SWAP1 PUSH4 0x95EA7B3 SWAP1 DUP4 SWAP1 PUSH1 0x2 SWAP1 DUP5 SWAP1 PUSH4 0x70A08231 SWAP1 PUSH1 0x24 ADD PUSH1 0x20 PUSH1 0x40 MLOAD DUP1 DUP4 SUB DUP2 DUP7 DUP1 EXTCODESIZE ISZERO DUP1 ISZERO PUSH3 0x2557 JUMPI PUSH1 0x0 DUP1 REVERT JUMPDEST POP GAS STATICCALL ISZERO DUP1 ISZERO PUSH3 0x256C JUMPI RETURNDATASIZE PUSH1 0x0 DUP1 RETURNDATACOPY RETURNDATASIZE PUSH1 0x0 REVERT JUMPDEST POP POP POP POP PUSH1 0x40 MLOAD RETURNDATASIZE PUSH1 0x1F NOT PUSH1 0x1F DUP3 ADD AND DUP3 ADD DUP1 PUSH1 0x40 MSTORE POP DUP2 ADD SWAP1 PUSH3 0x2592 SWAP2 SWAP1 PUSH3 0x5840 JUMP JUMPDEST PUSH3 0x259E SWAP2 SWAP1 PUSH3 0x594E JUMP JUMPDEST PUSH1 0x40 MLOAD DUP4 PUSH4 0xFFFFFFFF AND PUSH1 0xE0 SHL DUP2 MSTORE PUSH1 0x4 ADD PUSH3 0x25BD SWAP3 SWAP2 SWAP1 PUSH3 0x58DF JUMP JUMPDEST PUSH1 0x20 PUSH1 0x40 MLOAD DUP1 DUP4 SUB DUP2 PUSH1 0x0 DUP8 DUP1 EXTCODESIZE ISZERO DUP1 ISZERO PUSH3 0x25D8 JUMPI PUSH1 0x0 DUP1 REVERT JUMPDEST POP GAS CALL ISZERO DUP1 ISZERO PUSH3 0x25ED JUMPI RETURNDATASIZE PUSH1 0x0 DUP1 RETURNDATACOPY RETURNDATASIZE PUSH1 0x0 REVERT JUMPDEST POP POP POP POP PUSH1 0x40 MLOAD RETURNDATASIZE PUSH1 0x1F NOT PUSH1 0x1F DUP3 ADD AND DUP3 ADD DUP1 PUSH1 0x40 MSTORE POP DUP2 ADD SWAP1 PUSH3 0x2613 SWAP2 SWAP1 PUSH3 0x5802 JUMP JUMPDEST POP PUSH1 0x1 PUSH1 0x1 PUSH1 0xA0 SHL SUB DUP2 AND PUSH4 0xF305D719 PUSH1 0x4 PUSH3 0x2632 PUSH1 0xA SELFBALANCE PUSH3 0x594E JUMP JUMPDEST PUSH3 0x263E SWAP2 SWAP1 PUSH3 0x594E JUMP JUMPDEST PUSH1 0xC SLOAD PUSH1 0x40 MLOAD PUSH4 0x70A08231 PUSH1 0xE0 SHL DUP2 MSTORE ADDRESS PUSH1 0x4 DUP3 ADD MSTORE PUSH1 0x1 PUSH1 0x1 PUSH1 0xA0 SHL SUB SWAP1 SWAP2 AND SWAP1 PUSH1 0x2 SWAP1 DUP3 SWAP1 PUSH4 0x70A08231 SWAP1 PUSH1 0x24 ADD PUSH1 0x20 PUSH1 0x40 MLOAD DUP1 DUP4 SUB DUP2 DUP7 DUP1 EXTCODESIZE ISZERO DUP1 ISZERO PUSH3 0x2687 JUMPI PUSH1 0x0 DUP1 REVERT JUMPDEST POP GAS STATICCALL ISZERO DUP1 ISZERO PUSH3 0x269C JUMPI RETURNDATASIZE PUSH1 0x0 DUP1 RETURNDATACOPY RETURNDATASIZE PUSH1 0x0 REVERT JUMPDEST POP POP POP POP PUSH1 0x40 MLOAD RETURNDATASIZE PUSH1 0x1F NOT PUSH1 0x1F DUP3 ADD AND DUP3 ADD DUP1 PUSH1 0x40 MSTORE POP DUP2 ADD SWAP1 PUSH3 0x26C2 SWAP2 SWAP1 PUSH3 0x5840 JUMP JUMPDEST PUSH3 0x26CE SWAP2 SWAP1 PUSH3 0x594E JUMP JUMPDEST PUSH1 0x0 DUP1 ADDRESS TIMESTAMP PUSH1 0x40 MLOAD DUP9 PUSH4 0xFFFFFFFF AND PUSH1 0xE0 SHL DUP2 MSTORE PUSH1 0x4 ADD PUSH3 0x26F6 SWAP7 SWAP6 SWAP5 SWAP4 SWAP3 SWAP2 SWAP1 PUSH3 0x58F8 JUMP JUMPDEST PUSH1 0x60 PUSH1 0x40 MLOAD DUP1 DUP4 SUB DUP2 DUP6 DUP9 DUP1 EXTCODESIZE ISZERO DUP1 ISZERO PUSH3 0x2710 JUMPI PUSH1 0x0 DUP1 REVERT JUMPDEST POP GAS CALL ISZERO DUP1 ISZERO PUSH3 0x2725 JUMPI RETURNDATASIZE PUSH1 0x0 DUP1 RETURNDATACOPY RETURNDATASIZE PUSH1 0x0 REVERT JUMPDEST POP POP POP POP POP PUSH1 0x40 MLOAD RETURNDATASIZE PUSH1 0x1F NOT PUSH1 0x1F DUP3 ADD AND DUP3 ADD DUP1 PUSH1 0x40 MSTORE POP DUP2 ADD SWAP1 PUSH3 0x274C SWAP2 SWAP1 PUSH3 0x5887 JUMP JUMPDEST POP POP POP PUSH1 0x1 PUSH1 0x1 PUSH1 0xA0 SHL SUB DUP2 AND PUSH4 0xF305D719 PUSH1 0x4 PUSH3 0x276D PUSH1 0xA SELFBALANCE PUSH3 0x594E JUMP JUMPDEST PUSH3 0x2779 SWAP2 SWAP1 PUSH3 0x594E JUMP JUMPDEST PUSH1 0xD SLOAD PUSH1 0x40 MLOAD PUSH4 0x70A08231 PUSH1 0xE0 SHL DUP2 MSTORE ADDRESS PUSH1 0x4 DUP3 ADD MSTORE PUSH1 0x1 PUSH1 0x1 PUSH1 0xA0 SHL SUB SWAP1 SWAP2 AND SWAP1 PUSH1 0x2 SWAP1 DUP3 SWAP1 PUSH4 0x70A08231 SWAP1 PUSH1 0x24 ADD PUSH1 0x20 PUSH1 0x40 MLOAD DUP1 DUP4 SUB DUP2 DUP7 DUP1 EXTCODESIZE ISZERO DUP1 ISZERO PUSH3 0x27C2 JUMPI PUSH1 0x0 DUP1 REVERT JUMPDEST POP GAS STATICCALL ISZERO DUP1 ISZERO PUSH3 0x27D7 JUMPI RETURNDATASIZE PUSH1 0x0 DUP1 RETURNDATACOPY RETURNDATASIZE PUSH1 0x0 REVERT JUMPDEST POP POP POP POP PUSH1 0x40 MLOAD RETURNDATASIZE PUSH1 0x1F NOT PUSH1 0x1F DUP3 ADD AND DUP3 ADD DUP1 PUSH1 0x40 MSTORE POP DUP2 ADD SWAP1 PUSH3 0x27FD SWAP2 SWAP1 PUSH3 0x5840 JUMP JUMPDEST PUSH3 0x2809 SWAP2 SWAP1 PUSH3 0x594E JUMP JUMPDEST PUSH1 0x0 DUP1 ADDRESS TIMESTAMP PUSH1 0x40 MLOAD DUP9 PUSH4 0xFFFFFFFF AND PUSH1 0xE0 SHL DUP2 MSTORE PUSH1 0x4 ADD PUSH3 0x2831 SWAP7 SWAP6 SWAP5 SWAP4 SWAP3 SWAP2 SWAP1 PUSH3 0x58F8 JUMP JUMPDEST PUSH1 0x60 PUSH1 0x40 MLOAD DUP1 DUP4 SUB DUP2 DUP6 DUP9 DUP1 EXTCODESIZE ISZERO DUP1 ISZERO PUSH3 0x284B JUMPI PUSH1 0x0 DUP1 REVERT JUMPDEST POP GAS CALL ISZERO DUP1 ISZERO PUSH3 0x2860 JUMPI RETURNDATASIZE PUSH1 0x0 DUP1 RETURNDATACOPY RETURNDATASIZE PUSH1 0x0 REVERT JUMPDEST POP POP POP POP POP PUSH1 0x40 MLOAD RETURNDATASIZE PUSH1 0x1F NOT PUSH1 0x1F DUP3 ADD AND DUP3 ADD DUP1 PUSH1 0x40 MSTORE POP DUP2 ADD SWAP1 PUSH3 0x2887 SWAP2 SWAP1 PUSH3 0x5887 JUMP JUMPDEST POP POP POP PUSH1 0x1 PUSH1 0x1 PUSH1 0xA0 SHL SUB DUP2 AND PUSH4 0xF305D719 PUSH1 0x4 PUSH3 0x28A8 PUSH1 0xA SELFBALANCE PUSH3 0x594E JUMP JUMPDEST PUSH3 0x28B4 SWAP2 SWAP1 PUSH3 0x594E JUMP JUMPDEST PUSH1 0xF SLOAD PUSH1 0x40 MLOAD PUSH4 0x70A08231 PUSH1 0xE0 SHL DUP2 MSTORE ADDRESS PUSH1 0x4 DUP3 ADD MSTORE PUSH1 0x1 PUSH1 0x1 PUSH1 0xA0 SHL SUB SWAP1 SWAP2 AND SWAP1 PUSH1 0x2 SWAP1 DUP3 SWAP1 PUSH4 0x70A08231 SWAP1 PUSH1 0x24 ADD PUSH1 0x20 PUSH1 0x40 MLOAD DUP1 DUP4 SUB DUP2 DUP7 DUP1 EXTCODESIZE ISZERO DUP1 ISZERO PUSH3 0x28FD JUMPI PUSH1 0x0 DUP1 REVERT JUMPDEST POP GAS STATICCALL ISZERO DUP1 ISZERO PUSH3 0x2912 JUMPI RETURNDATASIZE PUSH1 0x0 DUP1 RETURNDATACOPY RETURNDATASIZE PUSH1 0x0 REVERT JUMPDEST POP POP POP POP PUSH1 0x40 MLOAD RETURNDATASIZE PUSH1 0x1F NOT PUSH1 0x1F DUP3 ADD AND DUP3 ADD DUP1 PUSH1 0x40 MSTORE POP DUP2 ADD SWAP1 PUSH3 0x2938 SWAP2 SWAP1 PUSH3 0x5840 JUMP JUMPDEST PUSH3 0x2944 SWAP2 SWAP1 PUSH3 0x594E JUMP JUMPDEST PUSH1 0x0 DUP1 ADDRESS TIMESTAMP PUSH1 0x40 MLOAD DUP9 PUSH4 0xFFFFFFFF AND PUSH1 0xE0 SHL DUP2 MSTORE PUSH1 0x4 ADD PUSH3 0x296C SWAP7 SWAP6 SWAP5 SWAP4 SWAP3 SWAP2 SWAP1 PUSH3 0x58F8 JUMP JUMPDEST PUSH1 0x60 PUSH1 0x40 MLOAD DUP1 DUP4 SUB DUP2 DUP6 DUP9 DUP1 EXTCODESIZE ISZERO DUP1 ISZERO PUSH3 0x2986 JUMPI PUSH1 0x0 DUP1 REVERT JUMPDEST POP GAS CALL ISZERO DUP1 ISZERO PUSH3 0x299B JUMPI RETURNDATASIZE PUSH1 0x0 DUP1 RETURNDATACOPY RETURNDATASIZE PUSH1 0x0 REVERT JUMPDEST POP POP POP POP POP PUSH1 0x40 MLOAD RETURNDATASIZE PUSH1 0x1F NOT PUSH1 0x1F DUP3 ADD AND DUP3 ADD DUP1 PUSH1 0x40 MSTORE POP DUP2 ADD SWAP1 PUSH3 0x29C2 SWAP2 SWAP1 PUSH3 0x5887 JUMP JUMPDEST POP POP POP PUSH1 0x1 PUSH1 0x1 PUSH1 0xA0 SHL SUB DUP2 AND PUSH4 0xF305D719 PUSH1 0x4 PUSH3 0x29E3 PUSH1 0xA SELFBALANCE PUSH3 0x594E JUMP JUMPDEST PUSH3 0x29EF SWAP2 SWAP1 PUSH3 0x594E JUMP JUMPDEST PUSH1 0xE SLOAD PUSH1 0x40 MLOAD PUSH4 0x70A08231 PUSH1 0xE0 SHL DUP2 MSTORE ADDRESS PUSH1 0x4 DUP3 ADD MSTORE PUSH1 0x1 PUSH1 0x1 PUSH1 0xA0 SHL SUB SWAP1 SWAP2 AND SWAP1 PUSH1 0x2 SWAP1 DUP3 SWAP1 PUSH4 0x70A08231 SWAP1 PUSH1 0x24 ADD PUSH1 0x20 PUSH1 0x40 MLOAD DUP1 DUP4 SUB DUP2 DUP7 DUP1 EXTCODESIZE ISZERO DUP1 ISZERO PUSH3 0x2A38 JUMPI PUSH1 0x0 DUP1 REVERT JUMPDEST POP GAS STATICCALL ISZERO DUP1 ISZERO PUSH3 0x2A4D JUMPI RETURNDATASIZE PUSH1 0x0 DUP1 RETURNDATACOPY RETURNDATASIZE PUSH1 0x0 REVERT JUMPDEST POP POP POP POP PUSH1 0x40 MLOAD RETURNDATASIZE PUSH1 0x1F NOT PUSH1 0x1F DUP3 ADD AND DUP3 ADD DUP1 PUSH1 0x40 MSTORE POP DUP2 ADD SWAP1 PUSH3 0x2A73 SWAP2 SWAP1 PUSH3 0x5840 JUMP JUMPDEST PUSH3 0x2A7F SWAP2 SWAP1 PUSH3 0x594E JUMP JUMPDEST PUSH1 0x0 DUP1 ADDRESS TIMESTAMP PUSH1 0x40 MLOAD DUP9 PUSH4 0xFFFFFFFF AND PUSH1 0xE0 SHL DUP2 MSTORE PUSH1 0x4 ADD PUSH3 0x2AA7 SWAP7 SWAP6 SWAP5 SWAP4 SWAP3 SWAP2 SWAP1 PUSH3 0x58F8 JUMP JUMPDEST PUSH1 0x60 PUSH1 0x40 MLOAD DUP1 DUP4 SUB DUP2 DUP6 DUP9 DUP1 EXTCODESIZE ISZERO DUP1 ISZERO PUSH3 0x2AC1 JUMPI PUSH1 0x0 DUP1 REVERT JUMPDEST POP GAS CALL ISZERO DUP1 ISZERO PUSH3 0x2AD6 JUMPI RETURNDATASIZE PUSH1 0x0 DUP1 RETURNDATACOPY RETURNDATASIZE PUSH1 0x0 REVERT JUMPDEST POP POP POP POP POP PUSH1 0x40 MLOAD RETURNDATASIZE PUSH1 0x1F NOT PUSH1 0x1F DUP3 ADD AND DUP3 ADD DUP1 PUSH1 0x40 MSTORE POP DUP2 ADD SWAP1 PUSH3 0x2AFD SWAP2 SWAP1 PUSH3 0x5887 JUMP JUMPDEST POP POP POP DUP2 PUSH3 0x34AE JUMPI PUSH1 0xC SLOAD PUSH1 0x15 SLOAD PUSH1 0x40 MLOAD PUSH4 0x70A08231 PUSH1 0xE0 SHL DUP2 MSTORE ADDRESS PUSH1 0x4 DUP3 ADD DUP2 SWAP1 MSTORE PUSH1 0x0 SWAP4 PUSH1 0x1 PUSH1 0x1 PUSH1 0xA0 SHL SUB AND SWAP3 SWAP1 SWAP2 PUSH1 0x2 SWAP1 DUP5 SWAP1 PUSH4 0x70A08231 SWAP1 PUSH1 0x24 ADD PUSH1 0x20 PUSH1 0x40 MLOAD DUP1 DUP4 SUB DUP2 DUP7 DUP1 EXTCODESIZE ISZERO DUP1 ISZERO PUSH3 0x2B57 JUMPI PUSH1 0x0 DUP1 REVERT JUMPDEST POP GAS STATICCALL ISZERO DUP1 ISZERO PUSH3 0x2B6C JUMPI RETURNDATASIZE PUSH1 0x0 DUP1 RETURNDATACOPY RETURNDATASIZE PUSH1 0x0 REVERT JUMPDEST POP POP POP POP PUSH1 0x40 MLOAD RETURNDATASIZE PUSH1 0x1F NOT PUSH1 0x1F DUP3 ADD AND DUP3 ADD DUP1 PUSH1 0x40 MSTORE POP DUP2 ADD SWAP1 PUSH3 0x2B92 SWAP2 SWAP1 PUSH3 0x5840 JUMP JUMPDEST PUSH3 0x2B9E SWAP2 SWAP1 PUSH3 0x594E JUMP JUMPDEST PUSH1 0x40 MLOAD PUSH3 0x2BAC SWAP1 PUSH3 0x571B JUMP JUMPDEST PUSH3 0x2BBB SWAP5 SWAP4 SWAP3 SWAP2 SWAP1 PUSH3 0x58B6 JUMP JUMPDEST PUSH1 0x40 MLOAD DUP1 SWAP2 SUB SWAP1 PUSH1 0x0 CREATE DUP1 ISZERO DUP1 ISZERO PUSH3 0x2BD8 JUMPI RETURNDATASIZE PUSH1 0x0 DUP1 RETURNDATACOPY RETURNDATASIZE PUSH1 0x0 REVERT JUMPDEST POP SWAP1 POP PUSH1 0x1 PUSH1 0x1 PUSH1 0xA0 SHL SUB DUP2 AND PUSH1 0x4 PUSH3 0x2BF4 PUSH1 0x64 SELFBALANCE PUSH3 0x594E JUMP JUMPDEST PUSH3 0x2C01 SWAP1 PUSH1 0x1E PUSH3 0x5971 JUMP JUMPDEST PUSH3 0x2C0D SWAP2 SWAP1 PUSH3 0x594E JUMP JUMPDEST PUSH1 0x40 MLOAD PUSH2 0x5E4A SWAP2 SWAP1 PUSH1 0x0 DUP2 DUP2 DUP2 DUP6 DUP9 DUP9 CALL SWAP4 POP POP POP POP RETURNDATASIZE DUP1 PUSH1 0x0 DUP2 EQ PUSH3 0x2C51 JUMPI PUSH1 0x40 MLOAD SWAP2 POP PUSH1 0x1F NOT PUSH1 0x3F RETURNDATASIZE ADD AND DUP3 ADD PUSH1 0x40 MSTORE RETURNDATASIZE DUP3 MSTORE RETURNDATASIZE PUSH1 0x0 PUSH1 0x20 DUP5 ADD RETURNDATACOPY PUSH3 0x2C56 JUMP JUMPDEST PUSH1 0x60 SWAP2 POP JUMPDEST POP POP PUSH1 0x1D DUP1 SLOAD PUSH1 0x1 PUSH1 0x1 PUSH1 0xA0 SHL SUB NOT AND PUSH1 0x1 PUSH1 0x1 PUSH1 0xA0 SHL SUB DUP5 DUP2 AND SWAP2 SWAP1 SWAP2 OR SWAP1 SWAP2 SSTORE PUSH1 0xC SLOAD PUSH1 0x40 MLOAD PUSH4 0x70A08231 PUSH1 0xE0 SHL DUP2 MSTORE ADDRESS PUSH1 0x4 DUP3 ADD MSTORE SWAP2 AND SWAP2 POP PUSH4 0x95EA7B3 SWAP1 DUP4 SWAP1 DUP4 SWAP1 PUSH4 0x70A08231 SWAP1 PUSH1 0x24 ADD PUSH1 0x20 PUSH1 0x40 MLOAD DUP1 DUP4 SUB DUP2 DUP7 DUP1 EXTCODESIZE ISZERO DUP1 ISZERO PUSH3 0x2CBE JUMPI PUSH1 0x0 DUP1 REVERT JUMPDEST POP GAS STATICCALL ISZERO DUP1 ISZERO PUSH3 0x2CD3 JUMPI RETURNDATASIZE PUSH1 0x0 DUP1 RETURNDATACOPY RETURNDATASIZE PUSH1 0x0 REVERT JUMPDEST POP POP POP POP PUSH1 0x40 MLOAD RETURNDATASIZE PUSH1 0x1F NOT PUSH1 0x1F DUP3 ADD AND DUP3 ADD DUP1 PUSH1 0x40 MSTORE POP DUP2 ADD SWAP1 PUSH3 0x2CF9 SWAP2 SWAP1 PUSH3 0x5840 JUMP JUMPDEST PUSH1 0x40 MLOAD DUP4 PUSH4 0xFFFFFFFF AND PUSH1 0xE0 SHL DUP2 MSTORE PUSH1 0x4 ADD PUSH3 0x2D18 SWAP3 SWAP2 SWAP1 PUSH3 0x58DF JUMP JUMPDEST PUSH1 0x20 PUSH1 0x40 MLOAD DUP1 DUP4 SUB DUP2 PUSH1 0x0 DUP8 DUP1 EXTCODESIZE ISZERO DUP1 ISZERO PUSH3 0x2D33 JUMPI PUSH1 0x0 DUP1 REVERT JUMPDEST POP GAS CALL ISZERO DUP1 ISZERO PUSH3 0x2D48 JUMPI RETURNDATASIZE PUSH1 0x0 DUP1 RETURNDATACOPY RETURNDATASIZE PUSH1 0x0 REVERT JUMPDEST POP POP POP POP PUSH1 0x40 MLOAD RETURNDATASIZE PUSH1 0x1F NOT PUSH1 0x1F DUP3 ADD AND DUP3 ADD DUP1 PUSH1 0x40 MSTORE POP DUP2 ADD SWAP1 PUSH3 0x2D6E SWAP2 SWAP1 PUSH3 0x5802 JUMP JUMPDEST POP PUSH1 0xD SLOAD PUSH1 0x16 SLOAD PUSH1 0x40 MLOAD PUSH4 0x70A08231 PUSH1 0xE0 SHL DUP2 MSTORE ADDRESS PUSH1 0x4 DUP3 ADD DUP2 SWAP1 MSTORE PUSH1 0x0 SWAP4 PUSH1 0x1 PUSH1 0x1 PUSH1 0xA0 SHL SUB AND SWAP3 SWAP1 SWAP2 PUSH1 0x2 SWAP1 DUP5 SWAP1 PUSH4 0x70A08231 SWAP1 PUSH1 0x24 ADD PUSH1 0x20 PUSH1 0x40 MLOAD DUP1 DUP4 SUB DUP2 DUP7 DUP1 EXTCODESIZE ISZERO DUP1 ISZERO PUSH3 0x2DC0 JUMPI PUSH1 0x0 DUP1 REVERT JUMPDEST POP GAS STATICCALL ISZERO DUP1 ISZERO PUSH3 0x2DD5 JUMPI RETURNDATASIZE PUSH1 0x0 DUP1 RETURNDATACOPY RETURNDATASIZE PUSH1 0x0 REVERT JUMPDEST POP POP POP POP PUSH1 0x40 MLOAD RETURNDATASIZE PUSH1 0x1F NOT PUSH1 0x1F DUP3 ADD AND DUP3 ADD DUP1 PUSH1 0x40 MSTORE POP DUP2 ADD SWAP1 PUSH3 0x2DFB SWAP2 SWAP1 PUSH3 0x5840 JUMP JUMPDEST PUSH3 0x2E07 SWAP2 SWAP1 PUSH3 0x594E JUMP JUMPDEST PUSH1 0x40 MLOAD PUSH3 0x2E15 SWAP1 PUSH3 0x571B JUMP JUMPDEST PUSH3 0x2E24 SWAP5 SWAP4 SWAP3 SWAP2 SWAP1 PUSH3 0x58B6 JUMP JUMPDEST PUSH1 0x40 MLOAD DUP1 SWAP2 SUB SWAP1 PUSH1 0x0 CREATE DUP1 ISZERO DUP1 ISZERO PUSH3 0x2E41 JUMPI RETURNDATASIZE PUSH1 0x0 DUP1 RETURNDATACOPY RETURNDATASIZE PUSH1 0x0 REVERT JUMPDEST POP PUSH1 0x1E DUP1 SLOAD PUSH1 0x1 PUSH1 0x1 PUSH1 0xA0 SHL SUB NOT AND PUSH1 0x1 PUSH1 0x1 PUSH1 0xA0 SHL SUB DUP4 AND SWAP1 DUP2 OR SWAP1 SWAP2 SSTORE SWAP1 SWAP2 POP PUSH1 0x4 PUSH3 0x2E72 PUSH1 0x64 SELFBALANCE PUSH3 0x594E JUMP JUMPDEST PUSH3 0x2E7F SWAP1 PUSH1 0x1E PUSH3 0x5971 JUMP JUMPDEST PUSH3 0x2E8B SWAP2 SWAP1 PUSH3 0x594E JUMP JUMPDEST PUSH1 0x40 MLOAD PUSH2 0x5E4A SWAP2 SWAP1 PUSH1 0x0 DUP2 DUP2 DUP2 DUP6 DUP9 DUP9 CALL SWAP4 POP POP POP POP RETURNDATASIZE DUP1 PUSH1 0x0 DUP2 EQ PUSH3 0x2ECF JUMPI PUSH1 0x40 MLOAD SWAP2 POP PUSH1 0x1F NOT PUSH1 0x3F RETURNDATASIZE ADD AND DUP3 ADD PUSH1 0x40 MSTORE RETURNDATASIZE DUP3 MSTORE RETURNDATASIZE PUSH1 0x0 PUSH1 0x20 DUP5 ADD RETURNDATACOPY PUSH3 0x2ED4 JUMP JUMPDEST PUSH1 0x60 SWAP2 POP JUMPDEST POP POP PUSH1 0xD SLOAD PUSH1 0x40 MLOAD PUSH4 0x70A08231 PUSH1 0xE0 SHL DUP2 MSTORE ADDRESS PUSH1 0x4 DUP3 ADD MSTORE PUSH1 0x1 PUSH1 0x1 PUSH1 0xA0 SHL SUB SWAP1 SWAP2 AND SWAP2 POP PUSH4 0x95EA7B3 SWAP1 DUP4 SWAP1 DUP4 SWAP1 PUSH4 0x70A08231 SWAP1 PUSH1 0x24 ADD PUSH1 0x20 PUSH1 0x40 MLOAD DUP1 DUP4 SUB DUP2 DUP7 DUP1 EXTCODESIZE ISZERO DUP1 ISZERO PUSH3 0x2F25 JUMPI PUSH1 0x0 DUP1 REVERT JUMPDEST POP GAS STATICCALL ISZERO DUP1 ISZERO PUSH3 0x2F3A JUMPI RETURNDATASIZE PUSH1 0x0 DUP1 RETURNDATACOPY RETURNDATASIZE PUSH1 0x0 REVERT JUMPDEST POP POP POP POP PUSH1 0x40 MLOAD RETURNDATASIZE PUSH1 0x1F NOT PUSH1 0x1F DUP3 ADD AND DUP3 ADD DUP1 PUSH1 0x40 MSTORE POP DUP2 ADD SWAP1 PUSH3 0x2F60 SWAP2 SWAP1 PUSH3 0x5840 JUMP JUMPDEST PUSH1 0x40 MLOAD DUP4 PUSH4 0xFFFFFFFF AND PUSH1 0xE0 SHL DUP2 MSTORE PUSH1 0x4 ADD PUSH3 0x2F7F SWAP3 SWAP2 SWAP1 PUSH3 0x58DF JUMP JUMPDEST PUSH1 0x20 PUSH1 0x40 MLOAD DUP1 DUP4 SUB DUP2 PUSH1 0x0 DUP8 DUP1 EXTCODESIZE ISZERO DUP1 ISZERO PUSH3 0x2F9A JUMPI PUSH1 0x0 DUP1 REVERT JUMPDEST POP GAS CALL ISZERO DUP1 ISZERO PUSH3 0x2FAF JUMPI RETURNDATASIZE PUSH1 0x0 DUP1 RETURNDATACOPY RETURNDATASIZE PUSH1 0x0 REVERT JUMPDEST POP POP POP POP PUSH1 0x40 MLOAD RETURNDATASIZE PUSH1 0x1F NOT PUSH1 0x1F DUP3 ADD AND DUP3 ADD DUP1 PUSH1 0x40 MSTORE POP DUP2 ADD SWAP1 PUSH3 0x2FD5 SWAP2 SWAP1 PUSH3 0x5802 JUMP JUMPDEST POP PUSH1 0xF SLOAD PUSH1 0x17 SLOAD PUSH1 0x40 MLOAD PUSH4 0x70A08231 PUSH1 0xE0 SHL DUP2 MSTORE ADDRESS PUSH1 0x4 DUP3 ADD DUP2 SWAP1 MSTORE PUSH1 0x0 SWAP4 PUSH1 0x1 PUSH1 0x1 PUSH1 0xA0 SHL SUB AND SWAP3 SWAP1 SWAP2 PUSH1 0x2 SWAP1 DUP5 SWAP1 PUSH4 0x70A08231 SWAP1 PUSH1 0x24 ADD PUSH1 0x20 PUSH1 0x40 MLOAD DUP1 DUP4 SUB DUP2 DUP7 DUP1 EXTCODESIZE ISZERO DUP1 ISZERO PUSH3 0x3027 JUMPI PUSH1 0x0 DUP1 REVERT JUMPDEST POP GAS STATICCALL ISZERO DUP1 ISZERO PUSH3 0x303C JUMPI RETURNDATASIZE PUSH1 0x0 DUP1 RETURNDATACOPY RETURNDATASIZE PUSH1 0x0 REVERT JUMPDEST POP POP POP POP PUSH1 0x40 MLOAD RETURNDATASIZE PUSH1 0x1F NOT PUSH1 0x1F DUP3 ADD AND DUP3 ADD DUP1 PUSH1 0x40 MSTORE POP DUP2 ADD SWAP1 PUSH3 0x3062 SWAP2 SWAP1 PUSH3 0x5840 JUMP JUMPDEST PUSH3 0x306E SWAP2 SWAP1 PUSH3 0x594E JUMP JUMPDEST PUSH1 0x40 MLOAD PUSH3 0x307C SWAP1 PUSH3 0x571B JUMP JUMPDEST PUSH3 0x308B SWAP5 SWAP4 SWAP3 SWAP2 SWAP1 PUSH3 0x58B6 JUMP JUMPDEST PUSH1 0x40 MLOAD DUP1 SWAP2 SUB SWAP1 PUSH1 0x0 CREATE DUP1 ISZERO DUP1 ISZERO PUSH3 0x30A8 JUMPI RETURNDATASIZE PUSH1 0x0 DUP1 RETURNDATACOPY RETURNDATASIZE PUSH1 0x0 REVERT JUMPDEST POP PUSH1 0x1F DUP1 SLOAD PUSH1 0x1 PUSH1 0x1 PUSH1 0xA0 SHL SUB NOT AND PUSH1 0x1 PUSH1 0x1 PUSH1 0xA0 SHL SUB DUP4 AND SWAP1 DUP2 OR SWAP1 SWAP2 SSTORE SWAP1 SWAP2 POP PUSH1 0x4 PUSH3 0x30D9 PUSH1 0x64 SELFBALANCE PUSH3 0x594E JUMP JUMPDEST PUSH3 0x30E6 SWAP1 PUSH1 0x1E PUSH3 0x5971 JUMP JUMPDEST PUSH3 0x30F2 SWAP2 SWAP1 PUSH3 0x594E JUMP JUMPDEST PUSH1 0x40 MLOAD PUSH2 0x5E4A SWAP2 SWAP1 PUSH1 0x0 DUP2 DUP2 DUP2 DUP6 DUP9 DUP9 CALL SWAP4 POP POP POP POP RETURNDATASIZE DUP1 PUSH1 0x0 DUP2 EQ PUSH3 0x3136 JUMPI PUSH1 0x40 MLOAD SWAP2 POP PUSH1 0x1F NOT PUSH1 0x3F RETURNDATASIZE ADD AND DUP3 ADD PUSH1 0x40 MSTORE RETURNDATASIZE DUP3 MSTORE RETURNDATASIZE PUSH1 0x0 PUSH1 0x20 DUP5 ADD RETURNDATACOPY PUSH3 0x313B JUMP JUMPDEST PUSH1 0x60 SWAP2 POP JUMPDEST POP POP PUSH1 0xF SLOAD PUSH1 0x40 MLOAD PUSH4 0x70A08231 PUSH1 0xE0 SHL DUP2 MSTORE ADDRESS PUSH1 0x4 DUP3 ADD MSTORE PUSH1 0x1 PUSH1 0x1 PUSH1 0xA0 SHL SUB SWAP1 SWAP2 AND SWAP2 POP PUSH4 0x95EA7B3 SWAP1 DUP4 SWAP1 DUP4 SWAP1 PUSH4 0x70A08231 SWAP1 PUSH1 0x24 ADD PUSH1 0x20 PUSH1 0x40 MLOAD DUP1 DUP4 SUB DUP2 DUP7 DUP1 EXTCODESIZE ISZERO DUP1 ISZERO PUSH3 0x318C JUMPI PUSH1 0x0 DUP1 REVERT JUMPDEST POP GAS STATICCALL ISZERO DUP1 ISZERO PUSH3 0x31A1 JUMPI RETURNDATASIZE PUSH1 0x0 DUP1 RETURNDATACOPY RETURNDATASIZE PUSH1 0x0 REVERT JUMPDEST POP POP POP POP PUSH1 0x40 MLOAD RETURNDATASIZE PUSH1 0x1F NOT PUSH1 0x1F DUP3 ADD AND DUP3 ADD DUP1 PUSH1 0x40 MSTORE POP DUP2 ADD SWAP1 PUSH3 0x31C7 SWAP2 SWAP1 PUSH3 0x5840 JUMP JUMPDEST PUSH1 0x40 MLOAD DUP4 PUSH4 0xFFFFFFFF AND PUSH1 0xE0 SHL DUP2 MSTORE PUSH1 0x4 ADD PUSH3 0x31E6 SWAP3 SWAP2 SWAP1 PUSH3 0x58DF JUMP JUMPDEST PUSH1 0x20 PUSH1 0x40 MLOAD DUP1 DUP4 SUB DUP2 PUSH1 0x0 DUP8 DUP1 EXTCODESIZE ISZERO DUP1 ISZERO PUSH3 0x3201 JUMPI PUSH1 0x0 DUP1 REVERT JUMPDEST POP GAS CALL ISZERO DUP1 ISZERO PUSH3 0x3216 JUMPI RETURNDATASIZE PUSH1 0x0 DUP1 RETURNDATACOPY RETURNDATASIZE PUSH1 0x0 REVERT JUMPDEST POP POP POP POP PUSH1 0x40 MLOAD RETURNDATASIZE PUSH1 0x1F NOT PUSH1 0x1F DUP3 ADD AND DUP3 ADD DUP1 PUSH1 0x40 MSTORE POP DUP2 ADD SWAP1 PUSH3 0x323C SWAP2 SWAP1 PUSH3 0x5802 JUMP JUMPDEST POP PUSH1 0xE SLOAD PUSH1 0x18 SLOAD PUSH1 0x40 MLOAD PUSH4 0x70A08231 PUSH1 0xE0 SHL DUP2 MSTORE ADDRESS PUSH1 0x4 DUP3 ADD DUP2 SWAP1 MSTORE PUSH1 0x0 SWAP4 PUSH1 0x1 PUSH1 0x1 PUSH1 0xA0 SHL SUB AND SWAP3 SWAP1 SWAP2 PUSH1 0x2 SWAP1 DUP5 SWAP1 PUSH4 0x70A08231 SWAP1 PUSH1 0x24 ADD PUSH1 0x20 PUSH1 0x40 MLOAD DUP1 DUP4 SUB DUP2 DUP7 DUP1 EXTCODESIZE ISZERO DUP1 ISZERO PUSH3 0x328E JUMPI PUSH1 0x0 DUP1 REVERT JUMPDEST POP GAS STATICCALL ISZERO DUP1 ISZERO PUSH3 0x32A3 JUMPI RETURNDATASIZE PUSH1 0x0 DUP1 RETURNDATACOPY RETURNDATASIZE PUSH1 0x0 REVERT JUMPDEST POP POP POP POP PUSH1 0x40 MLOAD RETURNDATASIZE PUSH1 0x1F NOT PUSH1 0x1F DUP3 ADD AND DUP3 ADD DUP1 PUSH1 0x40 MSTORE POP DUP2 ADD SWAP1 PUSH3 0x32C9 SWAP2 SWAP1 PUSH3 0x5840 JUMP JUMPDEST PUSH3 0x32D5 SWAP2 SWAP1 PUSH3 0x594E JUMP JUMPDEST PUSH1 0x40 MLOAD PUSH3 0x32E3 SWAP1 PUSH3 0x571B JUMP JUMPDEST PUSH3 0x32F2 SWAP5 SWAP4 SWAP3 SWAP2 SWAP1 PUSH3 0x58B6 JUMP JUMPDEST PUSH1 0x40 MLOAD DUP1 SWAP2 SUB SWAP1 PUSH1 0x0 CREATE DUP1 ISZERO DUP1 ISZERO PUSH3 0x330F JUMPI RETURNDATASIZE PUSH1 0x0 DUP1 RETURNDATACOPY RETURNDATASIZE PUSH1 0x0 REVERT JUMPDEST POP PUSH1 0x20 DUP1 SLOAD PUSH1 0x1 PUSH1 0x1 PUSH1 0xA0 SHL SUB NOT AND PUSH1 0x1 PUSH1 0x1 PUSH1 0xA0 SHL SUB DUP4 AND SWAP1 DUP2 OR SWAP1 SWAP2 SSTORE SWAP1 SWAP2 POP PUSH1 0x4 PUSH3 0x3340 PUSH1 0x64 SELFBALANCE PUSH3 0x594E JUMP JUMPDEST PUSH3 0x334D SWAP1 PUSH1 0x1E PUSH3 0x5971 JUMP JUMPDEST PUSH3 0x3359 SWAP2 SWAP1 PUSH3 0x594E JUMP JUMPDEST PUSH1 0x40 MLOAD PUSH2 0x5E4A SWAP2 SWAP1 PUSH1 0x0 DUP2 DUP2 DUP2 DUP6 DUP9 DUP9 CALL SWAP4 POP POP POP POP RETURNDATASIZE DUP1 PUSH1 0x0 DUP2 EQ PUSH3 0x339D JUMPI PUSH1 0x40 MLOAD SWAP2 POP PUSH1 0x1F NOT PUSH1 0x3F RETURNDATASIZE ADD AND DUP3 ADD PUSH1 0x40 MSTORE RETURNDATASIZE DUP3 MSTORE RETURNDATASIZE PUSH1 0x0 PUSH1 0x20 DUP5 ADD RETURNDATACOPY PUSH3 0x33A2 JUMP JUMPDEST PUSH1 0x60 SWAP2 POP JUMPDEST POP POP PUSH1 0xE SLOAD PUSH1 0x40 MLOAD PUSH4 0x70A08231 PUSH1 0xE0 SHL DUP2 MSTORE ADDRESS PUSH1 0x4 DUP3 ADD MSTORE PUSH1 0x1 PUSH1 0x1 PUSH1 0xA0 SHL SUB SWAP1 SWAP2 AND SWAP2 POP PUSH4 0x95EA7B3 SWAP1 DUP4 SWAP1 DUP4 SWAP1 PUSH4 0x70A08231 SWAP1 PUSH1 0x24 ADD PUSH1 0x20 PUSH1 0x40 MLOAD DUP1 DUP4 SUB DUP2 DUP7 DUP1 EXTCODESIZE ISZERO DUP1 ISZERO PUSH3 0x33F3 JUMPI PUSH1 0x0 DUP1 REVERT JUMPDEST POP GAS STATICCALL ISZERO DUP1 ISZERO PUSH3 0x3408 JUMPI RETURNDATASIZE PUSH1 0x0 DUP1 RETURNDATACOPY RETURNDATASIZE PUSH1 0x0 REVERT JUMPDEST POP POP POP POP PUSH1 0x40 MLOAD RETURNDATASIZE PUSH1 0x1F NOT PUSH1 0x1F DUP3 ADD AND DUP3 ADD DUP1 PUSH1 0x40 MSTORE POP DUP2 ADD SWAP1 PUSH3 0x342E SWAP2 SWAP1 PUSH3 0x5840 JUMP JUMPDEST PUSH1 0x40 MLOAD DUP4 PUSH4 0xFFFFFFFF AND PUSH1 0xE0 SHL DUP2 MSTORE PUSH1 0x4 ADD PUSH3 0x344D SWAP3 SWAP2 SWAP1 PUSH3 0x58DF JUMP JUMPDEST PUSH1 0x20 PUSH1 0x40 MLOAD DUP1 DUP4 SUB DUP2 PUSH1 0x0 DUP8 DUP1 EXTCODESIZE ISZERO DUP1 ISZERO PUSH3 0x3468 JUMPI PUSH1 0x0 DUP1 REVERT JUMPDEST POP GAS CALL ISZERO DUP1 ISZERO PUSH3 0x347D JUMPI RETURNDATASIZE PUSH1 0x0 DUP1 RETURNDATACOPY RETURNDATASIZE PUSH1 0x0 REVERT JUMPDEST POP POP POP POP PUSH1 0x40 MLOAD RETURNDATASIZE PUSH1 0x1F NOT PUSH1 0x1F DUP3 ADD AND DUP3 ADD DUP1 PUSH1 0x40 MSTORE POP DUP2 ADD SWAP1 PUSH3 0x34A3 SWAP2 SWAP1 PUSH3 0x5802 JUMP JUMPDEST POP POP POP POP POP PUSH3 0x5491 JUMP JUMPDEST DUP2 PUSH1 0x1 EQ ISZERO PUSH3 0x4AC9 JUMPI DUP6 DUP1 ISZERO PUSH3 0x34C4 JUMPI POP DUP5 ISZERO JUMPDEST DUP1 ISZERO PUSH3 0x34CF JUMPI POP DUP4 ISZERO JUMPDEST DUP1 ISZERO PUSH3 0x34DA JUMPI POP DUP3 ISZERO JUMPDEST ISZERO PUSH3 0x3B65 JUMPI PUSH1 0xC SLOAD PUSH1 0x15 SLOAD PUSH1 0x40 MLOAD PUSH4 0x70A08231 PUSH1 0xE0 SHL DUP2 MSTORE ADDRESS PUSH1 0x4 DUP3 ADD DUP2 SWAP1 MSTORE PUSH1 0x0 SWAP4 PUSH1 0x1 PUSH1 0x1 PUSH1 0xA0 SHL SUB AND SWAP3 SWAP1 SWAP2 PUSH1 0x2 SWAP1 DUP5 SWAP1 PUSH4 0x70A08231 SWAP1 PUSH1 0x24 ADD PUSH1 0x20 PUSH1 0x40 MLOAD DUP1 DUP4 SUB DUP2 DUP7 DUP1 EXTCODESIZE ISZERO DUP1 ISZERO PUSH3 0x3531 JUMPI PUSH1 0x0 DUP1 REVERT JUMPDEST POP GAS STATICCALL ISZERO DUP1 ISZERO PUSH3 0x3546 JUMPI RETURNDATASIZE PUSH1 0x0 DUP1 RETURNDATACOPY RETURNDATASIZE PUSH1 0x0 REVERT JUMPDEST POP POP POP POP PUSH1 0x40 MLOAD RETURNDATASIZE PUSH1 0x1F NOT PUSH1 0x1F DUP3 ADD AND DUP3 ADD DUP1 PUSH1 0x40 MSTORE POP DUP2 ADD SWAP1 PUSH3 0x356C SWAP2 SWAP1 PUSH3 0x5840 JUMP JUMPDEST PUSH3 0x3578 SWAP2 SWAP1 PUSH3 0x594E JUMP JUMPDEST PUSH1 0x40 MLOAD PUSH3 0x3586 SWAP1 PUSH3 0x571B JUMP JUMPDEST PUSH3 0x3595 SWAP5 SWAP4 SWAP3 SWAP2 SWAP1 PUSH3 0x58B6 JUMP JUMPDEST PUSH1 0x40 MLOAD DUP1 SWAP2 SUB SWAP1 PUSH1 0x0 CREATE DUP1 ISZERO DUP1 ISZERO PUSH3 0x35B2 JUMPI RETURNDATASIZE PUSH1 0x0 DUP1 RETURNDATACOPY RETURNDATASIZE PUSH1 0x0 REVERT JUMPDEST POP SWAP1 POP PUSH1 0x1 PUSH1 0x1 PUSH1 0xA0 SHL SUB DUP2 AND PUSH3 0x35CC PUSH1 0x64 SELFBALANCE PUSH3 0x594E JUMP JUMPDEST PUSH3 0x35D9 SWAP1 PUSH1 0x50 PUSH3 0x5971 JUMP JUMPDEST PUSH1 0x40 MLOAD PUSH2 0x5E4A SWAP2 SWAP1 PUSH1 0x0 DUP2 DUP2 DUP2 DUP6 DUP9 DUP9 CALL SWAP4 POP POP POP POP RETURNDATASIZE DUP1 PUSH1 0x0 DUP2 EQ PUSH3 0x361D JUMPI PUSH1 0x40 MLOAD SWAP2 POP PUSH1 0x1F NOT PUSH1 0x3F RETURNDATASIZE ADD AND DUP3 ADD PUSH1 0x40 MSTORE RETURNDATASIZE DUP3 MSTORE RETURNDATASIZE PUSH1 0x0 PUSH1 0x20 DUP5 ADD RETURNDATACOPY PUSH3 0x3622 JUMP JUMPDEST PUSH1 0x60 SWAP2 POP JUMPDEST POP POP PUSH1 0x1D DUP1 SLOAD PUSH1 0x1 PUSH1 0x1 PUSH1 0xA0 SHL SUB NOT AND PUSH1 0x1 PUSH1 0x1 PUSH1 0xA0 SHL SUB DUP5 DUP2 AND SWAP2 SWAP1 SWAP2 OR SWAP1 SWAP2 SSTORE PUSH1 0xC SLOAD PUSH1 0x40 MLOAD PUSH4 0x70A08231 PUSH1 0xE0 SHL DUP2 MSTORE ADDRESS PUSH1 0x4 DUP3 ADD MSTORE SWAP2 AND SWAP2 POP PUSH4 0x95EA7B3 SWAP1 DUP4 SWAP1 DUP4 SWAP1 PUSH4 0x70A08231 SWAP1 PUSH1 0x24 ADD PUSH1 0x20 PUSH1 0x40 MLOAD DUP1 DUP4 SUB DUP2 DUP7 DUP1 EXTCODESIZE ISZERO DUP1 ISZERO PUSH3 0x368A JUMPI PUSH1 0x0 DUP1 REVERT JUMPDEST POP GAS STATICCALL ISZERO DUP1 ISZERO PUSH3 0x369F JUMPI RETURNDATASIZE PUSH1 0x0 DUP1 RETURNDATACOPY RETURNDATASIZE PUSH1 0x0 REVERT JUMPDEST POP POP POP POP PUSH1 0x40 MLOAD RETURNDATASIZE PUSH1 0x1F NOT PUSH1 0x1F DUP3 ADD AND DUP3 ADD DUP1 PUSH1 0x40 MSTORE POP DUP2 ADD SWAP1 PUSH3 0x36C5 SWAP2 SWAP1 PUSH3 0x5840 JUMP JUMPDEST PUSH1 0x40 MLOAD DUP4 PUSH4 0xFFFFFFFF AND PUSH1 0xE0 SHL DUP2 MSTORE PUSH1 0x4 ADD PUSH3 0x36E4 SWAP3 SWAP2 SWAP1 PUSH3 0x58DF JUMP JUMPDEST PUSH1 0x20 PUSH1 0x40 MLOAD DUP1 DUP4 SUB DUP2 PUSH1 0x0 DUP8 DUP1 EXTCODESIZE ISZERO DUP1 ISZERO PUSH3 0x36FF JUMPI PUSH1 0x0 DUP1 REVERT JUMPDEST POP GAS CALL ISZERO DUP1 ISZERO PUSH3 0x3714 JUMPI RETURNDATASIZE PUSH1 0x0 DUP1 RETURNDATACOPY RETURNDATASIZE PUSH1 0x0 REVERT JUMPDEST POP POP POP POP PUSH1 0x40 MLOAD RETURNDATASIZE PUSH1 0x1F NOT PUSH1 0x1F DUP3 ADD AND DUP3 ADD DUP1 PUSH1 0x40 MSTORE POP DUP2 ADD SWAP1 PUSH3 0x373A SWAP2 SWAP1 PUSH3 0x5802 JUMP JUMPDEST POP PUSH1 0xD SLOAD PUSH1 0x40 MLOAD PUSH4 0x70A08231 PUSH1 0xE0 SHL DUP2 MSTORE ADDRESS PUSH1 0x4 DUP3 ADD MSTORE PUSH1 0x0 SWAP2 PUSH1 0x1 PUSH1 0x1 PUSH1 0xA0 SHL SUB AND SWAP1 PUSH4 0x70A08231 SWAP1 PUSH1 0x24 ADD PUSH1 0x20 PUSH1 0x40 MLOAD DUP1 DUP4 SUB DUP2 DUP7 DUP1 EXTCODESIZE ISZERO DUP1 ISZERO PUSH3 0x3780 JUMPI PUSH1 0x0 DUP1 REVERT JUMPDEST POP GAS STATICCALL ISZERO DUP1 ISZERO PUSH3 0x3795 JUMPI RETURNDATASIZE PUSH1 0x0 DUP1 RETURNDATACOPY RETURNDATASIZE PUSH1 0x0 REVERT JUMPDEST POP POP POP POP PUSH1 0x40 MLOAD RETURNDATASIZE PUSH1 0x1F NOT PUSH1 0x1F DUP3 ADD AND DUP3 ADD DUP1 PUSH1 0x40 MSTORE POP DUP2 ADD SWAP1 PUSH3 0x37BB SWAP2 SWAP1 PUSH3 0x5840 JUMP JUMPDEST GT ISZERO PUSH3 0x389D JUMPI PUSH1 0xD SLOAD PUSH1 0x40 MLOAD PUSH4 0x70A08231 PUSH1 0xE0 SHL DUP2 MSTORE ADDRESS PUSH1 0x4 DUP3 ADD MSTORE PUSH1 0x1 PUSH1 0x1 PUSH1 0xA0 SHL SUB SWAP1 SWAP2 AND SWAP1 PUSH4 0x42966C68 SWAP1 DUP3 SWAP1 PUSH4 0x70A08231 SWAP1 PUSH1 0x24 ADD PUSH1 0x20 PUSH1 0x40 MLOAD DUP1 DUP4 SUB DUP2 DUP7 DUP1 EXTCODESIZE ISZERO DUP1 ISZERO PUSH3 0x380E JUMPI PUSH1 0x0 DUP1 REVERT JUMPDEST POP GAS STATICCALL ISZERO DUP1 ISZERO PUSH3 0x3823 JUMPI RETURNDATASIZE PUSH1 0x0 DUP1 RETURNDATACOPY RETURNDATASIZE PUSH1 0x0 REVERT JUMPDEST POP POP POP POP PUSH1 0x40 MLOAD RETURNDATASIZE PUSH1 0x1F NOT PUSH1 0x1F DUP3 ADD AND DUP3 ADD DUP1 PUSH1 0x40 MSTORE POP DUP2 ADD SWAP1 PUSH3 0x3849 SWAP2 SWAP1 PUSH3 0x5840 JUMP JUMPDEST PUSH1 0x40 MLOAD DUP3 PUSH4 0xFFFFFFFF AND PUSH1 0xE0 SHL DUP2 MSTORE PUSH1 0x4 ADD PUSH3 0x3868 SWAP2 DUP2 MSTORE PUSH1 0x20 ADD SWAP1 JUMP JUMPDEST PUSH1 0x0 PUSH1 0x40 MLOAD DUP1 DUP4 SUB DUP2 PUSH1 0x0 DUP8 DUP1 EXTCODESIZE ISZERO DUP1 ISZERO PUSH3 0x3883 JUMPI PUSH1 0x0 DUP1 REVERT JUMPDEST POP GAS CALL ISZERO DUP1 ISZERO PUSH3 0x3898 JUMPI RETURNDATASIZE PUSH1 0x0 DUP1 RETURNDATACOPY RETURNDATASIZE PUSH1 0x0 REVERT JUMPDEST POP POP POP POP JUMPDEST PUSH1 0xE SLOAD PUSH1 0x40 MLOAD PUSH4 0x70A08231 PUSH1 0xE0 SHL DUP2 MSTORE ADDRESS PUSH1 0x4 DUP3 ADD MSTORE PUSH1 0x0 SWAP2 PUSH1 0x1 PUSH1 0x1 PUSH1 0xA0 SHL SUB AND SWAP1 PUSH4 0x70A08231 SWAP1 PUSH1 0x24 ADD PUSH1 0x20 PUSH1 0x40 MLOAD DUP1 DUP4 SUB DUP2 DUP7 DUP1 EXTCODESIZE ISZERO DUP1 ISZERO PUSH3 0x38E2 JUMPI PUSH1 0x0 DUP1 REVERT JUMPDEST POP GAS STATICCALL ISZERO DUP1 ISZERO PUSH3 0x38F7 JUMPI RETURNDATASIZE PUSH1 0x0 DUP1 RETURNDATACOPY RETURNDATASIZE PUSH1 0x0 REVERT JUMPDEST POP POP POP POP PUSH1 0x40 MLOAD RETURNDATASIZE PUSH1 0x1F NOT PUSH1 0x1F DUP3 ADD AND DUP3 ADD DUP1 PUSH1 0x40 MSTORE POP DUP2 ADD SWAP1 PUSH3 0x391D SWAP2 SWAP1 PUSH3 0x5840 JUMP JUMPDEST GT ISZERO PUSH3 0x3A00 JUMPI PUSH1 0xE SLOAD PUSH1 0x40 MLOAD PUSH4 0x70A08231 PUSH1 0xE0 SHL DUP2 MSTORE ADDRESS PUSH1 0x4 DUP3 ADD MSTORE PUSH1 0x1 PUSH1 0x1 PUSH1 0xA0 SHL SUB SWAP1 SWAP2 AND SWAP1 PUSH4 0x42966C68 SWAP1 DUP3 SWAP1 PUSH4 0x70A08231 SWAP1 PUSH1 0x24 ADD JUMPDEST PUSH1 0x20 PUSH1 0x40 MLOAD DUP1 DUP4 SUB DUP2 DUP7 DUP1 EXTCODESIZE ISZERO DUP1 ISZERO PUSH3 0x3971 JUMPI PUSH1 0x0 DUP1 REVERT JUMPDEST POP GAS STATICCALL ISZERO DUP1 ISZERO PUSH3 0x3986 JUMPI RETURNDATASIZE PUSH1 0x0 DUP1 RETURNDATACOPY RETURNDATASIZE PUSH1 0x0 REVERT JUMPDEST POP POP POP POP PUSH1 0x40 MLOAD RETURNDATASIZE PUSH1 0x1F NOT PUSH1 0x1F DUP3 ADD AND DUP3 ADD DUP1 PUSH1 0x40 MSTORE POP DUP2 ADD SWAP1 PUSH3 0x39AC SWAP2 SWAP1 PUSH3 0x5840 JUMP JUMPDEST PUSH1 0x40 MLOAD DUP3 PUSH4 0xFFFFFFFF AND PUSH1 0xE0 SHL DUP2 MSTORE PUSH1 0x4 ADD PUSH3 0x39CB SWAP2 DUP2 MSTORE PUSH1 0x20 ADD SWAP1 JUMP JUMPDEST PUSH1 0x0 PUSH1 0x40 MLOAD DUP1 DUP4 SUB DUP2 PUSH1 0x0 DUP8 DUP1 EXTCODESIZE ISZERO DUP1 ISZERO PUSH3 0x39E6 JUMPI PUSH1 0x0 DUP1 REVERT JUMPDEST POP GAS CALL ISZERO DUP1 ISZERO PUSH3 0x39FB JUMPI RETURNDATASIZE PUSH1 0x0 DUP1 RETURNDATACOPY RETURNDATASIZE PUSH1 0x0 REVERT JUMPDEST POP POP POP POP JUMPDEST PUSH1 0xF SLOAD PUSH1 0x40 MLOAD PUSH4 0x70A08231 PUSH1 0xE0 SHL DUP2 MSTORE ADDRESS PUSH1 0x4 DUP3 ADD MSTORE PUSH1 0x0 SWAP2 PUSH1 0x1 PUSH1 0x1 PUSH1 0xA0 SHL SUB AND SWAP1 PUSH4 0x70A08231 SWAP1 PUSH1 0x24 ADD PUSH1 0x20 PUSH1 0x40 MLOAD DUP1 DUP4 SUB DUP2 DUP7 DUP1 EXTCODESIZE ISZERO DUP1 ISZERO PUSH3 0x3A45 JUMPI PUSH1 0x0 DUP1 REVERT JUMPDEST POP GAS STATICCALL ISZERO DUP1 ISZERO PUSH3 0x3A5A JUMPI RETURNDATASIZE PUSH1 0x0 DUP1 RETURNDATACOPY RETURNDATASIZE PUSH1 0x0 REVERT JUMPDEST POP POP POP POP PUSH1 0x40 MLOAD RETURNDATASIZE PUSH1 0x1F NOT PUSH1 0x1F DUP3 ADD AND DUP3 ADD DUP1 PUSH1 0x40 MSTORE POP DUP2 ADD SWAP1 PUSH3 0x3A80 SWAP2 SWAP1 PUSH3 0x5840 JUMP JUMPDEST GT ISZERO PUSH3 0x3B5E JUMPI PUSH1 0xF SLOAD PUSH1 0x40 MLOAD PUSH4 0x70A08231 PUSH1 0xE0 SHL DUP2 MSTORE ADDRESS PUSH1 0x4 DUP3 ADD MSTORE PUSH1 0x1 PUSH1 0x1 PUSH1 0xA0 SHL SUB SWAP1 SWAP2 AND SWAP1 PUSH4 0x42966C68 SWAP1 DUP3 SWAP1 PUSH4 0x70A08231 SWAP1 PUSH1 0x24 ADD JUMPDEST PUSH1 0x20 PUSH1 0x40 MLOAD DUP1 DUP4 SUB DUP2 DUP7 DUP1 EXTCODESIZE ISZERO DUP1 ISZERO PUSH3 0x3AD4 JUMPI PUSH1 0x0 DUP1 REVERT JUMPDEST POP GAS STATICCALL ISZERO DUP1 ISZERO PUSH3 0x3AE9 JUMPI RETURNDATASIZE PUSH1 0x0 DUP1 RETURNDATACOPY RETURNDATASIZE PUSH1 0x0 REVERT JUMPDEST POP POP POP POP PUSH1 0x40 MLOAD RETURNDATASIZE PUSH1 0x1F NOT PUSH1 0x1F DUP3 ADD AND DUP3 ADD DUP1 PUSH1 0x40 MSTORE POP DUP2 ADD SWAP1 PUSH3 0x3B0F SWAP2 SWAP1 PUSH3 0x5840 JUMP JUMPDEST PUSH1 0x40 MLOAD DUP3 PUSH4 0xFFFFFFFF AND PUSH1 0xE0 SHL DUP2 MSTORE PUSH1 0x4 ADD PUSH3 0x3B2E SWAP2 DUP2 MSTORE PUSH1 0x20 ADD SWAP1 JUMP JUMPDEST PUSH1 0x0 PUSH1 0x40 MLOAD DUP1 DUP4 SUB DUP2 PUSH1 0x0 DUP8 DUP1 EXTCODESIZE ISZERO DUP1 ISZERO PUSH3 0x3B49 JUMPI PUSH1 0x0 DUP1 REVERT JUMPDEST POP GAS CALL ISZERO DUP1 ISZERO PUSH3 0x34A3 JUMPI RETURNDATASIZE PUSH1 0x0 DUP1 RETURNDATACOPY RETURNDATASIZE PUSH1 0x0 REVERT JUMPDEST POP PUSH3 0x5491 JUMP JUMPDEST DUP5 DUP1 ISZERO PUSH3 0x3B71 JUMPI POP DUP6 ISZERO JUMPDEST DUP1 ISZERO PUSH3 0x3B7C JUMPI POP DUP4 ISZERO JUMPDEST DUP1 ISZERO PUSH3 0x3B87 JUMPI POP DUP3 ISZERO JUMPDEST ISZERO PUSH3 0x401B JUMPI PUSH1 0xD SLOAD PUSH1 0x16 SLOAD PUSH1 0x40 MLOAD PUSH4 0x70A08231 PUSH1 0xE0 SHL DUP2 MSTORE ADDRESS PUSH1 0x4 DUP3 ADD DUP2 SWAP1 MSTORE PUSH1 0x0 SWAP4 PUSH1 0x1 PUSH1 0x1 PUSH1 0xA0 SHL SUB AND SWAP3 SWAP1 SWAP2 PUSH1 0x2 SWAP1 DUP5 SWAP1 PUSH4 0x70A08231 SWAP1 PUSH1 0x24 ADD PUSH1 0x20 PUSH1 0x40 MLOAD DUP1 DUP4 SUB DUP2 DUP7 DUP1 EXTCODESIZE ISZERO DUP1 ISZERO PUSH3 0x3BDE JUMPI PUSH1 0x0 DUP1 REVERT JUMPDEST POP GAS STATICCALL ISZERO DUP1 ISZERO PUSH3 0x3BF3 JUMPI RETURNDATASIZE PUSH1 0x0 DUP1 RETURNDATACOPY RETURNDATASIZE PUSH1 0x0 REVERT JUMPDEST POP POP POP POP PUSH1 0x40 MLOAD RETURNDATASIZE PUSH1 0x1F NOT PUSH1 0x1F DUP3 ADD AND DUP3 ADD DUP1 PUSH1 0x40 MSTORE POP DUP2 ADD SWAP1 PUSH3 0x3C19 SWAP2 SWAP1 PUSH3 0x5840 JUMP JUMPDEST PUSH3 0x3C25 SWAP2 SWAP1 PUSH3 0x594E JUMP JUMPDEST PUSH1 0x40 MLOAD PUSH3 0x3C33 SWAP1 PUSH3 0x571B JUMP JUMPDEST PUSH3 0x3C42 SWAP5 SWAP4 SWAP3 SWAP2 SWAP1 PUSH3 0x58B6 JUMP JUMPDEST PUSH1 0x40 MLOAD DUP1 SWAP2 SUB SWAP1 PUSH1 0x0 CREATE DUP1 ISZERO DUP1 ISZERO PUSH3 0x3C5F JUMPI RETURNDATASIZE PUSH1 0x0 DUP1 RETURNDATACOPY RETURNDATASIZE PUSH1 0x0 REVERT JUMPDEST POP PUSH1 0x1E DUP1 SLOAD PUSH1 0x1 PUSH1 0x1 PUSH1 0xA0 SHL SUB NOT AND PUSH1 0x1 PUSH1 0x1 PUSH1 0xA0 SHL SUB DUP4 AND SWAP1 DUP2 OR SWAP1 SWAP2 SSTORE SWAP1 SWAP2 POP PUSH3 0x3C8E PUSH1 0x64 SELFBALANCE PUSH3 0x594E JUMP JUMPDEST PUSH3 0x3C9B SWAP1 PUSH1 0x50 PUSH3 0x5971 JUMP JUMPDEST PUSH1 0x40 MLOAD PUSH2 0x5E4A SWAP2 SWAP1 PUSH1 0x0 DUP2 DUP2 DUP2 DUP6 DUP9 DUP9 CALL SWAP4 POP POP POP POP RETURNDATASIZE DUP1 PUSH1 0x0 DUP2 EQ PUSH3 0x3CDF JUMPI PUSH1 0x40 MLOAD SWAP2 POP PUSH1 0x1F NOT PUSH1 0x3F RETURNDATASIZE ADD AND DUP3 ADD PUSH1 0x40 MSTORE RETURNDATASIZE DUP3 MSTORE RETURNDATASIZE PUSH1 0x0 PUSH1 0x20 DUP5 ADD RETURNDATACOPY PUSH3 0x3CE4 JUMP JUMPDEST PUSH1 0x60 SWAP2 POP JUMPDEST POP POP PUSH1 0xD SLOAD PUSH1 0x40 MLOAD PUSH4 0x70A08231 PUSH1 0xE0 SHL DUP2 MSTORE ADDRESS PUSH1 0x4 DUP3 ADD MSTORE PUSH1 0x1 PUSH1 0x1 PUSH1 0xA0 SHL SUB SWAP1 SWAP2 AND SWAP2 POP PUSH4 0x95EA7B3 SWAP1 DUP4 SWAP1 DUP4 SWAP1 PUSH4 0x70A08231 SWAP1 PUSH1 0x24 ADD PUSH1 0x20 PUSH1 0x40 MLOAD DUP1 DUP4 SUB DUP2 DUP7 DUP1 EXTCODESIZE ISZERO DUP1 ISZERO PUSH3 0x3D35 JUMPI PUSH1 0x0 DUP1 REVERT JUMPDEST POP GAS STATICCALL ISZERO DUP1 ISZERO PUSH3 0x3D4A JUMPI RETURNDATASIZE PUSH1 0x0 DUP1 RETURNDATACOPY RETURNDATASIZE PUSH1 0x0 REVERT JUMPDEST POP POP POP POP PUSH1 0x40 MLOAD RETURNDATASIZE PUSH1 0x1F NOT PUSH1 0x1F DUP3 ADD AND DUP3 ADD DUP1 PUSH1 0x40 MSTORE POP DUP2 ADD SWAP1 PUSH3 0x3D70 SWAP2 SWAP1 PUSH3 0x5840 JUMP JUMPDEST PUSH1 0x40 MLOAD DUP4 PUSH4 0xFFFFFFFF AND PUSH1 0xE0 SHL DUP2 MSTORE PUSH1 0x4 ADD PUSH3 0x3D8F SWAP3 SWAP2 SWAP1 PUSH3 0x58DF JUMP JUMPDEST PUSH1 0x20 PUSH1 0x40 MLOAD DUP1 DUP4 SUB DUP2 PUSH1 0x0 DUP8 DUP1 EXTCODESIZE ISZERO DUP1 ISZERO PUSH3 0x3DAA JUMPI PUSH1 0x0 DUP1 REVERT JUMPDEST POP GAS CALL ISZERO DUP1 ISZERO PUSH3 0x3DBF JUMPI RETURNDATASIZE PUSH1 0x0 DUP1 RETURNDATACOPY RETURNDATASIZE PUSH1 0x0 REVERT JUMPDEST POP POP POP POP PUSH1 0x40 MLOAD RETURNDATASIZE PUSH1 0x1F NOT PUSH1 0x1F DUP3 ADD AND DUP3 ADD DUP1 PUSH1 0x40 MSTORE POP DUP2 ADD SWAP1 PUSH3 0x3DE5 SWAP2 SWAP1 PUSH3 0x5802 JUMP JUMPDEST POP PUSH1 0xE SLOAD PUSH1 0x40 MLOAD PUSH4 0x70A08231 PUSH1 0xE0 SHL DUP2 MSTORE ADDRESS PUSH1 0x4 DUP3 ADD MSTORE PUSH1 0x0 SWAP2 PUSH1 0x1 PUSH1 0x1 PUSH1 0xA0 SHL SUB AND SWAP1 PUSH4 0x70A08231 SWAP1 PUSH1 0x24 ADD PUSH1 0x20 PUSH1 0x40 MLOAD DUP1 DUP4 SUB DUP2 DUP7 DUP1 EXTCODESIZE ISZERO DUP1 ISZERO PUSH3 0x3E2B JUMPI PUSH1 0x0 DUP1 REVERT JUMPDEST POP GAS STATICCALL ISZERO DUP1 ISZERO PUSH3 0x3E40 JUMPI RETURNDATASIZE PUSH1 0x0 DUP1 RETURNDATACOPY RETURNDATASIZE PUSH1 0x0 REVERT JUMPDEST POP POP POP POP PUSH1 0x40 MLOAD RETURNDATASIZE PUSH1 0x1F NOT PUSH1 0x1F DUP3 ADD AND DUP3 ADD DUP1 PUSH1 0x40 MSTORE POP DUP2 ADD SWAP1 PUSH3 0x3E66 SWAP2 SWAP1 PUSH3 0x5840 JUMP JUMPDEST GT ISZERO PUSH3 0x3F48 JUMPI PUSH1 0xE SLOAD PUSH1 0x40 MLOAD PUSH4 0x70A08231 PUSH1 0xE0 SHL DUP2 MSTORE ADDRESS PUSH1 0x4 DUP3 ADD MSTORE PUSH1 0x1 PUSH1 0x1 PUSH1 0xA0 SHL SUB SWAP1 SWAP2 AND SWAP1 PUSH4 0x42966C68 SWAP1 DUP3 SWAP1 PUSH4 0x70A08231 SWAP1 PUSH1 0x24 ADD PUSH1 0x20 PUSH1 0x40 MLOAD DUP1 DUP4 SUB DUP2 DUP7 DUP1 EXTCODESIZE ISZERO DUP1 ISZERO PUSH3 0x3EB9 JUMPI PUSH1 0x0 DUP1 REVERT JUMPDEST POP GAS STATICCALL ISZERO DUP1 ISZERO PUSH3 0x3ECE JUMPI RETURNDATASIZE PUSH1 0x0 DUP1 RETURNDATACOPY RETURNDATASIZE PUSH1 0x0 REVERT JUMPDEST POP POP POP POP PUSH1 0x40 MLOAD RETURNDATASIZE PUSH1 0x1F NOT PUSH1 0x1F DUP3 ADD AND DUP3 ADD DUP1 PUSH1 0x40 MSTORE POP DUP2 ADD SWAP1 PUSH3 0x3EF4 SWAP2 SWAP1 PUSH3 0x5840 JUMP JUMPDEST PUSH1 0x40 MLOAD DUP3 PUSH4 0xFFFFFFFF AND PUSH1 0xE0 SHL DUP2 MSTORE PUSH1 0x4 ADD PUSH3 0x3F13 SWAP2 DUP2 MSTORE PUSH1 0x20 ADD SWAP1 JUMP JUMPDEST PUSH1 0x0 PUSH1 0x40 MLOAD DUP1 DUP4 SUB DUP2 PUSH1 0x0 DUP8 DUP1 EXTCODESIZE ISZERO DUP1 ISZERO PUSH3 0x3F2E JUMPI PUSH1 0x0 DUP1 REVERT JUMPDEST POP GAS CALL ISZERO DUP1 ISZERO PUSH3 0x3F43 JUMPI RETURNDATASIZE PUSH1 0x0 DUP1 RETURNDATACOPY RETURNDATASIZE PUSH1 0x0 REVERT JUMPDEST POP POP POP POP JUMPDEST PUSH1 0xC SLOAD PUSH1 0x40 MLOAD PUSH4 0x70A08231 PUSH1 0xE0 SHL DUP2 MSTORE ADDRESS PUSH1 0x4 DUP3 ADD MSTORE PUSH1 0x0 SWAP2 PUSH1 0x1 PUSH1 0x1 PUSH1 0xA0 SHL SUB AND SWAP1 PUSH4 0x70A08231 SWAP1 PUSH1 0x24 ADD PUSH1 0x20 PUSH1 0x40 MLOAD DUP1 DUP4 SUB DUP2 DUP7 DUP1 EXTCODESIZE ISZERO DUP1 ISZERO PUSH3 0x3F8D JUMPI PUSH1 0x0 DUP1 REVERT JUMPDEST POP GAS STATICCALL ISZERO DUP1 ISZERO PUSH3 0x3FA2 JUMPI RETURNDATASIZE PUSH1 0x0 DUP1 RETURNDATACOPY RETURNDATASIZE PUSH1 0x0 REVERT JUMPDEST POP POP POP POP PUSH1 0x40 MLOAD RETURNDATASIZE PUSH1 0x1F NOT PUSH1 0x1F DUP3 ADD AND DUP3 ADD DUP1 PUSH1 0x40 MSTORE POP DUP2 ADD SWAP1 PUSH3 0x3FC8 SWAP2 SWAP1 PUSH3 0x5840 JUMP JUMPDEST GT ISZERO PUSH3 0x3A00 JUMPI PUSH1 0xC SLOAD PUSH1 0x40 MLOAD PUSH4 0x70A08231 PUSH1 0xE0 SHL DUP2 MSTORE ADDRESS PUSH1 0x4 DUP3 ADD MSTORE PUSH1 0x1 PUSH1 0x1 PUSH1 0xA0 SHL SUB SWAP1 SWAP2 AND SWAP1 PUSH4 0x42966C68 SWAP1 DUP3 SWAP1 PUSH4 0x70A08231 SWAP1 PUSH1 0x24 ADD PUSH1 0x20 PUSH1 0x40 MLOAD DUP1 DUP4 SUB DUP2 DUP7 DUP1 EXTCODESIZE ISZERO DUP1 ISZERO PUSH3 0x3971 JUMPI PUSH1 0x0 DUP1 REVERT JUMPDEST DUP4 DUP1 ISZERO PUSH3 0x4027 JUMPI POP DUP5 ISZERO JUMPDEST DUP1 ISZERO PUSH3 0x4032 JUMPI POP DUP6 ISZERO JUMPDEST DUP1 ISZERO PUSH3 0x403D JUMPI POP DUP3 ISZERO JUMPDEST ISZERO PUSH3 0x4620 JUMPI PUSH1 0xF SLOAD PUSH1 0x17 SLOAD PUSH1 0x40 MLOAD PUSH4 0x70A08231 PUSH1 0xE0 SHL DUP2 MSTORE ADDRESS PUSH1 0x4 DUP3 ADD DUP2 SWAP1 MSTORE PUSH1 0x0 SWAP4 PUSH1 0x1 PUSH1 0x1 PUSH1 0xA0 SHL SUB AND SWAP3 SWAP1 SWAP2 PUSH1 0x2 SWAP1 DUP5 SWAP1 PUSH4 0x70A08231 SWAP1 PUSH1 0x24 ADD PUSH1 0x20 PUSH1 0x40 MLOAD DUP1 DUP4 SUB DUP2 DUP7 DUP1 EXTCODESIZE ISZERO DUP1 ISZERO PUSH3 0x4094 JUMPI PUSH1 0x0 DUP1 REVERT JUMPDEST POP GAS STATICCALL ISZERO DUP1 ISZERO PUSH3 0x40A9 JUMPI RETURNDATASIZE PUSH1 0x0 DUP1 RETURNDATACOPY RETURNDATASIZE PUSH1 0x0 REVERT JUMPDEST POP POP POP POP PUSH1 0x40 MLOAD RETURNDATASIZE PUSH1 0x1F NOT PUSH1 0x1F DUP3 ADD AND DUP3 ADD DUP1 PUSH1 0x40 MSTORE POP DUP2 ADD SWAP1 PUSH3 0x40CF SWAP2 SWAP1 PUSH3 0x5840 JUMP JUMPDEST PUSH3 0x40DB SWAP2 SWAP1 PUSH3 0x594E JUMP JUMPDEST PUSH1 0x40 MLOAD PUSH3 0x40E9 SWAP1 PUSH3 0x571B JUMP JUMPDEST PUSH3 0x40F8 SWAP5 SWAP4 SWAP3 SWAP2 SWAP1 PUSH3 0x58B6 JUMP JUMPDEST PUSH1 0x40 MLOAD DUP1 SWAP2 SUB SWAP1 PUSH1 0x0 CREATE DUP1 ISZERO DUP1 ISZERO PUSH3 0x4115 JUMPI RETURNDATASIZE PUSH1 0x0 DUP1 RETURNDATACOPY RETURNDATASIZE PUSH1 0x0 REVERT JUMPDEST POP PUSH1 0x1F DUP1 SLOAD PUSH1 0x1 PUSH1 0x1 PUSH1 0xA0 SHL SUB NOT AND PUSH1 0x1 PUSH1 0x1 PUSH1 0xA0 SHL SUB DUP4 AND SWAP1 DUP2 OR SWAP1 SWAP2 SSTORE SWAP1 SWAP2 POP PUSH3 0x4144 PUSH1 0x64 SELFBALANCE PUSH3 0x594E JUMP JUMPDEST PUSH3 0x4151 SWAP1 PUSH1 0x50 PUSH3 0x5971 JUMP JUMPDEST PUSH1 0x40 MLOAD PUSH2 0x5E4A SWAP2 SWAP1 PUSH1 0x0 DUP2 DUP2 DUP2 DUP6 DUP9 DUP9 CALL SWAP4 POP POP POP POP RETURNDATASIZE DUP1 PUSH1 0x0 DUP2 EQ PUSH3 0x4195 JUMPI PUSH1 0x40 MLOAD SWAP2 POP PUSH1 0x1F NOT PUSH1 0x3F RETURNDATASIZE ADD AND DUP3 ADD PUSH1 0x40 MSTORE RETURNDATASIZE DUP3 MSTORE RETURNDATASIZE PUSH1 0x0 PUSH1 0x20 DUP5 ADD RETURNDATACOPY PUSH3 0x419A JUMP JUMPDEST PUSH1 0x60 SWAP2 POP JUMPDEST POP POP PUSH1 0xF SLOAD PUSH1 0x40 MLOAD PUSH4 0x70A08231 PUSH1 0xE0 SHL DUP2 MSTORE ADDRESS PUSH1 0x4 DUP3 ADD MSTORE PUSH1 0x1 PUSH1 0x1 PUSH1 0xA0 SHL SUB SWAP1 SWAP2 AND SWAP2 POP PUSH4 0x95EA7B3 SWAP1 DUP4 SWAP1 DUP4 SWAP1 PUSH4 0x70A08231 SWAP1 PUSH1 0x24 ADD PUSH1 0x20 PUSH1 0x40 MLOAD DUP1 DUP4 SUB DUP2 DUP7 DUP1 EXTCODESIZE ISZERO DUP1 ISZERO PUSH3 0x41EB JUMPI PUSH1 0x0 DUP1 REVERT JUMPDEST POP GAS STATICCALL ISZERO DUP1 ISZERO PUSH3 0x4200 JUMPI RETURNDATASIZE PUSH1 0x0 DUP1 RETURNDATACOPY RETURNDATASIZE PUSH1 0x0 REVERT JUMPDEST POP POP POP POP PUSH1 0x40 MLOAD RETURNDATASIZE PUSH1 0x1F NOT PUSH1 0x1F DUP3 ADD AND DUP3 ADD DUP1 PUSH1 0x40 MSTORE POP DUP2 ADD SWAP1 PUSH3 0x4226 SWAP2 SWAP1 PUSH3 0x5840 JUMP JUMPDEST PUSH1 0x40 MLOAD DUP4 PUSH4 0xFFFFFFFF AND PUSH1 0xE0 SHL DUP2 MSTORE PUSH1 0x4 ADD PUSH3 0x4245 SWAP3 SWAP2 SWAP1 PUSH3 0x58DF JUMP JUMPDEST PUSH1 0x20 PUSH1 0x40 MLOAD DUP1 DUP4 SUB DUP2 PUSH1 0x0 DUP8 DUP1 EXTCODESIZE ISZERO DUP1 ISZERO PUSH3 0x4260 JUMPI PUSH1 0x0 DUP1 REVERT JUMPDEST POP GAS CALL ISZERO DUP1 ISZERO PUSH3 0x4275 JUMPI RETURNDATASIZE PUSH1 0x0 DUP1 RETURNDATACOPY RETURNDATASIZE PUSH1 0x0 REVERT JUMPDEST POP POP POP POP PUSH1 0x40 MLOAD RETURNDATASIZE PUSH1 0x1F NOT PUSH1 0x1F DUP3 ADD AND DUP3 ADD DUP1 PUSH1 0x40 MSTORE POP DUP2 ADD SWAP1 PUSH3 0x429B SWAP2 SWAP1 PUSH3 0x5802 JUMP JUMPDEST POP PUSH1 0xD SLOAD PUSH1 0x40 MLOAD PUSH4 0x70A08231 PUSH1 0xE0 SHL DUP2 MSTORE ADDRESS PUSH1 0x4 DUP3 ADD MSTORE PUSH1 0x0 SWAP2 PUSH1 0x1 PUSH1 0x1 PUSH1 0xA0 SHL SUB AND SWAP1 PUSH4 0x70A08231 SWAP1 PUSH1 0x24 ADD PUSH1 0x20 PUSH1 0x40 MLOAD DUP1 DUP4 SUB DUP2 DUP7 DUP1 EXTCODESIZE ISZERO DUP1 ISZERO PUSH3 0x42E1 JUMPI PUSH1 0x0 DUP1 REVERT JUMPDEST POP GAS STATICCALL ISZERO DUP1 ISZERO PUSH3 0x42F6 JUMPI RETURNDATASIZE PUSH1 0x0 DUP1 RETURNDATACOPY RETURNDATASIZE PUSH1 0x0 REVERT JUMPDEST POP POP POP POP PUSH1 0x40 MLOAD RETURNDATASIZE PUSH1 0x1F NOT PUSH1 0x1F DUP3 ADD AND DUP3 ADD DUP1 PUSH1 0x40 MSTORE POP DUP2 ADD SWAP1 PUSH3 0x431C SWAP2 SWAP1 PUSH3 0x5840 JUMP JUMPDEST GT ISZERO PUSH3 0x43FE JUMPI PUSH1 0xD SLOAD PUSH1 0x40 MLOAD PUSH4 0x70A08231 PUSH1 0xE0 SHL DUP2 MSTORE ADDRESS PUSH1 0x4 DUP3 ADD MSTORE PUSH1 0x1 PUSH1 0x1 PUSH1 0xA0 SHL SUB SWAP1 SWAP2 AND SWAP1 PUSH4 0x42966C68 SWAP1 DUP3 SWAP1 PUSH4 0x70A08231 SWAP1 PUSH1 0x24 ADD PUSH1 0x20 PUSH1 0x40 MLOAD DUP1 DUP4 SUB DUP2 DUP7 DUP1 EXTCODESIZE ISZERO DUP1 ISZERO PUSH3 0x436F JUMPI PUSH1 0x0 DUP1 REVERT JUMPDEST POP GAS STATICCALL ISZERO DUP1 ISZERO PUSH3 0x4384 JUMPI RETURNDATASIZE PUSH1 0x0 DUP1 RETURNDATACOPY RETURNDATASIZE PUSH1 0x0 REVERT JUMPDEST POP POP POP POP PUSH1 0x40 MLOAD RETURNDATASIZE PUSH1 0x1F NOT PUSH1 0x1F DUP3 ADD AND DUP3 ADD DUP1 PUSH1 0x40 MSTORE POP DUP2 ADD SWAP1 PUSH3 0x43AA SWAP2 SWAP1 PUSH3 0x5840 JUMP JUMPDEST PUSH1 0x40 MLOAD DUP3 PUSH4 0xFFFFFFFF AND PUSH1 0xE0 SHL DUP2 MSTORE PUSH1 0x4 ADD PUSH3 0x43C9 SWAP2 DUP2 MSTORE PUSH1 0x20 ADD SWAP1 JUMP JUMPDEST PUSH1 0x0 PUSH1 0x40 MLOAD DUP1 DUP4 SUB DUP2 PUSH1 0x0 DUP8 DUP1 EXTCODESIZE ISZERO DUP1 ISZERO PUSH3 0x43E4 JUMPI PUSH1 0x0 DUP1 REVERT JUMPDEST POP GAS CALL ISZERO DUP1 ISZERO PUSH3 0x43F9 JUMPI RETURNDATASIZE PUSH1 0x0 DUP1 RETURNDATACOPY RETURNDATASIZE PUSH1 0x0 REVERT JUMPDEST POP POP POP POP JUMPDEST PUSH1 0xC SLOAD PUSH1 0x40 MLOAD PUSH4 0x70A08231 PUSH1 0xE0 SHL DUP2 MSTORE ADDRESS PUSH1 0x4 DUP3 ADD MSTORE PUSH1 0x0 SWAP2 PUSH1 0x1 PUSH1 0x1 PUSH1 0xA0 SHL SUB AND SWAP1 PUSH4 0x70A08231 SWAP1 PUSH1 0x24 ADD PUSH1 0x20 PUSH1 0x40 MLOAD DUP1 DUP4 SUB DUP2 DUP7 DUP1 EXTCODESIZE ISZERO DUP1 ISZERO PUSH3 0x4443 JUMPI PUSH1 0x0 DUP1 REVERT JUMPDEST POP GAS STATICCALL ISZERO DUP1 ISZERO PUSH3 0x4458 JUMPI RETURNDATASIZE PUSH1 0x0 DUP1 RETURNDATACOPY RETURNDATASIZE PUSH1 0x0 REVERT JUMPDEST POP POP POP POP PUSH1 0x40 MLOAD RETURNDATASIZE PUSH1 0x1F NOT PUSH1 0x1F DUP3 ADD AND DUP3 ADD DUP1 PUSH1 0x40 MSTORE POP DUP2 ADD SWAP1 PUSH3 0x447E SWAP2 SWAP1 PUSH3 0x5840 JUMP JUMPDEST GT ISZERO PUSH3 0x4560 JUMPI PUSH1 0xC SLOAD PUSH1 0x40 MLOAD PUSH4 0x70A08231 PUSH1 0xE0 SHL DUP2 MSTORE ADDRESS PUSH1 0x4 DUP3 ADD MSTORE PUSH1 0x1 PUSH1 0x1 PUSH1 0xA0 SHL SUB SWAP1 SWAP2 AND SWAP1 PUSH4 0x42966C68 SWAP1 DUP3 SWAP1 PUSH4 0x70A08231 SWAP1 PUSH1 0x24 ADD PUSH1 0x20 PUSH1 0x40 MLOAD DUP1 DUP4 SUB DUP2 DUP7 DUP1 EXTCODESIZE ISZERO DUP1 ISZERO PUSH3 0x44D1 JUMPI PUSH1 0x0 DUP1 REVERT JUMPDEST POP GAS STATICCALL ISZERO DUP1 ISZERO PUSH3 0x44E6 JUMPI RETURNDATASIZE PUSH1 0x0 DUP1 RETURNDATACOPY RETURNDATASIZE PUSH1 0x0 REVERT JUMPDEST POP POP POP POP PUSH1 0x40 MLOAD RETURNDATASIZE PUSH1 0x1F NOT PUSH1 0x1F DUP3 ADD AND DUP3 ADD DUP1 PUSH1 0x40 MSTORE POP DUP2 ADD SWAP1 PUSH3 0x450C SWAP2 SWAP1 PUSH3 0x5840 JUMP JUMPDEST PUSH1 0x40 MLOAD DUP3 PUSH4 0xFFFFFFFF AND PUSH1 0xE0 SHL DUP2 MSTORE PUSH1 0x4 ADD PUSH3 0x452B SWAP2 DUP2 MSTORE PUSH1 0x20 ADD SWAP1 JUMP JUMPDEST PUSH1 0x0 PUSH1 0x40 MLOAD DUP1 DUP4 SUB DUP2 PUSH1 0x0 DUP8 DUP1 EXTCODESIZE ISZERO DUP1 ISZERO PUSH3 0x4546 JUMPI PUSH1 0x0 DUP1 REVERT JUMPDEST POP GAS CALL ISZERO DUP1 ISZERO PUSH3 0x455B JUMPI RETURNDATASIZE PUSH1 0x0 DUP1 RETURNDATACOPY RETURNDATASIZE PUSH1 0x0 REVERT JUMPDEST POP POP POP POP JUMPDEST PUSH1 0xE SLOAD PUSH1 0x40 MLOAD PUSH4 0x70A08231 PUSH1 0xE0 SHL DUP2 MSTORE ADDRESS PUSH1 0x4 DUP3 ADD MSTORE PUSH1 0x0 SWAP2 PUSH1 0x1 PUSH1 0x1 PUSH1 0xA0 SHL SUB AND SWAP1 PUSH4 0x70A08231 SWAP1 PUSH1 0x24 ADD PUSH1 0x20 PUSH1 0x40 MLOAD DUP1 DUP4 SUB DUP2 DUP7 DUP1 EXTCODESIZE ISZERO DUP1 ISZERO PUSH3 0x45A5 JUMPI PUSH1 0x0 DUP1 REVERT JUMPDEST POP GAS STATICCALL ISZERO DUP1 ISZERO PUSH3 0x45BA JUMPI RETURNDATASIZE PUSH1 0x0 DUP1 RETURNDATACOPY RETURNDATASIZE PUSH1 0x0 REVERT JUMPDEST POP POP POP POP PUSH1 0x40 MLOAD RETURNDATASIZE PUSH1 0x1F NOT PUSH1 0x1F DUP3 ADD AND DUP3 ADD DUP1 PUSH1 0x40 MSTORE POP DUP2 ADD SWAP1 PUSH3 0x45E0 SWAP2 SWAP1 PUSH3 0x5840 JUMP JUMPDEST GT ISZERO PUSH3 0x3B5E JUMPI PUSH1 0xE SLOAD PUSH1 0x40 MLOAD PUSH4 0x70A08231 PUSH1 0xE0 SHL DUP2 MSTORE ADDRESS PUSH1 0x4 DUP3 ADD MSTORE PUSH1 0x1 PUSH1 0x1 PUSH1 0xA0 SHL SUB SWAP1 SWAP2 AND SWAP1 PUSH4 0x42966C68 SWAP1 DUP3 SWAP1 PUSH4 0x70A08231 SWAP1 PUSH1 0x24 ADD PUSH3 0x3ABB JUMP JUMPDEST DUP3 DUP1 ISZERO PUSH3 0x462C JUMPI POP DUP5 ISZERO JUMPDEST DUP1 ISZERO PUSH3 0x4637 JUMPI POP DUP4 ISZERO JUMPDEST DUP1 ISZERO PUSH3 0x4642 JUMPI POP DUP6 ISZERO JUMPDEST ISZERO PUSH3 0x4AC3 JUMPI PUSH1 0xE SLOAD PUSH1 0x18 SLOAD PUSH1 0x40 MLOAD PUSH4 0x70A08231 PUSH1 0xE0 SHL DUP2 MSTORE ADDRESS PUSH1 0x4 DUP3 ADD DUP2 SWAP1 MSTORE PUSH1 0x0 SWAP4 PUSH1 0x1 PUSH1 0x1 PUSH1 0xA0 SHL SUB AND SWAP3 SWAP1 SWAP2 PUSH1 0x2 SWAP1 DUP5 SWAP1 PUSH4 0x70A08231 SWAP1 PUSH1 0x24 ADD PUSH1 0x20 PUSH1 0x40 MLOAD DUP1 DUP4 SUB DUP2 DUP7 DUP1 EXTCODESIZE ISZERO DUP1 ISZERO PUSH3 0x4699 JUMPI PUSH1 0x0 DUP1 REVERT JUMPDEST POP GAS STATICCALL ISZERO DUP1 ISZERO PUSH3 0x46AE JUMPI RETURNDATASIZE PUSH1 0x0 DUP1 RETURNDATACOPY RETURNDATASIZE PUSH1 0x0 REVERT JUMPDEST POP POP POP POP PUSH1 0x40 MLOAD RETURNDATASIZE PUSH1 0x1F NOT PUSH1 0x1F DUP3 ADD AND DUP3 ADD DUP1 PUSH1 0x40 MSTORE POP DUP2 ADD SWAP1 PUSH3 0x46D4 SWAP2 SWAP1 PUSH3 0x5840 JUMP JUMPDEST PUSH3 0x46E0 SWAP2 SWAP1 PUSH3 0x594E JUMP JUMPDEST PUSH1 0x40 MLOAD PUSH3 0x46EE SWAP1 PUSH3 0x571B JUMP JUMPDEST PUSH3 0x46FD SWAP5 SWAP4 SWAP3 SWAP2 SWAP1 PUSH3 0x58B6 JUMP JUMPDEST PUSH1 0x40 MLOAD DUP1 SWAP2 SUB SWAP1 PUSH1 0x0 CREATE DUP1 ISZERO DUP1 ISZERO PUSH3 0x471A JUMPI RETURNDATASIZE PUSH1 0x0 DUP1 RETURNDATACOPY RETURNDATASIZE PUSH1 0x0 REVERT JUMPDEST POP PUSH1 0xE SLOAD PUSH1 0x40 MLOAD PUSH4 0x70A08231 PUSH1 0xE0 SHL DUP2 MSTORE ADDRESS PUSH1 0x4 DUP3 ADD MSTORE SWAP2 SWAP3 POP PUSH1 0x1 PUSH1 0x1 PUSH1 0xA0 SHL SUB AND SWAP1 PUSH4 0x95EA7B3 SWAP1 DUP4 SWAP1 DUP4 SWAP1 PUSH4 0x70A08231 SWAP1 PUSH1 0x24 ADD PUSH1 0x20 PUSH1 0x40 MLOAD DUP1 DUP4 SUB DUP2 DUP7 DUP1 EXTCODESIZE ISZERO DUP1 ISZERO PUSH3 0x476A JUMPI PUSH1 0x0 DUP1 REVERT JUMPDEST POP GAS STATICCALL ISZERO DUP1 ISZERO PUSH3 0x477F JUMPI RETURNDATASIZE PUSH1 0x0 DUP1 RETURNDATACOPY RETURNDATASIZE PUSH1 0x0 REVERT JUMPDEST POP POP POP POP PUSH1 0x40 MLOAD RETURNDATASIZE PUSH1 0x1F NOT PUSH1 0x1F DUP3 ADD AND DUP3 ADD DUP1 PUSH1 0x40 MSTORE POP DUP2 ADD SWAP1 PUSH3 0x47A5 SWAP2 SWAP1 PUSH3 0x5840 JUMP JUMPDEST PUSH1 0x40 MLOAD DUP4 PUSH4 0xFFFFFFFF AND PUSH1 0xE0 SHL DUP2 MSTORE PUSH1 0x4 ADD PUSH3 0x47C4 SWAP3 SWAP2 SWAP1 PUSH3 0x58DF JUMP JUMPDEST PUSH1 0x20 PUSH1 0x40 MLOAD DUP1 DUP4 SUB DUP2 PUSH1 0x0 DUP8 DUP1 EXTCODESIZE ISZERO DUP1 ISZERO PUSH3 0x47DF JUMPI PUSH1 0x0 DUP1 REVERT JUMPDEST POP GAS CALL ISZERO DUP1 ISZERO PUSH3 0x47F4 JUMPI RETURNDATASIZE PUSH1 0x0 DUP1 RETURNDATACOPY RETURNDATASIZE PUSH1 0x0 REVERT JUMPDEST POP POP POP POP PUSH1 0x40 MLOAD RETURNDATASIZE PUSH1 0x1F NOT PUSH1 0x1F DUP3 ADD AND DUP3 ADD DUP1 PUSH1 0x40 MSTORE POP DUP2 ADD SWAP1 PUSH3 0x481A SWAP2 SWAP1 PUSH3 0x5802 JUMP JUMPDEST POP PUSH1 0x20 DUP1 SLOAD PUSH1 0x1 PUSH1 0x1 PUSH1 0xA0 SHL SUB NOT AND PUSH1 0x1 PUSH1 0x1 PUSH1 0xA0 SHL SUB DUP4 AND SWAP1 DUP2 OR SWAP1 SWAP2 SSTORE PUSH3 0x4846 PUSH1 0x64 SELFBALANCE PUSH3 0x594E JUMP JUMPDEST PUSH3 0x4853 SWAP1 PUSH1 0x50 PUSH3 0x5971 JUMP JUMPDEST PUSH1 0x40 MLOAD PUSH2 0x5E4A SWAP2 SWAP1 PUSH1 0x0 DUP2 DUP2 DUP2 DUP6 DUP9 DUP9 CALL SWAP4 POP POP POP POP RETURNDATASIZE DUP1 PUSH1 0x0 DUP2 EQ PUSH3 0x4897 JUMPI PUSH1 0x40 MLOAD SWAP2 POP PUSH1 0x1F NOT PUSH1 0x3F RETURNDATASIZE ADD AND DUP3 ADD PUSH1 0x40 MSTORE RETURNDATASIZE DUP3 MSTORE RETURNDATASIZE PUSH1 0x0 PUSH1 0x20 DUP5 ADD RETURNDATACOPY PUSH3 0x489C JUMP JUMPDEST PUSH1 0x60 SWAP2 POP JUMPDEST POP POP PUSH1 0xD SLOAD PUSH1 0x40 MLOAD PUSH4 0x70A08231 PUSH1 0xE0 SHL DUP2 MSTORE ADDRESS PUSH1 0x4 DUP3 ADD MSTORE PUSH1 0x0 SWAP3 POP PUSH1 0x1 PUSH1 0x1 PUSH1 0xA0 SHL SUB SWAP1 SWAP2 AND SWAP1 PUSH4 0x70A08231 SWAP1 PUSH1 0x24 ADD PUSH1 0x20 PUSH1 0x40 MLOAD DUP1 DUP4 SUB DUP2 DUP7 DUP1 EXTCODESIZE ISZERO DUP1 ISZERO PUSH3 0x48E6 JUMPI PUSH1 0x0 DUP1 REVERT JUMPDEST POP GAS STATICCALL ISZERO DUP1 ISZERO PUSH3 0x48FB JUMPI RETURNDATASIZE PUSH1 0x0 DUP1 RETURNDATACOPY RETURNDATASIZE PUSH1 0x0 REVERT JUMPDEST POP POP POP POP PUSH1 0x40 MLOAD RETURNDATASIZE PUSH1 0x1F NOT PUSH1 0x1F DUP3 ADD AND DUP3 ADD DUP1 PUSH1 0x40 MSTORE POP DUP2 ADD SWAP1 PUSH3 0x4921 SWAP2 SWAP1 PUSH3 0x5840 JUMP JUMPDEST GT ISZERO PUSH3 0x4A03 JUMPI PUSH1 0xD SLOAD PUSH1 0x40 MLOAD PUSH4 0x70A08231 PUSH1 0xE0 SHL DUP2 MSTORE ADDRESS PUSH1 0x4 DUP3 ADD MSTORE PUSH1 0x1 PUSH1 0x1 PUSH1 0xA0 SHL SUB SWAP1 SWAP2 AND SWAP1 PUSH4 0x42966C68 SWAP1 DUP3 SWAP1 PUSH4 0x70A08231 SWAP1 PUSH1 0x24 ADD PUSH1 0x20 PUSH1 0x40 MLOAD DUP1 DUP4 SUB DUP2 DUP7 DUP1 EXTCODESIZE ISZERO DUP1 ISZERO PUSH3 0x4974 JUMPI PUSH1 0x0 DUP1 REVERT JUMPDEST POP GAS STATICCALL ISZERO DUP1 ISZERO PUSH3 0x4989 JUMPI RETURNDATASIZE PUSH1 0x0 DUP1 RETURNDATACOPY RETURNDATASIZE PUSH1 0x0 REVERT JUMPDEST POP POP POP POP PUSH1 0x40 MLOAD RETURNDATASIZE PUSH1 0x1F NOT PUSH1 0x1F DUP3 ADD AND DUP3 ADD DUP1 PUSH1 0x40 MSTORE POP DUP2 ADD SWAP1 PUSH3 0x49AF SWAP2 SWAP1 PUSH3 0x5840 JUMP JUMPDEST PUSH1 0x40 MLOAD DUP3 PUSH4 0xFFFFFFFF AND PUSH1 0xE0 SHL DUP2 MSTORE PUSH1 0x4 ADD PUSH3 0x49CE SWAP2 DUP2 MSTORE PUSH1 0x20 ADD SWAP1 JUMP JUMPDEST PUSH1 0x0 PUSH1 0x40 MLOAD DUP1 DUP4 SUB DUP2 PUSH1 0x0 DUP8 DUP1 EXTCODESIZE ISZERO DUP1 ISZERO PUSH3 0x49E9 JUMPI PUSH1 0x0 DUP1 REVERT JUMPDEST POP GAS CALL ISZERO DUP1 ISZERO PUSH3 0x49FE JUMPI RETURNDATASIZE PUSH1 0x0 DUP1 RETURNDATACOPY RETURNDATASIZE PUSH1 0x0 REVERT JUMPDEST POP POP POP POP JUMPDEST PUSH1 0xC SLOAD PUSH1 0x40 MLOAD PUSH4 0x70A08231 PUSH1 0xE0 SHL DUP2 MSTORE ADDRESS PUSH1 0x4 DUP3 ADD MSTORE PUSH1 0x0 SWAP2 PUSH1 0x1 PUSH1 0x1 PUSH1 0xA0 SHL SUB AND SWAP1 PUSH4 0x70A08231 SWAP1 PUSH1 0x24 ADD PUSH1 0x20 PUSH1 0x40 MLOAD DUP1 DUP4 SUB DUP2 DUP7 DUP1 EXTCODESIZE ISZERO DUP1 ISZERO PUSH3 0x4A48 JUMPI PUSH1 0x0 DUP1 REVERT JUMPDEST POP GAS STATICCALL ISZERO DUP1 ISZERO PUSH3 0x4A5D JUMPI RETURNDATASIZE PUSH1 0x0 DUP1 RETURNDATACOPY RETURNDATASIZE PUSH1 0x0 REVERT JUMPDEST POP POP POP POP PUSH1 0x40 MLOAD RETURNDATASIZE PUSH1 0x1F NOT PUSH1 0x1F DUP3 ADD AND DUP3 ADD DUP1 PUSH1 0x40 MSTORE POP DUP2 ADD SWAP1 PUSH3 0x4A83 SWAP2 SWAP1 PUSH3 0x5840 JUMP JUMPDEST GT ISZERO PUSH3 0x3A00 JUMPI PUSH1 0xC SLOAD PUSH1 0x40 MLOAD PUSH4 0x70A08231 PUSH1 0xE0 SHL DUP2 MSTORE ADDRESS PUSH1 0x4 DUP3 ADD MSTORE PUSH1 0x1 PUSH1 0x1 PUSH1 0xA0 SHL SUB SWAP1 SWAP2 AND SWAP1 PUSH4 0x42966C68 SWAP1 DUP3 SWAP1 PUSH4 0x70A08231 SWAP1 PUSH1 0x24 ADD PUSH3 0x3958 JUMP JUMPDEST PUSH3 0x5491 JUMP JUMPDEST PUSH1 0x1 DUP3 GT DUP1 ISZERO PUSH3 0x4ADA JUMPI POP PUSH1 0x4 DUP3 LT JUMPDEST ISZERO PUSH3 0x4AE6 JUMPI PUSH3 0x5491 JUMP JUMPDEST DUP2 PUSH1 0x4 EQ ISZERO PUSH3 0x5491 JUMPI PUSH1 0xC SLOAD PUSH1 0x15 SLOAD PUSH1 0x40 MLOAD PUSH4 0x70A08231 PUSH1 0xE0 SHL DUP2 MSTORE ADDRESS PUSH1 0x4 DUP3 ADD DUP2 SWAP1 MSTORE PUSH1 0x0 SWAP4 PUSH1 0x1 PUSH1 0x1 PUSH1 0xA0 SHL SUB AND SWAP3 SWAP1 SWAP2 PUSH1 0x2 SWAP1 DUP5 SWAP1 PUSH4 0x70A08231 SWAP1 PUSH1 0x24 ADD PUSH1 0x20 PUSH1 0x40 MLOAD DUP1 DUP4 SUB DUP2 DUP7 DUP1 EXTCODESIZE ISZERO DUP1 ISZERO PUSH3 0x4B41 JUMPI PUSH1 0x0 DUP1 REVERT JUMPDEST POP GAS STATICCALL ISZERO DUP1 ISZERO PUSH3 0x4B56 JUMPI RETURNDATASIZE PUSH1 0x0 DUP1 RETURNDATACOPY RETURNDATASIZE PUSH1 0x0 REVERT JUMPDEST POP POP POP POP PUSH1 0x40 MLOAD RETURNDATASIZE PUSH1 0x1F NOT PUSH1 0x1F DUP3 ADD AND DUP3 ADD DUP1 PUSH1 0x40 MSTORE POP DUP2 ADD SWAP1 PUSH3 0x4B7C SWAP2 SWAP1 PUSH3 0x5840 JUMP JUMPDEST PUSH3 0x4B88 SWAP2 SWAP1 PUSH3 0x594E JUMP JUMPDEST PUSH1 0x40 MLOAD PUSH3 0x4B96 SWAP1 PUSH3 0x571B JUMP JUMPDEST PUSH3 0x4BA5 SWAP5 SWAP4 SWAP3 SWAP2 SWAP1 PUSH3 0x58B6 JUMP JUMPDEST PUSH1 0x40 MLOAD DUP1 SWAP2 SUB SWAP1 PUSH1 0x0 CREATE DUP1 ISZERO DUP1 ISZERO PUSH3 0x4BC2 JUMPI RETURNDATASIZE PUSH1 0x0 DUP1 RETURNDATACOPY RETURNDATASIZE PUSH1 0x0 REVERT JUMPDEST POP PUSH1 0x1D DUP1 SLOAD PUSH1 0x1 PUSH1 0x1 PUSH1 0xA0 SHL SUB NOT AND PUSH1 0x1 PUSH1 0x1 PUSH1 0xA0 SHL SUB DUP4 AND SWAP1 DUP2 OR SWAP1 SWAP2 SSTORE SWAP1 SWAP2 POP PUSH1 0x4 PUSH3 0x4BF3 PUSH1 0x64 SELFBALANCE PUSH3 0x594E JUMP JUMPDEST PUSH3 0x4C00 SWAP1 PUSH1 0xA PUSH3 0x5971 JUMP JUMPDEST PUSH3 0x4C0C SWAP2 SWAP1 PUSH3 0x594E JUMP JUMPDEST PUSH1 0x40 MLOAD PUSH2 0x5E4A SWAP2 SWAP1 PUSH1 0x0 DUP2 DUP2 DUP2 DUP6 DUP9 DUP9 CALL SWAP4 POP POP POP POP RETURNDATASIZE DUP1 PUSH1 0x0 DUP2 EQ PUSH3 0x4C50 JUMPI PUSH1 0x40 MLOAD SWAP2 POP PUSH1 0x1F NOT PUSH1 0x3F RETURNDATASIZE ADD AND DUP3 ADD PUSH1 0x40 MSTORE RETURNDATASIZE DUP3 MSTORE RETURNDATASIZE PUSH1 0x0 PUSH1 0x20 DUP5 ADD RETURNDATACOPY PUSH3 0x4C55 JUMP JUMPDEST PUSH1 0x60 SWAP2 POP JUMPDEST POP POP PUSH1 0xC SLOAD PUSH1 0x40 MLOAD PUSH4 0x70A08231 PUSH1 0xE0 SHL DUP2 MSTORE ADDRESS PUSH1 0x4 DUP3 ADD MSTORE PUSH1 0x1 PUSH1 0x1 PUSH1 0xA0 SHL SUB SWAP1 SWAP2 AND SWAP2 POP PUSH4 0x95EA7B3 SWAP1 DUP4 SWAP1 DUP4 SWAP1 PUSH4 0x70A08231 SWAP1 PUSH1 0x24 ADD PUSH1 0x20 PUSH1 0x40 MLOAD DUP1 DUP4 SUB DUP2 DUP7 DUP1 EXTCODESIZE ISZERO DUP1 ISZERO PUSH3 0x4CA6 JUMPI PUSH1 0x0 DUP1 REVERT JUMPDEST POP GAS STATICCALL ISZERO DUP1 ISZERO PUSH3 0x4CBB JUMPI RETURNDATASIZE PUSH1 0x0 DUP1 RETURNDATACOPY RETURNDATASIZE PUSH1 0x0 REVERT JUMPDEST POP POP POP POP PUSH1 0x40 MLOAD RETURNDATASIZE PUSH1 0x1F NOT PUSH1 0x1F DUP3 ADD AND DUP3 ADD DUP1 PUSH1 0x40 MSTORE POP DUP2 ADD SWAP1 PUSH3 0x4CE1 SWAP2 SWAP1 PUSH3 0x5840 JUMP JUMPDEST PUSH1 0x40 MLOAD DUP4 PUSH4 0xFFFFFFFF AND PUSH1 0xE0 SHL DUP2 MSTORE PUSH1 0x4 ADD PUSH3 0x4D00 SWAP3 SWAP2 SWAP1 PUSH3 0x58DF JUMP JUMPDEST PUSH1 0x20 PUSH1 0x40 MLOAD DUP1 DUP4 SUB DUP2 PUSH1 0x0 DUP8 DUP1 EXTCODESIZE ISZERO DUP1 ISZERO PUSH3 0x4D1B JUMPI PUSH1 0x0 DUP1 REVERT JUMPDEST POP GAS CALL ISZERO DUP1 ISZERO PUSH3 0x4D30 JUMPI RETURNDATASIZE PUSH1 0x0 DUP1 RETURNDATACOPY RETURNDATASIZE PUSH1 0x0 REVERT JUMPDEST POP POP POP POP PUSH1 0x40 MLOAD RETURNDATASIZE PUSH1 0x1F NOT PUSH1 0x1F DUP3 ADD AND DUP3 ADD DUP1 PUSH1 0x40 MSTORE POP DUP2 ADD SWAP1 PUSH3 0x4D56 SWAP2 SWAP1 PUSH3 0x5802 JUMP JUMPDEST POP PUSH1 0xD SLOAD PUSH1 0x16 SLOAD PUSH1 0x40 MLOAD PUSH4 0x70A08231 PUSH1 0xE0 SHL DUP2 MSTORE ADDRESS PUSH1 0x4 DUP3 ADD DUP2 SWAP1 MSTORE PUSH1 0x0 SWAP4 PUSH1 0x1 PUSH1 0x1 PUSH1 0xA0 SHL SUB AND SWAP3 SWAP1 SWAP2 PUSH1 0x2 SWAP1 DUP5 SWAP1 PUSH4 0x70A08231 SWAP1 PUSH1 0x24 ADD PUSH1 0x20 PUSH1 0x40 MLOAD DUP1 DUP4 SUB DUP2 DUP7 DUP1 EXTCODESIZE ISZERO DUP1 ISZERO PUSH3 0x4DA8 JUMPI PUSH1 0x0 DUP1 REVERT JUMPDEST POP GAS STATICCALL ISZERO DUP1 ISZERO PUSH3 0x4DBD JUMPI RETURNDATASIZE PUSH1 0x0 DUP1 RETURNDATACOPY RETURNDATASIZE PUSH1 0x0 REVERT JUMPDEST POP POP POP POP PUSH1 0x40 MLOAD RETURNDATASIZE PUSH1 0x1F NOT PUSH1 0x1F DUP3 ADD AND DUP3 ADD DUP1 PUSH1 0x40 MSTORE POP DUP2 ADD SWAP1 PUSH3 0x4DE3 SWAP2 SWAP1 PUSH3 0x5840 JUMP JUMPDEST PUSH3 0x4DEF SWAP2 SWAP1 PUSH3 0x594E JUMP JUMPDEST PUSH1 0x40 MLOAD PUSH3 0x4DFD SWAP1 PUSH3 0x571B JUMP JUMPDEST PUSH3 0x4E0C SWAP5 SWAP4 SWAP3 SWAP2 SWAP1 PUSH3 0x58B6 JUMP JUMPDEST PUSH1 0x40 MLOAD DUP1 SWAP2 SUB SWAP1 PUSH1 0x0 CREATE DUP1 ISZERO DUP1 ISZERO PUSH3 0x4E29 JUMPI RETURNDATASIZE PUSH1 0x0 DUP1 RETURNDATACOPY RETURNDATASIZE PUSH1 0x0 REVERT JUMPDEST POP PUSH1 0x1E DUP1 SLOAD PUSH1 0x1 PUSH1 0x1 PUSH1 0xA0 SHL SUB NOT AND PUSH1 0x1 PUSH1 0x1 PUSH1 0xA0 SHL SUB DUP4 AND SWAP1 DUP2 OR SWAP1 SWAP2 SSTORE SWAP1 SWAP2 POP PUSH1 0x4 PUSH3 0x4E5A PUSH1 0x64 SELFBALANCE PUSH3 0x594E JUMP JUMPDEST PUSH3 0x4E67 SWAP1 PUSH1 0xA PUSH3 0x5971 JUMP JUMPDEST PUSH3 0x4E73 SWAP2 SWAP1 PUSH3 0x594E JUMP JUMPDEST PUSH1 0x40 MLOAD PUSH2 0x5E4A SWAP2 SWAP1 PUSH1 0x0 DUP2 DUP2 DUP2 DUP6 DUP9 DUP9 CALL SWAP4 POP POP POP POP RETURNDATASIZE DUP1 PUSH1 0x0 DUP2 EQ PUSH3 0x4EB7 JUMPI PUSH1 0x40 MLOAD SWAP2 POP PUSH1 0x1F NOT PUSH1 0x3F RETURNDATASIZE ADD AND DUP3 ADD PUSH1 0x40 MSTORE RETURNDATASIZE DUP3 MSTORE RETURNDATASIZE PUSH1 0x0 PUSH1 0x20 DUP5 ADD RETURNDATACOPY PUSH3 0x4EBC JUMP JUMPDEST PUSH1 0x60 SWAP2 POP JUMPDEST POP POP PUSH1 0xD SLOAD PUSH1 0x40 MLOAD PUSH4 0x70A08231 PUSH1 0xE0 SHL DUP2 MSTORE ADDRESS PUSH1 0x4 DUP3 ADD MSTORE PUSH1 0x1 PUSH1 0x1 PUSH1 0xA0 SHL SUB SWAP1 SWAP2 AND SWAP2 POP PUSH4 0x95EA7B3 SWAP1 DUP4 SWAP1 DUP4 SWAP1 PUSH4 0x70A08231 SWAP1 PUSH1 0x24 ADD PUSH1 0x20 PUSH1 0x40 MLOAD DUP1 DUP4 SUB DUP2 DUP7 DUP1 EXTCODESIZE ISZERO DUP1 ISZERO PUSH3 0x4F0D JUMPI PUSH1 0x0 DUP1 REVERT JUMPDEST POP GAS STATICCALL ISZERO DUP1 ISZERO PUSH3 0x4F22 JUMPI RETURNDATASIZE PUSH1 0x0 DUP1 RETURNDATACOPY RETURNDATASIZE PUSH1 0x0 REVERT JUMPDEST POP POP POP POP PUSH1 0x40 MLOAD RETURNDATASIZE PUSH1 0x1F NOT PUSH1 0x1F DUP3 ADD AND DUP3 ADD DUP1 PUSH1 0x40 MSTORE POP DUP2 ADD SWAP1 PUSH3 0x4F48 SWAP2 SWAP1 PUSH3 0x5840 JUMP JUMPDEST PUSH1 0x40 MLOAD DUP4 PUSH4 0xFFFFFFFF AND PUSH1 0xE0 SHL DUP2 MSTORE PUSH1 0x4 ADD PUSH3 0x4F67 SWAP3 SWAP2 SWAP1 PUSH3 0x58DF JUMP JUMPDEST PUSH1 0x20 PUSH1 0x40 MLOAD DUP1 DUP4 SUB DUP2 PUSH1 0x0 DUP8 DUP1 EXTCODESIZE ISZERO DUP1 ISZERO PUSH3 0x4F82 JUMPI PUSH1 0x0 DUP1 REVERT JUMPDEST POP GAS CALL ISZERO DUP1 ISZERO PUSH3 0x4F97 JUMPI RETURNDATASIZE PUSH1 0x0 DUP1 RETURNDATACOPY RETURNDATASIZE PUSH1 0x0 REVERT JUMPDEST POP POP POP POP PUSH1 0x40 MLOAD RETURNDATASIZE PUSH1 0x1F NOT PUSH1 0x1F DUP3 ADD AND DUP3 ADD DUP1 PUSH1 0x40 MSTORE POP DUP2 ADD SWAP1 PUSH3 0x4FBD SWAP2 SWAP1 PUSH3 0x5802 JUMP JUMPDEST POP PUSH1 0xF SLOAD PUSH1 0x17 SLOAD PUSH1 0x40 MLOAD PUSH4 0x70A08231 PUSH1 0xE0 SHL DUP2 MSTORE ADDRESS PUSH1 0x4 DUP3 ADD DUP2 SWAP1 MSTORE PUSH1 0x0 SWAP4 PUSH1 0x1 PUSH1 0x1 PUSH1 0xA0 SHL SUB AND SWAP3 SWAP1 SWAP2 PUSH1 0x2 SWAP1 DUP5 SWAP1 PUSH4 0x70A08231 SWAP1 PUSH1 0x24 ADD PUSH1 0x20 PUSH1 0x40 MLOAD DUP1 DUP4 SUB DUP2 DUP7 DUP1 EXTCODESIZE ISZERO DUP1 ISZERO PUSH3 0x500F JUMPI PUSH1 0x0 DUP1 REVERT JUMPDEST POP GAS STATICCALL ISZERO DUP1 ISZERO PUSH3 0x5024 JUMPI RETURNDATASIZE PUSH1 0x0 DUP1 RETURNDATACOPY RETURNDATASIZE PUSH1 0x0 REVERT JUMPDEST POP POP POP POP PUSH1 0x40 MLOAD RETURNDATASIZE PUSH1 0x1F NOT PUSH1 0x1F DUP3 ADD AND DUP3 ADD DUP1 PUSH1 0x40 MSTORE POP DUP2 ADD SWAP1 PUSH3 0x504A SWAP2 SWAP1 PUSH3 0x5840 JUMP JUMPDEST PUSH3 0x5056 SWAP2 SWAP1 PUSH3 0x594E JUMP JUMPDEST PUSH1 0x40 MLOAD PUSH3 0x5064 SWAP1 PUSH3 0x571B JUMP JUMPDEST PUSH3 0x5073 SWAP5 SWAP4 SWAP3 SWAP2 SWAP1 PUSH3 0x58B6 JUMP JUMPDEST PUSH1 0x40 MLOAD DUP1 SWAP2 SUB SWAP1 PUSH1 0x0 CREATE DUP1 ISZERO DUP1 ISZERO PUSH3 0x5090 JUMPI RETURNDATASIZE PUSH1 0x0 DUP1 RETURNDATACOPY RETURNDATASIZE PUSH1 0x0 REVERT JUMPDEST POP PUSH1 0x1F DUP1 SLOAD PUSH1 0x1 PUSH1 0x1 PUSH1 0xA0 SHL SUB NOT AND PUSH1 0x1 PUSH1 0x1 PUSH1 0xA0 SHL SUB DUP4 AND SWAP1 DUP2 OR SWAP1 SWAP2 SSTORE SWAP1 SWAP2 POP PUSH1 0x4 PUSH3 0x50C1 PUSH1 0x64 SELFBALANCE PUSH3 0x594E JUMP JUMPDEST PUSH3 0x50CE SWAP1 PUSH1 0xA PUSH3 0x5971 JUMP JUMPDEST PUSH3 0x50DA SWAP2 SWAP1 PUSH3 0x594E JUMP JUMPDEST PUSH1 0x40 MLOAD PUSH2 0x5E4A SWAP2 SWAP1 PUSH1 0x0 DUP2 DUP2 DUP2 DUP6 DUP9 DUP9 CALL SWAP4 POP POP POP POP RETURNDATASIZE DUP1 PUSH1 0x0 DUP2 EQ PUSH3 0x511E JUMPI PUSH1 0x40 MLOAD SWAP2 POP PUSH1 0x1F NOT PUSH1 0x3F RETURNDATASIZE ADD AND DUP3 ADD PUSH1 0x40 MSTORE RETURNDATASIZE DUP3 MSTORE RETURNDATASIZE PUSH1 0x0 PUSH1 0x20 DUP5 ADD RETURNDATACOPY PUSH3 0x5123 JUMP JUMPDEST PUSH1 0x60 SWAP2 POP JUMPDEST POP POP PUSH1 0xF SLOAD PUSH1 0x40 MLOAD PUSH4 0x70A08231 PUSH1 0xE0 SHL DUP2 MSTORE ADDRESS PUSH1 0x4 DUP3 ADD MSTORE PUSH1 0x1 PUSH1 0x1 PUSH1 0xA0 SHL SUB SWAP1 SWAP2 AND SWAP2 POP PUSH4 0x95EA7B3 SWAP1 DUP4 SWAP1 DUP4 SWAP1 PUSH4 0x70A08231 SWAP1 PUSH1 0x24 ADD PUSH1 0x20 PUSH1 0x40 MLOAD DUP1 DUP4 SUB DUP2 DUP7 DUP1 EXTCODESIZE ISZERO DUP1 ISZERO PUSH3 0x5174 JUMPI PUSH1 0x0 DUP1 REVERT JUMPDEST POP GAS STATICCALL ISZERO DUP1 ISZERO PUSH3 0x5189 JUMPI RETURNDATASIZE PUSH1 0x0 DUP1 RETURNDATACOPY RETURNDATASIZE PUSH1 0x0 REVERT JUMPDEST POP POP POP POP PUSH1 0x40 MLOAD RETURNDATASIZE PUSH1 0x1F NOT PUSH1 0x1F DUP3 ADD AND DUP3 ADD DUP1 PUSH1 0x40 MSTORE POP DUP2 ADD SWAP1 PUSH3 0x51AF SWAP2 SWAP1 PUSH3 0x5840 JUMP JUMPDEST PUSH1 0x40 MLOAD DUP4 PUSH4 0xFFFFFFFF AND PUSH1 0xE0 SHL DUP2 MSTORE PUSH1 0x4 ADD PUSH3 0x51CE SWAP3 SWAP2 SWAP1 PUSH3 0x58DF JUMP JUMPDEST PUSH1 0x20 PUSH1 0x40 MLOAD DUP1 DUP4 SUB DUP2 PUSH1 0x0 DUP8 DUP1 EXTCODESIZE ISZERO DUP1 ISZERO PUSH3 0x51E9 JUMPI PUSH1 0x0 DUP1 REVERT JUMPDEST POP GAS CALL ISZERO DUP1 ISZERO PUSH3 0x51FE JUMPI RETURNDATASIZE PUSH1 0x0 DUP1 RETURNDATACOPY RETURNDATASIZE PUSH1 0x0 REVERT JUMPDEST POP POP POP POP PUSH1 0x40 MLOAD RETURNDATASIZE PUSH1 0x1F NOT PUSH1 0x1F DUP3 ADD AND DUP3 ADD DUP1 PUSH1 0x40 MSTORE POP DUP2 ADD SWAP1 PUSH3 0x5224 SWAP2 SWAP1 PUSH3 0x5802 JUMP JUMPDEST POP PUSH1 0xE SLOAD PUSH1 0x18 SLOAD PUSH1 0x40 MLOAD PUSH4 0x70A08231 PUSH1 0xE0 SHL DUP2 MSTORE ADDRESS PUSH1 0x4 DUP3 ADD DUP2 SWAP1 MSTORE PUSH1 0x0 SWAP4 PUSH1 0x1 PUSH1 0x1 PUSH1 0xA0 SHL SUB AND SWAP3 SWAP1 SWAP2 PUSH1 0x2 SWAP1 DUP5 SWAP1 PUSH4 0x70A08231 SWAP1 PUSH1 0x24 ADD PUSH1 0x20 PUSH1 0x40 MLOAD DUP1 DUP4 SUB DUP2 DUP7 DUP1 EXTCODESIZE ISZERO DUP1 ISZERO PUSH3 0x5276 JUMPI PUSH1 0x0 DUP1 REVERT JUMPDEST POP GAS STATICCALL ISZERO DUP1 ISZERO PUSH3 0x528B JUMPI RETURNDATASIZE PUSH1 0x0 DUP1 RETURNDATACOPY RETURNDATASIZE PUSH1 0x0 REVERT JUMPDEST POP POP POP POP PUSH1 0x40 MLOAD RETURNDATASIZE PUSH1 0x1F NOT PUSH1 0x1F DUP3 ADD AND DUP3 ADD DUP1 PUSH1 0x40 MSTORE POP DUP2 ADD SWAP1 PUSH3 0x52B1 SWAP2 SWAP1 PUSH3 0x5840 JUMP JUMPDEST PUSH3 0x52BD SWAP2 SWAP1 PUSH3 0x594E JUMP JUMPDEST PUSH1 0x40 MLOAD PUSH3 0x52CB SWAP1 PUSH3 0x571B JUMP JUMPDEST PUSH3 0x52DA SWAP5 SWAP4 SWAP3 SWAP2 SWAP1 PUSH3 0x58B6 JUMP JUMPDEST PUSH1 0x40 MLOAD DUP1 SWAP2 SUB SWAP1 PUSH1 0x0 CREATE DUP1 ISZERO DUP1 ISZERO PUSH3 0x52F7 JUMPI RETURNDATASIZE PUSH1 0x0 DUP1 RETURNDATACOPY RETURNDATASIZE PUSH1 0x0 REVERT JUMPDEST POP PUSH1 0x20 DUP1 SLOAD PUSH1 0x1 PUSH1 0x1 PUSH1 0xA0 SHL SUB NOT AND PUSH1 0x1 PUSH1 0x1 PUSH1 0xA0 SHL SUB DUP4 AND SWAP1 DUP2 OR SWAP1 SWAP2 SSTORE SWAP1 SWAP2 POP PUSH1 0x4 PUSH3 0x5328 PUSH1 0x64 SELFBALANCE PUSH3 0x594E JUMP JUMPDEST PUSH3 0x5335 SWAP1 PUSH1 0xA PUSH3 0x5971 JUMP JUMPDEST PUSH3 0x5341 SWAP2 SWAP1 PUSH3 0x594E JUMP JUMPDEST PUSH1 0x40 MLOAD PUSH2 0x5E4A SWAP2 SWAP1 PUSH1 0x0 DUP2 DUP2 DUP2 DUP6 DUP9 DUP9 CALL SWAP4 POP POP POP POP RETURNDATASIZE DUP1 PUSH1 0x0 DUP2 EQ PUSH3 0x5385 JUMPI PUSH1 0x40 MLOAD SWAP2 POP PUSH1 0x1F NOT PUSH1 0x3F RETURNDATASIZE ADD AND DUP3 ADD PUSH1 0x40 MSTORE RETURNDATASIZE DUP3 MSTORE RETURNDATASIZE PUSH1 0x0 PUSH1 0x20 DUP5 ADD RETURNDATACOPY PUSH3 0x538A JUMP JUMPDEST PUSH1 0x60 SWAP2 POP JUMPDEST POP POP PUSH1 0xE SLOAD PUSH1 0x40 MLOAD PUSH4 0x70A08231 PUSH1 0xE0 SHL DUP2 MSTORE ADDRESS PUSH1 0x4 DUP3 ADD MSTORE PUSH1 0x1 PUSH1 0x1 PUSH1 0xA0 SHL SUB SWAP1 SWAP2 AND SWAP2 POP PUSH4 0x95EA7B3 SWAP1 DUP4 SWAP1 DUP4 SWAP1 PUSH4 0x70A08231 SWAP1 PUSH1 0x24 ADD PUSH1 0x20 PUSH1 0x40 MLOAD DUP1 DUP4 SUB DUP2 DUP7 DUP1 EXTCODESIZE ISZERO DUP1 ISZERO PUSH3 0x53DB JUMPI PUSH1 0x0 DUP1 REVERT JUMPDEST POP GAS STATICCALL ISZERO DUP1 ISZERO PUSH3 0x53F0 JUMPI RETURNDATASIZE PUSH1 0x0 DUP1 RETURNDATACOPY RETURNDATASIZE PUSH1 0x0 REVERT JUMPDEST POP POP POP POP PUSH1 0x40 MLOAD RETURNDATASIZE PUSH1 0x1F NOT PUSH1 0x1F DUP3 ADD AND DUP3 ADD DUP1 PUSH1 0x40 MSTORE POP DUP2 ADD SWAP1 PUSH3 0x5416 SWAP2 SWAP1 PUSH3 0x5840 JUMP JUMPDEST PUSH1 0x40 MLOAD DUP4 PUSH4 0xFFFFFFFF AND PUSH1 0xE0 SHL DUP2 MSTORE PUSH1 0x4 ADD PUSH3 0x5435 SWAP3 SWAP2 SWAP1 PUSH3 0x58DF JUMP JUMPDEST PUSH1 0x20 PUSH1 0x40 MLOAD DUP1 DUP4 SUB DUP2 PUSH1 0x0 DUP8 DUP1 EXTCODESIZE ISZERO DUP1 ISZERO PUSH3 0x5450 JUMPI PUSH1 0x0 DUP1 REVERT JUMPDEST POP GAS CALL ISZERO DUP1 ISZERO PUSH3 0x5465 JUMPI RETURNDATASIZE PUSH1 0x0 DUP1 RETURNDATACOPY RETURNDATASIZE PUSH1 0x0 REVERT JUMPDEST POP POP POP POP PUSH1 0x40 MLOAD RETURNDATASIZE PUSH1 0x1F NOT PUSH1 0x1F DUP3 ADD AND DUP3 ADD DUP1 PUSH1 0x40 MSTORE POP DUP2 ADD SWAP1 PUSH3 0x548B SWAP2 SWAP1 PUSH3 0x5802 JUMP JUMPDEST POP POP POP POP POP JUMPDEST PUSH3 0x549F TIMESTAMP PUSH2 0x12C PUSH3 0x5933 JUMP JUMPDEST PUSH1 0x2 SSTORE PUSH1 0x1 SLOAD PUSH3 0x54B3 SWAP1 PUSH1 0xA SWAP1 PUSH3 0x594E JUMP JUMPDEST PUSH1 0x1 SSTORE PUSH1 0x0 PUSH1 0x4 DUP2 SWAP1 SSTORE PUSH1 0x5 DUP2 SWAP1 SSTORE PUSH1 0x6 DUP2 SWAP1 SSTORE PUSH1 0x7 DUP2 SWAP1 SSTORE PUSH1 0x8 DUP2 SWAP1 SSTORE PUSH1 0x9 DUP2 SWAP1 SSTORE PUSH1 0xA DUP2 SWAP1 SSTORE PUSH1 0xB DUP2 SWAP1 SSTORE PUSH1 0x10 SLOAD SWAP1 SSTORE PUSH3 0x54F3 TIMESTAMP PUSH2 0x12C PUSH3 0x5933 JUMP JUMPDEST PUSH1 0x2 SSTORE POP POP POP POP POP POP JUMPDEST JUMP JUMPDEST CALLER PUSH1 0x0 SWAP1 DUP2 MSTORE PUSH1 0x14 PUSH1 0x20 MSTORE PUSH1 0x40 SWAP1 KECCAK256 SLOAD PUSH1 0xFF AND PUSH3 0x551C JUMPI PUSH1 0x0 DUP1 REVERT JUMPDEST CALLER PUSH1 0x0 SWAP1 DUP2 MSTORE PUSH1 0x14 PUSH1 0x20 MSTORE PUSH1 0x40 DUP2 KECCAK256 DUP1 SLOAD PUSH1 0xFF NOT AND SWAP1 SSTORE PUSH1 0x18 DUP1 SLOAD SWAP2 PUSH3 0x88C DUP4 PUSH3 0x5993 JUMP JUMPDEST CALLER PUSH1 0x0 SWAP1 DUP2 MSTORE PUSH1 0x14 PUSH1 0x20 MSTORE PUSH1 0x40 SWAP1 KECCAK256 SLOAD PUSH1 0xFF AND PUSH3 0x5560 JUMPI PUSH1 0x0 DUP1 REVERT JUMPDEST PUSH1 0x0 DUP3 GT PUSH3 0x556E JUMPI PUSH1 0x0 DUP1 REVERT JUMPDEST PUSH1 0xE SLOAD PUSH1 0x40 MLOAD PUSH4 0x70A08231 PUSH1 0xE0 SHL DUP2 MSTORE CALLER PUSH1 0x4 DUP3 ADD MSTORE DUP4 SWAP2 PUSH1 0x1 PUSH1 0x1 PUSH1 0xA0 SHL SUB AND SWAP1 PUSH4 0x70A08231 SWAP1 PUSH1 0x24 ADD PUSH1 0x20 PUSH1 0x40 MLOAD DUP1 DUP4 SUB DUP2 DUP7 DUP1 EXTCODESIZE ISZERO DUP1 ISZERO PUSH3 0x55B2 JUMPI PUSH1 0x0 DUP1 REVERT JUMPDEST POP GAS STATICCALL ISZERO DUP1 ISZERO PUSH3 0x55C7 JUMPI RETURNDATASIZE PUSH1 0x0 DUP1 RETURNDATACOPY RETURNDATASIZE PUSH1 0x0 REVERT JUMPDEST POP POP POP POP PUSH1 0x40 MLOAD RETURNDATASIZE PUSH1 0x1F NOT PUSH1 0x1F DUP3 ADD AND DUP3 ADD DUP1 PUSH1 0x40 MSTORE POP DUP2 ADD SWAP1 PUSH3 0x55ED SWAP2 SWAP1 PUSH3 0x5840 JUMP JUMPDEST LT ISZERO PUSH3 0x55F9 JUMPI PUSH1 0x0 DUP1 REVERT JUMPDEST DUP2 PUSH1 0xB PUSH1 0x0 DUP3 DUP3 SLOAD PUSH3 0x9A5 SWAP2 SWAP1 PUSH3 0x5933 JUMP JUMPDEST CALLER PUSH1 0x0 SWAP1 DUP2 MSTORE PUSH1 0x12 PUSH1 0x20 MSTORE PUSH1 0x40 SWAP1 KECCAK256 SLOAD PUSH1 0xFF AND PUSH3 0x562A JUMPI PUSH1 0x0 DUP1 REVERT JUMPDEST PUSH1 0x0 DUP3 GT PUSH3 0x5638 JUMPI PUSH1 0x0 DUP1 REVERT JUMPDEST PUSH1 0xD SLOAD PUSH1 0x40 MLOAD PUSH4 0x70A08231 PUSH1 0xE0 SHL DUP2 MSTORE CALLER PUSH1 0x4 DUP3 ADD MSTORE DUP4 SWAP2 PUSH1 0x1 PUSH1 0x1 PUSH1 0xA0 SHL SUB AND SWAP1 PUSH4 0x70A08231 SWAP1 PUSH1 0x24 ADD PUSH1 0x20 PUSH1 0x40 MLOAD DUP1 DUP4 SUB DUP2 DUP7 DUP1 EXTCODESIZE ISZERO DUP1 ISZERO PUSH3 0x567C JUMPI PUSH1 0x0 DUP1 REVERT JUMPDEST POP GAS STATICCALL ISZERO DUP1 ISZERO PUSH3 0x5691 JUMPI RETURNDATASIZE PUSH1 0x0 DUP1 RETURNDATACOPY RETURNDATASIZE PUSH1 0x0 REVERT JUMPDEST POP POP POP POP PUSH1 0x40 MLOAD RETURNDATASIZE PUSH1 0x1F NOT PUSH1 0x1F DUP3 ADD AND DUP3 ADD DUP1 PUSH1 0x40 MSTORE POP DUP2 ADD SWAP1 PUSH3 0x56B7 SWAP2 SWAP1 PUSH3 0x5840 JUMP JUMPDEST LT ISZERO PUSH3 0x56C3 JUMPI PUSH1 0x0 DUP1 REVERT JUMPDEST DUP2 PUSH1 0x9 PUSH1 0x0 DUP3 DUP3 SLOAD PUSH3 0xAE7 SWAP2 SWAP1 PUSH3 0x5933 JUMP JUMPDEST CALLER PUSH1 0x0 SWAP1 DUP2 MSTORE PUSH1 0x11 PUSH1 0x20 MSTORE PUSH1 0x40 SWAP1 KECCAK256 SLOAD PUSH1 0xFF AND PUSH3 0x56F4 JUMPI PUSH1 0x0 DUP1 REVERT JUMPDEST CALLER PUSH1 0x0 SWAP1 DUP2 MSTORE PUSH1 0x11 PUSH1 0x20 MSTORE PUSH1 0x40 DUP2 KECCAK256 DUP1 SLOAD PUSH1 0xFF NOT AND SWAP1 SSTORE PUSH1 0x15 DUP1 SLOAD SWAP2 PUSH3 0x88C DUP4 PUSH3 0x5993 JUMP JUMPDEST PUSH2 0x56B DUP1 PUSH3 0x59F8 DUP4 CODECOPY ADD SWAP1 JUMP JUMPDEST PUSH1 0x0 PUSH1 0x20 DUP3 DUP5 SUB SLT ISZERO PUSH3 0x573C JUMPI PUSH1 0x0 DUP1 REVERT JUMPDEST DUP2 CALLDATALOAD PUSH3 0x5749 DUP2 PUSH3 0x59E1 JUMP JUMPDEST SWAP4 SWAP3 POP POP POP JUMP JUMPDEST PUSH1 0x0 DUP1 PUSH1 0x0 DUP1 PUSH1 0x80 DUP6 DUP8 SUB SLT ISZERO PUSH3 0x5767 JUMPI PUSH1 0x0 DUP1 REVERT JUMPDEST DUP5 CALLDATALOAD PUSH3 0x5774 DUP2 PUSH3 0x59E1 JUMP JUMPDEST SWAP4 POP PUSH1 0x20 DUP6 ADD CALLDATALOAD PUSH3 0x5786 DUP2 PUSH3 0x59E1 JUMP JUMPDEST SWAP3 POP PUSH1 0x40 DUP6 ADD CALLDATALOAD PUSH3 0x5798 DUP2 PUSH3 0x59E1 JUMP JUMPDEST SWAP2 POP PUSH1 0x60 DUP6 ADD CALLDATALOAD PUSH3 0x57AA DUP2 PUSH3 0x59E1 JUMP JUMPDEST SWAP4 SWAP7 SWAP3 SWAP6 POP SWAP1 SWAP4 POP POP JUMP JUMPDEST PUSH1 0x0 DUP1 PUSH1 0x0 DUP1 PUSH1 0x80 DUP6 DUP8 SUB SLT ISZERO PUSH3 0x57CC JUMPI PUSH1 0x0 DUP1 REVERT JUMPDEST DUP5 MLOAD PUSH3 0x57D9 DUP2 PUSH3 0x59E1 JUMP JUMPDEST PUSH1 0x20 DUP7 ADD MLOAD SWAP1 SWAP5 POP PUSH3 0x57EC DUP2 PUSH3 0x59E1 JUMP JUMPDEST PUSH1 0x40 DUP7 ADD MLOAD PUSH1 0x60 SWAP1 SWAP7 ADD MLOAD SWAP5 SWAP8 SWAP1 SWAP7 POP SWAP3 POP POP POP JUMP JUMPDEST PUSH1 0x0 PUSH1 0x20 DUP3 DUP5 SUB SLT ISZERO PUSH3 0x5815 JUMPI PUSH1 0x0 DUP1 REVERT JUMPDEST DUP2 MLOAD DUP1 ISZERO ISZERO DUP2 EQ PUSH3 0x5749 JUMPI PUSH1 0x0 DUP1 REVERT JUMPDEST PUSH1 0x0 PUSH1 0x20 DUP3 DUP5 SUB SLT ISZERO PUSH3 0x5839 JUMPI PUSH1 0x0 DUP1 REVERT JUMPDEST POP CALLDATALOAD SWAP2 SWAP1 POP JUMP JUMPDEST PUSH1 0x0 PUSH1 0x20 DUP3 DUP5 SUB SLT ISZERO PUSH3 0x5853 JUMPI PUSH1 0x0 DUP1 REVERT JUMPDEST POP MLOAD SWAP2 SWAP1 POP JUMP JUMPDEST PUSH1 0x0 DUP1 PUSH1 0x0 PUSH1 0x60 DUP5 DUP7 SUB SLT ISZERO PUSH3 0x5870 JUMPI PUSH1 0x0 DUP1 REVERT JUMPDEST POP POP DUP2 CALLDATALOAD SWAP4 PUSH1 0x20 DUP4 ADD CALLDATALOAD SWAP4 POP PUSH1 0x40 SWAP1 SWAP3 ADD CALLDATALOAD SWAP2 SWAP1 POP JUMP JUMPDEST PUSH1 0x0 DUP1 PUSH1 0x0 PUSH1 0x60 DUP5 DUP7 SUB SLT ISZERO PUSH3 0x589D JUMPI PUSH1 0x0 DUP1 REVERT JUMPDEST DUP4 MLOAD SWAP3 POP PUSH1 0x20 DUP5 ADD MLOAD SWAP2 POP PUSH1 0x40 DUP5 ADD MLOAD SWAP1 POP SWAP3 POP SWAP3 POP SWAP3 JUMP JUMPDEST PUSH1 0x1 PUSH1 0x1 PUSH1 0xA0 SHL SUB SWAP5 DUP6 AND DUP2 MSTORE SWAP3 SWAP1 SWAP4 AND PUSH1 0x20 DUP4 ADD MSTORE PUSH1 0x40 DUP3 ADD MSTORE PUSH1 0x60 DUP2 ADD SWAP2 SWAP1 SWAP2 MSTORE PUSH1 0x80 ADD SWAP1 JUMP JUMPDEST PUSH1 0x1 PUSH1 0x1 PUSH1 0xA0 SHL SUB SWAP3 SWAP1 SWAP3 AND DUP3 MSTORE PUSH1 0x20 DUP3 ADD MSTORE PUSH1 0x40 ADD SWAP1 JUMP JUMPDEST PUSH1 0x1 PUSH1 0x1 PUSH1 0xA0 SHL SUB SWAP7 DUP8 AND DUP2 MSTORE PUSH1 0x20 DUP2 ADD SWAP6 SWAP1 SWAP6 MSTORE PUSH1 0x40 DUP6 ADD SWAP4 SWAP1 SWAP4 MSTORE PUSH1 0x60 DUP5 ADD SWAP2 SWAP1 SWAP2 MSTORE SWAP1 SWAP3 AND PUSH1 0x80 DUP3 ADD MSTORE PUSH1 0xA0 DUP2 ADD SWAP2 SWAP1 SWAP2 MSTORE PUSH1 0xC0 ADD SWAP1 JUMP JUMPDEST PUSH1 0x0 DUP3 NOT DUP3 GT ISZERO PUSH3 0x5949 JUMPI PUSH3 0x5949 PUSH3 0x59CB JUMP JUMPDEST POP ADD SWAP1 JUMP JUMPDEST PUSH1 0x0 DUP3 PUSH3 0x596C JUMPI PUSH4 0x4E487B71 PUSH1 0xE0 SHL PUSH1 0x0 MSTORE PUSH1 0x12 PUSH1 0x4 MSTORE PUSH1 0x24 PUSH1 0x0 REVERT JUMPDEST POP DIV SWAP1 JUMP JUMPDEST PUSH1 0x0 DUP2 PUSH1 0x0 NOT DIV DUP4 GT DUP3 ISZERO ISZERO AND ISZERO PUSH3 0x598E JUMPI PUSH3 0x598E PUSH3 0x59CB JUMP JUMPDEST POP MUL SWAP1 JUMP JUMPDEST PUSH1 0x0 DUP2 PUSH3 0x59A5 JUMPI PUSH3 0x59A5 PUSH3 0x59CB JUMP JUMPDEST POP PUSH1 0x0 NOT ADD SWAP1 JUMP JUMPDEST PUSH1 0x0 PUSH1 0x0 NOT DUP3 EQ ISZERO PUSH3 0x59C4 JUMPI PUSH3 0x59C4 PUSH3 0x59CB JUMP JUMPDEST POP PUSH1 0x1 ADD SWAP1 JUMP JUMPDEST PUSH4 0x4E487B71 PUSH1 0xE0 SHL PUSH1 0x0 MSTORE PUSH1 0x11 PUSH1 0x4 MSTORE PUSH1 0x24 PUSH1 0x0 REVERT JUMPDEST PUSH1 0x1 PUSH1 0x1 PUSH1 0xA0 SHL SUB DUP2 AND DUP2 EQ PUSH3 0xBBC JUMPI PUSH1 0x0 DUP1 REVERT INVALID PUSH1 0x80 PUSH1 0x40 MSTORE CALLVALUE DUP1 ISZERO PUSH2 0x10 JUMPI PUSH1 0x0 DUP1 REVERT JUMPDEST POP PUSH1 0x40 MLOAD PUSH2 0x56B CODESIZE SUB DUP1 PUSH2 0x56B DUP4 CODECOPY DUP2 ADD PUSH1 0x40 DUP2 SWAP1 MSTORE PUSH2 0x2F SWAP2 PUSH2 0x8D JUMP JUMPDEST PUSH1 0x1 SWAP2 SWAP1 SWAP2 SSTORE PUSH1 0x5 DUP2 SWAP1 SSTORE PUSH1 0x6 SSTORE PUSH1 0x3 DUP1 SLOAD PUSH1 0x1 PUSH1 0x1 PUSH1 0xA0 SHL SUB SWAP3 DUP4 AND PUSH1 0x1 PUSH1 0x1 PUSH1 0xA0 SHL SUB NOT SWAP2 DUP3 AND OR SWAP1 SWAP2 SSTORE PUSH1 0x2 DUP1 SLOAD SWAP4 SWAP1 SWAP3 AND SWAP3 AND SWAP2 SWAP1 SWAP2 OR SWAP1 SSTORE PUSH2 0xD0 JUMP JUMPDEST DUP1 MLOAD PUSH1 0x1 PUSH1 0x1 PUSH1 0xA0 SHL SUB DUP2 AND DUP2 EQ PUSH2 0x88 JUMPI PUSH1 0x0 DUP1 REVERT JUMPDEST SWAP2 SWAP1 POP JUMP JUMPDEST PUSH1 0x0 DUP1 PUSH1 0x0 DUP1 PUSH1 0x80 DUP6 DUP8 SUB SLT ISZERO PUSH2 0xA3 JUMPI PUSH1 0x0 DUP1 REVERT JUMPDEST PUSH2 0xAC DUP6 PUSH2 0x71 JUMP JUMPDEST SWAP4 POP PUSH2 0xBA PUSH1 0x20 DUP7 ADD PUSH2 0x71 JUMP JUMPDEST PUSH1 0x40 DUP7 ADD MLOAD PUSH1 0x60 SWAP1 SWAP7 ADD MLOAD SWAP5 SWAP8 SWAP1 SWAP7 POP SWAP3 POP POP POP JUMP JUMPDEST PUSH2 0x48C DUP1 PUSH2 0xDF PUSH1 0x0 CODECOPY PUSH1 0x0 RETURN INVALID PUSH1 0x80 PUSH1 0x40 MSTORE PUSH1 0x4 CALLDATASIZE LT PUSH2 0x7F JUMPI PUSH1 0x0 CALLDATALOAD PUSH1 0xE0 SHR DUP1 PUSH4 0xB69EF8A8 GT PUSH2 0x4E JUMPI DUP1 PUSH4 0xB69EF8A8 EQ PUSH2 0x130 JUMPI DUP1 PUSH4 0xC5379317 EQ PUSH2 0x146 JUMPI DUP1 PUSH4 0xC884EF83 EQ PUSH2 0x15C JUMPI DUP1 PUSH4 0xFC0C546A EQ PUSH2 0x19C JUMPI PUSH1 0x0 DUP1 REVERT JUMPDEST DUP1 PUSH4 0x27810B6E EQ PUSH2 0xA2 JUMPI DUP1 PUSH4 0x3A98EF39 EQ PUSH2 0xDF JUMPI DUP1 PUSH4 0x4E71D92D EQ PUSH2 0x103 JUMPI DUP1 PUSH4 0xB0CF0196 EQ PUSH2 0x11A JUMPI PUSH1 0x0 DUP1 REVERT JUMPDEST CALLDATASIZE PUSH2 0x9D JUMPI CALLVALUE PUSH1 0x4 PUSH1 0x0 DUP3 DUP3 SLOAD PUSH2 0x96 SWAP2 SWAP1 PUSH2 0x3EF JUMP JUMPDEST SWAP1 SWAP2 SSTORE POP POP STOP JUMPDEST PUSH1 0x0 DUP1 REVERT JUMPDEST CALLVALUE DUP1 ISZERO PUSH2 0xAE JUMPI PUSH1 0x0 DUP1 REVERT JUMPDEST POP PUSH1 0x3 SLOAD PUSH2 0xC2 SWAP1 PUSH1 0x1 PUSH1 0x1 PUSH1 0xA0 SHL SUB AND DUP2 JUMP JUMPDEST PUSH1 0x40 MLOAD PUSH1 0x1 PUSH1 0x1 PUSH1 0xA0 SHL SUB SWAP1 SWAP2 AND DUP2 MSTORE PUSH1 0x20 ADD JUMPDEST PUSH1 0x40 MLOAD DUP1 SWAP2 SUB SWAP1 RETURN JUMPDEST CALLVALUE DUP1 ISZERO PUSH2 0xEB JUMPI PUSH1 0x0 DUP1 REVERT JUMPDEST POP PUSH2 0xF5 PUSH1 0x1 SLOAD DUP2 JUMP JUMPDEST PUSH1 0x40 MLOAD SWAP1 DUP2 MSTORE PUSH1 0x20 ADD PUSH2 0xD6 JUMP JUMPDEST CALLVALUE DUP1 ISZERO PUSH2 0x10F JUMPI PUSH1 0x0 DUP1 REVERT JUMPDEST POP PUSH2 0x118 PUSH2 0x1BC JUMP JUMPDEST STOP JUMPDEST CALLVALUE DUP1 ISZERO PUSH2 0x126 JUMPI PUSH1 0x0 DUP1 REVERT JUMPDEST POP PUSH2 0xF5 PUSH1 0x6 SLOAD DUP2 JUMP JUMPDEST CALLVALUE DUP1 ISZERO PUSH2 0x13C JUMPI PUSH1 0x0 DUP1 REVERT JUMPDEST POP PUSH2 0xF5 PUSH1 0x4 SLOAD DUP2 JUMP JUMPDEST CALLVALUE DUP1 ISZERO PUSH2 0x152 JUMPI PUSH1 0x0 DUP1 REVERT JUMPDEST POP PUSH2 0xF5 PUSH1 0x5 SLOAD DUP2 JUMP JUMPDEST CALLVALUE DUP1 ISZERO PUSH2 0x168 JUMPI PUSH1 0x0 DUP1 REVERT JUMPDEST POP PUSH2 0x18C PUSH2 0x177 CALLDATASIZE PUSH1 0x4 PUSH2 0x39D JUMP JUMPDEST PUSH1 0x0 PUSH1 0x20 DUP2 SWAP1 MSTORE SWAP1 DUP2 MSTORE PUSH1 0x40 SWAP1 KECCAK256 SLOAD PUSH1 0xFF AND DUP2 JUMP JUMPDEST PUSH1 0x40 MLOAD SWAP1 ISZERO ISZERO DUP2 MSTORE PUSH1 0x20 ADD PUSH2 0xD6 JUMP JUMPDEST CALLVALUE DUP1 ISZERO PUSH2 0x1A8 JUMPI PUSH1 0x0 DUP1 REVERT JUMPDEST POP PUSH1 0x2 SLOAD PUSH2 0xC2 SWAP1 PUSH1 0x1 PUSH1 0x1 PUSH1 0xA0 SHL SUB AND DUP2 JUMP JUMPDEST CALLER PUSH1 0x0 SWAP1 DUP2 MSTORE PUSH1 0x20 DUP2 SWAP1 MSTORE PUSH1 0x40 SWAP1 KECCAK256 SLOAD PUSH1 0xFF AND ISZERO PUSH2 0x22C JUMPI PUSH1 0x40 MLOAD PUSH3 0x461BCD PUSH1 0xE5 SHL DUP2 MSTORE PUSH1 0x20 PUSH1 0x4 DUP3 ADD MSTORE PUSH1 0x24 DUP1 DUP3 ADD MSTORE PUSH32 0x596F75206861766520616C726561647920636C61696D656420796F7572207368 PUSH1 0x44 DUP3 ADD MSTORE PUSH4 0x61726521 PUSH1 0xE0 SHL PUSH1 0x64 DUP3 ADD MSTORE PUSH1 0x84 ADD PUSH1 0x40 MLOAD DUP1 SWAP2 SUB SWAP1 REVERT JUMPDEST PUSH1 0x0 PUSH1 0x1 SLOAD PUSH1 0x6 SLOAD PUSH2 0x23E SWAP2 SWAP1 PUSH2 0x407 JUMP JUMPDEST SWAP1 POP PUSH1 0x0 PUSH1 0x1 SLOAD PUSH1 0x4 SLOAD PUSH2 0x252 SWAP2 SWAP1 PUSH2 0x407 JUMP JUMPDEST PUSH1 0x2 SLOAD PUSH1 0x3 SLOAD PUSH1 0x40 MLOAD PUSH4 0x23B872DD PUSH1 0xE0 SHL DUP2 MSTORE PUSH1 0x1 PUSH1 0x1 PUSH1 0xA0 SHL SUB SWAP2 DUP3 AND PUSH1 0x4 DUP3 ADD MSTORE CALLER PUSH1 0x24 DUP3 ADD MSTORE PUSH1 0x44 DUP2 ADD DUP7 SWAP1 MSTORE SWAP3 SWAP4 POP AND SWAP1 PUSH4 0x23B872DD SWAP1 PUSH1 0x64 ADD PUSH1 0x20 PUSH1 0x40 MLOAD DUP1 DUP4 SUB DUP2 PUSH1 0x0 DUP8 DUP1 EXTCODESIZE ISZERO DUP1 ISZERO PUSH2 0x2AA JUMPI PUSH1 0x0 DUP1 REVERT JUMPDEST POP GAS CALL ISZERO DUP1 ISZERO PUSH2 0x2BE JUMPI RETURNDATASIZE PUSH1 0x0 DUP1 RETURNDATACOPY RETURNDATASIZE PUSH1 0x0 REVERT JUMPDEST POP POP POP POP PUSH1 0x40 MLOAD RETURNDATASIZE PUSH1 0x1F NOT PUSH1 0x1F DUP3 ADD AND DUP3 ADD DUP1 PUSH1 0x40 MSTORE POP DUP2 ADD SWAP1 PUSH2 0x2E2 SWAP2 SWAP1 PUSH2 0x3CD JUMP JUMPDEST POP PUSH1 0x40 MLOAD CALLER SWAP1 DUP3 ISZERO PUSH2 0x8FC MUL SWAP1 DUP4 SWAP1 PUSH1 0x0 DUP2 DUP2 DUP2 DUP6 DUP9 DUP9 CALL SWAP4 POP POP POP POP ISZERO DUP1 ISZERO PUSH2 0x310 JUMPI RETURNDATASIZE PUSH1 0x0 DUP1 RETURNDATACOPY RETURNDATASIZE PUSH1 0x0 REVERT JUMPDEST POP PUSH1 0x1 DUP1 PUSH1 0x0 DUP3 DUP3 SLOAD PUSH2 0x323 SWAP2 SWAP1 PUSH2 0x429 JUMP JUMPDEST SWAP3 POP POP DUP2 SWAP1 SSTORE POP DUP1 PUSH1 0x4 PUSH1 0x0 DUP3 DUP3 SLOAD PUSH2 0x33C SWAP2 SWAP1 PUSH2 0x429 JUMP JUMPDEST SWAP1 SWAP2 SSTORE POP POP CALLER PUSH1 0x0 DUP2 DUP2 MSTORE PUSH1 0x20 DUP2 DUP2 MSTORE PUSH1 0x40 SWAP2 DUP3 SWAP1 KECCAK256 DUP1 SLOAD PUSH1 0xFF NOT AND PUSH1 0x1 OR SWAP1 SSTORE DUP2 MLOAD SWAP3 DUP4 MSTORE DUP3 ADD DUP5 SWAP1 MSTORE DUP2 ADD DUP3 SWAP1 MSTORE PUSH32 0x987D620F307FF6B94D58743CB7A7509F24071586A77759B77C2D4E29F75A2F9A SWAP1 PUSH1 0x60 ADD PUSH1 0x40 MLOAD DUP1 SWAP2 SUB SWAP1 LOG1 POP POP JUMP JUMPDEST PUSH1 0x0 PUSH1 0x20 DUP3 DUP5 SUB SLT ISZERO PUSH2 0x3AF JUMPI PUSH1 0x0 DUP1 REVERT JUMPDEST DUP2 CALLDATALOAD PUSH1 0x1 PUSH1 0x1 PUSH1 0xA0 SHL SUB DUP2 AND DUP2 EQ PUSH2 0x3C6 JUMPI PUSH1 0x0 DUP1 REVERT JUMPDEST SWAP4 SWAP3 POP POP POP JUMP JUMPDEST PUSH1 0x0 PUSH1 0x20 DUP3 DUP5 SUB SLT ISZERO PUSH2 0x3DF JUMPI PUSH1 0x0 DUP1 REVERT JUMPDEST DUP2 MLOAD DUP1 ISZERO ISZERO DUP2 EQ PUSH2 0x3C6 JUMPI PUSH1 0x0 DUP1 REVERT JUMPDEST PUSH1 0x0 DUP3 NOT DUP3 GT ISZERO PUSH2 0x402 JUMPI PUSH2 0x402 PUSH2 0x440 JUMP JUMPDEST POP ADD SWAP1 JUMP JUMPDEST PUSH1 0x0 DUP3 PUSH2 0x424 JUMPI PUSH4 0x4E487B71 PUSH1 0xE0 SHL PUSH1 0x0 MSTORE PUSH1 0x12 PUSH1 0x4 MSTORE PUSH1 0x24 PUSH1 0x0 REVERT JUMPDEST POP DIV SWAP1 JUMP JUMPDEST PUSH1 0x0 DUP3 DUP3 LT ISZERO PUSH2 0x43B JUMPI PUSH2 0x43B PUSH2 0x440 JUMP JUMPDEST POP SUB SWAP1 JUMP JUMPDEST PUSH4 0x4E487B71 PUSH1 0xE0 SHL PUSH1 0x0 MSTORE PUSH1 0x11 PUSH1 0x4 MSTORE PUSH1 0x24 PUSH1 0x0 REVERT INVALID LOG2 PUSH5 0x6970667358 0x22 SLT KECCAK256 0xA9 TIMESTAMP 0xB9 SWAP4 0x5F SMOD DUP12 SWAP8 OR SSTORE MSTORE8 0xE4 DUP1 JUMPI CALLDATALOAD 0xED 0xAF RETURNDATASIZE 0xEA 0xC9 0xDC 0xC1 SWAP12 DIV 0xF8 0x49 0xD7 0xA6 SWAP12 CODECOPY PUSH20 0xCB64736F6C63430008070033A264697066735822 SLT KECCAK256 0xB1 SWAP5 0xFB NUMBER PUSH3 0x6D110B 0x1F CALLDATALOAD 0x49 0xAB SIGNEXTEND 0xA8 BASEFEE SWAP3 GASPRICE PUSH20 0x619E2F6B0244D9A1E59C32E69CC764736F6C6343 STOP ADDMOD SMOD STOP CALLER "
		},
		"gasEstimates": {
			"creation": {
				"codeDepositCost": "4894400",
				"executionCost": "infinite",
				"totalCost": "infinite"
			},
			"external": {
				"blueTeam()": "2405",
				"blueTeamMembers(address)": "2659",
				"blueTeamTokens(address)": "2635",
				"concludeRound()": "infinite",
				"greenTeam()": "2403",
				"greenTeamMembers(address)": "2635",
				"greenTeamTokens(address)": "2549",
				"joinBlueTeam()": "50965",
				"joinGreenTeam()": "50964",
				"joinRedTeam()": "51032",
				"joinYellowTeam()": "51010",
				"leaveBlueTeam()": "51013",
				"leaveGreenTeam()": "51034",
				"leaveRedTeam()": "50989",
				"leaveYellowTeam()": "51012",
				"owner()": "2471",
				"pot()": "2396",
				"price()": "2351",
				"purchaseKey(uint256)": "infinite",
				"recentFanout1()": "2426",
				"recentFanout2()": "2469",
				"recentFanout3()": "2448",
				"recentFanout4()": "2405",
				"redTeam()": "2406",
				"redTeamMembers(address)": "2615",
				"redTeamTokens(address)": "2570",
				"setTeams(address,address,address,address)": "infinite",
				"stakeBlueTeamTokens(uint256,uint256,uint256)": "infinite",
				"stakeBlueTeamTokensDef(uint256,uint256,uint256)": "infinite",
				"stakeGreenTeamTokens(uint256,uint256,uint256)": "infinite",
				"stakeGreenTeamTokensDef(uint256,uint256,uint256)": "infinite",
				"stakeRedTeamTokens(uint256,uint256,uint256)": "infinite",
				"stakeRedTeamTokensDef(uint256,uint256,uint256)": "infinite",
				"stakeYellowTeamTokens(uint256,uint256,uint256)": "infinite",
				"stakeYellowTeamTokensDef(uint256,uint256,uint256)": "infinite",
				"timer()": "2396",
				"withdraw()": "infinite",
				"yellowTeam()": "2426",
				"yellowTeamMembers(address)": "2660",
				"yellowTeamTokens(address)": "2613"
			}
		},
		"methodIdentifiers": {
			"blueTeam()": "740e820d",
			"blueTeamMembers(address)": "4f489743",
			"blueTeamTokens(address)": "b93e6788",
			"concludeRound()": "d4114afb",
			"greenTeam()": "ed0bee5c",
			"greenTeamMembers(address)": "f7586795",
			"greenTeamTokens(address)": "0eb5b32b",
			"joinBlueTeam()": "73d726d0",
			"joinGreenTeam()": "50444476",
			"joinRedTeam()": "24305229",
			"joinYellowTeam()": "1aee4ea3",
			"leaveBlueTeam()": "31e1afa7",
			"leaveGreenTeam()": "712981e4",
			"leaveRedTeam()": "f1348ba6",
			"leaveYellowTeam()": "e201cf4c",
			"owner()": "8da5cb5b",
			"pot()": "4ba2363a",
			"price()": "a035b1fe",
			"purchaseKey(uint256)": "567bcf13",
			"recentFanout1()": "5d0864a7",
			"recentFanout2()": "fdd4a317",
			"recentFanout3()": "af91cdc1",
			"recentFanout4()": "2fff91c9",
			"redTeam()": "198c6845",
			"redTeamMembers(address)": "49e0a8ea",
			"redTeamTokens(address)": "41eb4f82",
			"setTeams(address,address,address,address)": "a5e2fb5b",
			"stakeBlueTeamTokens(uint256,uint256,uint256)": "301f9e80",
			"stakeBlueTeamTokensDef(uint256,uint256,uint256)": "ecd84163",
			"stakeGreenTeamTokens(uint256,uint256,uint256)": "7df72a66",
			"stakeGreenTeamTokensDef(uint256,uint256,uint256)": "8f8022e3",
			"stakeRedTeamTokens(uint256,uint256,uint256)": "c4a97fce",
			"stakeRedTeamTokensDef(uint256,uint256,uint256)": "3d9553ee",
			"stakeYellowTeamTokens(uint256,uint256,uint256)": "2a18c2fa",
			"stakeYellowTeamTokensDef(uint256,uint256,uint256)": "eb94893b",
			"timer()": "88c9cb3c",
			"withdraw()": "3ccfd60b",
			"yellowTeam()": "dca32f5a",
			"yellowTeamMembers(address)": "24ba7e3d",
			"yellowTeamTokens(address)": "6d4885d1"
		}
	},
	"abi": [
		{
			"inputs": [
				{
					"internalType": "uint256",
					"name": "_price",
					"type": "uint256"
				}
			],
			"stateMutability": "nonpayable",
			"type": "constructor"
		},
		{
			"inputs": [],
			"name": "blueTeam",
			"outputs": [
				{
					"internalType": "contract SomeTeam",
					"name": "",
					"type": "address"
				}
			],
			"stateMutability": "view",
			"type": "function"
		},
		{
			"inputs": [
				{
					"internalType": "address",
					"name": "",
					"type": "address"
				}
			],
			"name": "blueTeamMembers",
			"outputs": [
				{
					"internalType": "bool",
					"name": "",
					"type": "bool"
				}
			],
			"stateMutability": "view",
			"type": "function"
		},
		{
			"inputs": [
				{
					"internalType": "address",
					"name": "",
					"type": "address"
				}
			],
			"name": "blueTeamTokens",
			"outputs": [
				{
					"internalType": "uint256",
					"name": "",
					"type": "uint256"
				}
			],
			"stateMutability": "view",
			"type": "function"
		},
		{
			"inputs": [],
			"name": "concludeRound",
			"outputs": [],
			"stateMutability": "nonpayable",
			"type": "function"
		},
		{
			"inputs": [],
			"name": "greenTeam",
			"outputs": [
				{
					"internalType": "contract SomeTeam",
					"name": "",
					"type": "address"
				}
			],
			"stateMutability": "view",
			"type": "function"
		},
		{
			"inputs": [
				{
					"internalType": "address",
					"name": "",
					"type": "address"
				}
			],
			"name": "greenTeamMembers",
			"outputs": [
				{
					"internalType": "bool",
					"name": "",
					"type": "bool"
				}
			],
			"stateMutability": "view",
			"type": "function"
		},
		{
			"inputs": [
				{
					"internalType": "address",
					"name": "",
					"type": "address"
				}
			],
			"name": "greenTeamTokens",
			"outputs": [
				{
					"internalType": "uint256",
					"name": "",
					"type": "uint256"
				}
			],
			"stateMutability": "view",
			"type": "function"
		},
		{
			"inputs": [],
			"name": "joinBlueTeam",
			"outputs": [],
			"stateMutability": "nonpayable",
			"type": "function"
		},
		{
			"inputs": [],
			"name": "joinGreenTeam",
			"outputs": [],
			"stateMutability": "nonpayable",
			"type": "function"
		},
		{
			"inputs": [],
			"name": "joinRedTeam",
			"outputs": [],
			"stateMutability": "nonpayable",
			"type": "function"
		},
		{
			"inputs": [],
			"name": "joinYellowTeam",
			"outputs": [],
			"stateMutability": "nonpayable",
			"type": "function"
		},
		{
			"inputs": [],
			"name": "leaveBlueTeam",
			"outputs": [],
			"stateMutability": "nonpayable",
			"type": "function"
		},
		{
			"inputs": [],
			"name": "leaveGreenTeam",
			"outputs": [],
			"stateMutability": "nonpayable",
			"type": "function"
		},
		{
			"inputs": [],
			"name": "leaveRedTeam",
			"outputs": [],
			"stateMutability": "nonpayable",
			"type": "function"
		},
		{
			"inputs": [],
			"name": "leaveYellowTeam",
			"outputs": [],
			"stateMutability": "nonpayable",
			"type": "function"
		},
		{
			"inputs": [],
			"name": "owner",
			"outputs": [
				{
					"internalType": "address payable",
					"name": "",
					"type": "address"
				}
			],
			"stateMutability": "view",
			"type": "function"
		},
		{
			"inputs": [],
			"name": "pot",
			"outputs": [
				{
					"internalType": "uint256",
					"name": "",
					"type": "uint256"
				}
			],
			"stateMutability": "view",
			"type": "function"
		},
		{
			"inputs": [],
			"name": "price",
			"outputs": [
				{
					"internalType": "uint256",
					"name": "",
					"type": "uint256"
				}
			],
			"stateMutability": "view",
			"type": "function"
		},
		{
			"inputs": [
				{
					"internalType": "uint256",
					"name": "amount",
					"type": "uint256"
				}
			],
			"name": "purchaseKey",
			"outputs": [],
			"stateMutability": "payable",
			"type": "function"
		},
		{
			"inputs": [],
			"name": "recentFanout1",
			"outputs": [
				{
					"internalType": "address",
					"name": "",
					"type": "address"
				}
			],
			"stateMutability": "view",
			"type": "function"
		},
		{
			"inputs": [],
			"name": "recentFanout2",
			"outputs": [
				{
					"internalType": "address",
					"name": "",
					"type": "address"
				}
			],
			"stateMutability": "view",
			"type": "function"
		},
		{
			"inputs": [],
			"name": "recentFanout3",
			"outputs": [
				{
					"internalType": "address",
					"name": "",
					"type": "address"
				}
			],
			"stateMutability": "view",
			"type": "function"
		},
		{
			"inputs": [],
			"name": "recentFanout4",
			"outputs": [
				{
					"internalType": "address",
					"name": "",
					"type": "address"
				}
			],
			"stateMutability": "view",
			"type": "function"
		},
		{
			"inputs": [],
			"name": "redTeam",
			"outputs": [
				{
					"internalType": "contract SomeTeam",
					"name": "",
					"type": "address"
				}
			],
			"stateMutability": "view",
			"type": "function"
		},
		{
			"inputs": [
				{
					"internalType": "address",
					"name": "",
					"type": "address"
				}
			],
			"name": "redTeamMembers",
			"outputs": [
				{
					"internalType": "bool",
					"name": "",
					"type": "bool"
				}
			],
			"stateMutability": "view",
			"type": "function"
		},
		{
			"inputs": [
				{
					"internalType": "address",
					"name": "",
					"type": "address"
				}
			],
			"name": "redTeamTokens",
			"outputs": [
				{
					"internalType": "uint256",
					"name": "",
					"type": "uint256"
				}
			],
			"stateMutability": "view",
			"type": "function"
		},
		{
			"inputs": [
				{
					"internalType": "address",
					"name": "r",
					"type": "address"
				},
				{
					"internalType": "address",
					"name": "b",
					"type": "address"
				},
				{
					"internalType": "address",
					"name": "g",
					"type": "address"
				},
				{
					"internalType": "address",
					"name": "y",
					"type": "address"
				}
			],
			"name": "setTeams",
			"outputs": [],
			"stateMutability": "nonpayable",
			"type": "function"
		},
		{
			"inputs": [
				{
					"internalType": "uint256",
					"name": "_3",
					"type": "uint256"
				},
				{
					"internalType": "uint256",
					"name": "amount",
					"type": "uint256"
				},
				{
					"internalType": "uint256",
					"name": "_4",
					"type": "uint256"
				}
			],
			"name": "stakeBlueTeamTokens",
			"outputs": [],
			"stateMutability": "nonpayable",
			"type": "function"
		},
		{
			"inputs": [
				{
					"internalType": "uint256",
					"name": "_3",
					"type": "uint256"
				},
				{
					"internalType": "uint256",
					"name": "amount",
					"type": "uint256"
				},
				{
					"internalType": "uint256",
					"name": "_4",
					"type": "uint256"
				}
			],
			"name": "stakeBlueTeamTokensDef",
			"outputs": [],
			"stateMutability": "nonpayable",
			"type": "function"
		},
		{
			"inputs": [
				{
					"internalType": "uint256",
					"name": "_3",
					"type": "uint256"
				},
				{
					"internalType": "uint256",
					"name": "amount",
					"type": "uint256"
				},
				{
					"internalType": "uint256",
					"name": "_4",
					"type": "uint256"
				}
			],
			"name": "stakeGreenTeamTokens",
			"outputs": [],
			"stateMutability": "nonpayable",
			"type": "function"
		},
		{
			"inputs": [
				{
					"internalType": "uint256",
					"name": "_3",
					"type": "uint256"
				},
				{
					"internalType": "uint256",
					"name": "amount",
					"type": "uint256"
				},
				{
					"internalType": "uint256",
					"name": "_4",
					"type": "uint256"
				}
			],
			"name": "stakeGreenTeamTokensDef",
			"outputs": [],
			"stateMutability": "nonpayable",
			"type": "function"
		},
		{
			"inputs": [
				{
					"internalType": "uint256",
					"name": "_3",
					"type": "uint256"
				},
				{
					"internalType": "uint256",
					"name": "amount",
					"type": "uint256"
				},
				{
					"internalType": "uint256",
					"name": "_4",
					"type": "uint256"
				}
			],
			"name": "stakeRedTeamTokens",
			"outputs": [],
			"stateMutability": "nonpayable",
			"type": "function"
		},
		{
			"inputs": [
				{
					"internalType": "uint256",
					"name": "_3",
					"type": "uint256"
				},
				{
					"internalType": "uint256",
					"name": "amount",
					"type": "uint256"
				},
				{
					"internalType": "uint256",
					"name": "_4",
					"type": "uint256"
				}
			],
			"name": "stakeRedTeamTokensDef",
			"outputs": [],
			"stateMutability": "nonpayable",
			"type": "function"
		},
		{
			"inputs": [
				{
					"internalType": "uint256",
					"name": "_3",
					"type": "uint256"
				},
				{
					"internalType": "uint256",
					"name": "amount",
					"type": "uint256"
				},
				{
					"internalType": "uint256",
					"name": "_4",
					"type": "uint256"
				}
			],
			"name": "stakeYellowTeamTokens",
			"outputs": [],
			"stateMutability": "nonpayable",
			"type": "function"
		},
		{
			"inputs": [
				{
					"internalType": "uint256",
					"name": "_3",
					"type": "uint256"
				},
				{
					"internalType": "uint256",
					"name": "amount",
					"type": "uint256"
				},
				{
					"internalType": "uint256",
					"name": "_4",
					"type": "uint256"
				}
			],
			"name": "stakeYellowTeamTokensDef",
			"outputs": [],
			"stateMutability": "nonpayable",
			"type": "function"
		},
		{
			"inputs": [],
			"name": "timer",
			"outputs": [
				{
					"internalType": "uint256",
					"name": "",
					"type": "uint256"
				}
			],
			"stateMutability": "view",
			"type": "function"
		},
		{
			"inputs": [],
			"name": "withdraw",
			"outputs": [],
			"stateMutability": "nonpayable",
			"type": "function"
		},
		{
			"inputs": [],
			"name": "yellowTeam",
			"outputs": [
				{
					"internalType": "contract SomeTeam",
					"name": "",
					"type": "address"
				}
			],
			"stateMutability": "view",
			"type": "function"
		},
		{
			"inputs": [
				{
					"internalType": "address",
					"name": "",
					"type": "address"
				}
			],
			"name": "yellowTeamMembers",
			"outputs": [
				{
					"internalType": "bool",
					"name": "",
					"type": "bool"
				}
			],
			"stateMutability": "view",
			"type": "function"
		},
		{
			"inputs": [
				{
					"internalType": "address",
					"name": "",
					"type": "address"
				}
			],
			"name": "yellowTeamTokens",
			"outputs": [
				{
					"internalType": "uint256",
					"name": "",
					"type": "uint256"
				}
			],
			"stateMutability": "view",
			"type": "function"
		},
		{
			"stateMutability": "payable",
			"type": "receive"
		}
	]
}