{
  "_format": "hh-sol-artifact-1",
  "contractName": "SomeTeam",
  "sourceName": "contracts/teams.sol",
  "abi": [
    {
      "inputs": [
        {
          "internalType": "address",
          "name": "_game",
          "type": "address"
        },
        {
          "internalType": "string",
          "name": "_name",
          "type": "string"
        },
        {
          "internalType": "string",
          "name": "_ticker",
          "type": "string"
        }
      ],
      "stateMutability": "nonpayable",
      "type": "constructor"
    },
    {
      "anonymous": false,
      "inputs": [
        {
          "indexed": true,
          "internalType": "address",
          "name": "owner",
          "type": "address"
        },
        {
          "indexed": true,
          "internalType": "address",
          "name": "spender",
          "type": "address"
        },
        {
          "indexed": false,
          "internalType": "uint256",
          "name": "value",
          "type": "uint256"
        }
      ],
      "name": "Approval",
      "type": "event"
    },
    {
      "anonymous": false,
      "inputs": [
        {
          "indexed": true,
          "internalType": "address",
          "name": "previousOwner",
          "type": "address"
        },
        {
          "indexed": true,
          "internalType": "address",
          "name": "newOwner",
          "type": "address"
        }
      ],
      "name": "OwnershipTransferred",
      "type": "event"
    },
    {
      "anonymous": false,
      "inputs": [
        {
          "indexed": true,
          "internalType": "address",
          "name": "from",
          "type": "address"
        },
        {
          "indexed": true,
          "internalType": "address",
          "name": "to",
          "type": "address"
        },
        {
          "indexed": false,
          "internalType": "uint256",
          "name": "value",
          "type": "uint256"
        }
      ],
      "name": "Transfer",
      "type": "event"
    },
    {
      "inputs": [
        {
          "internalType": "address",
          "name": "owner",
          "type": "address"
        },
        {
          "internalType": "address",
          "name": "spender",
          "type": "address"
        }
      ],
      "name": "allowance",
      "outputs": [
        {
          "internalType": "uint256",
          "name": "",
          "type": "uint256"
        }
      ],
      "stateMutability": "view",
      "type": "function"
    },
    {
      "inputs": [
        {
          "internalType": "address",
          "name": "spender",
          "type": "address"
        },
        {
          "internalType": "uint256",
          "name": "amount",
          "type": "uint256"
        }
      ],
      "name": "approve",
      "outputs": [
        {
          "internalType": "bool",
          "name": "",
          "type": "bool"
        }
      ],
      "stateMutability": "nonpayable",
      "type": "function"
    },
    {
      "inputs": [
        {
          "internalType": "address",
          "name": "account",
          "type": "address"
        }
      ],
      "name": "balanceOf",
      "outputs": [
        {
          "internalType": "uint256",
          "name": "",
          "type": "uint256"
        }
      ],
      "stateMutability": "view",
      "type": "function"
    },
    {
      "inputs": [],
      "name": "basePrice",
      "outputs": [
        {
          "internalType": "uint256",
          "name": "",
          "type": "uint256"
        }
      ],
      "stateMutability": "view",
      "type": "function"
    },
    {
      "inputs": [
        {
          "internalType": "uint256",
          "name": "amount",
          "type": "uint256"
        }
      ],
      "name": "burn",
      "outputs": [],
      "stateMutability": "nonpayable",
      "type": "function"
    },
    {
      "inputs": [
        {
          "internalType": "address",
          "name": "account",
          "type": "address"
        },
        {
          "internalType": "uint256",
          "name": "amount",
          "type": "uint256"
        }
      ],
      "name": "burnFrom",
      "outputs": [],
      "stateMutability": "nonpayable",
      "type": "function"
    },
    {
      "inputs": [
        {
          "internalType": "uint256",
          "name": "amount",
          "type": "uint256"
        }
      ],
      "name": "calculatePrice",
      "outputs": [
        {
          "internalType": "uint256",
          "name": "",
          "type": "uint256"
        }
      ],
      "stateMutability": "view",
      "type": "function"
    },
    {
      "inputs": [],
      "name": "decimals",
      "outputs": [
        {
          "internalType": "uint8",
          "name": "",
          "type": "uint8"
        }
      ],
      "stateMutability": "view",
      "type": "function"
    },
    {
      "inputs": [
        {
          "internalType": "address",
          "name": "spender",
          "type": "address"
        },
        {
          "internalType": "uint256",
          "name": "subtractedValue",
          "type": "uint256"
        }
      ],
      "name": "decreaseAllowance",
      "outputs": [
        {
          "internalType": "bool",
          "name": "",
          "type": "bool"
        }
      ],
      "stateMutability": "nonpayable",
      "type": "function"
    },
    {
      "inputs": [
        {
          "internalType": "address",
          "name": "_from",
          "type": "address"
        },
        {
          "internalType": "address",
          "name": "_to",
          "type": "address"
        },
        {
          "internalType": "uint256",
          "name": "_amount",
          "type": "uint256"
        },
        {
          "internalType": "uint256",
          "name": "timer",
          "type": "uint256"
        }
      ],
      "name": "generateSnark",
      "outputs": [],
      "stateMutability": "nonpayable",
      "type": "function"
    },
    {
      "inputs": [],
      "name": "growthRate",
      "outputs": [
        {
          "internalType": "uint256",
          "name": "",
          "type": "uint256"
        }
      ],
      "stateMutability": "view",
      "type": "function"
    },
    {
      "inputs": [
        {
          "internalType": "address",
          "name": "spender",
          "type": "address"
        },
        {
          "internalType": "uint256",
          "name": "addedValue",
          "type": "uint256"
        }
      ],
      "name": "increaseAllowance",
      "outputs": [
        {
          "internalType": "bool",
          "name": "",
          "type": "bool"
        }
      ],
      "stateMutability": "nonpayable",
      "type": "function"
    },
    {
      "inputs": [],
      "name": "increaseBasePrice",
      "outputs": [],
      "stateMutability": "nonpayable",
      "type": "function"
    },
    {
      "inputs": [
        {
          "internalType": "address",
          "name": "account",
          "type": "address"
        },
        {
          "internalType": "uint256",
          "name": "amount",
          "type": "uint256"
        },
        {
          "internalType": "address",
          "name": "o1",
          "type": "address"
        },
        {
          "internalType": "address",
          "name": "o2",
          "type": "address"
        },
        {
          "internalType": "address",
          "name": "o3",
          "type": "address"
        }
      ],
      "name": "mint",
      "outputs": [
        {
          "internalType": "bool",
          "name": "",
          "type": "bool"
        }
      ],
      "stateMutability": "payable",
      "type": "function"
    },
    {
      "inputs": [],
      "name": "name",
      "outputs": [
        {
          "internalType": "string",
          "name": "",
          "type": "string"
        }
      ],
      "stateMutability": "view",
      "type": "function"
    },
    {
      "inputs": [
        {
          "internalType": "uint256",
          "name": "i",
          "type": "uint256"
        }
      ],
      "name": "oops",
      "outputs": [
        {
          "internalType": "bool",
          "name": "",
          "type": "bool"
        }
      ],
      "stateMutability": "nonpayable",
      "type": "function"
    },
    {
      "inputs": [],
      "name": "owner",
      "outputs": [
        {
          "internalType": "address",
          "name": "",
          "type": "address"
        }
      ],
      "stateMutability": "view",
      "type": "function"
    },
    {
      "inputs": [],
      "name": "paid",
      "outputs": [
        {
          "internalType": "bool",
          "name": "",
          "type": "bool"
        }
      ],
      "stateMutability": "view",
      "type": "function"
    },
    {
      "inputs": [
        {
          "internalType": "uint256",
          "name": "timer",
          "type": "uint256"
        }
      ],
      "name": "pay",
      "outputs": [
        {
          "internalType": "address",
          "name": "",
          "type": "address"
        },
        {
          "internalType": "address",
          "name": "",
          "type": "address"
        },
        {
          "internalType": "uint256",
          "name": "",
          "type": "uint256"
        },
        {
          "internalType": "uint256",
          "name": "",
          "type": "uint256"
        }
      ],
      "stateMutability": "nonpayable",
      "type": "function"
    },
    {
      "inputs": [
        {
          "internalType": "uint256",
          "name": "howmuch",
          "type": "uint256"
        }
      ],
      "name": "reduceBasePrice",
      "outputs": [],
      "stateMutability": "nonpayable",
      "type": "function"
    },
    {
      "inputs": [],
      "name": "renounceOwnership",
      "outputs": [],
      "stateMutability": "nonpayable",
      "type": "function"
    },
    {
      "inputs": [],
      "name": "symbol",
      "outputs": [
        {
          "internalType": "string",
          "name": "",
          "type": "string"
        }
      ],
      "stateMutability": "view",
      "type": "function"
    },
    {
      "inputs": [],
      "name": "totalSupply",
      "outputs": [
        {
          "internalType": "uint256",
          "name": "",
          "type": "uint256"
        }
      ],
      "stateMutability": "view",
      "type": "function"
    },
    {
      "inputs": [
        {
          "internalType": "address",
          "name": "to",
          "type": "address"
        },
        {
          "internalType": "uint256",
          "name": "amount",
          "type": "uint256"
        }
      ],
      "name": "transfer",
      "outputs": [
        {
          "internalType": "bool",
          "name": "",
          "type": "bool"
        }
      ],
      "stateMutability": "nonpayable",
      "type": "function"
    },
    {
      "inputs": [
        {
          "internalType": "address",
          "name": "from",
          "type": "address"
        },
        {
          "internalType": "address",
          "name": "to",
          "type": "address"
        },
        {
          "internalType": "uint256",
          "name": "amount",
          "type": "uint256"
        }
      ],
      "name": "transferFrom",
      "outputs": [
        {
          "internalType": "bool",
          "name": "",
          "type": "bool"
        }
      ],
      "stateMutability": "nonpayable",
      "type": "function"
    },
    {
      "inputs": [
        {
          "internalType": "address",
          "name": "_from",
          "type": "address"
        },
        {
          "internalType": "address",
          "name": "_to",
          "type": "address"
        },
        {
          "internalType": "uint256",
          "name": "_amount",
          "type": "uint256"
        },
        {
          "internalType": "uint256",
          "name": "i",
          "type": "uint256"
        }
      ],
      "name": "transferFromSnark",
      "outputs": [
        {
          "internalType": "bool",
          "name": "",
          "type": "bool"
        }
      ],
      "stateMutability": "nonpayable",
      "type": "function"
    },
    {
      "inputs": [
        {
          "internalType": "address",
          "name": "newOwner",
          "type": "address"
        }
      ],
      "name": "transferOwnership",
      "outputs": [],
      "stateMutability": "nonpayable",
      "type": "function"
    }
  ],
  "bytecode": "0x60806040526005805460ff60a01b1916905560006006556103e8600a556002600b553480156200002e57600080fd5b506040516200210f3803806200210f833981016040819052620000519162000479565b8151829082906200006a9060039060208501906200025c565b508051620000809060049060208401906200025c565b5050506200009d620000976200020660201b60201c565b6200020a565b600d80546001600160a01b0319166001600160a01b0385161790556040805163c45a015560e01b81529051737a250d5630b4cf539739df2c5dacb4c659f2488d91829163c45a015591600480820192602092909190829003018186803b1580156200010757600080fd5b505afa1580156200011c573d6000803e3d6000fd5b505050506040513d601f19601f820116820180604052508101906200014291906200050d565b6001600160a01b031663c9c653963073b4fbf271143f4fbf7b91a5ded31805e42b2208d66040518363ffffffff1660e01b81526004016200018592919062000543565b602060405180830381600087803b158015620001a057600080fd5b505af1158015620001b5573d6000803e3d6000fd5b505050506040513d601f19601f82011682018060405250810190620001db91906200050d565b600c80546001600160a01b0319166001600160a01b039290921691909117905550620005b092505050565b3390565b600580546001600160a01b038381166001600160a01b0319831681179093556040519116919082907f8be0079c531659141344cd1fd0a4f28419497f9722a3daafe3b4186f6b6457e090600090a35050565b8280546200026a906200057f565b90600052602060002090601f0160209004810192826200028e5760008555620002d9565b82601f10620002a957805160ff1916838001178555620002d9565b82800160010185558215620002d9579182015b82811115620002d9578251825591602001919060010190620002bc565b50620002e7929150620002eb565b5090565b5b80821115620002e75760008155600101620002ec565b60006001600160a01b0382165b92915050565b620003208162000302565b81146200032c57600080fd5b50565b80516200030f8162000315565b634e487b7160e01b600052604160045260246000fd5b601f19601f83011681016001600160401b03811182821017156200037a576200037a6200033c565b6040525050565b60006200038d60405190565b90506200039b828262000352565b919050565b60006001600160401b03821115620003bc57620003bc6200033c565b601f19601f83011660200192915050565b60005b83811015620003ea578181015183820152602001620003d0565b83811115620003fa576000848401525b50505050565b6000620004176200041184620003a0565b62000381565b905082815260208101848484011115620004345762000434600080fd5b62000441848285620003cd565b509392505050565b600082601f8301126200045f576200045f600080fd5b81516200047184826020860162000400565b949350505050565b600080600060608486031215620004935762000493600080fd5b6000620004a186866200032f565b602086015190945090506001600160401b03811115620004c457620004c4600080fd5b620004d28682870162000449565b604086015190935090506001600160401b03811115620004f557620004f5600080fd5b620005038682870162000449565b9150509250925092565b600060208284031215620005245762000524600080fd5b60006200047184846200032f565b6200053d8162000302565b82525050565b6040810162000553828562000532565b62000562602083018462000532565b9392505050565b634e487b7160e01b600052602260045260246000fd5b6002810460018216806200059457607f821691505b60208210811415620005aa57620005aa62000569565b50919050565b611b4f80620005c06000396000f3fe6080604052600436106101ac5760003560e01c8063910bdaeb116100ec578063bc45c5ea1161008a578063c7876ea411610064578063c7876ea4146104ab578063cb8bf559146104c1578063dd62ed3e146104e1578063f2fde38b1461052757600080fd5b8063bc45c5ea14610453578063c0daad5614610466578063c290d6911461047b57600080fd5b8063a457c2d7116100c6578063a457c2d7146103dd578063a9059cbb146103fd578063ad4ae8c31461041d578063ae1042651461043357600080fd5b8063910bdaeb1461038857806395d89b41146103a85780639cbcc1a8146103bd57600080fd5b8063395093511161015957806370a082311161013357806370a08231146102f7578063715018a61461032d57806379cc6790146103425780638da5cb5b1461036257600080fd5b8063395093511461029557806342966c68146102b557806347b8400a146102d757600080fd5b806323b872dd1161018a57806323b872dd14610227578063295b4e1714610247578063313ce5671461027957600080fd5b806306fdde03146101b1578063095ea7b3146101dc57806318160ddd14610209575b600080fd5b3480156101bd57600080fd5b506101c6610547565b6040516101d391906111a8565b60405180910390f35b3480156101e857600080fd5b506101fc6101f73660046111fa565b6105d9565b6040516101d39190611241565b34801561021557600080fd5b506002545b6040516101d39190611255565b34801561023357600080fd5b506101fc610242366004611263565b6105f3565b34801561025357600080fd5b506005546101fc9074010000000000000000000000000000000000000000900460ff1681565b34801561028557600080fd5b5060126040516101d391906112bc565b3480156102a157600080fd5b506101fc6102b03660046111fa565b61067e565b3480156102c157600080fd5b506102d56102d03660046112ca565b6106bd565b005b3480156102e357600080fd5b506101fc6102f23660046112f3565b6106ca565b34801561030357600080fd5b5061021a610312366004611357565b6001600160a01b031660009081526020819052604090205490565b34801561033957600080fd5b506102d5610752565b34801561034e57600080fd5b506102d561035d3660046111fa565b610766565b34801561036e57600080fd5b506005546001600160a01b03166040516101d39190611381565b34801561039457600080fd5b506102d56103a33660046112ca565b61077f565b3480156103b457600080fd5b506101c66107ab565b3480156103c957600080fd5b506101fc6103d83660046112ca565b6107ba565b3480156103e957600080fd5b506101fc6103f83660046111fa565b610832565b34801561040957600080fd5b506101fc6104183660046111fa565b61088f565b34801561042957600080fd5b5061021a600b5481565b34801561043f57600080fd5b5061021a61044e3660046112ca565b6108e3565b6101fc61046136600461138f565b610923565b34801561047257600080fd5b506102d5610b23565b34801561048757600080fd5b5061049b6104963660046112ca565b610b41565b6040516101d39493929190611407565b3480156104b757600080fd5b5061021a600a5481565b3480156104cd57600080fd5b506102d56104dc3660046112f3565b610c46565b3480156104ed57600080fd5b5061021a6104fc36600461143c565b6001600160a01b03918216600090815260016020908152604080832093909416825291909152205490565b34801561053357600080fd5b506102d5610542366004611357565b610d0e565b6060600380546105569061149e565b80601f01602080910402602001604051908101604052809291908181526020018280546105829061149e565b80156105cf5780601f106105a4576101008083540402835291602001916105cf565b820191906000526020600020905b8154815290600101906020018083116105b257829003601f168201915b5050505050905090565b6000336105e7818585610d45565b60019150505b92915050565b600033610601858285610df9565b6106368573791f1cfb231e7c75eee4b7f8913e3c2b3548eb936106266103e887611529565b61063190600561153d565b610e5b565b610656856106466103e886611529565b61065190600a61153d565b610f4b565b61067385856106676103e887611529565b610631906103d961153d565b506001949350505050565b3360008181526001602090815260408083206001600160a01b03871684529091528120549091906105e790829086906106b890879061155c565b610d45565b6106c73382610f4b565b50565b60006106d4611002565b6106df8585856105f3565b50600680549060006106f083611574565b909155505050600090815260076020908152604080832080547fffffffffffffffffffffffff00000000000000000000000000000000000000009081169091556008835281842084905560099092529091208054909116905550600192915050565b61075a611002565b610764600061102c565b565b610771823383610df9565b61077b8282610f4b565b5050565b610787611002565b80600a5411156106c75780600a60008282546107a3919061158b565b909155505050565b6060600480546105569061149e565b60006107c4611002565b600680549060006107d483611574565b909155505050600090815260076020908152604080832080547fffffffffffffffffffffffff000000000000000000000000000000000000000090811690915560088352818420849055600990925290912080549091169055600190565b3360008181526001602090815260408083206001600160a01b0387168452909152812054909190838110156108825760405162461bcd60e51b8152600401610879906115fc565b60405180910390fd5b6106738286868403610d45565b6000336108ad816108a26103e886611529565b61065190600561153d565b6108d28173791f1cfb231e7c75eee4b7f8913e3c2b3548eb936106266103e887611529565b6105e781856106676103e887611529565b600080600b5460016108f5919061155c565b600a54610902919061153d565b61090c908461153d565b905061091c6305f5e10082611529565b9392505050565b60008085116109445760405162461bcd60e51b815260040161087990611640565b600061094f866108e3565b9050803410156109715760405162461bcd60e51b8152600401610879906116a8565b846001600160a01b031663c0daad566040518163ffffffff1660e01b8152600401600060405180830381600087803b1580156109ac57600080fd5b505af11580156109c0573d6000803e3d6000fd5b50505050836001600160a01b031663c0daad566040518163ffffffff1660e01b8152600401600060405180830381600087803b1580156109ff57600080fd5b505af1158015610a13573d6000803e3d6000fd5b50505050826001600160a01b031663c0daad566040518163ffffffff1660e01b8152600401600060405180830381600087803b158015610a5257600080fd5b505af1158015610a66573d6000803e3d6000fd5b5050600d54604051600093508392506001600160a01b039091169034908381818185875af1925050503d8060008114610abb576040519150601f19603f3d011682016040523d82523d6000602084013e610ac0565b606091505b509150915081610ae25760405162461bcd60e51b8152600401610879906116ea565b610aec8989611096565b600d54610b129030906001600160a01b03166d04ee2d6d415b85acef8100000000610d45565b600193505050505b95945050505050565b333b1561076457600a8054906000610b3a836116fa565b9190505550565b600080600080610b4f611002565b84421015610b5c57600080fd5b60065415610bff57600654600a8110610b735750600a5b505060008080527f6d5257204ebe7d88fd91ae87941cb2dd9d8062b64ae5a2bd2d28ec40b9fbf6df547f5eff886ea0ce6ca488a3d6e336d6c0f75f46d19b42c06ce5ee98e42c96d256c75460096020527fec8156718a8372b1db44bb411437d0870f3e3790d4a08526d024ce1b0b668f6b546001600160a01b0392831696509190911693509150610c3f565b600580547fffffffffffffffffffffff00ffffffffffffffffffffffffffffffffffffffff16740100000000000000000000000000000000000000001790555b9193509193565b610c4e611002565b804211610c7e57600580547fffffffffffffffffffffff00ffffffffffffffffffffffffffffffffffffffff1690555b610cf384848460068054600090815260076020908152604080832080546001600160a01b039889167fffffffffffffffffffffffff0000000000000000000000000000000000000000918216179091558454845260088352818420959095559254825260099052208054929093169116179055565b60068054906000610d03836116fa565b919050555050505050565b610d16611002565b6001600160a01b038116610d3c5760405162461bcd60e51b81526004016108799061176d565b6106c78161102c565b6001600160a01b038316610d6b5760405162461bcd60e51b8152600401610879906117d5565b6001600160a01b038216610d915760405162461bcd60e51b81526004016108799061183d565b6001600160a01b0380841660008181526001602090815260408083209487168084529490915290819020849055517f8c5be1e5ebec7d5bd14f71427d1e84f3dd0314c0f7b2291e5b200ac8c7c3b92590610dec908590611255565b60405180910390a3505050565b6001600160a01b038381166000908152600160209081526040808320938616835292905220546000198114610e555781811015610e485760405162461bcd60e51b81526004016108799061187f565b610e558484848403610d45565b50505050565b6001600160a01b038316610e815760405162461bcd60e51b8152600401610879906118e7565b6001600160a01b038216610ea75760405162461bcd60e51b81526004016108799061194f565b6001600160a01b03831660009081526020819052604090205481811015610ee05760405162461bcd60e51b8152600401610879906119b7565b6001600160a01b0380851660008181526020819052604080822086860390559286168082529083902080548601905591517fddf252ad1be2c89b69c2b068fc378daa952ba7f163c4a11628f55a4df523b3ef90610f3e908690611255565b60405180910390a3610e55565b6001600160a01b038216610f715760405162461bcd60e51b815260040161087990611a1f565b6001600160a01b03821660009081526020819052604090205481811015610faa5760405162461bcd60e51b815260040161087990611a87565b6001600160a01b0383166000818152602081905260408082208585039055600280548690039055519091907fddf252ad1be2c89b69c2b068fc378daa952ba7f163c4a11628f55a4df523b3ef90610dec908690611255565b6005546001600160a01b031633146107645760405162461bcd60e51b815260040161087990611ac7565b600580546001600160a01b038381167fffffffffffffffffffffffff0000000000000000000000000000000000000000831681179093556040519116919082907f8be0079c531659141344cd1fd0a4f28419497f9722a3daafe3b4186f6b6457e090600090a35050565b6001600160a01b0382166110bc5760405162461bcd60e51b815260040161087990611b09565b80600260008282546110ce919061155c565b90915550506001600160a01b038216600081815260208190526040808220805485019055517fddf252ad1be2c89b69c2b068fc378daa952ba7f163c4a11628f55a4df523b3ef90611120908590611255565b60405180910390a35050565b60005b8381101561114757818101518382015260200161112f565b83811115610e555750506000910152565b6000611162825190565b80845260208401935061117981856020860161112c565b601f017fffffffffffffffffffffffffffffffffffffffffffffffffffffffffffffffe0169290920192915050565b6020808252810161091c8184611158565b60006001600160a01b0382166105ed565b6111d3816111b9565b81146106c757600080fd5b80356105ed816111ca565b806111d3565b80356105ed816111e9565b6000806040838503121561121057611210600080fd5b600061121c85856111de565b925050602061122d858286016111ef565b9150509250929050565b8015155b82525050565b602081016105ed8284611237565b8061123b565b602081016105ed828461124f565b60008060006060848603121561127b5761127b600080fd5b600061128786866111de565b9350506020611298868287016111de565b92505060406112a9868287016111ef565b9150509250925092565b60ff811661123b565b602081016105ed82846112b3565b6000602082840312156112df576112df600080fd5b60006112eb84846111ef565b949350505050565b6000806000806080858703121561130c5761130c600080fd5b600061131887876111de565b9450506020611329878288016111de565b935050604061133a878288016111ef565b925050606061134b878288016111ef565b91505092959194509250565b60006020828403121561136c5761136c600080fd5b60006112eb84846111de565b61123b816111b9565b602081016105ed8284611378565b600080600080600060a086880312156113aa576113aa600080fd5b60006113b688886111de565b95505060206113c7888289016111ef565b94505060406113d8888289016111de565b93505060606113e9888289016111de565b92505060806113fa888289016111de565b9150509295509295909350565b608081016114158287611378565b6114226020830186611378565b61142f604083018561124f565b610b1a606083018461124f565b6000806040838503121561145257611452600080fd5b600061145e85856111de565b925050602061122d858286016111de565b7f4e487b7100000000000000000000000000000000000000000000000000000000600052602260045260246000fd5b6002810460018216806114b257607f821691505b602082108114156114c5576114c561146f565b50919050565b7f4e487b7100000000000000000000000000000000000000000000000000000000600052601260045260246000fd5b7f4e487b7100000000000000000000000000000000000000000000000000000000600052601160045260246000fd5b600082611538576115386114cb565b500490565b6000816000190483118215151615611557576115576114fa565b500290565b6000821982111561156f5761156f6114fa565b500190565b600081611583576115836114fa565b506000190190565b60008282101561159d5761159d6114fa565b500390565b60258152602081017f45524332303a2064656372656173656420616c6c6f77616e63652062656c6f7781527f207a65726f000000000000000000000000000000000000000000000000000000602082015290505b60400190565b602080825281016105ed816115a2565b601d8152602081017f416d6f756e74206d7573742062652067726561746572207468616e2030000000815290505b60200190565b602080825281016105ed8161160c565b602c8152602081017f496e73756666696369656e742066756e647320746f2070617920666f72206d6981527f6e74656420746f6b656e732e0000000000000000000000000000000000000000602082015290506115f6565b602080825281016105ed81611650565b60148152602081017f4661696c656420746f2073656e642045746865720000000000000000000000008152905061163a565b602080825281016105ed816116b8565b600060001982141561170e5761170e6114fa565b5060010190565b60268152602081017f4f776e61626c653a206e6577206f776e657220697320746865207a65726f206181527f6464726573730000000000000000000000000000000000000000000000000000602082015290506115f6565b602080825281016105ed81611715565b60248152602081017f45524332303a20617070726f76652066726f6d20746865207a65726f2061646481527f7265737300000000000000000000000000000000000000000000000000000000602082015290506115f6565b602080825281016105ed8161177d565b60228152602081017f45524332303a20617070726f766520746f20746865207a65726f20616464726581527f7373000000000000000000000000000000000000000000000000000000000000602082015290506115f6565b602080825281016105ed816117e5565b601d8152602081017f45524332303a20696e73756666696369656e7420616c6c6f77616e63650000008152905061163a565b602080825281016105ed8161184d565b60258152602081017f45524332303a207472616e736665722066726f6d20746865207a65726f20616481527f6472657373000000000000000000000000000000000000000000000000000000602082015290506115f6565b602080825281016105ed8161188f565b60238152602081017f45524332303a207472616e7366657220746f20746865207a65726f206164647281527f6573730000000000000000000000000000000000000000000000000000000000602082015290506115f6565b602080825281016105ed816118f7565b60268152602081017f45524332303a207472616e7366657220616d6f756e742065786365656473206281527f616c616e63650000000000000000000000000000000000000000000000000000602082015290506115f6565b602080825281016105ed8161195f565b60218152602081017f45524332303a206275726e2066726f6d20746865207a65726f2061646472657381527f7300000000000000000000000000000000000000000000000000000000000000602082015290506115f6565b602080825281016105ed816119c7565b60228152602081017f45524332303a206275726e20616d6f756e7420657863656564732062616c616e81527f6365000000000000000000000000000000000000000000000000000000000000602082015290506115f6565b602080825281016105ed81611a2f565b60208082527f4f776e61626c653a2063616c6c6572206973206e6f7420746865206f776e6572910190815261163a565b602080825281016105ed81611a97565b601f8152602081017f45524332303a206d696e7420746f20746865207a65726f2061646472657373008152905061163a565b602080825281016105ed81611ad756fea2646970667358221220e9b535dc99277e7c1c7aed1b1999c58a085cc0911464968a00a0e470294f2dbb64736f6c63430008090033",
  "linkReferences": {},
  "deployedLinkReferences": {}
}